{
	"contracts/PeliWalletFacade.sol": {
		"PeliWalletFacade": {
			"abi": [
				{
					"inputs": [
						{
							"internalType": "address",
							"name": "pelicoinAddress",
							"type": "address"
						}
					],
					"stateMutability": "nonpayable",
					"type": "constructor"
				},
				{
					"anonymous": false,
					"inputs": [
						{
							"indexed": true,
							"internalType": "address",
							"name": "previousOwner",
							"type": "address"
						},
						{
							"indexed": true,
							"internalType": "address",
							"name": "newOwner",
							"type": "address"
						}
					],
					"name": "OwnershipTransferred",
					"type": "event"
				},
				{
					"anonymous": false,
					"inputs": [
						{
							"indexed": false,
							"internalType": "address",
							"name": "account",
							"type": "address"
						}
					],
					"name": "Paused",
					"type": "event"
				},
				{
					"anonymous": false,
					"inputs": [
						{
							"indexed": false,
							"internalType": "address",
							"name": "account",
							"type": "address"
						}
					],
					"name": "Unpaused",
					"type": "event"
				},
				{
					"inputs": [
						{
							"internalType": "address",
							"name": "from",
							"type": "address"
						},
						{
							"internalType": "address",
							"name": "to",
							"type": "address"
						},
						{
							"internalType": "uint256",
							"name": "amount",
							"type": "uint256"
						}
					],
					"name": "addTransaction",
					"outputs": [],
					"stateMutability": "nonpayable",
					"type": "function"
				},
				{
					"inputs": [],
					"name": "getBalance",
					"outputs": [
						{
							"internalType": "uint256",
							"name": "",
							"type": "uint256"
						}
					],
					"stateMutability": "view",
					"type": "function"
				},
				{
					"inputs": [],
					"name": "getTokenAddress",
					"outputs": [
						{
							"internalType": "address",
							"name": "",
							"type": "address"
						}
					],
					"stateMutability": "view",
					"type": "function"
				},
				{
					"inputs": [
						{
							"internalType": "uint256",
							"name": "index",
							"type": "uint256"
						}
					],
					"name": "getTransaction",
					"outputs": [
						{
							"components": [
								{
									"internalType": "address",
									"name": "from",
									"type": "address"
								},
								{
									"internalType": "address",
									"name": "to",
									"type": "address"
								},
								{
									"internalType": "uint256",
									"name": "amount",
									"type": "uint256"
								},
								{
									"internalType": "uint256",
									"name": "timestamp",
									"type": "uint256"
								}
							],
							"internalType": "struct Transactions.Transaction",
							"name": "",
							"type": "tuple"
						}
					],
					"stateMutability": "view",
					"type": "function"
				},
				{
					"inputs": [],
					"name": "getTransactionHistory",
					"outputs": [
						{
							"components": [
								{
									"internalType": "address",
									"name": "from",
									"type": "address"
								},
								{
									"internalType": "address",
									"name": "to",
									"type": "address"
								},
								{
									"internalType": "uint256",
									"name": "amount",
									"type": "uint256"
								},
								{
									"internalType": "uint256",
									"name": "timestamp",
									"type": "uint256"
								}
							],
							"internalType": "struct Transactions.Transaction[]",
							"name": "",
							"type": "tuple[]"
						}
					],
					"stateMutability": "view",
					"type": "function"
				},
				{
					"inputs": [],
					"name": "getTransactionsLength",
					"outputs": [
						{
							"internalType": "uint256",
							"name": "",
							"type": "uint256"
						}
					],
					"stateMutability": "view",
					"type": "function"
				},
				{
					"inputs": [],
					"name": "owner",
					"outputs": [
						{
							"internalType": "address",
							"name": "",
							"type": "address"
						}
					],
					"stateMutability": "view",
					"type": "function"
				},
				{
					"inputs": [],
					"name": "pause",
					"outputs": [],
					"stateMutability": "nonpayable",
					"type": "function"
				},
				{
					"inputs": [],
					"name": "paused",
					"outputs": [
						{
							"internalType": "bool",
							"name": "",
							"type": "bool"
						}
					],
					"stateMutability": "view",
					"type": "function"
				},
				{
					"inputs": [],
					"name": "renounceOwnership",
					"outputs": [],
					"stateMutability": "nonpayable",
					"type": "function"
				},
				{
					"inputs": [
						{
							"internalType": "address",
							"name": "newOwner",
							"type": "address"
						}
					],
					"name": "transferOwnership",
					"outputs": [],
					"stateMutability": "nonpayable",
					"type": "function"
				},
				{
					"inputs": [
						{
							"internalType": "address",
							"name": "to",
							"type": "address"
						},
						{
							"internalType": "uint256",
							"name": "amount",
							"type": "uint256"
						}
					],
					"name": "transferTokens",
					"outputs": [],
					"stateMutability": "nonpayable",
					"type": "function"
				},
				{
					"inputs": [],
					"name": "unpause",
					"outputs": [],
					"stateMutability": "nonpayable",
					"type": "function"
				}
			],
			"devdoc": {
				"kind": "dev",
				"methods": {
					"owner()": {
						"details": "Returns the address of the current owner."
					},
					"paused()": {
						"details": "Returns true if the contract is paused, and false otherwise."
					},
					"renounceOwnership()": {
						"details": "Leaves the contract without owner. It will not be possible to call `onlyOwner` functions anymore. Can only be called by the current owner. NOTE: Renouncing ownership will leave the contract without an owner, thereby removing any functionality that is only available to the owner."
					},
					"transferOwnership(address)": {
						"details": "Transfers ownership of the contract to a new account (`newOwner`). Can only be called by the current owner."
					}
				},
				"version": 1
			},
			"evm": {
				"assembly": "    /* \"contracts/PeliWalletFacade.sol\":383:2995  contract PeliWalletFacade is Ownable, Pausable, ReentrancyGuard{... */\n  mstore(0x40, 0x80)\n    /* \"contracts/PeliWalletFacade.sol\":613:753  constructor(address pelicoinAddress){... */\n  callvalue\n  dup1\n  iszero\n  tag_1\n  jumpi\n  0x00\n  dup1\n  revert\ntag_1:\n  pop\n  mload(0x40)\n  sub(codesize, bytecodeSize)\n  dup1\n  bytecodeSize\n  dup4\n  codecopy\n  dup2\n  dup2\n  add\n  0x40\n  mstore\n  dup2\n  add\n  swap1\n  tag_2\n  swap2\n  swap1\n  tag_3\n  jump\t// in\ntag_2:\n    /* \"@openzeppelin/contracts/access/Ownable.sol\":936:968  _transferOwnership(_msgSender()) */\n  tag_9\n    /* \"@openzeppelin/contracts/access/Ownable.sol\":955:967  _msgSender() */\n  tag_10\n    /* \"@openzeppelin/contracts/access/Ownable.sol\":955:965  _msgSender */\n  shl(0x20, tag_11)\n    /* \"@openzeppelin/contracts/access/Ownable.sol\":955:967  _msgSender() */\n  0x20\n  shr\n  jump\t// in\ntag_10:\n    /* \"@openzeppelin/contracts/access/Ownable.sol\":936:954  _transferOwnership */\n  shl(0x20, tag_12)\n    /* \"@openzeppelin/contracts/access/Ownable.sol\":936:968  _transferOwnership(_msgSender()) */\n  0x20\n  shr\n  jump\t// in\ntag_9:\n    /* \"@openzeppelin/contracts/security/Pausable.sol\":1006:1011  false */\n  0x00\n    /* \"@openzeppelin/contracts/security/Pausable.sol\":996:1003  _paused */\n  dup1\n  0x14\n    /* \"@openzeppelin/contracts/security/Pausable.sol\":996:1011  _paused = false */\n  0x0100\n  exp\n  dup2\n  sload\n  dup2\n  0xff\n  mul\n  not\n  and\n  swap1\n  dup4\n  iszero\n  iszero\n  mul\n  or\n  swap1\n  sstore\n  pop\n    /* \"@openzeppelin/contracts/security/ReentrancyGuard.sol\":1716:1717  1 */\n  0x01\n    /* \"@openzeppelin/contracts/security/ReentrancyGuard.sol\":1821:1828  _status */\n  dup1\n    /* \"@openzeppelin/contracts/security/ReentrancyGuard.sol\":1821:1843  _status = _NOT_ENTERED */\n  dup2\n  swap1\n  sstore\n  pop\n    /* \"contracts/PeliWalletFacade.sol\":682:700  new Transactions() */\n  mload(0x40)\n  tag_16\n  swap1\n  tag_17\n  jump\t// in\ntag_16:\n  mload(0x40)\n  dup1\n  swap2\n  sub\n  swap1\n  0x00\n  create\n  dup1\n  iszero\n  dup1\n  iszero\n  tag_18\n  jumpi\n  returndatasize\n  0x00\n  dup1\n  returndatacopy\n  revert(0x00, returndatasize)\ntag_18:\n  pop\n    /* \"contracts/PeliWalletFacade.sol\":660:679  transactionsManager */\n  0x02\n  0x00\n    /* \"contracts/PeliWalletFacade.sol\":660:700  transactionsManager = new Transactions() */\n  0x0100\n  exp\n  dup2\n  sload\n  dup2\n  0xffffffffffffffffffffffffffffffffffffffff\n  mul\n  not\n  and\n  swap1\n  dup4\n  0xffffffffffffffffffffffffffffffffffffffff\n  and\n  mul\n  or\n  swap1\n  sstore\n  pop\n    /* \"contracts/PeliWalletFacade.sol\":729:744  pelicoinAddress */\n  dup1\n    /* \"contracts/PeliWalletFacade.sol\":711:719  pelicoin */\n  0x03\n  0x00\n    /* \"contracts/PeliWalletFacade.sol\":711:745  pelicoin = IERC20(pelicoinAddress) */\n  0x0100\n  exp\n  dup2\n  sload\n  dup2\n  0xffffffffffffffffffffffffffffffffffffffff\n  mul\n  not\n  and\n  swap1\n  dup4\n  0xffffffffffffffffffffffffffffffffffffffff\n  and\n  mul\n  or\n  swap1\n  sstore\n  pop\n    /* \"contracts/PeliWalletFacade.sol\":613:753  constructor(address pelicoinAddress){... */\n  pop\n    /* \"contracts/PeliWalletFacade.sol\":383:2995  contract PeliWalletFacade is Ownable, Pausable, ReentrancyGuard{... */\n  jump(tag_19)\n    /* \"@openzeppelin/contracts/utils/Context.sol\":640:736  function _msgSender() internal view virtual returns (address) {... */\ntag_11:\n    /* \"@openzeppelin/contracts/utils/Context.sol\":693:700  address */\n  0x00\n    /* \"@openzeppelin/contracts/utils/Context.sol\":719:729  msg.sender */\n  caller\n    /* \"@openzeppelin/contracts/utils/Context.sol\":712:729  return msg.sender */\n  swap1\n  pop\n    /* \"@openzeppelin/contracts/utils/Context.sol\":640:736  function _msgSender() internal view virtual returns (address) {... */\n  swap1\n  jump\t// out\n    /* \"@openzeppelin/contracts/access/Ownable.sol\":2433:2620  function _transferOwnership(address newOwner) internal virtual {... */\ntag_12:\n    /* \"@openzeppelin/contracts/access/Ownable.sol\":2506:2522  address oldOwner */\n  0x00\n    /* \"@openzeppelin/contracts/access/Ownable.sol\":2525:2531  _owner */\n  dup1\n  0x00\n  swap1\n  sload\n  swap1\n  0x0100\n  exp\n  swap1\n  div\n  0xffffffffffffffffffffffffffffffffffffffff\n  and\n    /* \"@openzeppelin/contracts/access/Ownable.sol\":2506:2531  address oldOwner = _owner */\n  swap1\n  pop\n    /* \"@openzeppelin/contracts/access/Ownable.sol\":2550:2558  newOwner */\n  dup2\n    /* \"@openzeppelin/contracts/access/Ownable.sol\":2541:2547  _owner */\n  0x00\n  dup1\n    /* \"@openzeppelin/contracts/access/Ownable.sol\":2541:2558  _owner = newOwner */\n  0x0100\n  exp\n  dup2\n  sload\n  dup2\n  0xffffffffffffffffffffffffffffffffffffffff\n  mul\n  not\n  and\n  swap1\n  dup4\n  0xffffffffffffffffffffffffffffffffffffffff\n  and\n  mul\n  or\n  swap1\n  sstore\n  pop\n    /* \"@openzeppelin/contracts/access/Ownable.sol\":2604:2612  newOwner */\n  dup2\n    /* \"@openzeppelin/contracts/access/Ownable.sol\":2573:2613  OwnershipTransferred(oldOwner, newOwner) */\n  0xffffffffffffffffffffffffffffffffffffffff\n  and\n    /* \"@openzeppelin/contracts/access/Ownable.sol\":2594:2602  oldOwner */\n  dup2\n    /* \"@openzeppelin/contracts/access/Ownable.sol\":2573:2613  OwnershipTransferred(oldOwner, newOwner) */\n  0xffffffffffffffffffffffffffffffffffffffff\n  and\n  0x8be0079c531659141344cd1fd0a4f28419497f9722a3daafe3b4186f6b6457e0\n  mload(0x40)\n  mload(0x40)\n  dup1\n  swap2\n  sub\n  swap1\n  log3\n    /* \"@openzeppelin/contracts/access/Ownable.sol\":2496:2620  {... */\n  pop\n    /* \"@openzeppelin/contracts/access/Ownable.sol\":2433:2620  function _transferOwnership(address newOwner) internal virtual {... */\n  pop\n  jump\t// out\n    /* \"contracts/PeliWalletFacade.sol\":383:2995  contract PeliWalletFacade is Ownable, Pausable, ReentrancyGuard{... */\ntag_17:\n  dataSize(sub_1)\n  dup1\n  dataOffset(sub_1)\n  dup4\n  codecopy\n  add\n  swap1\n  jump\t// out\n    /* \"#utility.yul\":88:205   */\ntag_23:\n    /* \"#utility.yul\":197:198   */\n  0x00\n    /* \"#utility.yul\":194:195   */\n  dup1\n    /* \"#utility.yul\":187:199   */\n  revert\n    /* \"#utility.yul\":334:460   */\ntag_25:\n    /* \"#utility.yul\":371:378   */\n  0x00\n    /* \"#utility.yul\":411:453   */\n  0xffffffffffffffffffffffffffffffffffffffff\n    /* \"#utility.yul\":404:409   */\n  dup3\n    /* \"#utility.yul\":400:454   */\n  and\n    /* \"#utility.yul\":389:454   */\n  swap1\n  pop\n    /* \"#utility.yul\":334:460   */\n  swap2\n  swap1\n  pop\n  jump\t// out\n    /* \"#utility.yul\":466:562   */\ntag_26:\n    /* \"#utility.yul\":503:510   */\n  0x00\n    /* \"#utility.yul\":532:556   */\n  tag_35\n    /* \"#utility.yul\":550:555   */\n  dup3\n    /* \"#utility.yul\":532:556   */\n  tag_25\n  jump\t// in\ntag_35:\n    /* \"#utility.yul\":521:556   */\n  swap1\n  pop\n    /* \"#utility.yul\":466:562   */\n  swap2\n  swap1\n  pop\n  jump\t// out\n    /* \"#utility.yul\":568:690   */\ntag_27:\n    /* \"#utility.yul\":641:665   */\n  tag_37\n    /* \"#utility.yul\":659:664   */\n  dup2\n    /* \"#utility.yul\":641:665   */\n  tag_26\n  jump\t// in\ntag_37:\n    /* \"#utility.yul\":634:639   */\n  dup2\n    /* \"#utility.yul\":631:666   */\n  eq\n    /* \"#utility.yul\":621:684   */\n  tag_38\n  jumpi\n    /* \"#utility.yul\":680:681   */\n  0x00\n    /* \"#utility.yul\":677:678   */\n  dup1\n    /* \"#utility.yul\":670:682   */\n  revert\n    /* \"#utility.yul\":621:684   */\ntag_38:\n    /* \"#utility.yul\":568:690   */\n  pop\n  jump\t// out\n    /* \"#utility.yul\":696:839   */\ntag_28:\n    /* \"#utility.yul\":753:758   */\n  0x00\n    /* \"#utility.yul\":784:790   */\n  dup2\n    /* \"#utility.yul\":778:791   */\n  mload\n    /* \"#utility.yul\":769:791   */\n  swap1\n  pop\n    /* \"#utility.yul\":800:833   */\n  tag_40\n    /* \"#utility.yul\":827:832   */\n  dup2\n    /* \"#utility.yul\":800:833   */\n  tag_27\n  jump\t// in\ntag_40:\n    /* \"#utility.yul\":696:839   */\n  swap3\n  swap2\n  pop\n  pop\n  jump\t// out\n    /* \"#utility.yul\":845:1196   */\ntag_3:\n    /* \"#utility.yul\":915:921   */\n  0x00\n    /* \"#utility.yul\":964:966   */\n  0x20\n    /* \"#utility.yul\":952:961   */\n  dup3\n    /* \"#utility.yul\":943:950   */\n  dup5\n    /* \"#utility.yul\":939:962   */\n  sub\n    /* \"#utility.yul\":935:967   */\n  slt\n    /* \"#utility.yul\":932:1051   */\n  iszero\n  tag_42\n  jumpi\n    /* \"#utility.yul\":970:1049   */\n  tag_43\n  tag_23\n  jump\t// in\ntag_43:\n    /* \"#utility.yul\":932:1051   */\ntag_42:\n    /* \"#utility.yul\":1090:1091   */\n  0x00\n    /* \"#utility.yul\":1115:1179   */\n  tag_44\n    /* \"#utility.yul\":1171:1178   */\n  dup5\n    /* \"#utility.yul\":1162:1168   */\n  dup3\n    /* \"#utility.yul\":1151:1160   */\n  dup6\n    /* \"#utility.yul\":1147:1169   */\n  add\n    /* \"#utility.yul\":1115:1179   */\n  tag_28\n  jump\t// in\ntag_44:\n    /* \"#utility.yul\":1105:1179   */\n  swap2\n  pop\n    /* \"#utility.yul\":1061:1189   */\n  pop\n    /* \"#utility.yul\":845:1196   */\n  swap3\n  swap2\n  pop\n  pop\n  jump\t// out\n    /* \"contracts/PeliWalletFacade.sol\":383:2995  contract PeliWalletFacade is Ownable, Pausable, ReentrancyGuard{... */\ntag_19:\n  dataSize(sub_0)\n  dup1\n  dataOffset(sub_0)\n  0x00\n  codecopy\n  0x00\n  return\nstop\n\nsub_0: assembly {\n        /* \"contracts/PeliWalletFacade.sol\":383:2995  contract PeliWalletFacade is Ownable, Pausable, ReentrancyGuard{... */\n      mstore(0x40, 0x80)\n      callvalue\n      dup1\n      iszero\n      tag_1\n      jumpi\n      0x00\n      dup1\n      revert\n    tag_1:\n      pop\n      jumpi(tag_2, lt(calldatasize, 0x04))\n      shr(0xe0, calldataload(0x00))\n      dup1\n      0x8456cb59\n      gt\n      tag_16\n      jumpi\n      dup1\n      0xbec3fa17\n      gt\n      tag_17\n      jumpi\n      dup1\n      0xbec3fa17\n      eq\n      tag_12\n      jumpi\n      dup1\n      0xf2193627\n      eq\n      tag_13\n      jumpi\n      dup1\n      0xf2fde38b\n      eq\n      tag_14\n      jumpi\n      dup1\n      0xfe73b27f\n      eq\n      tag_15\n      jumpi\n      jump(tag_2)\n    tag_17:\n      dup1\n      0x8456cb59\n      eq\n      tag_9\n      jumpi\n      dup1\n      0x8da5cb5b\n      eq\n      tag_10\n      jumpi\n      dup1\n      0xb76d4fc3\n      eq\n      tag_11\n      jumpi\n      jump(tag_2)\n    tag_16:\n      dup1\n      0x10fe9ae8\n      eq\n      tag_3\n      jumpi\n      dup1\n      0x12065fe0\n      eq\n      tag_4\n      jumpi\n      dup1\n      0x33ea3dc8\n      eq\n      tag_5\n      jumpi\n      dup1\n      0x3f4ba83a\n      eq\n      tag_6\n      jumpi\n      dup1\n      0x5c975abb\n      eq\n      tag_7\n      jumpi\n      dup1\n      0x715018a6\n      eq\n      tag_8\n      jumpi\n    tag_2:\n      0x00\n      dup1\n      revert\n        /* \"contracts/PeliWalletFacade.sol\":826:935  function getTokenAddress() external view returns (address){... */\n    tag_3:\n      tag_18\n      tag_19\n      jump\t// in\n    tag_18:\n      mload(0x40)\n      tag_20\n      swap2\n      swap1\n      tag_21\n      jump\t// in\n    tag_20:\n      mload(0x40)\n      dup1\n      swap2\n      sub\n      swap1\n      return\n        /* \"contracts/PeliWalletFacade.sol\":1804:1924  function getBalance() external view returns (uint256){... */\n    tag_4:\n      tag_22\n      tag_23\n      jump\t// in\n    tag_22:\n      mload(0x40)\n      tag_24\n      swap2\n      swap1\n      tag_25\n      jump\t// in\n    tag_24:\n      mload(0x40)\n      dup1\n      swap2\n      sub\n      swap1\n      return\n        /* \"contracts/PeliWalletFacade.sol\":2288:2457  function getTransaction(uint256 index) external view returns (Transactions.Transaction memory){... */\n    tag_5:\n      tag_26\n      0x04\n      dup1\n      calldatasize\n      sub\n      dup2\n      add\n      swap1\n      tag_27\n      swap2\n      swap1\n      tag_28\n      jump\t// in\n    tag_27:\n      tag_29\n      jump\t// in\n    tag_26:\n      mload(0x40)\n      tag_30\n      swap2\n      swap1\n      tag_31\n      jump\t// in\n    tag_30:\n      mload(0x40)\n      dup1\n      swap2\n      sub\n      swap1\n      return\n        /* \"contracts/PeliWalletFacade.sol\":2939:2992  function unpause() external onlyOwner { _unpause(); } */\n    tag_6:\n      tag_32\n      tag_33\n      jump\t// in\n    tag_32:\n      stop\n        /* \"@openzeppelin/contracts/security/Pausable.sol\":1615:1699  function paused() public view virtual returns (bool) {... */\n    tag_7:\n      tag_34\n      tag_35\n      jump\t// in\n    tag_34:\n      mload(0x40)\n      tag_36\n      swap2\n      swap1\n      tag_37\n      jump\t// in\n    tag_36:\n      mload(0x40)\n      dup1\n      swap2\n      sub\n      swap1\n      return\n        /* \"@openzeppelin/contracts/access/Ownable.sol\":1831:1932  function renounceOwnership() public virtual onlyOwner {... */\n    tag_8:\n      tag_38\n      tag_39\n      jump\t// in\n    tag_38:\n      stop\n        /* \"contracts/PeliWalletFacade.sol\":2802:2853  function pause()   external onlyOwner { _pause(); } */\n    tag_9:\n      tag_40\n      tag_41\n      jump\t// in\n    tag_40:\n      stop\n        /* \"@openzeppelin/contracts/access/Ownable.sol\":1201:1286  function owner() public view virtual returns (address) {... */\n    tag_10:\n      tag_42\n      tag_43\n      jump\t// in\n    tag_42:\n      mload(0x40)\n      tag_44\n      swap2\n      swap1\n      tag_21\n      jump\t// in\n    tag_44:\n      mload(0x40)\n      dup1\n      swap2\n      sub\n      swap1\n      return\n        /* \"contracts/PeliWalletFacade.sol\":2510:2677  function getTransactionHistory() external view returns (Transactions.Transaction[] memory){... */\n    tag_11:\n      tag_45\n      tag_46\n      jump\t// in\n    tag_45:\n      mload(0x40)\n      tag_47\n      swap2\n      swap1\n      tag_48\n      jump\t// in\n    tag_47:\n      mload(0x40)\n      dup1\n      swap2\n      sub\n      swap1\n      return\n        /* \"contracts/PeliWalletFacade.sol\":1032:1504  function transferTokens(address to, uint256 amount) external whenNotPaused onlyOwner nonReentrant{... */\n    tag_12:\n      tag_49\n      0x04\n      dup1\n      calldatasize\n      sub\n      dup2\n      add\n      swap1\n      tag_50\n      swap2\n      swap1\n      tag_51\n      jump\t// in\n    tag_50:\n      tag_52\n      jump\t// in\n    tag_49:\n      stop\n        /* \"contracts/PeliWalletFacade.sol\":2046:2193  function getTransactionsLength() external view returns (uint256){... */\n    tag_13:\n      tag_53\n      tag_54\n      jump\t// in\n    tag_53:\n      mload(0x40)\n      tag_55\n      swap2\n      swap1\n      tag_25\n      jump\t// in\n    tag_55:\n      mload(0x40)\n      dup1\n      swap2\n      sub\n      swap1\n      return\n        /* \"@openzeppelin/contracts/access/Ownable.sol\":2081:2279  function transferOwnership(address newOwner) public virtual onlyOwner {... */\n    tag_14:\n      tag_56\n      0x04\n      dup1\n      calldatasize\n      sub\n      dup2\n      add\n      swap1\n      tag_57\n      swap2\n      swap1\n      tag_58\n      jump\t// in\n    tag_57:\n      tag_59\n      jump\t// in\n    tag_56:\n      stop\n        /* \"contracts/PeliWalletFacade.sol\":1555:1758  function addTransaction(address from, address to, uint256 amount) external ... */\n    tag_15:\n      tag_60\n      0x04\n      dup1\n      calldatasize\n      sub\n      dup2\n      add\n      swap1\n      tag_61\n      swap2\n      swap1\n      tag_62\n      jump\t// in\n    tag_61:\n      tag_63\n      jump\t// in\n    tag_60:\n      stop\n        /* \"contracts/PeliWalletFacade.sol\":826:935  function getTokenAddress() external view returns (address){... */\n    tag_19:\n        /* \"contracts/PeliWalletFacade.sol\":876:883  address */\n      0x00\n        /* \"contracts/PeliWalletFacade.sol\":914:922  pelicoin */\n      0x03\n      0x00\n      swap1\n      sload\n      swap1\n      0x0100\n      exp\n      swap1\n      div\n      0xffffffffffffffffffffffffffffffffffffffff\n      and\n        /* \"contracts/PeliWalletFacade.sol\":899:923  return address(pelicoin) */\n      swap1\n      pop\n        /* \"contracts/PeliWalletFacade.sol\":826:935  function getTokenAddress() external view returns (address){... */\n      swap1\n      jump\t// out\n        /* \"contracts/PeliWalletFacade.sol\":1804:1924  function getBalance() external view returns (uint256){... */\n    tag_23:\n        /* \"contracts/PeliWalletFacade.sol\":1849:1856  uint256 */\n      0x00\n        /* \"contracts/PeliWalletFacade.sol\":1879:1887  pelicoin */\n      0x03\n      0x00\n      swap1\n      sload\n      swap1\n      0x0100\n      exp\n      swap1\n      div\n      0xffffffffffffffffffffffffffffffffffffffff\n      and\n        /* \"contracts/PeliWalletFacade.sol\":1879:1897  pelicoin.balanceOf */\n      0xffffffffffffffffffffffffffffffffffffffff\n      and\n      0x70a08231\n        /* \"contracts/PeliWalletFacade.sol\":1906:1910  this */\n      address\n        /* \"contracts/PeliWalletFacade.sol\":1879:1912  pelicoin.balanceOf(address(this)) */\n      mload(0x40)\n      dup3\n      0xffffffff\n      and\n      0xe0\n      shl\n      dup2\n      mstore\n      0x04\n      add\n      tag_66\n      swap2\n      swap1\n      tag_21\n      jump\t// in\n    tag_66:\n      0x20\n      mload(0x40)\n      dup1\n      dup4\n      sub\n      dup2\n      dup7\n      gas\n      staticcall\n      iszero\n      dup1\n      iszero\n      tag_68\n      jumpi\n      returndatasize\n      0x00\n      dup1\n      returndatacopy\n      revert(0x00, returndatasize)\n    tag_68:\n      pop\n      pop\n      pop\n      pop\n      mload(0x40)\n      returndatasize\n      not(0x1f)\n      0x1f\n      dup3\n      add\n      and\n      dup3\n      add\n      dup1\n      0x40\n      mstore\n      pop\n      dup2\n      add\n      swap1\n      tag_69\n      swap2\n      swap1\n      tag_70\n      jump\t// in\n    tag_69:\n        /* \"contracts/PeliWalletFacade.sol\":1872:1912  return pelicoin.balanceOf(address(this)) */\n      swap1\n      pop\n        /* \"contracts/PeliWalletFacade.sol\":1804:1924  function getBalance() external view returns (uint256){... */\n      swap1\n      jump\t// out\n        /* \"contracts/PeliWalletFacade.sol\":2288:2457  function getTransaction(uint256 index) external view returns (Transactions.Transaction memory){... */\n    tag_29:\n        /* \"contracts/PeliWalletFacade.sol\":2350:2381  Transactions.Transaction memory */\n      tag_71\n      tag_72\n      jump\t// in\n    tag_71:\n        /* \"contracts/PeliWalletFacade.sol\":2404:2423  transactionsManager */\n      0x02\n      0x00\n      swap1\n      sload\n      swap1\n      0x0100\n      exp\n      swap1\n      div\n      0xffffffffffffffffffffffffffffffffffffffff\n      and\n        /* \"contracts/PeliWalletFacade.sol\":2404:2438  transactionsManager.getTransaction */\n      0xffffffffffffffffffffffffffffffffffffffff\n      and\n      0x33ea3dc8\n        /* \"contracts/PeliWalletFacade.sol\":2439:2444  index */\n      dup4\n        /* \"contracts/PeliWalletFacade.sol\":2404:2445  transactionsManager.getTransaction(index) */\n      mload(0x40)\n      dup3\n      0xffffffff\n      and\n      0xe0\n      shl\n      dup2\n      mstore\n      0x04\n      add\n      tag_74\n      swap2\n      swap1\n      tag_25\n      jump\t// in\n    tag_74:\n      0x80\n      mload(0x40)\n      dup1\n      dup4\n      sub\n      dup2\n      dup7\n      gas\n      staticcall\n      iszero\n      dup1\n      iszero\n      tag_76\n      jumpi\n      returndatasize\n      0x00\n      dup1\n      returndatacopy\n      revert(0x00, returndatasize)\n    tag_76:\n      pop\n      pop\n      pop\n      pop\n      mload(0x40)\n      returndatasize\n      not(0x1f)\n      0x1f\n      dup3\n      add\n      and\n      dup3\n      add\n      dup1\n      0x40\n      mstore\n      pop\n      dup2\n      add\n      swap1\n      tag_77\n      swap2\n      swap1\n      tag_78\n      jump\t// in\n    tag_77:\n        /* \"contracts/PeliWalletFacade.sol\":2397:2445  return transactionsManager.getTransaction(index) */\n      swap1\n      pop\n        /* \"contracts/PeliWalletFacade.sol\":2288:2457  function getTransaction(uint256 index) external view returns (Transactions.Transaction memory){... */\n      swap2\n      swap1\n      pop\n      jump\t// out\n        /* \"contracts/PeliWalletFacade.sol\":2939:2992  function unpause() external onlyOwner { _unpause(); } */\n    tag_33:\n        /* \"@openzeppelin/contracts/access/Ownable.sol\":1094:1107  _checkOwner() */\n      tag_80\n        /* \"@openzeppelin/contracts/access/Ownable.sol\":1094:1105  _checkOwner */\n      tag_81\n        /* \"@openzeppelin/contracts/access/Ownable.sol\":1094:1107  _checkOwner() */\n      jump\t// in\n    tag_80:\n        /* \"contracts/PeliWalletFacade.sol\":2979:2989  _unpause() */\n      tag_83\n        /* \"contracts/PeliWalletFacade.sol\":2979:2987  _unpause */\n      tag_84\n        /* \"contracts/PeliWalletFacade.sol\":2979:2989  _unpause() */\n      jump\t// in\n    tag_83:\n        /* \"contracts/PeliWalletFacade.sol\":2939:2992  function unpause() external onlyOwner { _unpause(); } */\n      jump\t// out\n        /* \"@openzeppelin/contracts/security/Pausable.sol\":1615:1699  function paused() public view virtual returns (bool) {... */\n    tag_35:\n        /* \"@openzeppelin/contracts/security/Pausable.sol\":1662:1666  bool */\n      0x00\n        /* \"@openzeppelin/contracts/security/Pausable.sol\":1685:1692  _paused */\n      dup1\n      0x14\n      swap1\n      sload\n      swap1\n      0x0100\n      exp\n      swap1\n      div\n      0xff\n      and\n        /* \"@openzeppelin/contracts/security/Pausable.sol\":1678:1692  return _paused */\n      swap1\n      pop\n        /* \"@openzeppelin/contracts/security/Pausable.sol\":1615:1699  function paused() public view virtual returns (bool) {... */\n      swap1\n      jump\t// out\n        /* \"@openzeppelin/contracts/access/Ownable.sol\":1831:1932  function renounceOwnership() public virtual onlyOwner {... */\n    tag_39:\n        /* \"@openzeppelin/contracts/access/Ownable.sol\":1094:1107  _checkOwner() */\n      tag_87\n        /* \"@openzeppelin/contracts/access/Ownable.sol\":1094:1105  _checkOwner */\n      tag_81\n        /* \"@openzeppelin/contracts/access/Ownable.sol\":1094:1107  _checkOwner() */\n      jump\t// in\n    tag_87:\n        /* \"@openzeppelin/contracts/access/Ownable.sol\":1895:1925  _transferOwnership(address(0)) */\n      tag_89\n        /* \"@openzeppelin/contracts/access/Ownable.sol\":1922:1923  0 */\n      0x00\n        /* \"@openzeppelin/contracts/access/Ownable.sol\":1895:1913  _transferOwnership */\n      tag_90\n        /* \"@openzeppelin/contracts/access/Ownable.sol\":1895:1925  _transferOwnership(address(0)) */\n      jump\t// in\n    tag_89:\n        /* \"@openzeppelin/contracts/access/Ownable.sol\":1831:1932  function renounceOwnership() public virtual onlyOwner {... */\n      jump\t// out\n        /* \"contracts/PeliWalletFacade.sol\":2802:2853  function pause()   external onlyOwner { _pause(); } */\n    tag_41:\n        /* \"@openzeppelin/contracts/access/Ownable.sol\":1094:1107  _checkOwner() */\n      tag_92\n        /* \"@openzeppelin/contracts/access/Ownable.sol\":1094:1105  _checkOwner */\n      tag_81\n        /* \"@openzeppelin/contracts/access/Ownable.sol\":1094:1107  _checkOwner() */\n      jump\t// in\n    tag_92:\n        /* \"contracts/PeliWalletFacade.sol\":2842:2850  _pause() */\n      tag_94\n        /* \"contracts/PeliWalletFacade.sol\":2842:2848  _pause */\n      tag_95\n        /* \"contracts/PeliWalletFacade.sol\":2842:2850  _pause() */\n      jump\t// in\n    tag_94:\n        /* \"contracts/PeliWalletFacade.sol\":2802:2853  function pause()   external onlyOwner { _pause(); } */\n      jump\t// out\n        /* \"@openzeppelin/contracts/access/Ownable.sol\":1201:1286  function owner() public view virtual returns (address) {... */\n    tag_43:\n        /* \"@openzeppelin/contracts/access/Ownable.sol\":1247:1254  address */\n      0x00\n        /* \"@openzeppelin/contracts/access/Ownable.sol\":1273:1279  _owner */\n      dup1\n      0x00\n      swap1\n      sload\n      swap1\n      0x0100\n      exp\n      swap1\n      div\n      0xffffffffffffffffffffffffffffffffffffffff\n      and\n        /* \"@openzeppelin/contracts/access/Ownable.sol\":1266:1279  return _owner */\n      swap1\n      pop\n        /* \"@openzeppelin/contracts/access/Ownable.sol\":1201:1286  function owner() public view virtual returns (address) {... */\n      swap1\n      jump\t// out\n        /* \"contracts/PeliWalletFacade.sol\":2510:2677  function getTransactionHistory() external view returns (Transactions.Transaction[] memory){... */\n    tag_46:\n        /* \"contracts/PeliWalletFacade.sol\":2566:2599  Transactions.Transaction[] memory */\n      0x60\n        /* \"contracts/PeliWalletFacade.sol\":2622:2641  transactionsManager */\n      0x02\n      0x00\n      swap1\n      sload\n      swap1\n      0x0100\n      exp\n      swap1\n      div\n      0xffffffffffffffffffffffffffffffffffffffff\n      and\n        /* \"contracts/PeliWalletFacade.sol\":2622:2663  transactionsManager.getTransactionHistory */\n      0xffffffffffffffffffffffffffffffffffffffff\n      and\n      0xb76d4fc3\n        /* \"contracts/PeliWalletFacade.sol\":2622:2665  transactionsManager.getTransactionHistory() */\n      mload(0x40)\n      dup2\n      0xffffffff\n      and\n      0xe0\n      shl\n      dup2\n      mstore\n      0x04\n      add\n      0x00\n      mload(0x40)\n      dup1\n      dup4\n      sub\n      dup2\n      dup7\n      gas\n      staticcall\n      iszero\n      dup1\n      iszero\n      tag_99\n      jumpi\n      returndatasize\n      0x00\n      dup1\n      returndatacopy\n      revert(0x00, returndatasize)\n    tag_99:\n      pop\n      pop\n      pop\n      pop\n      mload(0x40)\n      returndatasize\n      0x00\n      dup3\n      returndatacopy\n      returndatasize\n      not(0x1f)\n      0x1f\n      dup3\n      add\n      and\n      dup3\n      add\n      dup1\n      0x40\n      mstore\n      pop\n      dup2\n      add\n      swap1\n      tag_100\n      swap2\n      swap1\n      tag_101\n      jump\t// in\n    tag_100:\n        /* \"contracts/PeliWalletFacade.sol\":2615:2665  return transactionsManager.getTransactionHistory() */\n      swap1\n      pop\n        /* \"contracts/PeliWalletFacade.sol\":2510:2677  function getTransactionHistory() external view returns (Transactions.Transaction[] memory){... */\n      swap1\n      jump\t// out\n        /* \"contracts/PeliWalletFacade.sol\":1032:1504  function transferTokens(address to, uint256 amount) external whenNotPaused onlyOwner nonReentrant{... */\n    tag_52:\n        /* \"@openzeppelin/contracts/security/Pausable.sol\":1239:1258  _requireNotPaused() */\n      tag_103\n        /* \"@openzeppelin/contracts/security/Pausable.sol\":1239:1256  _requireNotPaused */\n      tag_104\n        /* \"@openzeppelin/contracts/security/Pausable.sol\":1239:1258  _requireNotPaused() */\n      jump\t// in\n    tag_103:\n        /* \"@openzeppelin/contracts/access/Ownable.sol\":1094:1107  _checkOwner() */\n      tag_106\n        /* \"@openzeppelin/contracts/access/Ownable.sol\":1094:1105  _checkOwner */\n      tag_81\n        /* \"@openzeppelin/contracts/access/Ownable.sol\":1094:1107  _checkOwner() */\n      jump\t// in\n    tag_106:\n        /* \"@openzeppelin/contracts/security/ReentrancyGuard.sol\":2261:2282  _nonReentrantBefore() */\n      tag_108\n        /* \"@openzeppelin/contracts/security/ReentrancyGuard.sol\":2261:2280  _nonReentrantBefore */\n      tag_109\n        /* \"@openzeppelin/contracts/security/ReentrancyGuard.sol\":2261:2282  _nonReentrantBefore() */\n      jump\t// in\n    tag_108:\n        /* \"contracts/PeliWalletFacade.sol\":1177:1178  0 */\n      0x00\n        /* \"contracts/PeliWalletFacade.sol\":1163:1179  to != address(0) */\n      0xffffffffffffffffffffffffffffffffffffffff\n      and\n        /* \"contracts/PeliWalletFacade.sol\":1163:1165  to */\n      dup3\n        /* \"contracts/PeliWalletFacade.sol\":1163:1179  to != address(0) */\n      0xffffffffffffffffffffffffffffffffffffffff\n      and\n      sub\n        /* \"contracts/PeliWalletFacade.sol\":1155:1228  require(to != address(0), \"PeliWallet: recipient cannot be zero address\") */\n      tag_111\n      jumpi\n      mload(0x40)\n      0x08c379a000000000000000000000000000000000000000000000000000000000\n      dup2\n      mstore\n      0x04\n      add\n      tag_112\n      swap1\n      tag_113\n      jump\t// in\n    tag_112:\n      mload(0x40)\n      dup1\n      swap2\n      sub\n      swap1\n      revert\n    tag_111:\n        /* \"contracts/PeliWalletFacade.sol\":1260:1261  0 */\n      0x00\n        /* \"contracts/PeliWalletFacade.sol\":1251:1257  amount */\n      dup2\n        /* \"contracts/PeliWalletFacade.sol\":1251:1261  amount > 0 */\n      gt\n        /* \"contracts/PeliWalletFacade.sol\":1243:1316  require(amount > 0,       \"PeliWallet: amount must be greater than zero\") */\n      tag_114\n      jumpi\n      mload(0x40)\n      0x08c379a000000000000000000000000000000000000000000000000000000000\n      dup2\n      mstore\n      0x04\n      add\n      tag_115\n      swap1\n      tag_116\n      jump\t// in\n    tag_115:\n      mload(0x40)\n      dup1\n      swap2\n      sub\n      swap1\n      revert\n    tag_114:\n        /* \"contracts/PeliWalletFacade.sol\":1345:1353  pelicoin */\n      0x03\n      0x00\n      swap1\n      sload\n      swap1\n      0x0100\n      exp\n      swap1\n      div\n      0xffffffffffffffffffffffffffffffffffffffff\n      and\n        /* \"contracts/PeliWalletFacade.sol\":1345:1362  pelicoin.transfer */\n      0xffffffffffffffffffffffffffffffffffffffff\n      and\n      0xa9059cbb\n        /* \"contracts/PeliWalletFacade.sol\":1363:1365  to */\n      dup4\n        /* \"contracts/PeliWalletFacade.sol\":1367:1373  amount */\n      dup4\n        /* \"contracts/PeliWalletFacade.sol\":1345:1374  pelicoin.transfer(to, amount) */\n      mload(0x40)\n      dup4\n      0xffffffff\n      and\n      0xe0\n      shl\n      dup2\n      mstore\n      0x04\n      add\n      tag_117\n      swap3\n      swap2\n      swap1\n      tag_118\n      jump\t// in\n    tag_117:\n      0x20\n      mload(0x40)\n      dup1\n      dup4\n      sub\n      dup2\n      0x00\n      dup8\n      gas\n      call\n      iszero\n      dup1\n      iszero\n      tag_120\n      jumpi\n      returndatasize\n      0x00\n      dup1\n      returndatacopy\n      revert(0x00, returndatasize)\n    tag_120:\n      pop\n      pop\n      pop\n      pop\n      mload(0x40)\n      returndatasize\n      not(0x1f)\n      0x1f\n      dup3\n      add\n      and\n      dup3\n      add\n      dup1\n      0x40\n      mstore\n      pop\n      dup2\n      add\n      swap1\n      tag_121\n      swap2\n      swap1\n      tag_122\n      jump\t// in\n    tag_121:\n        /* \"contracts/PeliWalletFacade.sol\":1337:1406  require(pelicoin.transfer(to, amount), \"PeliWallet: Transfer Failed\") */\n      tag_123\n      jumpi\n      mload(0x40)\n      0x08c379a000000000000000000000000000000000000000000000000000000000\n      dup2\n      mstore\n      0x04\n      add\n      tag_124\n      swap1\n      tag_125\n      jump\t// in\n    tag_124:\n      mload(0x40)\n      dup1\n      swap2\n      sub\n      swap1\n      revert\n    tag_123:\n        /* \"contracts/PeliWalletFacade.sol\":1428:1447  transactionsManager */\n      0x02\n      0x00\n      swap1\n      sload\n      swap1\n      0x0100\n      exp\n      swap1\n      div\n      0xffffffffffffffffffffffffffffffffffffffff\n      and\n        /* \"contracts/PeliWalletFacade.sol\":1428:1465  transactionsManager.createTransaction */\n      0xffffffffffffffffffffffffffffffffffffffff\n      and\n      0x0b826afa\n        /* \"contracts/PeliWalletFacade.sol\":1474:1478  this */\n      address\n        /* \"contracts/PeliWalletFacade.sol\":1481:1483  to */\n      dup5\n        /* \"contracts/PeliWalletFacade.sol\":1485:1491  amount */\n      dup5\n        /* \"contracts/PeliWalletFacade.sol\":1428:1492  transactionsManager.createTransaction(address(this), to, amount) */\n      mload(0x40)\n      dup5\n      0xffffffff\n      and\n      0xe0\n      shl\n      dup2\n      mstore\n      0x04\n      add\n      tag_126\n      swap4\n      swap3\n      swap2\n      swap1\n      tag_127\n      jump\t// in\n    tag_126:\n      0x00\n      mload(0x40)\n      dup1\n      dup4\n      sub\n      dup2\n      0x00\n      dup8\n      dup1\n      extcodesize\n      iszero\n      dup1\n      iszero\n      tag_128\n      jumpi\n      0x00\n      dup1\n      revert\n    tag_128:\n      pop\n      gas\n      call\n      iszero\n      dup1\n      iszero\n      tag_130\n      jumpi\n      returndatasize\n      0x00\n      dup1\n      returndatacopy\n      revert(0x00, returndatasize)\n    tag_130:\n      pop\n      pop\n      pop\n      pop\n        /* \"@openzeppelin/contracts/security/ReentrancyGuard.sol\":2303:2323  _nonReentrantAfter() */\n      tag_131\n        /* \"@openzeppelin/contracts/security/ReentrancyGuard.sol\":2303:2321  _nonReentrantAfter */\n      tag_132\n        /* \"@openzeppelin/contracts/security/ReentrancyGuard.sol\":2303:2323  _nonReentrantAfter() */\n      jump\t// in\n    tag_131:\n        /* \"contracts/PeliWalletFacade.sol\":1032:1504  function transferTokens(address to, uint256 amount) external whenNotPaused onlyOwner nonReentrant{... */\n      pop\n      pop\n      jump\t// out\n        /* \"contracts/PeliWalletFacade.sol\":2046:2193  function getTransactionsLength() external view returns (uint256){... */\n    tag_54:\n        /* \"contracts/PeliWalletFacade.sol\":2102:2109  uint256 */\n      0x00\n        /* \"contracts/PeliWalletFacade.sol\":2132:2151  transactionsManager */\n      0x02\n      0x00\n      swap1\n      sload\n      swap1\n      0x0100\n      exp\n      swap1\n      div\n      0xffffffffffffffffffffffffffffffffffffffff\n      and\n        /* \"contracts/PeliWalletFacade.sol\":2132:2179  transactionsManager.getTransactionHistoryLength */\n      0xffffffffffffffffffffffffffffffffffffffff\n      and\n      0x9f71c3c9\n        /* \"contracts/PeliWalletFacade.sol\":2132:2181  transactionsManager.getTransactionHistoryLength() */\n      mload(0x40)\n      dup2\n      0xffffffff\n      and\n      0xe0\n      shl\n      dup2\n      mstore\n      0x04\n      add\n      0x20\n      mload(0x40)\n      dup1\n      dup4\n      sub\n      dup2\n      dup7\n      gas\n      staticcall\n      iszero\n      dup1\n      iszero\n      tag_135\n      jumpi\n      returndatasize\n      0x00\n      dup1\n      returndatacopy\n      revert(0x00, returndatasize)\n    tag_135:\n      pop\n      pop\n      pop\n      pop\n      mload(0x40)\n      returndatasize\n      not(0x1f)\n      0x1f\n      dup3\n      add\n      and\n      dup3\n      add\n      dup1\n      0x40\n      mstore\n      pop\n      dup2\n      add\n      swap1\n      tag_136\n      swap2\n      swap1\n      tag_70\n      jump\t// in\n    tag_136:\n        /* \"contracts/PeliWalletFacade.sol\":2125:2181  return transactionsManager.getTransactionHistoryLength() */\n      swap1\n      pop\n        /* \"contracts/PeliWalletFacade.sol\":2046:2193  function getTransactionsLength() external view returns (uint256){... */\n      swap1\n      jump\t// out\n        /* \"@openzeppelin/contracts/access/Ownable.sol\":2081:2279  function transferOwnership(address newOwner) public virtual onlyOwner {... */\n    tag_59:\n        /* \"@openzeppelin/contracts/access/Ownable.sol\":1094:1107  _checkOwner() */\n      tag_138\n        /* \"@openzeppelin/contracts/access/Ownable.sol\":1094:1105  _checkOwner */\n      tag_81\n        /* \"@openzeppelin/contracts/access/Ownable.sol\":1094:1107  _checkOwner() */\n      jump\t// in\n    tag_138:\n        /* \"@openzeppelin/contracts/access/Ownable.sol\":2189:2190  0 */\n      0x00\n        /* \"@openzeppelin/contracts/access/Ownable.sol\":2169:2191  newOwner != address(0) */\n      0xffffffffffffffffffffffffffffffffffffffff\n      and\n        /* \"@openzeppelin/contracts/access/Ownable.sol\":2169:2177  newOwner */\n      dup2\n        /* \"@openzeppelin/contracts/access/Ownable.sol\":2169:2191  newOwner != address(0) */\n      0xffffffffffffffffffffffffffffffffffffffff\n      and\n      sub\n        /* \"@openzeppelin/contracts/access/Ownable.sol\":2161:2234  require(newOwner != address(0), \"Ownable: new owner is the zero address\") */\n      tag_140\n      jumpi\n      mload(0x40)\n      0x08c379a000000000000000000000000000000000000000000000000000000000\n      dup2\n      mstore\n      0x04\n      add\n      tag_141\n      swap1\n      tag_142\n      jump\t// in\n    tag_141:\n      mload(0x40)\n      dup1\n      swap2\n      sub\n      swap1\n      revert\n    tag_140:\n        /* \"@openzeppelin/contracts/access/Ownable.sol\":2244:2272  _transferOwnership(newOwner) */\n      tag_143\n        /* \"@openzeppelin/contracts/access/Ownable.sol\":2263:2271  newOwner */\n      dup2\n        /* \"@openzeppelin/contracts/access/Ownable.sol\":2244:2262  _transferOwnership */\n      tag_90\n        /* \"@openzeppelin/contracts/access/Ownable.sol\":2244:2272  _transferOwnership(newOwner) */\n      jump\t// in\n    tag_143:\n        /* \"@openzeppelin/contracts/access/Ownable.sol\":2081:2279  function transferOwnership(address newOwner) public virtual onlyOwner {... */\n      pop\n      jump\t// out\n        /* \"contracts/PeliWalletFacade.sol\":1555:1758  function addTransaction(address from, address to, uint256 amount) external ... */\n    tag_63:\n        /* \"@openzeppelin/contracts/security/Pausable.sol\":1239:1258  _requireNotPaused() */\n      tag_145\n        /* \"@openzeppelin/contracts/security/Pausable.sol\":1239:1256  _requireNotPaused */\n      tag_104\n        /* \"@openzeppelin/contracts/security/Pausable.sol\":1239:1258  _requireNotPaused() */\n      jump\t// in\n    tag_145:\n        /* \"@openzeppelin/contracts/access/Ownable.sol\":1094:1107  _checkOwner() */\n      tag_147\n        /* \"@openzeppelin/contracts/access/Ownable.sol\":1094:1105  _checkOwner */\n      tag_81\n        /* \"@openzeppelin/contracts/access/Ownable.sol\":1094:1107  _checkOwner() */\n      jump\t// in\n    tag_147:\n        /* \"@openzeppelin/contracts/security/ReentrancyGuard.sol\":2261:2282  _nonReentrantBefore() */\n      tag_149\n        /* \"@openzeppelin/contracts/security/ReentrancyGuard.sol\":2261:2280  _nonReentrantBefore */\n      tag_109\n        /* \"@openzeppelin/contracts/security/ReentrancyGuard.sol\":2261:2282  _nonReentrantBefore() */\n      jump\t// in\n    tag_149:\n        /* \"contracts/PeliWalletFacade.sol\":1691:1710  transactionsManager */\n      0x02\n      0x00\n      swap1\n      sload\n      swap1\n      0x0100\n      exp\n      swap1\n      div\n      0xffffffffffffffffffffffffffffffffffffffff\n      and\n        /* \"contracts/PeliWalletFacade.sol\":1691:1728  transactionsManager.createTransaction */\n      0xffffffffffffffffffffffffffffffffffffffff\n      and\n      0x0b826afa\n        /* \"contracts/PeliWalletFacade.sol\":1729:1733  from */\n      dup5\n        /* \"contracts/PeliWalletFacade.sol\":1735:1737  to */\n      dup5\n        /* \"contracts/PeliWalletFacade.sol\":1739:1745  amount */\n      dup5\n        /* \"contracts/PeliWalletFacade.sol\":1691:1746  transactionsManager.createTransaction(from, to, amount) */\n      mload(0x40)\n      dup5\n      0xffffffff\n      and\n      0xe0\n      shl\n      dup2\n      mstore\n      0x04\n      add\n      tag_151\n      swap4\n      swap3\n      swap2\n      swap1\n      tag_127\n      jump\t// in\n    tag_151:\n      0x00\n      mload(0x40)\n      dup1\n      dup4\n      sub\n      dup2\n      0x00\n      dup8\n      dup1\n      extcodesize\n      iszero\n      dup1\n      iszero\n      tag_152\n      jumpi\n      0x00\n      dup1\n      revert\n    tag_152:\n      pop\n      gas\n      call\n      iszero\n      dup1\n      iszero\n      tag_154\n      jumpi\n      returndatasize\n      0x00\n      dup1\n      returndatacopy\n      revert(0x00, returndatasize)\n    tag_154:\n      pop\n      pop\n      pop\n      pop\n        /* \"@openzeppelin/contracts/security/ReentrancyGuard.sol\":2303:2323  _nonReentrantAfter() */\n      tag_155\n        /* \"@openzeppelin/contracts/security/ReentrancyGuard.sol\":2303:2321  _nonReentrantAfter */\n      tag_132\n        /* \"@openzeppelin/contracts/security/ReentrancyGuard.sol\":2303:2323  _nonReentrantAfter() */\n      jump\t// in\n    tag_155:\n        /* \"contracts/PeliWalletFacade.sol\":1555:1758  function addTransaction(address from, address to, uint256 amount) external ... */\n      pop\n      pop\n      pop\n      jump\t// out\n        /* \"@openzeppelin/contracts/access/Ownable.sol\":1359:1489  function _checkOwner() internal view virtual {... */\n    tag_81:\n        /* \"@openzeppelin/contracts/access/Ownable.sol\":1433:1445  _msgSender() */\n      tag_157\n        /* \"@openzeppelin/contracts/access/Ownable.sol\":1433:1443  _msgSender */\n      tag_158\n        /* \"@openzeppelin/contracts/access/Ownable.sol\":1433:1445  _msgSender() */\n      jump\t// in\n    tag_157:\n        /* \"@openzeppelin/contracts/access/Ownable.sol\":1422:1445  owner() == _msgSender() */\n      0xffffffffffffffffffffffffffffffffffffffff\n      and\n        /* \"@openzeppelin/contracts/access/Ownable.sol\":1422:1429  owner() */\n      tag_159\n        /* \"@openzeppelin/contracts/access/Ownable.sol\":1422:1427  owner */\n      tag_43\n        /* \"@openzeppelin/contracts/access/Ownable.sol\":1422:1429  owner() */\n      jump\t// in\n    tag_159:\n        /* \"@openzeppelin/contracts/access/Ownable.sol\":1422:1445  owner() == _msgSender() */\n      0xffffffffffffffffffffffffffffffffffffffff\n      and\n      eq\n        /* \"@openzeppelin/contracts/access/Ownable.sol\":1414:1482  require(owner() == _msgSender(), \"Ownable: caller is not the owner\") */\n      tag_160\n      jumpi\n      mload(0x40)\n      0x08c379a000000000000000000000000000000000000000000000000000000000\n      dup2\n      mstore\n      0x04\n      add\n      tag_161\n      swap1\n      tag_162\n      jump\t// in\n    tag_161:\n      mload(0x40)\n      dup1\n      swap2\n      sub\n      swap1\n      revert\n    tag_160:\n        /* \"@openzeppelin/contracts/access/Ownable.sol\":1359:1489  function _checkOwner() internal view virtual {... */\n      jump\t// out\n        /* \"@openzeppelin/contracts/security/Pausable.sol\":2433:2550  function _unpause() internal virtual whenPaused {... */\n    tag_84:\n        /* \"@openzeppelin/contracts/security/Pausable.sol\":1486:1502  _requirePaused() */\n      tag_164\n        /* \"@openzeppelin/contracts/security/Pausable.sol\":1486:1500  _requirePaused */\n      tag_165\n        /* \"@openzeppelin/contracts/security/Pausable.sol\":1486:1502  _requirePaused() */\n      jump\t// in\n    tag_164:\n        /* \"@openzeppelin/contracts/security/Pausable.sol\":2501:2506  false */\n      0x00\n        /* \"@openzeppelin/contracts/security/Pausable.sol\":2491:2498  _paused */\n      dup1\n      0x14\n        /* \"@openzeppelin/contracts/security/Pausable.sol\":2491:2506  _paused = false */\n      0x0100\n      exp\n      dup2\n      sload\n      dup2\n      0xff\n      mul\n      not\n      and\n      swap1\n      dup4\n      iszero\n      iszero\n      mul\n      or\n      swap1\n      sstore\n      pop\n        /* \"@openzeppelin/contracts/security/Pausable.sol\":2521:2543  Unpaused(_msgSender()) */\n      0x5db9ee0a495bf2e6ff9c91a7834c1ba4fdd244a5e8aa4e537bd38aeae4b073aa\n        /* \"@openzeppelin/contracts/security/Pausable.sol\":2530:2542  _msgSender() */\n      tag_167\n        /* \"@openzeppelin/contracts/security/Pausable.sol\":2530:2540  _msgSender */\n      tag_158\n        /* \"@openzeppelin/contracts/security/Pausable.sol\":2530:2542  _msgSender() */\n      jump\t// in\n    tag_167:\n        /* \"@openzeppelin/contracts/security/Pausable.sol\":2521:2543  Unpaused(_msgSender()) */\n      mload(0x40)\n      tag_168\n      swap2\n      swap1\n      tag_21\n      jump\t// in\n    tag_168:\n      mload(0x40)\n      dup1\n      swap2\n      sub\n      swap1\n      log1\n        /* \"@openzeppelin/contracts/security/Pausable.sol\":2433:2550  function _unpause() internal virtual whenPaused {... */\n      jump\t// out\n        /* \"@openzeppelin/contracts/access/Ownable.sol\":2433:2620  function _transferOwnership(address newOwner) internal virtual {... */\n    tag_90:\n        /* \"@openzeppelin/contracts/access/Ownable.sol\":2506:2522  address oldOwner */\n      0x00\n        /* \"@openzeppelin/contracts/access/Ownable.sol\":2525:2531  _owner */\n      dup1\n      0x00\n      swap1\n      sload\n      swap1\n      0x0100\n      exp\n      swap1\n      div\n      0xffffffffffffffffffffffffffffffffffffffff\n      and\n        /* \"@openzeppelin/contracts/access/Ownable.sol\":2506:2531  address oldOwner = _owner */\n      swap1\n      pop\n        /* \"@openzeppelin/contracts/access/Ownable.sol\":2550:2558  newOwner */\n      dup2\n        /* \"@openzeppelin/contracts/access/Ownable.sol\":2541:2547  _owner */\n      0x00\n      dup1\n        /* \"@openzeppelin/contracts/access/Ownable.sol\":2541:2558  _owner = newOwner */\n      0x0100\n      exp\n      dup2\n      sload\n      dup2\n      0xffffffffffffffffffffffffffffffffffffffff\n      mul\n      not\n      and\n      swap1\n      dup4\n      0xffffffffffffffffffffffffffffffffffffffff\n      and\n      mul\n      or\n      swap1\n      sstore\n      pop\n        /* \"@openzeppelin/contracts/access/Ownable.sol\":2604:2612  newOwner */\n      dup2\n        /* \"@openzeppelin/contracts/access/Ownable.sol\":2573:2613  OwnershipTransferred(oldOwner, newOwner) */\n      0xffffffffffffffffffffffffffffffffffffffff\n      and\n        /* \"@openzeppelin/contracts/access/Ownable.sol\":2594:2602  oldOwner */\n      dup2\n        /* \"@openzeppelin/contracts/access/Ownable.sol\":2573:2613  OwnershipTransferred(oldOwner, newOwner) */\n      0xffffffffffffffffffffffffffffffffffffffff\n      and\n      0x8be0079c531659141344cd1fd0a4f28419497f9722a3daafe3b4186f6b6457e0\n      mload(0x40)\n      mload(0x40)\n      dup1\n      swap2\n      sub\n      swap1\n      log3\n        /* \"@openzeppelin/contracts/access/Ownable.sol\":2496:2620  {... */\n      pop\n        /* \"@openzeppelin/contracts/access/Ownable.sol\":2433:2620  function _transferOwnership(address newOwner) internal virtual {... */\n      pop\n      jump\t// out\n        /* \"@openzeppelin/contracts/security/Pausable.sol\":2186:2301  function _pause() internal virtual whenNotPaused {... */\n    tag_95:\n        /* \"@openzeppelin/contracts/security/Pausable.sol\":1239:1258  _requireNotPaused() */\n      tag_171\n        /* \"@openzeppelin/contracts/security/Pausable.sol\":1239:1256  _requireNotPaused */\n      tag_104\n        /* \"@openzeppelin/contracts/security/Pausable.sol\":1239:1258  _requireNotPaused() */\n      jump\t// in\n    tag_171:\n        /* \"@openzeppelin/contracts/security/Pausable.sol\":2255:2259  true */\n      0x01\n        /* \"@openzeppelin/contracts/security/Pausable.sol\":2245:2252  _paused */\n      0x00\n      0x14\n        /* \"@openzeppelin/contracts/security/Pausable.sol\":2245:2259  _paused = true */\n      0x0100\n      exp\n      dup2\n      sload\n      dup2\n      0xff\n      mul\n      not\n      and\n      swap1\n      dup4\n      iszero\n      iszero\n      mul\n      or\n      swap1\n      sstore\n      pop\n        /* \"@openzeppelin/contracts/security/Pausable.sol\":2274:2294  Paused(_msgSender()) */\n      0x62e78cea01bee320cd4e420270b5ea74000d11b0c9f74754ebdbfc544b05a258\n        /* \"@openzeppelin/contracts/security/Pausable.sol\":2281:2293  _msgSender() */\n      tag_173\n        /* \"@openzeppelin/contracts/security/Pausable.sol\":2281:2291  _msgSender */\n      tag_158\n        /* \"@openzeppelin/contracts/security/Pausable.sol\":2281:2293  _msgSender() */\n      jump\t// in\n    tag_173:\n        /* \"@openzeppelin/contracts/security/Pausable.sol\":2274:2294  Paused(_msgSender()) */\n      mload(0x40)\n      tag_174\n      swap2\n      swap1\n      tag_21\n      jump\t// in\n    tag_174:\n      mload(0x40)\n      dup1\n      swap2\n      sub\n      swap1\n      log1\n        /* \"@openzeppelin/contracts/security/Pausable.sol\":2186:2301  function _pause() internal virtual whenNotPaused {... */\n      jump\t// out\n        /* \"@openzeppelin/contracts/security/Pausable.sol\":1767:1873  function _requireNotPaused() internal view virtual {... */\n    tag_104:\n        /* \"@openzeppelin/contracts/security/Pausable.sol\":1837:1845  paused() */\n      tag_176\n        /* \"@openzeppelin/contracts/security/Pausable.sol\":1837:1843  paused */\n      tag_35\n        /* \"@openzeppelin/contracts/security/Pausable.sol\":1837:1845  paused() */\n      jump\t// in\n    tag_176:\n        /* \"@openzeppelin/contracts/security/Pausable.sol\":1836:1845  !paused() */\n      iszero\n        /* \"@openzeppelin/contracts/security/Pausable.sol\":1828:1866  require(!paused(), \"Pausable: paused\") */\n      tag_177\n      jumpi\n      mload(0x40)\n      0x08c379a000000000000000000000000000000000000000000000000000000000\n      dup2\n      mstore\n      0x04\n      add\n      tag_178\n      swap1\n      tag_179\n      jump\t// in\n    tag_178:\n      mload(0x40)\n      dup1\n      swap2\n      sub\n      swap1\n      revert\n    tag_177:\n        /* \"@openzeppelin/contracts/security/Pausable.sol\":1767:1873  function _requireNotPaused() internal view virtual {... */\n      jump\t// out\n        /* \"@openzeppelin/contracts/security/ReentrancyGuard.sol\":2336:2623  function _nonReentrantBefore() private {... */\n    tag_109:\n        /* \"@openzeppelin/contracts/security/ReentrancyGuard.sol\":1759:1760  2 */\n      0x02\n        /* \"@openzeppelin/contracts/security/ReentrancyGuard.sol\":2468:2475  _status */\n      sload(0x01)\n        /* \"@openzeppelin/contracts/security/ReentrancyGuard.sol\":2468:2487  _status != _ENTERED */\n      sub\n        /* \"@openzeppelin/contracts/security/ReentrancyGuard.sol\":2460:2523  require(_status != _ENTERED, \"ReentrancyGuard: reentrant call\") */\n      tag_181\n      jumpi\n      mload(0x40)\n      0x08c379a000000000000000000000000000000000000000000000000000000000\n      dup2\n      mstore\n      0x04\n      add\n      tag_182\n      swap1\n      tag_183\n      jump\t// in\n    tag_182:\n      mload(0x40)\n      dup1\n      swap2\n      sub\n      swap1\n      revert\n    tag_181:\n        /* \"@openzeppelin/contracts/security/ReentrancyGuard.sol\":1759:1760  2 */\n      0x02\n        /* \"@openzeppelin/contracts/security/ReentrancyGuard.sol\":2598:2605  _status */\n      0x01\n        /* \"@openzeppelin/contracts/security/ReentrancyGuard.sol\":2598:2616  _status = _ENTERED */\n      dup2\n      swap1\n      sstore\n      pop\n        /* \"@openzeppelin/contracts/security/ReentrancyGuard.sol\":2336:2623  function _nonReentrantBefore() private {... */\n      jump\t// out\n        /* \"@openzeppelin/contracts/security/ReentrancyGuard.sol\":2629:2838  function _nonReentrantAfter() private {... */\n    tag_132:\n        /* \"@openzeppelin/contracts/security/ReentrancyGuard.sol\":1716:1717  1 */\n      0x01\n        /* \"@openzeppelin/contracts/security/ReentrancyGuard.sol\":2809:2816  _status */\n      dup1\n        /* \"@openzeppelin/contracts/security/ReentrancyGuard.sol\":2809:2831  _status = _NOT_ENTERED */\n      dup2\n      swap1\n      sstore\n      pop\n        /* \"@openzeppelin/contracts/security/ReentrancyGuard.sol\":2629:2838  function _nonReentrantAfter() private {... */\n      jump\t// out\n        /* \"@openzeppelin/contracts/utils/Context.sol\":640:736  function _msgSender() internal view virtual returns (address) {... */\n    tag_158:\n        /* \"@openzeppelin/contracts/utils/Context.sol\":693:700  address */\n      0x00\n        /* \"@openzeppelin/contracts/utils/Context.sol\":719:729  msg.sender */\n      caller\n        /* \"@openzeppelin/contracts/utils/Context.sol\":712:729  return msg.sender */\n      swap1\n      pop\n        /* \"@openzeppelin/contracts/utils/Context.sol\":640:736  function _msgSender() internal view virtual returns (address) {... */\n      swap1\n      jump\t// out\n        /* \"@openzeppelin/contracts/security/Pausable.sol\":1945:2051  function _requirePaused() internal view virtual {... */\n    tag_165:\n        /* \"@openzeppelin/contracts/security/Pausable.sol\":2011:2019  paused() */\n      tag_187\n        /* \"@openzeppelin/contracts/security/Pausable.sol\":2011:2017  paused */\n      tag_35\n        /* \"@openzeppelin/contracts/security/Pausable.sol\":2011:2019  paused() */\n      jump\t// in\n    tag_187:\n        /* \"@openzeppelin/contracts/security/Pausable.sol\":2003:2044  require(paused(), \"Pausable: not paused\") */\n      tag_188\n      jumpi\n      mload(0x40)\n      0x08c379a000000000000000000000000000000000000000000000000000000000\n      dup2\n      mstore\n      0x04\n      add\n      tag_189\n      swap1\n      tag_190\n      jump\t// in\n    tag_189:\n      mload(0x40)\n      dup1\n      swap2\n      sub\n      swap1\n      revert\n    tag_188:\n        /* \"@openzeppelin/contracts/security/Pausable.sol\":1945:2051  function _requirePaused() internal view virtual {... */\n      jump\t// out\n    tag_72:\n      mload(0x40)\n      dup1\n      0x80\n      add\n      0x40\n      mstore\n      dup1\n      and(0xffffffffffffffffffffffffffffffffffffffff, 0x00)\n      dup2\n      mstore\n      0x20\n      add\n      and(0xffffffffffffffffffffffffffffffffffffffff, 0x00)\n      dup2\n      mstore\n      0x20\n      add\n      0x00\n      dup2\n      mstore\n      0x20\n      add\n      0x00\n      dup2\n      mstore\n      pop\n      swap1\n      jump\t// out\n        /* \"#utility.yul\":7:133   */\n    tag_191:\n        /* \"#utility.yul\":44:51   */\n      0x00\n        /* \"#utility.yul\":84:126   */\n      0xffffffffffffffffffffffffffffffffffffffff\n        /* \"#utility.yul\":77:82   */\n      dup3\n        /* \"#utility.yul\":73:127   */\n      and\n        /* \"#utility.yul\":62:127   */\n      swap1\n      pop\n        /* \"#utility.yul\":7:133   */\n      swap2\n      swap1\n      pop\n      jump\t// out\n        /* \"#utility.yul\":139:235   */\n    tag_192:\n        /* \"#utility.yul\":176:183   */\n      0x00\n        /* \"#utility.yul\":205:229   */\n      tag_251\n        /* \"#utility.yul\":223:228   */\n      dup3\n        /* \"#utility.yul\":205:229   */\n      tag_191\n      jump\t// in\n    tag_251:\n        /* \"#utility.yul\":194:229   */\n      swap1\n      pop\n        /* \"#utility.yul\":139:235   */\n      swap2\n      swap1\n      pop\n      jump\t// out\n        /* \"#utility.yul\":241:359   */\n    tag_193:\n        /* \"#utility.yul\":328:352   */\n      tag_253\n        /* \"#utility.yul\":346:351   */\n      dup2\n        /* \"#utility.yul\":328:352   */\n      tag_192\n      jump\t// in\n    tag_253:\n        /* \"#utility.yul\":323:326   */\n      dup3\n        /* \"#utility.yul\":316:353   */\n      mstore\n        /* \"#utility.yul\":241:359   */\n      pop\n      pop\n      jump\t// out\n        /* \"#utility.yul\":365:587   */\n    tag_21:\n        /* \"#utility.yul\":458:462   */\n      0x00\n        /* \"#utility.yul\":496:498   */\n      0x20\n        /* \"#utility.yul\":485:494   */\n      dup3\n        /* \"#utility.yul\":481:499   */\n      add\n        /* \"#utility.yul\":473:499   */\n      swap1\n      pop\n        /* \"#utility.yul\":509:580   */\n      tag_255\n        /* \"#utility.yul\":577:578   */\n      0x00\n        /* \"#utility.yul\":566:575   */\n      dup4\n        /* \"#utility.yul\":562:579   */\n      add\n        /* \"#utility.yul\":553:559   */\n      dup5\n        /* \"#utility.yul\":509:580   */\n      tag_193\n      jump\t// in\n    tag_255:\n        /* \"#utility.yul\":365:587   */\n      swap3\n      swap2\n      pop\n      pop\n      jump\t// out\n        /* \"#utility.yul\":593:670   */\n    tag_194:\n        /* \"#utility.yul\":630:637   */\n      0x00\n        /* \"#utility.yul\":659:664   */\n      dup2\n        /* \"#utility.yul\":648:664   */\n      swap1\n      pop\n        /* \"#utility.yul\":593:670   */\n      swap2\n      swap1\n      pop\n      jump\t// out\n        /* \"#utility.yul\":676:794   */\n    tag_195:\n        /* \"#utility.yul\":763:787   */\n      tag_258\n        /* \"#utility.yul\":781:786   */\n      dup2\n        /* \"#utility.yul\":763:787   */\n      tag_194\n      jump\t// in\n    tag_258:\n        /* \"#utility.yul\":758:761   */\n      dup3\n        /* \"#utility.yul\":751:788   */\n      mstore\n        /* \"#utility.yul\":676:794   */\n      pop\n      pop\n      jump\t// out\n        /* \"#utility.yul\":800:1022   */\n    tag_25:\n        /* \"#utility.yul\":893:897   */\n      0x00\n        /* \"#utility.yul\":931:933   */\n      0x20\n        /* \"#utility.yul\":920:929   */\n      dup3\n        /* \"#utility.yul\":916:934   */\n      add\n        /* \"#utility.yul\":908:934   */\n      swap1\n      pop\n        /* \"#utility.yul\":944:1015   */\n      tag_260\n        /* \"#utility.yul\":1012:1013   */\n      0x00\n        /* \"#utility.yul\":1001:1010   */\n      dup4\n        /* \"#utility.yul\":997:1014   */\n      add\n        /* \"#utility.yul\":988:994   */\n      dup5\n        /* \"#utility.yul\":944:1015   */\n      tag_195\n      jump\t// in\n    tag_260:\n        /* \"#utility.yul\":800:1022   */\n      swap3\n      swap2\n      pop\n      pop\n      jump\t// out\n        /* \"#utility.yul\":1028:1103   */\n    tag_196:\n        /* \"#utility.yul\":1061:1067   */\n      0x00\n        /* \"#utility.yul\":1094:1096   */\n      0x40\n        /* \"#utility.yul\":1088:1097   */\n      mload\n        /* \"#utility.yul\":1078:1097   */\n      swap1\n      pop\n        /* \"#utility.yul\":1028:1103   */\n      swap1\n      jump\t// out\n        /* \"#utility.yul\":1109:1226   */\n    tag_197:\n        /* \"#utility.yul\":1218:1219   */\n      0x00\n        /* \"#utility.yul\":1215:1216   */\n      dup1\n        /* \"#utility.yul\":1208:1220   */\n      revert\n        /* \"#utility.yul\":1232:1349   */\n    tag_198:\n        /* \"#utility.yul\":1341:1342   */\n      0x00\n        /* \"#utility.yul\":1338:1339   */\n      dup1\n        /* \"#utility.yul\":1331:1343   */\n      revert\n        /* \"#utility.yul\":1355:1477   */\n    tag_199:\n        /* \"#utility.yul\":1428:1452   */\n      tag_265\n        /* \"#utility.yul\":1446:1451   */\n      dup2\n        /* \"#utility.yul\":1428:1452   */\n      tag_194\n      jump\t// in\n    tag_265:\n        /* \"#utility.yul\":1421:1426   */\n      dup2\n        /* \"#utility.yul\":1418:1453   */\n      eq\n        /* \"#utility.yul\":1408:1471   */\n      tag_266\n      jumpi\n        /* \"#utility.yul\":1467:1468   */\n      0x00\n        /* \"#utility.yul\":1464:1465   */\n      dup1\n        /* \"#utility.yul\":1457:1469   */\n      revert\n        /* \"#utility.yul\":1408:1471   */\n    tag_266:\n        /* \"#utility.yul\":1355:1477   */\n      pop\n      jump\t// out\n        /* \"#utility.yul\":1483:1622   */\n    tag_200:\n        /* \"#utility.yul\":1529:1534   */\n      0x00\n        /* \"#utility.yul\":1567:1573   */\n      dup2\n        /* \"#utility.yul\":1554:1574   */\n      calldataload\n        /* \"#utility.yul\":1545:1574   */\n      swap1\n      pop\n        /* \"#utility.yul\":1583:1616   */\n      tag_268\n        /* \"#utility.yul\":1610:1615   */\n      dup2\n        /* \"#utility.yul\":1583:1616   */\n      tag_199\n      jump\t// in\n    tag_268:\n        /* \"#utility.yul\":1483:1622   */\n      swap3\n      swap2\n      pop\n      pop\n      jump\t// out\n        /* \"#utility.yul\":1628:1957   */\n    tag_28:\n        /* \"#utility.yul\":1687:1693   */\n      0x00\n        /* \"#utility.yul\":1736:1738   */\n      0x20\n        /* \"#utility.yul\":1724:1733   */\n      dup3\n        /* \"#utility.yul\":1715:1722   */\n      dup5\n        /* \"#utility.yul\":1711:1734   */\n      sub\n        /* \"#utility.yul\":1707:1739   */\n      slt\n        /* \"#utility.yul\":1704:1823   */\n      iszero\n      tag_270\n      jumpi\n        /* \"#utility.yul\":1742:1821   */\n      tag_271\n      tag_197\n      jump\t// in\n    tag_271:\n        /* \"#utility.yul\":1704:1823   */\n    tag_270:\n        /* \"#utility.yul\":1862:1863   */\n      0x00\n        /* \"#utility.yul\":1887:1940   */\n      tag_272\n        /* \"#utility.yul\":1932:1939   */\n      dup5\n        /* \"#utility.yul\":1923:1929   */\n      dup3\n        /* \"#utility.yul\":1912:1921   */\n      dup6\n        /* \"#utility.yul\":1908:1930   */\n      add\n        /* \"#utility.yul\":1887:1940   */\n      tag_200\n      jump\t// in\n    tag_272:\n        /* \"#utility.yul\":1877:1940   */\n      swap2\n      pop\n        /* \"#utility.yul\":1833:1950   */\n      pop\n        /* \"#utility.yul\":1628:1957   */\n      swap3\n      swap2\n      pop\n      pop\n      jump\t// out\n        /* \"#utility.yul\":1963:2071   */\n    tag_201:\n        /* \"#utility.yul\":2040:2064   */\n      tag_274\n        /* \"#utility.yul\":2058:2063   */\n      dup2\n        /* \"#utility.yul\":2040:2064   */\n      tag_192\n      jump\t// in\n    tag_274:\n        /* \"#utility.yul\":2035:2038   */\n      dup3\n        /* \"#utility.yul\":2028:2065   */\n      mstore\n        /* \"#utility.yul\":1963:2071   */\n      pop\n      pop\n      jump\t// out\n        /* \"#utility.yul\":2077:2185   */\n    tag_202:\n        /* \"#utility.yul\":2154:2178   */\n      tag_276\n        /* \"#utility.yul\":2172:2177   */\n      dup2\n        /* \"#utility.yul\":2154:2178   */\n      tag_194\n      jump\t// in\n    tag_276:\n        /* \"#utility.yul\":2149:2152   */\n      dup3\n        /* \"#utility.yul\":2142:2179   */\n      mstore\n        /* \"#utility.yul\":2077:2185   */\n      pop\n      pop\n      jump\t// out\n        /* \"#utility.yul\":2265:3133   */\n    tag_203:\n        /* \"#utility.yul\":2420:2424   */\n      0x80\n        /* \"#utility.yul\":2415:2418   */\n      dup3\n        /* \"#utility.yul\":2411:2425   */\n      add\n        /* \"#utility.yul\":2507:2511   */\n      0x00\n        /* \"#utility.yul\":2500:2505   */\n      dup3\n        /* \"#utility.yul\":2496:2512   */\n      add\n        /* \"#utility.yul\":2490:2513   */\n      mload\n        /* \"#utility.yul\":2526:2589   */\n      tag_278\n        /* \"#utility.yul\":2583:2587   */\n      0x00\n        /* \"#utility.yul\":2578:2581   */\n      dup6\n        /* \"#utility.yul\":2574:2588   */\n      add\n        /* \"#utility.yul\":2560:2572   */\n      dup3\n        /* \"#utility.yul\":2526:2589   */\n      tag_201\n      jump\t// in\n    tag_278:\n        /* \"#utility.yul\":2435:2599   */\n      pop\n        /* \"#utility.yul\":2679:2683   */\n      0x20\n        /* \"#utility.yul\":2672:2677   */\n      dup3\n        /* \"#utility.yul\":2668:2684   */\n      add\n        /* \"#utility.yul\":2662:2685   */\n      mload\n        /* \"#utility.yul\":2698:2761   */\n      tag_279\n        /* \"#utility.yul\":2755:2759   */\n      0x20\n        /* \"#utility.yul\":2750:2753   */\n      dup6\n        /* \"#utility.yul\":2746:2760   */\n      add\n        /* \"#utility.yul\":2732:2744   */\n      dup3\n        /* \"#utility.yul\":2698:2761   */\n      tag_201\n      jump\t// in\n    tag_279:\n        /* \"#utility.yul\":2609:2771   */\n      pop\n        /* \"#utility.yul\":2855:2859   */\n      0x40\n        /* \"#utility.yul\":2848:2853   */\n      dup3\n        /* \"#utility.yul\":2844:2860   */\n      add\n        /* \"#utility.yul\":2838:2861   */\n      mload\n        /* \"#utility.yul\":2874:2937   */\n      tag_280\n        /* \"#utility.yul\":2931:2935   */\n      0x40\n        /* \"#utility.yul\":2926:2929   */\n      dup6\n        /* \"#utility.yul\":2922:2936   */\n      add\n        /* \"#utility.yul\":2908:2920   */\n      dup3\n        /* \"#utility.yul\":2874:2937   */\n      tag_202\n      jump\t// in\n    tag_280:\n        /* \"#utility.yul\":2781:2947   */\n      pop\n        /* \"#utility.yul\":3034:3038   */\n      0x60\n        /* \"#utility.yul\":3027:3032   */\n      dup3\n        /* \"#utility.yul\":3023:3039   */\n      add\n        /* \"#utility.yul\":3017:3040   */\n      mload\n        /* \"#utility.yul\":3053:3116   */\n      tag_281\n        /* \"#utility.yul\":3110:3114   */\n      0x60\n        /* \"#utility.yul\":3105:3108   */\n      dup6\n        /* \"#utility.yul\":3101:3115   */\n      add\n        /* \"#utility.yul\":3087:3099   */\n      dup3\n        /* \"#utility.yul\":3053:3116   */\n      tag_202\n      jump\t// in\n    tag_281:\n        /* \"#utility.yul\":2957:3126   */\n      pop\n        /* \"#utility.yul\":2389:3133   */\n      pop\n        /* \"#utility.yul\":2265:3133   */\n      pop\n      pop\n      jump\t// out\n        /* \"#utility.yul\":3139:3478   */\n    tag_31:\n        /* \"#utility.yul\":3290:3294   */\n      0x00\n        /* \"#utility.yul\":3328:3331   */\n      0x80\n        /* \"#utility.yul\":3317:3326   */\n      dup3\n        /* \"#utility.yul\":3313:3332   */\n      add\n        /* \"#utility.yul\":3305:3332   */\n      swap1\n      pop\n        /* \"#utility.yul\":3342:3471   */\n      tag_283\n        /* \"#utility.yul\":3468:3469   */\n      0x00\n        /* \"#utility.yul\":3457:3466   */\n      dup4\n        /* \"#utility.yul\":3453:3470   */\n      add\n        /* \"#utility.yul\":3444:3450   */\n      dup5\n        /* \"#utility.yul\":3342:3471   */\n      tag_203\n      jump\t// in\n    tag_283:\n        /* \"#utility.yul\":3139:3478   */\n      swap3\n      swap2\n      pop\n      pop\n      jump\t// out\n        /* \"#utility.yul\":3484:3574   */\n    tag_204:\n        /* \"#utility.yul\":3518:3525   */\n      0x00\n        /* \"#utility.yul\":3561:3566   */\n      dup2\n        /* \"#utility.yul\":3554:3567   */\n      iszero\n        /* \"#utility.yul\":3547:3568   */\n      iszero\n        /* \"#utility.yul\":3536:3568   */\n      swap1\n      pop\n        /* \"#utility.yul\":3484:3574   */\n      swap2\n      swap1\n      pop\n      jump\t// out\n        /* \"#utility.yul\":3580:3689   */\n    tag_205:\n        /* \"#utility.yul\":3661:3682   */\n      tag_286\n        /* \"#utility.yul\":3676:3681   */\n      dup2\n        /* \"#utility.yul\":3661:3682   */\n      tag_204\n      jump\t// in\n    tag_286:\n        /* \"#utility.yul\":3656:3659   */\n      dup3\n        /* \"#utility.yul\":3649:3683   */\n      mstore\n        /* \"#utility.yul\":3580:3689   */\n      pop\n      pop\n      jump\t// out\n        /* \"#utility.yul\":3695:3905   */\n    tag_37:\n        /* \"#utility.yul\":3782:3786   */\n      0x00\n        /* \"#utility.yul\":3820:3822   */\n      0x20\n        /* \"#utility.yul\":3809:3818   */\n      dup3\n        /* \"#utility.yul\":3805:3823   */\n      add\n        /* \"#utility.yul\":3797:3823   */\n      swap1\n      pop\n        /* \"#utility.yul\":3833:3898   */\n      tag_288\n        /* \"#utility.yul\":3895:3896   */\n      0x00\n        /* \"#utility.yul\":3884:3893   */\n      dup4\n        /* \"#utility.yul\":3880:3897   */\n      add\n        /* \"#utility.yul\":3871:3877   */\n      dup5\n        /* \"#utility.yul\":3833:3898   */\n      tag_205\n      jump\t// in\n    tag_288:\n        /* \"#utility.yul\":3695:3905   */\n      swap3\n      swap2\n      pop\n      pop\n      jump\t// out\n        /* \"#utility.yul\":3911:4054   */\n    tag_206:\n        /* \"#utility.yul\":4007:4013   */\n      0x00\n        /* \"#utility.yul\":4041:4046   */\n      dup2\n        /* \"#utility.yul\":4035:4047   */\n      mload\n        /* \"#utility.yul\":4025:4047   */\n      swap1\n      pop\n        /* \"#utility.yul\":3911:4054   */\n      swap2\n      swap1\n      pop\n      jump\t// out\n        /* \"#utility.yul\":4060:4273   */\n    tag_207:\n        /* \"#utility.yul\":4188:4199   */\n      0x00\n        /* \"#utility.yul\":4222:4228   */\n      dup3\n        /* \"#utility.yul\":4217:4220   */\n      dup3\n        /* \"#utility.yul\":4210:4229   */\n      mstore\n        /* \"#utility.yul\":4262:4266   */\n      0x20\n        /* \"#utility.yul\":4257:4260   */\n      dup3\n        /* \"#utility.yul\":4253:4267   */\n      add\n        /* \"#utility.yul\":4238:4267   */\n      swap1\n      pop\n        /* \"#utility.yul\":4060:4273   */\n      swap3\n      swap2\n      pop\n      pop\n      jump\t// out\n        /* \"#utility.yul\":4279:4440   */\n    tag_208:\n        /* \"#utility.yul\":4375:4379   */\n      0x00\n        /* \"#utility.yul\":4398:4401   */\n      dup2\n        /* \"#utility.yul\":4390:4401   */\n      swap1\n      pop\n        /* \"#utility.yul\":4428:4432   */\n      0x20\n        /* \"#utility.yul\":4423:4426   */\n      dup3\n        /* \"#utility.yul\":4419:4433   */\n      add\n        /* \"#utility.yul\":4411:4433   */\n      swap1\n      pop\n        /* \"#utility.yul\":4279:4440   */\n      swap2\n      swap1\n      pop\n      jump\t// out\n        /* \"#utility.yul\":4520:5378   */\n    tag_209:\n        /* \"#utility.yul\":4665:4669   */\n      0x80\n        /* \"#utility.yul\":4660:4663   */\n      dup3\n        /* \"#utility.yul\":4656:4670   */\n      add\n        /* \"#utility.yul\":4752:4756   */\n      0x00\n        /* \"#utility.yul\":4745:4750   */\n      dup3\n        /* \"#utility.yul\":4741:4757   */\n      add\n        /* \"#utility.yul\":4735:4758   */\n      mload\n        /* \"#utility.yul\":4771:4834   */\n      tag_293\n        /* \"#utility.yul\":4828:4832   */\n      0x00\n        /* \"#utility.yul\":4823:4826   */\n      dup6\n        /* \"#utility.yul\":4819:4833   */\n      add\n        /* \"#utility.yul\":4805:4817   */\n      dup3\n        /* \"#utility.yul\":4771:4834   */\n      tag_201\n      jump\t// in\n    tag_293:\n        /* \"#utility.yul\":4680:4844   */\n      pop\n        /* \"#utility.yul\":4924:4928   */\n      0x20\n        /* \"#utility.yul\":4917:4922   */\n      dup3\n        /* \"#utility.yul\":4913:4929   */\n      add\n        /* \"#utility.yul\":4907:4930   */\n      mload\n        /* \"#utility.yul\":4943:5006   */\n      tag_294\n        /* \"#utility.yul\":5000:5004   */\n      0x20\n        /* \"#utility.yul\":4995:4998   */\n      dup6\n        /* \"#utility.yul\":4991:5005   */\n      add\n        /* \"#utility.yul\":4977:4989   */\n      dup3\n        /* \"#utility.yul\":4943:5006   */\n      tag_201\n      jump\t// in\n    tag_294:\n        /* \"#utility.yul\":4854:5016   */\n      pop\n        /* \"#utility.yul\":5100:5104   */\n      0x40\n        /* \"#utility.yul\":5093:5098   */\n      dup3\n        /* \"#utility.yul\":5089:5105   */\n      add\n        /* \"#utility.yul\":5083:5106   */\n      mload\n        /* \"#utility.yul\":5119:5182   */\n      tag_295\n        /* \"#utility.yul\":5176:5180   */\n      0x40\n        /* \"#utility.yul\":5171:5174   */\n      dup6\n        /* \"#utility.yul\":5167:5181   */\n      add\n        /* \"#utility.yul\":5153:5165   */\n      dup3\n        /* \"#utility.yul\":5119:5182   */\n      tag_202\n      jump\t// in\n    tag_295:\n        /* \"#utility.yul\":5026:5192   */\n      pop\n        /* \"#utility.yul\":5279:5283   */\n      0x60\n        /* \"#utility.yul\":5272:5277   */\n      dup3\n        /* \"#utility.yul\":5268:5284   */\n      add\n        /* \"#utility.yul\":5262:5285   */\n      mload\n        /* \"#utility.yul\":5298:5361   */\n      tag_296\n        /* \"#utility.yul\":5355:5359   */\n      0x60\n        /* \"#utility.yul\":5350:5353   */\n      dup6\n        /* \"#utility.yul\":5346:5360   */\n      add\n        /* \"#utility.yul\":5332:5344   */\n      dup3\n        /* \"#utility.yul\":5298:5361   */\n      tag_202\n      jump\t// in\n    tag_296:\n        /* \"#utility.yul\":5202:5371   */\n      pop\n        /* \"#utility.yul\":4634:5378   */\n      pop\n        /* \"#utility.yul\":4520:5378   */\n      pop\n      pop\n      jump\t// out\n        /* \"#utility.yul\":5384:5679   */\n    tag_210:\n        /* \"#utility.yul\":5511:5521   */\n      0x00\n        /* \"#utility.yul\":5532:5636   */\n      tag_298\n        /* \"#utility.yul\":5632:5635   */\n      dup4\n        /* \"#utility.yul\":5624:5630   */\n      dup4\n        /* \"#utility.yul\":5532:5636   */\n      tag_209\n      jump\t// in\n    tag_298:\n        /* \"#utility.yul\":5668:5672   */\n      0x80\n        /* \"#utility.yul\":5663:5666   */\n      dup4\n        /* \"#utility.yul\":5659:5673   */\n      add\n        /* \"#utility.yul\":5645:5673   */\n      swap1\n      pop\n        /* \"#utility.yul\":5384:5679   */\n      swap3\n      swap2\n      pop\n      pop\n      jump\t// out\n        /* \"#utility.yul\":5685:5827   */\n    tag_211:\n        /* \"#utility.yul\":5784:5788   */\n      0x00\n        /* \"#utility.yul\":5816:5820   */\n      0x20\n        /* \"#utility.yul\":5811:5814   */\n      dup3\n        /* \"#utility.yul\":5807:5821   */\n      add\n        /* \"#utility.yul\":5799:5821   */\n      swap1\n      pop\n        /* \"#utility.yul\":5685:5827   */\n      swap2\n      swap1\n      pop\n      jump\t// out\n        /* \"#utility.yul\":5911:6875   */\n    tag_212:\n        /* \"#utility.yul\":6088:6091   */\n      0x00\n        /* \"#utility.yul\":6117:6200   */\n      tag_301\n        /* \"#utility.yul\":6194:6199   */\n      dup3\n        /* \"#utility.yul\":6117:6200   */\n      tag_206\n      jump\t// in\n    tag_301:\n        /* \"#utility.yul\":6216:6331   */\n      tag_302\n        /* \"#utility.yul\":6324:6330   */\n      dup2\n        /* \"#utility.yul\":6319:6322   */\n      dup6\n        /* \"#utility.yul\":6216:6331   */\n      tag_207\n      jump\t// in\n    tag_302:\n        /* \"#utility.yul\":6209:6331   */\n      swap4\n      pop\n        /* \"#utility.yul\":6355:6440   */\n      tag_303\n        /* \"#utility.yul\":6434:6439   */\n      dup4\n        /* \"#utility.yul\":6355:6440   */\n      tag_208\n      jump\t// in\n    tag_303:\n        /* \"#utility.yul\":6463:6470   */\n      dup1\n        /* \"#utility.yul\":6494:6495   */\n      0x00\n        /* \"#utility.yul\":6479:6850   */\n    tag_304:\n        /* \"#utility.yul\":6504:6510   */\n      dup4\n        /* \"#utility.yul\":6501:6502   */\n      dup2\n        /* \"#utility.yul\":6498:6511   */\n      lt\n        /* \"#utility.yul\":6479:6850   */\n      iszero\n      tag_306\n      jumpi\n        /* \"#utility.yul\":6580:6586   */\n      dup2\n        /* \"#utility.yul\":6574:6587   */\n      mload\n        /* \"#utility.yul\":6607:6728   */\n      tag_307\n        /* \"#utility.yul\":6724:6727   */\n      dup9\n        /* \"#utility.yul\":6709:6722   */\n      dup3\n        /* \"#utility.yul\":6607:6728   */\n      tag_210\n      jump\t// in\n    tag_307:\n        /* \"#utility.yul\":6600:6728   */\n      swap8\n      pop\n        /* \"#utility.yul\":6751:6840   */\n      tag_308\n        /* \"#utility.yul\":6833:6839   */\n      dup4\n        /* \"#utility.yul\":6751:6840   */\n      tag_211\n      jump\t// in\n    tag_308:\n        /* \"#utility.yul\":6741:6840   */\n      swap3\n      pop\n        /* \"#utility.yul\":6539:6850   */\n      pop\n        /* \"#utility.yul\":6526:6527   */\n      0x01\n        /* \"#utility.yul\":6523:6524   */\n      dup2\n        /* \"#utility.yul\":6519:6528   */\n      add\n        /* \"#utility.yul\":6514:6528   */\n      swap1\n      pop\n        /* \"#utility.yul\":6479:6850   */\n      jump(tag_304)\n    tag_306:\n        /* \"#utility.yul\":6483:6497   */\n      pop\n        /* \"#utility.yul\":6866:6869   */\n      dup6\n        /* \"#utility.yul\":6859:6869   */\n      swap4\n      pop\n        /* \"#utility.yul\":6093:6875   */\n      pop\n      pop\n      pop\n        /* \"#utility.yul\":5911:6875   */\n      swap3\n      swap2\n      pop\n      pop\n      jump\t// out\n        /* \"#utility.yul\":6881:7370   */\n    tag_48:\n        /* \"#utility.yul\":7082:7086   */\n      0x00\n        /* \"#utility.yul\":7120:7122   */\n      0x20\n        /* \"#utility.yul\":7109:7118   */\n      dup3\n        /* \"#utility.yul\":7105:7123   */\n      add\n        /* \"#utility.yul\":7097:7123   */\n      swap1\n      pop\n        /* \"#utility.yul\":7169:7178   */\n      dup2\n        /* \"#utility.yul\":7163:7167   */\n      dup2\n        /* \"#utility.yul\":7159:7179   */\n      sub\n        /* \"#utility.yul\":7155:7156   */\n      0x00\n        /* \"#utility.yul\":7144:7153   */\n      dup4\n        /* \"#utility.yul\":7140:7157   */\n      add\n        /* \"#utility.yul\":7133:7180   */\n      mstore\n        /* \"#utility.yul\":7197:7363   */\n      tag_310\n        /* \"#utility.yul\":7358:7362   */\n      dup2\n        /* \"#utility.yul\":7349:7355   */\n      dup5\n        /* \"#utility.yul\":7197:7363   */\n      tag_212\n      jump\t// in\n    tag_310:\n        /* \"#utility.yul\":7189:7363   */\n      swap1\n      pop\n        /* \"#utility.yul\":6881:7370   */\n      swap3\n      swap2\n      pop\n      pop\n      jump\t// out\n        /* \"#utility.yul\":7376:7498   */\n    tag_213:\n        /* \"#utility.yul\":7449:7473   */\n      tag_312\n        /* \"#utility.yul\":7467:7472   */\n      dup2\n        /* \"#utility.yul\":7449:7473   */\n      tag_192\n      jump\t// in\n    tag_312:\n        /* \"#utility.yul\":7442:7447   */\n      dup2\n        /* \"#utility.yul\":7439:7474   */\n      eq\n        /* \"#utility.yul\":7429:7492   */\n      tag_313\n      jumpi\n        /* \"#utility.yul\":7488:7489   */\n      0x00\n        /* \"#utility.yul\":7485:7486   */\n      dup1\n        /* \"#utility.yul\":7478:7490   */\n      revert\n        /* \"#utility.yul\":7429:7492   */\n    tag_313:\n        /* \"#utility.yul\":7376:7498   */\n      pop\n      jump\t// out\n        /* \"#utility.yul\":7504:7643   */\n    tag_214:\n        /* \"#utility.yul\":7550:7555   */\n      0x00\n        /* \"#utility.yul\":7588:7594   */\n      dup2\n        /* \"#utility.yul\":7575:7595   */\n      calldataload\n        /* \"#utility.yul\":7566:7595   */\n      swap1\n      pop\n        /* \"#utility.yul\":7604:7637   */\n      tag_315\n        /* \"#utility.yul\":7631:7636   */\n      dup2\n        /* \"#utility.yul\":7604:7637   */\n      tag_213\n      jump\t// in\n    tag_315:\n        /* \"#utility.yul\":7504:7643   */\n      swap3\n      swap2\n      pop\n      pop\n      jump\t// out\n        /* \"#utility.yul\":7649:8123   */\n    tag_51:\n        /* \"#utility.yul\":7717:7723   */\n      0x00\n        /* \"#utility.yul\":7725:7731   */\n      dup1\n        /* \"#utility.yul\":7774:7776   */\n      0x40\n        /* \"#utility.yul\":7762:7771   */\n      dup4\n        /* \"#utility.yul\":7753:7760   */\n      dup6\n        /* \"#utility.yul\":7749:7772   */\n      sub\n        /* \"#utility.yul\":7745:7777   */\n      slt\n        /* \"#utility.yul\":7742:7861   */\n      iszero\n      tag_317\n      jumpi\n        /* \"#utility.yul\":7780:7859   */\n      tag_318\n      tag_197\n      jump\t// in\n    tag_318:\n        /* \"#utility.yul\":7742:7861   */\n    tag_317:\n        /* \"#utility.yul\":7900:7901   */\n      0x00\n        /* \"#utility.yul\":7925:7978   */\n      tag_319\n        /* \"#utility.yul\":7970:7977   */\n      dup6\n        /* \"#utility.yul\":7961:7967   */\n      dup3\n        /* \"#utility.yul\":7950:7959   */\n      dup7\n        /* \"#utility.yul\":7946:7968   */\n      add\n        /* \"#utility.yul\":7925:7978   */\n      tag_214\n      jump\t// in\n    tag_319:\n        /* \"#utility.yul\":7915:7978   */\n      swap3\n      pop\n        /* \"#utility.yul\":7871:7988   */\n      pop\n        /* \"#utility.yul\":8027:8029   */\n      0x20\n        /* \"#utility.yul\":8053:8106   */\n      tag_320\n        /* \"#utility.yul\":8098:8105   */\n      dup6\n        /* \"#utility.yul\":8089:8095   */\n      dup3\n        /* \"#utility.yul\":8078:8087   */\n      dup7\n        /* \"#utility.yul\":8074:8096   */\n      add\n        /* \"#utility.yul\":8053:8106   */\n      tag_200\n      jump\t// in\n    tag_320:\n        /* \"#utility.yul\":8043:8106   */\n      swap2\n      pop\n        /* \"#utility.yul\":7998:8116   */\n      pop\n        /* \"#utility.yul\":7649:8123   */\n      swap3\n      pop\n      swap3\n      swap1\n      pop\n      jump\t// out\n        /* \"#utility.yul\":8129:8458   */\n    tag_58:\n        /* \"#utility.yul\":8188:8194   */\n      0x00\n        /* \"#utility.yul\":8237:8239   */\n      0x20\n        /* \"#utility.yul\":8225:8234   */\n      dup3\n        /* \"#utility.yul\":8216:8223   */\n      dup5\n        /* \"#utility.yul\":8212:8235   */\n      sub\n        /* \"#utility.yul\":8208:8240   */\n      slt\n        /* \"#utility.yul\":8205:8324   */\n      iszero\n      tag_322\n      jumpi\n        /* \"#utility.yul\":8243:8322   */\n      tag_323\n      tag_197\n      jump\t// in\n    tag_323:\n        /* \"#utility.yul\":8205:8324   */\n    tag_322:\n        /* \"#utility.yul\":8363:8364   */\n      0x00\n        /* \"#utility.yul\":8388:8441   */\n      tag_324\n        /* \"#utility.yul\":8433:8440   */\n      dup5\n        /* \"#utility.yul\":8424:8430   */\n      dup3\n        /* \"#utility.yul\":8413:8422   */\n      dup6\n        /* \"#utility.yul\":8409:8431   */\n      add\n        /* \"#utility.yul\":8388:8441   */\n      tag_214\n      jump\t// in\n    tag_324:\n        /* \"#utility.yul\":8378:8441   */\n      swap2\n      pop\n        /* \"#utility.yul\":8334:8451   */\n      pop\n        /* \"#utility.yul\":8129:8458   */\n      swap3\n      swap2\n      pop\n      pop\n      jump\t// out\n        /* \"#utility.yul\":8464:9083   */\n    tag_62:\n        /* \"#utility.yul\":8541:8547   */\n      0x00\n        /* \"#utility.yul\":8549:8555   */\n      dup1\n        /* \"#utility.yul\":8557:8563   */\n      0x00\n        /* \"#utility.yul\":8606:8608   */\n      0x60\n        /* \"#utility.yul\":8594:8603   */\n      dup5\n        /* \"#utility.yul\":8585:8592   */\n      dup7\n        /* \"#utility.yul\":8581:8604   */\n      sub\n        /* \"#utility.yul\":8577:8609   */\n      slt\n        /* \"#utility.yul\":8574:8693   */\n      iszero\n      tag_326\n      jumpi\n        /* \"#utility.yul\":8612:8691   */\n      tag_327\n      tag_197\n      jump\t// in\n    tag_327:\n        /* \"#utility.yul\":8574:8693   */\n    tag_326:\n        /* \"#utility.yul\":8732:8733   */\n      0x00\n        /* \"#utility.yul\":8757:8810   */\n      tag_328\n        /* \"#utility.yul\":8802:8809   */\n      dup7\n        /* \"#utility.yul\":8793:8799   */\n      dup3\n        /* \"#utility.yul\":8782:8791   */\n      dup8\n        /* \"#utility.yul\":8778:8800   */\n      add\n        /* \"#utility.yul\":8757:8810   */\n      tag_214\n      jump\t// in\n    tag_328:\n        /* \"#utility.yul\":8747:8810   */\n      swap4\n      pop\n        /* \"#utility.yul\":8703:8820   */\n      pop\n        /* \"#utility.yul\":8859:8861   */\n      0x20\n        /* \"#utility.yul\":8885:8938   */\n      tag_329\n        /* \"#utility.yul\":8930:8937   */\n      dup7\n        /* \"#utility.yul\":8921:8927   */\n      dup3\n        /* \"#utility.yul\":8910:8919   */\n      dup8\n        /* \"#utility.yul\":8906:8928   */\n      add\n        /* \"#utility.yul\":8885:8938   */\n      tag_214\n      jump\t// in\n    tag_329:\n        /* \"#utility.yul\":8875:8938   */\n      swap3\n      pop\n        /* \"#utility.yul\":8830:8948   */\n      pop\n        /* \"#utility.yul\":8987:8989   */\n      0x40\n        /* \"#utility.yul\":9013:9066   */\n      tag_330\n        /* \"#utility.yul\":9058:9065   */\n      dup7\n        /* \"#utility.yul\":9049:9055   */\n      dup3\n        /* \"#utility.yul\":9038:9047   */\n      dup8\n        /* \"#utility.yul\":9034:9056   */\n      add\n        /* \"#utility.yul\":9013:9066   */\n      tag_200\n      jump\t// in\n    tag_330:\n        /* \"#utility.yul\":9003:9066   */\n      swap2\n      pop\n        /* \"#utility.yul\":8958:9076   */\n      pop\n        /* \"#utility.yul\":8464:9083   */\n      swap3\n      pop\n      swap3\n      pop\n      swap3\n      jump\t// out\n        /* \"#utility.yul\":9089:9232   */\n    tag_215:\n        /* \"#utility.yul\":9146:9151   */\n      0x00\n        /* \"#utility.yul\":9177:9183   */\n      dup2\n        /* \"#utility.yul\":9171:9184   */\n      mload\n        /* \"#utility.yul\":9162:9184   */\n      swap1\n      pop\n        /* \"#utility.yul\":9193:9226   */\n      tag_332\n        /* \"#utility.yul\":9220:9225   */\n      dup2\n        /* \"#utility.yul\":9193:9226   */\n      tag_199\n      jump\t// in\n    tag_332:\n        /* \"#utility.yul\":9089:9232   */\n      swap3\n      swap2\n      pop\n      pop\n      jump\t// out\n        /* \"#utility.yul\":9238:9589   */\n    tag_70:\n        /* \"#utility.yul\":9308:9314   */\n      0x00\n        /* \"#utility.yul\":9357:9359   */\n      0x20\n        /* \"#utility.yul\":9345:9354   */\n      dup3\n        /* \"#utility.yul\":9336:9343   */\n      dup5\n        /* \"#utility.yul\":9332:9355   */\n      sub\n        /* \"#utility.yul\":9328:9360   */\n      slt\n        /* \"#utility.yul\":9325:9444   */\n      iszero\n      tag_334\n      jumpi\n        /* \"#utility.yul\":9363:9442   */\n      tag_335\n      tag_197\n      jump\t// in\n    tag_335:\n        /* \"#utility.yul\":9325:9444   */\n    tag_334:\n        /* \"#utility.yul\":9483:9484   */\n      0x00\n        /* \"#utility.yul\":9508:9572   */\n      tag_336\n        /* \"#utility.yul\":9564:9571   */\n      dup5\n        /* \"#utility.yul\":9555:9561   */\n      dup3\n        /* \"#utility.yul\":9544:9553   */\n      dup6\n        /* \"#utility.yul\":9540:9562   */\n      add\n        /* \"#utility.yul\":9508:9572   */\n      tag_215\n      jump\t// in\n    tag_336:\n        /* \"#utility.yul\":9498:9572   */\n      swap2\n      pop\n        /* \"#utility.yul\":9454:9582   */\n      pop\n        /* \"#utility.yul\":9238:9589   */\n      swap3\n      swap2\n      pop\n      pop\n      jump\t// out\n        /* \"#utility.yul\":9595:9712   */\n    tag_216:\n        /* \"#utility.yul\":9704:9705   */\n      0x00\n        /* \"#utility.yul\":9701:9702   */\n      dup1\n        /* \"#utility.yul\":9694:9706   */\n      revert\n        /* \"#utility.yul\":9718:9820   */\n    tag_217:\n        /* \"#utility.yul\":9759:9765   */\n      0x00\n        /* \"#utility.yul\":9810:9812   */\n      0x1f\n        /* \"#utility.yul\":9806:9813   */\n      not\n        /* \"#utility.yul\":9801:9803   */\n      0x1f\n        /* \"#utility.yul\":9794:9799   */\n      dup4\n        /* \"#utility.yul\":9790:9804   */\n      add\n        /* \"#utility.yul\":9786:9814   */\n      and\n        /* \"#utility.yul\":9776:9814   */\n      swap1\n      pop\n        /* \"#utility.yul\":9718:9820   */\n      swap2\n      swap1\n      pop\n      jump\t// out\n        /* \"#utility.yul\":9826:10006   */\n    tag_218:\n        /* \"#utility.yul\":9874:9951   */\n      0x4e487b7100000000000000000000000000000000000000000000000000000000\n        /* \"#utility.yul\":9871:9872   */\n      0x00\n        /* \"#utility.yul\":9864:9952   */\n      mstore\n        /* \"#utility.yul\":9971:9975   */\n      0x41\n        /* \"#utility.yul\":9968:9969   */\n      0x04\n        /* \"#utility.yul\":9961:9976   */\n      mstore\n        /* \"#utility.yul\":9995:9999   */\n      0x24\n        /* \"#utility.yul\":9992:9993   */\n      0x00\n        /* \"#utility.yul\":9985:10000   */\n      revert\n        /* \"#utility.yul\":10012:10293   */\n    tag_219:\n        /* \"#utility.yul\":10095:10122   */\n      tag_341\n        /* \"#utility.yul\":10117:10121   */\n      dup3\n        /* \"#utility.yul\":10095:10122   */\n      tag_217\n      jump\t// in\n    tag_341:\n        /* \"#utility.yul\":10087:10093   */\n      dup2\n        /* \"#utility.yul\":10083:10123   */\n      add\n        /* \"#utility.yul\":10225:10231   */\n      dup2\n        /* \"#utility.yul\":10213:10223   */\n      dup2\n        /* \"#utility.yul\":10210:10232   */\n      lt\n        /* \"#utility.yul\":10189:10207   */\n      0xffffffffffffffff\n        /* \"#utility.yul\":10177:10187   */\n      dup3\n        /* \"#utility.yul\":10174:10208   */\n      gt\n        /* \"#utility.yul\":10171:10233   */\n      or\n        /* \"#utility.yul\":10168:10256   */\n      iszero\n      tag_342\n      jumpi\n        /* \"#utility.yul\":10236:10254   */\n      tag_343\n      tag_218\n      jump\t// in\n    tag_343:\n        /* \"#utility.yul\":10168:10256   */\n    tag_342:\n        /* \"#utility.yul\":10276:10286   */\n      dup1\n        /* \"#utility.yul\":10272:10274   */\n      0x40\n        /* \"#utility.yul\":10265:10287   */\n      mstore\n        /* \"#utility.yul\":10055:10293   */\n      pop\n        /* \"#utility.yul\":10012:10293   */\n      pop\n      pop\n      jump\t// out\n        /* \"#utility.yul\":10299:10428   */\n    tag_220:\n        /* \"#utility.yul\":10333:10339   */\n      0x00\n        /* \"#utility.yul\":10360:10380   */\n      tag_345\n      tag_196\n      jump\t// in\n    tag_345:\n        /* \"#utility.yul\":10350:10380   */\n      swap1\n      pop\n        /* \"#utility.yul\":10389:10422   */\n      tag_346\n        /* \"#utility.yul\":10417:10421   */\n      dup3\n        /* \"#utility.yul\":10409:10415   */\n      dup3\n        /* \"#utility.yul\":10389:10422   */\n      tag_219\n      jump\t// in\n    tag_346:\n        /* \"#utility.yul\":10299:10428   */\n      swap2\n      swap1\n      pop\n      jump\t// out\n        /* \"#utility.yul\":10557:10700   */\n    tag_222:\n        /* \"#utility.yul\":10614:10619   */\n      0x00\n        /* \"#utility.yul\":10645:10651   */\n      dup2\n        /* \"#utility.yul\":10639:10652   */\n      mload\n        /* \"#utility.yul\":10630:10652   */\n      swap1\n      pop\n        /* \"#utility.yul\":10661:10694   */\n      tag_349\n        /* \"#utility.yul\":10688:10693   */\n      dup2\n        /* \"#utility.yul\":10661:10694   */\n      tag_213\n      jump\t// in\n    tag_349:\n        /* \"#utility.yul\":10557:10700   */\n      swap3\n      swap2\n      pop\n      pop\n      jump\t// out\n        /* \"#utility.yul\":10745:11705   */\n    tag_223:\n        /* \"#utility.yul\":10834:10839   */\n      0x00\n        /* \"#utility.yul\":10878:10882   */\n      0x80\n        /* \"#utility.yul\":10866:10875   */\n      dup3\n        /* \"#utility.yul\":10861:10864   */\n      dup5\n        /* \"#utility.yul\":10857:10876   */\n      sub\n        /* \"#utility.yul\":10853:10883   */\n      slt\n        /* \"#utility.yul\":10850:10967   */\n      iszero\n      tag_351\n      jumpi\n        /* \"#utility.yul\":10886:10965   */\n      tag_352\n      tag_216\n      jump\t// in\n    tag_352:\n        /* \"#utility.yul\":10850:10967   */\n    tag_351:\n        /* \"#utility.yul\":10985:11006   */\n      tag_353\n        /* \"#utility.yul\":11001:11005   */\n      0x80\n        /* \"#utility.yul\":10985:11006   */\n      tag_220\n      jump\t// in\n    tag_353:\n        /* \"#utility.yul\":10976:11006   */\n      swap1\n      pop\n        /* \"#utility.yul\":11065:11066   */\n      0x00\n        /* \"#utility.yul\":11105:11165   */\n      tag_354\n        /* \"#utility.yul\":11161:11164   */\n      dup5\n        /* \"#utility.yul\":11152:11158   */\n      dup3\n        /* \"#utility.yul\":11141:11150   */\n      dup6\n        /* \"#utility.yul\":11137:11159   */\n      add\n        /* \"#utility.yul\":11105:11165   */\n      tag_222\n      jump\t// in\n    tag_354:\n        /* \"#utility.yul\":11098:11102   */\n      0x00\n        /* \"#utility.yul\":11091:11096   */\n      dup4\n        /* \"#utility.yul\":11087:11103   */\n      add\n        /* \"#utility.yul\":11080:11166   */\n      mstore\n        /* \"#utility.yul\":11016:11177   */\n      pop\n        /* \"#utility.yul\":11234:11236   */\n      0x20\n        /* \"#utility.yul\":11275:11335   */\n      tag_355\n        /* \"#utility.yul\":11331:11334   */\n      dup5\n        /* \"#utility.yul\":11322:11328   */\n      dup3\n        /* \"#utility.yul\":11311:11320   */\n      dup6\n        /* \"#utility.yul\":11307:11329   */\n      add\n        /* \"#utility.yul\":11275:11335   */\n      tag_222\n      jump\t// in\n    tag_355:\n        /* \"#utility.yul\":11268:11272   */\n      0x20\n        /* \"#utility.yul\":11261:11266   */\n      dup4\n        /* \"#utility.yul\":11257:11273   */\n      add\n        /* \"#utility.yul\":11250:11336   */\n      mstore\n        /* \"#utility.yul\":11187:11347   */\n      pop\n        /* \"#utility.yul\":11408:11410   */\n      0x40\n        /* \"#utility.yul\":11449:11509   */\n      tag_356\n        /* \"#utility.yul\":11505:11508   */\n      dup5\n        /* \"#utility.yul\":11496:11502   */\n      dup3\n        /* \"#utility.yul\":11485:11494   */\n      dup6\n        /* \"#utility.yul\":11481:11503   */\n      add\n        /* \"#utility.yul\":11449:11509   */\n      tag_215\n      jump\t// in\n    tag_356:\n        /* \"#utility.yul\":11442:11446   */\n      0x40\n        /* \"#utility.yul\":11435:11440   */\n      dup4\n        /* \"#utility.yul\":11431:11447   */\n      add\n        /* \"#utility.yul\":11424:11510   */\n      mstore\n        /* \"#utility.yul\":11357:11521   */\n      pop\n        /* \"#utility.yul\":11585:11587   */\n      0x60\n        /* \"#utility.yul\":11626:11686   */\n      tag_357\n        /* \"#utility.yul\":11682:11685   */\n      dup5\n        /* \"#utility.yul\":11673:11679   */\n      dup3\n        /* \"#utility.yul\":11662:11671   */\n      dup6\n        /* \"#utility.yul\":11658:11680   */\n      add\n        /* \"#utility.yul\":11626:11686   */\n      tag_215\n      jump\t// in\n    tag_357:\n        /* \"#utility.yul\":11619:11623   */\n      0x60\n        /* \"#utility.yul\":11612:11617   */\n      dup4\n        /* \"#utility.yul\":11608:11624   */\n      add\n        /* \"#utility.yul\":11601:11687   */\n      mstore\n        /* \"#utility.yul\":11531:11698   */\n      pop\n        /* \"#utility.yul\":10745:11705   */\n      swap3\n      swap2\n      pop\n      pop\n      jump\t// out\n        /* \"#utility.yul\":11711:12121   */\n    tag_78:\n        /* \"#utility.yul\":11810:11816   */\n      0x00\n        /* \"#utility.yul\":11859:11862   */\n      0x80\n        /* \"#utility.yul\":11847:11856   */\n      dup3\n        /* \"#utility.yul\":11838:11845   */\n      dup5\n        /* \"#utility.yul\":11834:11857   */\n      sub\n        /* \"#utility.yul\":11830:11863   */\n      slt\n        /* \"#utility.yul\":11827:11947   */\n      iszero\n      tag_359\n      jumpi\n        /* \"#utility.yul\":11866:11945   */\n      tag_360\n      tag_197\n      jump\t// in\n    tag_360:\n        /* \"#utility.yul\":11827:11947   */\n    tag_359:\n        /* \"#utility.yul\":11986:11987   */\n      0x00\n        /* \"#utility.yul\":12011:12104   */\n      tag_361\n        /* \"#utility.yul\":12096:12103   */\n      dup5\n        /* \"#utility.yul\":12087:12093   */\n      dup3\n        /* \"#utility.yul\":12076:12085   */\n      dup6\n        /* \"#utility.yul\":12072:12094   */\n      add\n        /* \"#utility.yul\":12011:12104   */\n      tag_223\n      jump\t// in\n    tag_361:\n        /* \"#utility.yul\":12001:12104   */\n      swap2\n      pop\n        /* \"#utility.yul\":11957:12114   */\n      pop\n        /* \"#utility.yul\":11711:12121   */\n      swap3\n      swap2\n      pop\n      pop\n      jump\t// out\n        /* \"#utility.yul\":12127:12244   */\n    tag_224:\n        /* \"#utility.yul\":12236:12237   */\n      0x00\n        /* \"#utility.yul\":12233:12234   */\n      dup1\n        /* \"#utility.yul\":12226:12238   */\n      revert\n        /* \"#utility.yul\":12250:12590   */\n    tag_225:\n        /* \"#utility.yul\":12356:12360   */\n      0x00\n        /* \"#utility.yul\":12446:12464   */\n      0xffffffffffffffff\n        /* \"#utility.yul\":12438:12444   */\n      dup3\n        /* \"#utility.yul\":12435:12465   */\n      gt\n        /* \"#utility.yul\":12432:12488   */\n      iszero\n      tag_364\n      jumpi\n        /* \"#utility.yul\":12468:12486   */\n      tag_365\n      tag_218\n      jump\t// in\n    tag_365:\n        /* \"#utility.yul\":12432:12488   */\n    tag_364:\n        /* \"#utility.yul\":12518:12522   */\n      0x20\n        /* \"#utility.yul\":12510:12516   */\n      dup3\n        /* \"#utility.yul\":12506:12523   */\n      mul\n        /* \"#utility.yul\":12498:12523   */\n      swap1\n      pop\n        /* \"#utility.yul\":12578:12582   */\n      0x20\n        /* \"#utility.yul\":12572:12576   */\n      dup2\n        /* \"#utility.yul\":12568:12583   */\n      add\n        /* \"#utility.yul\":12560:12583   */\n      swap1\n      pop\n        /* \"#utility.yul\":12250:12590   */\n      swap2\n      swap1\n      pop\n      jump\t// out\n        /* \"#utility.yul\":12596:12713   */\n    tag_226:\n        /* \"#utility.yul\":12705:12706   */\n      0x00\n        /* \"#utility.yul\":12702:12703   */\n      dup1\n        /* \"#utility.yul\":12695:12707   */\n      revert\n        /* \"#utility.yul\":12760:13579   */\n    tag_227:\n        /* \"#utility.yul\":12896:12901   */\n      0x00\n        /* \"#utility.yul\":12921:13031   */\n      tag_368\n        /* \"#utility.yul\":12937:13030   */\n      tag_369\n        /* \"#utility.yul\":13023:13029   */\n      dup5\n        /* \"#utility.yul\":12937:13030   */\n      tag_225\n      jump\t// in\n    tag_369:\n        /* \"#utility.yul\":12921:13031   */\n      tag_220\n      jump\t// in\n    tag_368:\n        /* \"#utility.yul\":12912:13031   */\n      swap1\n      pop\n        /* \"#utility.yul\":13051:13056   */\n      dup1\n        /* \"#utility.yul\":13080:13086   */\n      dup4\n        /* \"#utility.yul\":13073:13078   */\n      dup3\n        /* \"#utility.yul\":13066:13087   */\n      mstore\n        /* \"#utility.yul\":13114:13118   */\n      0x20\n        /* \"#utility.yul\":13107:13112   */\n      dup3\n        /* \"#utility.yul\":13103:13119   */\n      add\n        /* \"#utility.yul\":13096:13119   */\n      swap1\n      pop\n        /* \"#utility.yul\":13167:13171   */\n      0x80\n        /* \"#utility.yul\":13159:13165   */\n      dup5\n        /* \"#utility.yul\":13155:13172   */\n      mul\n        /* \"#utility.yul\":13147:13153   */\n      dup4\n        /* \"#utility.yul\":13143:13173   */\n      add\n        /* \"#utility.yul\":13196:13199   */\n      dup6\n        /* \"#utility.yul\":13188:13194   */\n      dup2\n        /* \"#utility.yul\":13185:13200   */\n      gt\n        /* \"#utility.yul\":13182:13304   */\n      iszero\n      tag_370\n      jumpi\n        /* \"#utility.yul\":13215:13294   */\n      tag_371\n      tag_226\n      jump\t// in\n    tag_371:\n        /* \"#utility.yul\":13182:13304   */\n    tag_370:\n        /* \"#utility.yul\":13330:13336   */\n      dup4\n        /* \"#utility.yul\":13313:13573   */\n    tag_372:\n        /* \"#utility.yul\":13347:13353   */\n      dup2\n        /* \"#utility.yul\":13342:13345   */\n      dup2\n        /* \"#utility.yul\":13339:13354   */\n      lt\n        /* \"#utility.yul\":13313:13573   */\n      iszero\n      tag_374\n      jumpi\n        /* \"#utility.yul\":13422:13425   */\n      dup1\n        /* \"#utility.yul\":13451:13528   */\n      tag_375\n        /* \"#utility.yul\":13524:13527   */\n      dup9\n        /* \"#utility.yul\":13512:13522   */\n      dup3\n        /* \"#utility.yul\":13451:13528   */\n      tag_223\n      jump\t// in\n    tag_375:\n        /* \"#utility.yul\":13446:13449   */\n      dup5\n        /* \"#utility.yul\":13439:13529   */\n      mstore\n        /* \"#utility.yul\":13558:13562   */\n      0x20\n        /* \"#utility.yul\":13553:13556   */\n      dup5\n        /* \"#utility.yul\":13549:13563   */\n      add\n        /* \"#utility.yul\":13542:13563   */\n      swap4\n      pop\n        /* \"#utility.yul\":13389:13573   */\n      pop\n        /* \"#utility.yul\":13373:13377   */\n      0x80\n        /* \"#utility.yul\":13368:13371   */\n      dup2\n        /* \"#utility.yul\":13364:13378   */\n      add\n        /* \"#utility.yul\":13357:13378   */\n      swap1\n      pop\n        /* \"#utility.yul\":13313:13573   */\n      jump(tag_372)\n    tag_374:\n        /* \"#utility.yul\":13317:13338   */\n      pop\n        /* \"#utility.yul\":12902:13579   */\n      pop\n      pop\n        /* \"#utility.yul\":12760:13579   */\n      swap4\n      swap3\n      pop\n      pop\n      pop\n      jump\t// out\n        /* \"#utility.yul\":13626:14069   */\n    tag_228:\n        /* \"#utility.yul\":13737:13742   */\n      0x00\n        /* \"#utility.yul\":13786:13789   */\n      dup3\n        /* \"#utility.yul\":13779:13783   */\n      0x1f\n        /* \"#utility.yul\":13771:13777   */\n      dup4\n        /* \"#utility.yul\":13767:13784   */\n      add\n        /* \"#utility.yul\":13763:13790   */\n      slt\n        /* \"#utility.yul\":13753:13875   */\n      tag_377\n      jumpi\n        /* \"#utility.yul\":13794:13873   */\n      tag_378\n      tag_224\n      jump\t// in\n    tag_378:\n        /* \"#utility.yul\":13753:13875   */\n    tag_377:\n        /* \"#utility.yul\":13904:13910   */\n      dup2\n        /* \"#utility.yul\":13898:13911   */\n      mload\n        /* \"#utility.yul\":13929:14063   */\n      tag_379\n        /* \"#utility.yul\":14059:14062   */\n      dup5\n        /* \"#utility.yul\":14051:14057   */\n      dup3\n        /* \"#utility.yul\":14044:14048   */\n      0x20\n        /* \"#utility.yul\":14036:14042   */\n      dup7\n        /* \"#utility.yul\":14032:14049   */\n      add\n        /* \"#utility.yul\":13929:14063   */\n      tag_227\n      jump\t// in\n    tag_379:\n        /* \"#utility.yul\":13920:14063   */\n      swap2\n      pop\n        /* \"#utility.yul\":13743:14069   */\n      pop\n        /* \"#utility.yul\":13626:14069   */\n      swap3\n      swap2\n      pop\n      pop\n      jump\t// out\n        /* \"#utility.yul\":14075:14687   */\n    tag_101:\n        /* \"#utility.yul\":14199:14205   */\n      0x00\n        /* \"#utility.yul\":14248:14250   */\n      0x20\n        /* \"#utility.yul\":14236:14245   */\n      dup3\n        /* \"#utility.yul\":14227:14234   */\n      dup5\n        /* \"#utility.yul\":14223:14246   */\n      sub\n        /* \"#utility.yul\":14219:14251   */\n      slt\n        /* \"#utility.yul\":14216:14335   */\n      iszero\n      tag_381\n      jumpi\n        /* \"#utility.yul\":14254:14333   */\n      tag_382\n      tag_197\n      jump\t// in\n    tag_382:\n        /* \"#utility.yul\":14216:14335   */\n    tag_381:\n        /* \"#utility.yul\":14395:14396   */\n      0x00\n        /* \"#utility.yul\":14384:14393   */\n      dup3\n        /* \"#utility.yul\":14380:14397   */\n      add\n        /* \"#utility.yul\":14374:14398   */\n      mload\n        /* \"#utility.yul\":14425:14443   */\n      0xffffffffffffffff\n        /* \"#utility.yul\":14417:14423   */\n      dup2\n        /* \"#utility.yul\":14414:14444   */\n      gt\n        /* \"#utility.yul\":14411:14528   */\n      iszero\n      tag_383\n      jumpi\n        /* \"#utility.yul\":14447:14526   */\n      tag_384\n      tag_198\n      jump\t// in\n    tag_384:\n        /* \"#utility.yul\":14411:14528   */\n    tag_383:\n        /* \"#utility.yul\":14552:14670   */\n      tag_385\n        /* \"#utility.yul\":14662:14669   */\n      dup5\n        /* \"#utility.yul\":14653:14659   */\n      dup3\n        /* \"#utility.yul\":14642:14651   */\n      dup6\n        /* \"#utility.yul\":14638:14660   */\n      add\n        /* \"#utility.yul\":14552:14670   */\n      tag_228\n      jump\t// in\n    tag_385:\n        /* \"#utility.yul\":14542:14670   */\n      swap2\n      pop\n        /* \"#utility.yul\":14345:14680   */\n      pop\n        /* \"#utility.yul\":14075:14687   */\n      swap3\n      swap2\n      pop\n      pop\n      jump\t// out\n        /* \"#utility.yul\":14693:14862   */\n    tag_229:\n        /* \"#utility.yul\":14777:14788   */\n      0x00\n        /* \"#utility.yul\":14811:14817   */\n      dup3\n        /* \"#utility.yul\":14806:14809   */\n      dup3\n        /* \"#utility.yul\":14799:14818   */\n      mstore\n        /* \"#utility.yul\":14851:14855   */\n      0x20\n        /* \"#utility.yul\":14846:14849   */\n      dup3\n        /* \"#utility.yul\":14842:14856   */\n      add\n        /* \"#utility.yul\":14827:14856   */\n      swap1\n      pop\n        /* \"#utility.yul\":14693:14862   */\n      swap3\n      swap2\n      pop\n      pop\n      jump\t// out\n        /* \"#utility.yul\":14868:15099   */\n    tag_230:\n        /* \"#utility.yul\":15008:15042   */\n      0x50656c6957616c6c65743a20726563697069656e742063616e6e6f7420626520\n        /* \"#utility.yul\":15004:15005   */\n      0x00\n        /* \"#utility.yul\":14996:15002   */\n      dup3\n        /* \"#utility.yul\":14992:15006   */\n      add\n        /* \"#utility.yul\":14985:15043   */\n      mstore\n        /* \"#utility.yul\":15077:15091   */\n      0x7a65726f20616464726573730000000000000000000000000000000000000000\n        /* \"#utility.yul\":15072:15074   */\n      0x20\n        /* \"#utility.yul\":15064:15070   */\n      dup3\n        /* \"#utility.yul\":15060:15075   */\n      add\n        /* \"#utility.yul\":15053:15092   */\n      mstore\n        /* \"#utility.yul\":14868:15099   */\n      pop\n      jump\t// out\n        /* \"#utility.yul\":15105:15471   */\n    tag_231:\n        /* \"#utility.yul\":15247:15250   */\n      0x00\n        /* \"#utility.yul\":15268:15335   */\n      tag_389\n        /* \"#utility.yul\":15332:15334   */\n      0x2c\n        /* \"#utility.yul\":15327:15330   */\n      dup4\n        /* \"#utility.yul\":15268:15335   */\n      tag_229\n      jump\t// in\n    tag_389:\n        /* \"#utility.yul\":15261:15335   */\n      swap2\n      pop\n        /* \"#utility.yul\":15344:15437   */\n      tag_390\n        /* \"#utility.yul\":15433:15436   */\n      dup3\n        /* \"#utility.yul\":15344:15437   */\n      tag_230\n      jump\t// in\n    tag_390:\n        /* \"#utility.yul\":15462:15464   */\n      0x40\n        /* \"#utility.yul\":15457:15460   */\n      dup3\n        /* \"#utility.yul\":15453:15465   */\n      add\n        /* \"#utility.yul\":15446:15465   */\n      swap1\n      pop\n        /* \"#utility.yul\":15105:15471   */\n      swap2\n      swap1\n      pop\n      jump\t// out\n        /* \"#utility.yul\":15477:15896   */\n    tag_113:\n        /* \"#utility.yul\":15643:15647   */\n      0x00\n        /* \"#utility.yul\":15681:15683   */\n      0x20\n        /* \"#utility.yul\":15670:15679   */\n      dup3\n        /* \"#utility.yul\":15666:15684   */\n      add\n        /* \"#utility.yul\":15658:15684   */\n      swap1\n      pop\n        /* \"#utility.yul\":15730:15739   */\n      dup2\n        /* \"#utility.yul\":15724:15728   */\n      dup2\n        /* \"#utility.yul\":15720:15740   */\n      sub\n        /* \"#utility.yul\":15716:15717   */\n      0x00\n        /* \"#utility.yul\":15705:15714   */\n      dup4\n        /* \"#utility.yul\":15701:15718   */\n      add\n        /* \"#utility.yul\":15694:15741   */\n      mstore\n        /* \"#utility.yul\":15758:15889   */\n      tag_392\n        /* \"#utility.yul\":15884:15888   */\n      dup2\n        /* \"#utility.yul\":15758:15889   */\n      tag_231\n      jump\t// in\n    tag_392:\n        /* \"#utility.yul\":15750:15889   */\n      swap1\n      pop\n        /* \"#utility.yul\":15477:15896   */\n      swap2\n      swap1\n      pop\n      jump\t// out\n        /* \"#utility.yul\":15902:16133   */\n    tag_232:\n        /* \"#utility.yul\":16042:16076   */\n      0x50656c6957616c6c65743a20616d6f756e74206d757374206265206772656174\n        /* \"#utility.yul\":16038:16039   */\n      0x00\n        /* \"#utility.yul\":16030:16036   */\n      dup3\n        /* \"#utility.yul\":16026:16040   */\n      add\n        /* \"#utility.yul\":16019:16077   */\n      mstore\n        /* \"#utility.yul\":16111:16125   */\n      0x6572207468616e207a65726f0000000000000000000000000000000000000000\n        /* \"#utility.yul\":16106:16108   */\n      0x20\n        /* \"#utility.yul\":16098:16104   */\n      dup3\n        /* \"#utility.yul\":16094:16109   */\n      add\n        /* \"#utility.yul\":16087:16126   */\n      mstore\n        /* \"#utility.yul\":15902:16133   */\n      pop\n      jump\t// out\n        /* \"#utility.yul\":16139:16505   */\n    tag_233:\n        /* \"#utility.yul\":16281:16284   */\n      0x00\n        /* \"#utility.yul\":16302:16369   */\n      tag_395\n        /* \"#utility.yul\":16366:16368   */\n      0x2c\n        /* \"#utility.yul\":16361:16364   */\n      dup4\n        /* \"#utility.yul\":16302:16369   */\n      tag_229\n      jump\t// in\n    tag_395:\n        /* \"#utility.yul\":16295:16369   */\n      swap2\n      pop\n        /* \"#utility.yul\":16378:16471   */\n      tag_396\n        /* \"#utility.yul\":16467:16470   */\n      dup3\n        /* \"#utility.yul\":16378:16471   */\n      tag_232\n      jump\t// in\n    tag_396:\n        /* \"#utility.yul\":16496:16498   */\n      0x40\n        /* \"#utility.yul\":16491:16494   */\n      dup3\n        /* \"#utility.yul\":16487:16499   */\n      add\n        /* \"#utility.yul\":16480:16499   */\n      swap1\n      pop\n        /* \"#utility.yul\":16139:16505   */\n      swap2\n      swap1\n      pop\n      jump\t// out\n        /* \"#utility.yul\":16511:16930   */\n    tag_116:\n        /* \"#utility.yul\":16677:16681   */\n      0x00\n        /* \"#utility.yul\":16715:16717   */\n      0x20\n        /* \"#utility.yul\":16704:16713   */\n      dup3\n        /* \"#utility.yul\":16700:16718   */\n      add\n        /* \"#utility.yul\":16692:16718   */\n      swap1\n      pop\n        /* \"#utility.yul\":16764:16773   */\n      dup2\n        /* \"#utility.yul\":16758:16762   */\n      dup2\n        /* \"#utility.yul\":16754:16774   */\n      sub\n        /* \"#utility.yul\":16750:16751   */\n      0x00\n        /* \"#utility.yul\":16739:16748   */\n      dup4\n        /* \"#utility.yul\":16735:16752   */\n      add\n        /* \"#utility.yul\":16728:16775   */\n      mstore\n        /* \"#utility.yul\":16792:16923   */\n      tag_398\n        /* \"#utility.yul\":16918:16922   */\n      dup2\n        /* \"#utility.yul\":16792:16923   */\n      tag_233\n      jump\t// in\n    tag_398:\n        /* \"#utility.yul\":16784:16923   */\n      swap1\n      pop\n        /* \"#utility.yul\":16511:16930   */\n      swap2\n      swap1\n      pop\n      jump\t// out\n        /* \"#utility.yul\":16936:17268   */\n    tag_118:\n        /* \"#utility.yul\":17057:17061   */\n      0x00\n        /* \"#utility.yul\":17095:17097   */\n      0x40\n        /* \"#utility.yul\":17084:17093   */\n      dup3\n        /* \"#utility.yul\":17080:17098   */\n      add\n        /* \"#utility.yul\":17072:17098   */\n      swap1\n      pop\n        /* \"#utility.yul\":17108:17179   */\n      tag_400\n        /* \"#utility.yul\":17176:17177   */\n      0x00\n        /* \"#utility.yul\":17165:17174   */\n      dup4\n        /* \"#utility.yul\":17161:17178   */\n      add\n        /* \"#utility.yul\":17152:17158   */\n      dup6\n        /* \"#utility.yul\":17108:17179   */\n      tag_193\n      jump\t// in\n    tag_400:\n        /* \"#utility.yul\":17189:17261   */\n      tag_401\n        /* \"#utility.yul\":17257:17259   */\n      0x20\n        /* \"#utility.yul\":17246:17255   */\n      dup4\n        /* \"#utility.yul\":17242:17260   */\n      add\n        /* \"#utility.yul\":17233:17239   */\n      dup5\n        /* \"#utility.yul\":17189:17261   */\n      tag_195\n      jump\t// in\n    tag_401:\n        /* \"#utility.yul\":16936:17268   */\n      swap4\n      swap3\n      pop\n      pop\n      pop\n      jump\t// out\n        /* \"#utility.yul\":17274:17390   */\n    tag_234:\n        /* \"#utility.yul\":17344:17365   */\n      tag_403\n        /* \"#utility.yul\":17359:17364   */\n      dup2\n        /* \"#utility.yul\":17344:17365   */\n      tag_204\n      jump\t// in\n    tag_403:\n        /* \"#utility.yul\":17337:17342   */\n      dup2\n        /* \"#utility.yul\":17334:17366   */\n      eq\n        /* \"#utility.yul\":17324:17384   */\n      tag_404\n      jumpi\n        /* \"#utility.yul\":17380:17381   */\n      0x00\n        /* \"#utility.yul\":17377:17378   */\n      dup1\n        /* \"#utility.yul\":17370:17382   */\n      revert\n        /* \"#utility.yul\":17324:17384   */\n    tag_404:\n        /* \"#utility.yul\":17274:17390   */\n      pop\n      jump\t// out\n        /* \"#utility.yul\":17396:17533   */\n    tag_235:\n        /* \"#utility.yul\":17450:17455   */\n      0x00\n        /* \"#utility.yul\":17481:17487   */\n      dup2\n        /* \"#utility.yul\":17475:17488   */\n      mload\n        /* \"#utility.yul\":17466:17488   */\n      swap1\n      pop\n        /* \"#utility.yul\":17497:17527   */\n      tag_406\n        /* \"#utility.yul\":17521:17526   */\n      dup2\n        /* \"#utility.yul\":17497:17527   */\n      tag_234\n      jump\t// in\n    tag_406:\n        /* \"#utility.yul\":17396:17533   */\n      swap3\n      swap2\n      pop\n      pop\n      jump\t// out\n        /* \"#utility.yul\":17539:17884   */\n    tag_122:\n        /* \"#utility.yul\":17606:17612   */\n      0x00\n        /* \"#utility.yul\":17655:17657   */\n      0x20\n        /* \"#utility.yul\":17643:17652   */\n      dup3\n        /* \"#utility.yul\":17634:17641   */\n      dup5\n        /* \"#utility.yul\":17630:17653   */\n      sub\n        /* \"#utility.yul\":17626:17658   */\n      slt\n        /* \"#utility.yul\":17623:17742   */\n      iszero\n      tag_408\n      jumpi\n        /* \"#utility.yul\":17661:17740   */\n      tag_409\n      tag_197\n      jump\t// in\n    tag_409:\n        /* \"#utility.yul\":17623:17742   */\n    tag_408:\n        /* \"#utility.yul\":17781:17782   */\n      0x00\n        /* \"#utility.yul\":17806:17867   */\n      tag_410\n        /* \"#utility.yul\":17859:17866   */\n      dup5\n        /* \"#utility.yul\":17850:17856   */\n      dup3\n        /* \"#utility.yul\":17839:17848   */\n      dup6\n        /* \"#utility.yul\":17835:17857   */\n      add\n        /* \"#utility.yul\":17806:17867   */\n      tag_235\n      jump\t// in\n    tag_410:\n        /* \"#utility.yul\":17796:17867   */\n      swap2\n      pop\n        /* \"#utility.yul\":17752:17877   */\n      pop\n        /* \"#utility.yul\":17539:17884   */\n      swap3\n      swap2\n      pop\n      pop\n      jump\t// out\n        /* \"#utility.yul\":17890:18067   */\n    tag_236:\n        /* \"#utility.yul\":18030:18059   */\n      0x50656c6957616c6c65743a205472616e73666572204661696c65640000000000\n        /* \"#utility.yul\":18026:18027   */\n      0x00\n        /* \"#utility.yul\":18018:18024   */\n      dup3\n        /* \"#utility.yul\":18014:18028   */\n      add\n        /* \"#utility.yul\":18007:18060   */\n      mstore\n        /* \"#utility.yul\":17890:18067   */\n      pop\n      jump\t// out\n        /* \"#utility.yul\":18073:18439   */\n    tag_237:\n        /* \"#utility.yul\":18215:18218   */\n      0x00\n        /* \"#utility.yul\":18236:18303   */\n      tag_413\n        /* \"#utility.yul\":18300:18302   */\n      0x1b\n        /* \"#utility.yul\":18295:18298   */\n      dup4\n        /* \"#utility.yul\":18236:18303   */\n      tag_229\n      jump\t// in\n    tag_413:\n        /* \"#utility.yul\":18229:18303   */\n      swap2\n      pop\n        /* \"#utility.yul\":18312:18405   */\n      tag_414\n        /* \"#utility.yul\":18401:18404   */\n      dup3\n        /* \"#utility.yul\":18312:18405   */\n      tag_236\n      jump\t// in\n    tag_414:\n        /* \"#utility.yul\":18430:18432   */\n      0x20\n        /* \"#utility.yul\":18425:18428   */\n      dup3\n        /* \"#utility.yul\":18421:18433   */\n      add\n        /* \"#utility.yul\":18414:18433   */\n      swap1\n      pop\n        /* \"#utility.yul\":18073:18439   */\n      swap2\n      swap1\n      pop\n      jump\t// out\n        /* \"#utility.yul\":18445:18864   */\n    tag_125:\n        /* \"#utility.yul\":18611:18615   */\n      0x00\n        /* \"#utility.yul\":18649:18651   */\n      0x20\n        /* \"#utility.yul\":18638:18647   */\n      dup3\n        /* \"#utility.yul\":18634:18652   */\n      add\n        /* \"#utility.yul\":18626:18652   */\n      swap1\n      pop\n        /* \"#utility.yul\":18698:18707   */\n      dup2\n        /* \"#utility.yul\":18692:18696   */\n      dup2\n        /* \"#utility.yul\":18688:18708   */\n      sub\n        /* \"#utility.yul\":18684:18685   */\n      0x00\n        /* \"#utility.yul\":18673:18682   */\n      dup4\n        /* \"#utility.yul\":18669:18686   */\n      add\n        /* \"#utility.yul\":18662:18709   */\n      mstore\n        /* \"#utility.yul\":18726:18857   */\n      tag_416\n        /* \"#utility.yul\":18852:18856   */\n      dup2\n        /* \"#utility.yul\":18726:18857   */\n      tag_237\n      jump\t// in\n    tag_416:\n        /* \"#utility.yul\":18718:18857   */\n      swap1\n      pop\n        /* \"#utility.yul\":18445:18864   */\n      swap2\n      swap1\n      pop\n      jump\t// out\n        /* \"#utility.yul\":18870:19312   */\n    tag_127:\n        /* \"#utility.yul\":19019:19023   */\n      0x00\n        /* \"#utility.yul\":19057:19059   */\n      0x60\n        /* \"#utility.yul\":19046:19055   */\n      dup3\n        /* \"#utility.yul\":19042:19060   */\n      add\n        /* \"#utility.yul\":19034:19060   */\n      swap1\n      pop\n        /* \"#utility.yul\":19070:19141   */\n      tag_418\n        /* \"#utility.yul\":19138:19139   */\n      0x00\n        /* \"#utility.yul\":19127:19136   */\n      dup4\n        /* \"#utility.yul\":19123:19140   */\n      add\n        /* \"#utility.yul\":19114:19120   */\n      dup7\n        /* \"#utility.yul\":19070:19141   */\n      tag_193\n      jump\t// in\n    tag_418:\n        /* \"#utility.yul\":19151:19223   */\n      tag_419\n        /* \"#utility.yul\":19219:19221   */\n      0x20\n        /* \"#utility.yul\":19208:19217   */\n      dup4\n        /* \"#utility.yul\":19204:19222   */\n      add\n        /* \"#utility.yul\":19195:19201   */\n      dup6\n        /* \"#utility.yul\":19151:19223   */\n      tag_193\n      jump\t// in\n    tag_419:\n        /* \"#utility.yul\":19233:19305   */\n      tag_420\n        /* \"#utility.yul\":19301:19303   */\n      0x40\n        /* \"#utility.yul\":19290:19299   */\n      dup4\n        /* \"#utility.yul\":19286:19304   */\n      add\n        /* \"#utility.yul\":19277:19283   */\n      dup5\n        /* \"#utility.yul\":19233:19305   */\n      tag_195\n      jump\t// in\n    tag_420:\n        /* \"#utility.yul\":18870:19312   */\n      swap5\n      swap4\n      pop\n      pop\n      pop\n      pop\n      jump\t// out\n        /* \"#utility.yul\":19318:19543   */\n    tag_238:\n        /* \"#utility.yul\":19458:19492   */\n      0x4f776e61626c653a206e6577206f776e657220697320746865207a65726f2061\n        /* \"#utility.yul\":19454:19455   */\n      0x00\n        /* \"#utility.yul\":19446:19452   */\n      dup3\n        /* \"#utility.yul\":19442:19456   */\n      add\n        /* \"#utility.yul\":19435:19493   */\n      mstore\n        /* \"#utility.yul\":19527:19535   */\n      0x6464726573730000000000000000000000000000000000000000000000000000\n        /* \"#utility.yul\":19522:19524   */\n      0x20\n        /* \"#utility.yul\":19514:19520   */\n      dup3\n        /* \"#utility.yul\":19510:19525   */\n      add\n        /* \"#utility.yul\":19503:19536   */\n      mstore\n        /* \"#utility.yul\":19318:19543   */\n      pop\n      jump\t// out\n        /* \"#utility.yul\":19549:19915   */\n    tag_239:\n        /* \"#utility.yul\":19691:19694   */\n      0x00\n        /* \"#utility.yul\":19712:19779   */\n      tag_423\n        /* \"#utility.yul\":19776:19778   */\n      0x26\n        /* \"#utility.yul\":19771:19774   */\n      dup4\n        /* \"#utility.yul\":19712:19779   */\n      tag_229\n      jump\t// in\n    tag_423:\n        /* \"#utility.yul\":19705:19779   */\n      swap2\n      pop\n        /* \"#utility.yul\":19788:19881   */\n      tag_424\n        /* \"#utility.yul\":19877:19880   */\n      dup3\n        /* \"#utility.yul\":19788:19881   */\n      tag_238\n      jump\t// in\n    tag_424:\n        /* \"#utility.yul\":19906:19908   */\n      0x40\n        /* \"#utility.yul\":19901:19904   */\n      dup3\n        /* \"#utility.yul\":19897:19909   */\n      add\n        /* \"#utility.yul\":19890:19909   */\n      swap1\n      pop\n        /* \"#utility.yul\":19549:19915   */\n      swap2\n      swap1\n      pop\n      jump\t// out\n        /* \"#utility.yul\":19921:20340   */\n    tag_142:\n        /* \"#utility.yul\":20087:20091   */\n      0x00\n        /* \"#utility.yul\":20125:20127   */\n      0x20\n        /* \"#utility.yul\":20114:20123   */\n      dup3\n        /* \"#utility.yul\":20110:20128   */\n      add\n        /* \"#utility.yul\":20102:20128   */\n      swap1\n      pop\n        /* \"#utility.yul\":20174:20183   */\n      dup2\n        /* \"#utility.yul\":20168:20172   */\n      dup2\n        /* \"#utility.yul\":20164:20184   */\n      sub\n        /* \"#utility.yul\":20160:20161   */\n      0x00\n        /* \"#utility.yul\":20149:20158   */\n      dup4\n        /* \"#utility.yul\":20145:20162   */\n      add\n        /* \"#utility.yul\":20138:20185   */\n      mstore\n        /* \"#utility.yul\":20202:20333   */\n      tag_426\n        /* \"#utility.yul\":20328:20332   */\n      dup2\n        /* \"#utility.yul\":20202:20333   */\n      tag_239\n      jump\t// in\n    tag_426:\n        /* \"#utility.yul\":20194:20333   */\n      swap1\n      pop\n        /* \"#utility.yul\":19921:20340   */\n      swap2\n      swap1\n      pop\n      jump\t// out\n        /* \"#utility.yul\":20346:20528   */\n    tag_240:\n        /* \"#utility.yul\":20486:20520   */\n      0x4f776e61626c653a2063616c6c6572206973206e6f7420746865206f776e6572\n        /* \"#utility.yul\":20482:20483   */\n      0x00\n        /* \"#utility.yul\":20474:20480   */\n      dup3\n        /* \"#utility.yul\":20470:20484   */\n      add\n        /* \"#utility.yul\":20463:20521   */\n      mstore\n        /* \"#utility.yul\":20346:20528   */\n      pop\n      jump\t// out\n        /* \"#utility.yul\":20534:20900   */\n    tag_241:\n        /* \"#utility.yul\":20676:20679   */\n      0x00\n        /* \"#utility.yul\":20697:20764   */\n      tag_429\n        /* \"#utility.yul\":20761:20763   */\n      0x20\n        /* \"#utility.yul\":20756:20759   */\n      dup4\n        /* \"#utility.yul\":20697:20764   */\n      tag_229\n      jump\t// in\n    tag_429:\n        /* \"#utility.yul\":20690:20764   */\n      swap2\n      pop\n        /* \"#utility.yul\":20773:20866   */\n      tag_430\n        /* \"#utility.yul\":20862:20865   */\n      dup3\n        /* \"#utility.yul\":20773:20866   */\n      tag_240\n      jump\t// in\n    tag_430:\n        /* \"#utility.yul\":20891:20893   */\n      0x20\n        /* \"#utility.yul\":20886:20889   */\n      dup3\n        /* \"#utility.yul\":20882:20894   */\n      add\n        /* \"#utility.yul\":20875:20894   */\n      swap1\n      pop\n        /* \"#utility.yul\":20534:20900   */\n      swap2\n      swap1\n      pop\n      jump\t// out\n        /* \"#utility.yul\":20906:21325   */\n    tag_162:\n        /* \"#utility.yul\":21072:21076   */\n      0x00\n        /* \"#utility.yul\":21110:21112   */\n      0x20\n        /* \"#utility.yul\":21099:21108   */\n      dup3\n        /* \"#utility.yul\":21095:21113   */\n      add\n        /* \"#utility.yul\":21087:21113   */\n      swap1\n      pop\n        /* \"#utility.yul\":21159:21168   */\n      dup2\n        /* \"#utility.yul\":21153:21157   */\n      dup2\n        /* \"#utility.yul\":21149:21169   */\n      sub\n        /* \"#utility.yul\":21145:21146   */\n      0x00\n        /* \"#utility.yul\":21134:21143   */\n      dup4\n        /* \"#utility.yul\":21130:21147   */\n      add\n        /* \"#utility.yul\":21123:21170   */\n      mstore\n        /* \"#utility.yul\":21187:21318   */\n      tag_432\n        /* \"#utility.yul\":21313:21317   */\n      dup2\n        /* \"#utility.yul\":21187:21318   */\n      tag_241\n      jump\t// in\n    tag_432:\n        /* \"#utility.yul\":21179:21318   */\n      swap1\n      pop\n        /* \"#utility.yul\":20906:21325   */\n      swap2\n      swap1\n      pop\n      jump\t// out\n        /* \"#utility.yul\":21331:21497   */\n    tag_242:\n        /* \"#utility.yul\":21471:21489   */\n      0x5061757361626c653a2070617573656400000000000000000000000000000000\n        /* \"#utility.yul\":21467:21468   */\n      0x00\n        /* \"#utility.yul\":21459:21465   */\n      dup3\n        /* \"#utility.yul\":21455:21469   */\n      add\n        /* \"#utility.yul\":21448:21490   */\n      mstore\n        /* \"#utility.yul\":21331:21497   */\n      pop\n      jump\t// out\n        /* \"#utility.yul\":21503:21869   */\n    tag_243:\n        /* \"#utility.yul\":21645:21648   */\n      0x00\n        /* \"#utility.yul\":21666:21733   */\n      tag_435\n        /* \"#utility.yul\":21730:21732   */\n      0x10\n        /* \"#utility.yul\":21725:21728   */\n      dup4\n        /* \"#utility.yul\":21666:21733   */\n      tag_229\n      jump\t// in\n    tag_435:\n        /* \"#utility.yul\":21659:21733   */\n      swap2\n      pop\n        /* \"#utility.yul\":21742:21835   */\n      tag_436\n        /* \"#utility.yul\":21831:21834   */\n      dup3\n        /* \"#utility.yul\":21742:21835   */\n      tag_242\n      jump\t// in\n    tag_436:\n        /* \"#utility.yul\":21860:21862   */\n      0x20\n        /* \"#utility.yul\":21855:21858   */\n      dup3\n        /* \"#utility.yul\":21851:21863   */\n      add\n        /* \"#utility.yul\":21844:21863   */\n      swap1\n      pop\n        /* \"#utility.yul\":21503:21869   */\n      swap2\n      swap1\n      pop\n      jump\t// out\n        /* \"#utility.yul\":21875:22294   */\n    tag_179:\n        /* \"#utility.yul\":22041:22045   */\n      0x00\n        /* \"#utility.yul\":22079:22081   */\n      0x20\n        /* \"#utility.yul\":22068:22077   */\n      dup3\n        /* \"#utility.yul\":22064:22082   */\n      add\n        /* \"#utility.yul\":22056:22082   */\n      swap1\n      pop\n        /* \"#utility.yul\":22128:22137   */\n      dup2\n        /* \"#utility.yul\":22122:22126   */\n      dup2\n        /* \"#utility.yul\":22118:22138   */\n      sub\n        /* \"#utility.yul\":22114:22115   */\n      0x00\n        /* \"#utility.yul\":22103:22112   */\n      dup4\n        /* \"#utility.yul\":22099:22116   */\n      add\n        /* \"#utility.yul\":22092:22139   */\n      mstore\n        /* \"#utility.yul\":22156:22287   */\n      tag_438\n        /* \"#utility.yul\":22282:22286   */\n      dup2\n        /* \"#utility.yul\":22156:22287   */\n      tag_243\n      jump\t// in\n    tag_438:\n        /* \"#utility.yul\":22148:22287   */\n      swap1\n      pop\n        /* \"#utility.yul\":21875:22294   */\n      swap2\n      swap1\n      pop\n      jump\t// out\n        /* \"#utility.yul\":22300:22481   */\n    tag_244:\n        /* \"#utility.yul\":22440:22473   */\n      0x5265656e7472616e637947756172643a207265656e7472616e742063616c6c00\n        /* \"#utility.yul\":22436:22437   */\n      0x00\n        /* \"#utility.yul\":22428:22434   */\n      dup3\n        /* \"#utility.yul\":22424:22438   */\n      add\n        /* \"#utility.yul\":22417:22474   */\n      mstore\n        /* \"#utility.yul\":22300:22481   */\n      pop\n      jump\t// out\n        /* \"#utility.yul\":22487:22853   */\n    tag_245:\n        /* \"#utility.yul\":22629:22632   */\n      0x00\n        /* \"#utility.yul\":22650:22717   */\n      tag_441\n        /* \"#utility.yul\":22714:22716   */\n      0x1f\n        /* \"#utility.yul\":22709:22712   */\n      dup4\n        /* \"#utility.yul\":22650:22717   */\n      tag_229\n      jump\t// in\n    tag_441:\n        /* \"#utility.yul\":22643:22717   */\n      swap2\n      pop\n        /* \"#utility.yul\":22726:22819   */\n      tag_442\n        /* \"#utility.yul\":22815:22818   */\n      dup3\n        /* \"#utility.yul\":22726:22819   */\n      tag_244\n      jump\t// in\n    tag_442:\n        /* \"#utility.yul\":22844:22846   */\n      0x20\n        /* \"#utility.yul\":22839:22842   */\n      dup3\n        /* \"#utility.yul\":22835:22847   */\n      add\n        /* \"#utility.yul\":22828:22847   */\n      swap1\n      pop\n        /* \"#utility.yul\":22487:22853   */\n      swap2\n      swap1\n      pop\n      jump\t// out\n        /* \"#utility.yul\":22859:23278   */\n    tag_183:\n        /* \"#utility.yul\":23025:23029   */\n      0x00\n        /* \"#utility.yul\":23063:23065   */\n      0x20\n        /* \"#utility.yul\":23052:23061   */\n      dup3\n        /* \"#utility.yul\":23048:23066   */\n      add\n        /* \"#utility.yul\":23040:23066   */\n      swap1\n      pop\n        /* \"#utility.yul\":23112:23121   */\n      dup2\n        /* \"#utility.yul\":23106:23110   */\n      dup2\n        /* \"#utility.yul\":23102:23122   */\n      sub\n        /* \"#utility.yul\":23098:23099   */\n      0x00\n        /* \"#utility.yul\":23087:23096   */\n      dup4\n        /* \"#utility.yul\":23083:23100   */\n      add\n        /* \"#utility.yul\":23076:23123   */\n      mstore\n        /* \"#utility.yul\":23140:23271   */\n      tag_444\n        /* \"#utility.yul\":23266:23270   */\n      dup2\n        /* \"#utility.yul\":23140:23271   */\n      tag_245\n      jump\t// in\n    tag_444:\n        /* \"#utility.yul\":23132:23271   */\n      swap1\n      pop\n        /* \"#utility.yul\":22859:23278   */\n      swap2\n      swap1\n      pop\n      jump\t// out\n        /* \"#utility.yul\":23284:23454   */\n    tag_246:\n        /* \"#utility.yul\":23424:23446   */\n      0x5061757361626c653a206e6f7420706175736564000000000000000000000000\n        /* \"#utility.yul\":23420:23421   */\n      0x00\n        /* \"#utility.yul\":23412:23418   */\n      dup3\n        /* \"#utility.yul\":23408:23422   */\n      add\n        /* \"#utility.yul\":23401:23447   */\n      mstore\n        /* \"#utility.yul\":23284:23454   */\n      pop\n      jump\t// out\n        /* \"#utility.yul\":23460:23826   */\n    tag_247:\n        /* \"#utility.yul\":23602:23605   */\n      0x00\n        /* \"#utility.yul\":23623:23690   */\n      tag_447\n        /* \"#utility.yul\":23687:23689   */\n      0x14\n        /* \"#utility.yul\":23682:23685   */\n      dup4\n        /* \"#utility.yul\":23623:23690   */\n      tag_229\n      jump\t// in\n    tag_447:\n        /* \"#utility.yul\":23616:23690   */\n      swap2\n      pop\n        /* \"#utility.yul\":23699:23792   */\n      tag_448\n        /* \"#utility.yul\":23788:23791   */\n      dup3\n        /* \"#utility.yul\":23699:23792   */\n      tag_246\n      jump\t// in\n    tag_448:\n        /* \"#utility.yul\":23817:23819   */\n      0x20\n        /* \"#utility.yul\":23812:23815   */\n      dup3\n        /* \"#utility.yul\":23808:23820   */\n      add\n        /* \"#utility.yul\":23801:23820   */\n      swap1\n      pop\n        /* \"#utility.yul\":23460:23826   */\n      swap2\n      swap1\n      pop\n      jump\t// out\n        /* \"#utility.yul\":23832:24251   */\n    tag_190:\n        /* \"#utility.yul\":23998:24002   */\n      0x00\n        /* \"#utility.yul\":24036:24038   */\n      0x20\n        /* \"#utility.yul\":24025:24034   */\n      dup3\n        /* \"#utility.yul\":24021:24039   */\n      add\n        /* \"#utility.yul\":24013:24039   */\n      swap1\n      pop\n        /* \"#utility.yul\":24085:24094   */\n      dup2\n        /* \"#utility.yul\":24079:24083   */\n      dup2\n        /* \"#utility.yul\":24075:24095   */\n      sub\n        /* \"#utility.yul\":24071:24072   */\n      0x00\n        /* \"#utility.yul\":24060:24069   */\n      dup4\n        /* \"#utility.yul\":24056:24073   */\n      add\n        /* \"#utility.yul\":24049:24096   */\n      mstore\n        /* \"#utility.yul\":24113:24244   */\n      tag_450\n        /* \"#utility.yul\":24239:24243   */\n      dup2\n        /* \"#utility.yul\":24113:24244   */\n      tag_247\n      jump\t// in\n    tag_450:\n        /* \"#utility.yul\":24105:24244   */\n      swap1\n      pop\n        /* \"#utility.yul\":23832:24251   */\n      swap2\n      swap1\n      pop\n      jump\t// out\n\n    auxdata: 0xa26469706673582212202d5769e05921653b7847f8622ac5b5402fc1af99a99bc591ab1b04b0f6cb15be64736f6c63430008110033\n}\n\nsub_1: assembly {\n        /* \"contracts/Transactions.sol\":298:1937  contract Transactions is Ownable, Pausable{... */\n      mstore(0x40, 0x80)\n      callvalue\n      dup1\n      iszero\n      tag_1\n      jumpi\n      0x00\n      dup1\n      revert\n    tag_1:\n      pop\n        /* \"@openzeppelin/contracts/access/Ownable.sol\":936:968  _transferOwnership(_msgSender()) */\n      tag_5\n        /* \"@openzeppelin/contracts/access/Ownable.sol\":955:967  _msgSender() */\n      tag_6\n        /* \"@openzeppelin/contracts/access/Ownable.sol\":955:965  _msgSender */\n      shl(0x20, tag_7)\n        /* \"@openzeppelin/contracts/access/Ownable.sol\":955:967  _msgSender() */\n      0x20\n      shr\n      jump\t// in\n    tag_6:\n        /* \"@openzeppelin/contracts/access/Ownable.sol\":936:954  _transferOwnership */\n      shl(0x20, tag_8)\n        /* \"@openzeppelin/contracts/access/Ownable.sol\":936:968  _transferOwnership(_msgSender()) */\n      0x20\n      shr\n      jump\t// in\n    tag_5:\n        /* \"@openzeppelin/contracts/security/Pausable.sol\":1006:1011  false */\n      0x00\n        /* \"@openzeppelin/contracts/security/Pausable.sol\":996:1003  _paused */\n      dup1\n      0x14\n        /* \"@openzeppelin/contracts/security/Pausable.sol\":996:1011  _paused = false */\n      0x0100\n      exp\n      dup2\n      sload\n      dup2\n      0xff\n      mul\n      not\n      and\n      swap1\n      dup4\n      iszero\n      iszero\n      mul\n      or\n      swap1\n      sstore\n      pop\n        /* \"contracts/Transactions.sol\":298:1937  contract Transactions is Ownable, Pausable{... */\n      jump(tag_10)\n        /* \"@openzeppelin/contracts/utils/Context.sol\":640:736  function _msgSender() internal view virtual returns (address) {... */\n    tag_7:\n        /* \"@openzeppelin/contracts/utils/Context.sol\":693:700  address */\n      0x00\n        /* \"@openzeppelin/contracts/utils/Context.sol\":719:729  msg.sender */\n      caller\n        /* \"@openzeppelin/contracts/utils/Context.sol\":712:729  return msg.sender */\n      swap1\n      pop\n        /* \"@openzeppelin/contracts/utils/Context.sol\":640:736  function _msgSender() internal view virtual returns (address) {... */\n      swap1\n      jump\t// out\n        /* \"@openzeppelin/contracts/access/Ownable.sol\":2433:2620  function _transferOwnership(address newOwner) internal virtual {... */\n    tag_8:\n        /* \"@openzeppelin/contracts/access/Ownable.sol\":2506:2522  address oldOwner */\n      0x00\n        /* \"@openzeppelin/contracts/access/Ownable.sol\":2525:2531  _owner */\n      dup1\n      0x00\n      swap1\n      sload\n      swap1\n      0x0100\n      exp\n      swap1\n      div\n      0xffffffffffffffffffffffffffffffffffffffff\n      and\n        /* \"@openzeppelin/contracts/access/Ownable.sol\":2506:2531  address oldOwner = _owner */\n      swap1\n      pop\n        /* \"@openzeppelin/contracts/access/Ownable.sol\":2550:2558  newOwner */\n      dup2\n        /* \"@openzeppelin/contracts/access/Ownable.sol\":2541:2547  _owner */\n      0x00\n      dup1\n        /* \"@openzeppelin/contracts/access/Ownable.sol\":2541:2558  _owner = newOwner */\n      0x0100\n      exp\n      dup2\n      sload\n      dup2\n      0xffffffffffffffffffffffffffffffffffffffff\n      mul\n      not\n      and\n      swap1\n      dup4\n      0xffffffffffffffffffffffffffffffffffffffff\n      and\n      mul\n      or\n      swap1\n      sstore\n      pop\n        /* \"@openzeppelin/contracts/access/Ownable.sol\":2604:2612  newOwner */\n      dup2\n        /* \"@openzeppelin/contracts/access/Ownable.sol\":2573:2613  OwnershipTransferred(oldOwner, newOwner) */\n      0xffffffffffffffffffffffffffffffffffffffff\n      and\n        /* \"@openzeppelin/contracts/access/Ownable.sol\":2594:2602  oldOwner */\n      dup2\n        /* \"@openzeppelin/contracts/access/Ownable.sol\":2573:2613  OwnershipTransferred(oldOwner, newOwner) */\n      0xffffffffffffffffffffffffffffffffffffffff\n      and\n      0x8be0079c531659141344cd1fd0a4f28419497f9722a3daafe3b4186f6b6457e0\n      mload(0x40)\n      mload(0x40)\n      dup1\n      swap2\n      sub\n      swap1\n      log3\n        /* \"@openzeppelin/contracts/access/Ownable.sol\":2496:2620  {... */\n      pop\n        /* \"@openzeppelin/contracts/access/Ownable.sol\":2433:2620  function _transferOwnership(address newOwner) internal virtual {... */\n      pop\n      jump\t// out\n        /* \"contracts/Transactions.sol\":298:1937  contract Transactions is Ownable, Pausable{... */\n    tag_10:\n      dataSize(sub_0)\n      dup1\n      dataOffset(sub_0)\n      0x00\n      codecopy\n      0x00\n      return\n    stop\n\n    sub_0: assembly {\n            /* \"contracts/Transactions.sol\":298:1937  contract Transactions is Ownable, Pausable{... */\n          mstore(0x40, 0x80)\n          callvalue\n          dup1\n          iszero\n          tag_1\n          jumpi\n          0x00\n          dup1\n          revert\n        tag_1:\n          pop\n          jumpi(tag_2, lt(calldatasize, 0x04))\n          shr(0xe0, calldataload(0x00))\n          dup1\n          0x8456cb59\n          gt\n          tag_13\n          jumpi\n          dup1\n          0x8456cb59\n          eq\n          tag_8\n          jumpi\n          dup1\n          0x8da5cb5b\n          eq\n          tag_9\n          jumpi\n          dup1\n          0x9f71c3c9\n          eq\n          tag_10\n          jumpi\n          dup1\n          0xb76d4fc3\n          eq\n          tag_11\n          jumpi\n          dup1\n          0xf2fde38b\n          eq\n          tag_12\n          jumpi\n          jump(tag_2)\n        tag_13:\n          dup1\n          0x0b826afa\n          eq\n          tag_3\n          jumpi\n          dup1\n          0x33ea3dc8\n          eq\n          tag_4\n          jumpi\n          dup1\n          0x3f4ba83a\n          eq\n          tag_5\n          jumpi\n          dup1\n          0x5c975abb\n          eq\n          tag_6\n          jumpi\n          dup1\n          0x715018a6\n          eq\n          tag_7\n          jumpi\n        tag_2:\n          0x00\n          dup1\n          revert\n            /* \"contracts/Transactions.sol\":615:1146  function createTransaction(address from, address to, uint256 amount) external whenNotPaused onlyOwner{... */\n        tag_3:\n          tag_14\n          0x04\n          dup1\n          calldatasize\n          sub\n          dup2\n          add\n          swap1\n          tag_15\n          swap2\n          swap1\n          tag_16\n          jump\t// in\n        tag_15:\n          tag_17\n          jump\t// in\n        tag_14:\n          stop\n            /* \"contracts/Transactions.sol\":1561:1814  function getTransaction(uint256 index) external view returns (Transaction memory){... */\n        tag_4:\n          tag_18\n          0x04\n          dup1\n          calldatasize\n          sub\n          dup2\n          add\n          swap1\n          tag_19\n          swap2\n          swap1\n          tag_20\n          jump\t// in\n        tag_19:\n          tag_21\n          jump\t// in\n        tag_18:\n          mload(0x40)\n          tag_22\n          swap2\n          swap1\n          tag_23\n          jump\t// in\n        tag_22:\n          mload(0x40)\n          dup1\n          swap2\n          sub\n          swap1\n          return\n            /* \"contracts/Transactions.sol\":1881:1934  function unpause() external onlyOwner { _unpause(); } */\n        tag_5:\n          tag_24\n          tag_25\n          jump\t// in\n        tag_24:\n          stop\n            /* \"@openzeppelin/contracts/security/Pausable.sol\":1615:1699  function paused() public view virtual returns (bool) {... */\n        tag_6:\n          tag_26\n          tag_27\n          jump\t// in\n        tag_26:\n          mload(0x40)\n          tag_28\n          swap2\n          swap1\n          tag_29\n          jump\t// in\n        tag_28:\n          mload(0x40)\n          dup1\n          swap2\n          sub\n          swap1\n          return\n            /* \"@openzeppelin/contracts/access/Ownable.sol\":1831:1932  function renounceOwnership() public virtual onlyOwner {... */\n        tag_7:\n          tag_30\n          tag_31\n          jump\t// in\n        tag_30:\n          stop\n            /* \"contracts/Transactions.sol\":1824:1875  function pause()   external onlyOwner { _pause(); } */\n        tag_8:\n          tag_32\n          tag_33\n          jump\t// in\n        tag_32:\n          stop\n            /* \"@openzeppelin/contracts/access/Ownable.sol\":1201:1286  function owner() public view virtual returns (address) {... */\n        tag_9:\n          tag_34\n          tag_35\n          jump\t// in\n        tag_34:\n          mload(0x40)\n          tag_36\n          swap2\n          swap1\n          tag_37\n          jump\t// in\n        tag_36:\n          mload(0x40)\n          dup1\n          swap2\n          sub\n          swap1\n          return\n            /* \"contracts/Transactions.sol\":1214:1347  function getTransactionHistoryLength() external view returns (uint256){... */\n        tag_10:\n          tag_38\n          tag_39\n          jump\t// in\n        tag_38:\n          mload(0x40)\n          tag_40\n          swap2\n          swap1\n          tag_41\n          jump\t// in\n        tag_40:\n          mload(0x40)\n          dup1\n          swap2\n          sub\n          swap1\n          return\n            /* \"contracts/Transactions.sol\":1387:1520  function getTransactionHistory() external view returns (Transaction[] memory){... */\n        tag_11:\n          tag_42\n          tag_43\n          jump\t// in\n        tag_42:\n          mload(0x40)\n          tag_44\n          swap2\n          swap1\n          tag_45\n          jump\t// in\n        tag_44:\n          mload(0x40)\n          dup1\n          swap2\n          sub\n          swap1\n          return\n            /* \"@openzeppelin/contracts/access/Ownable.sol\":2081:2279  function transferOwnership(address newOwner) public virtual onlyOwner {... */\n        tag_12:\n          tag_46\n          0x04\n          dup1\n          calldatasize\n          sub\n          dup2\n          add\n          swap1\n          tag_47\n          swap2\n          swap1\n          tag_48\n          jump\t// in\n        tag_47:\n          tag_49\n          jump\t// in\n        tag_46:\n          stop\n            /* \"contracts/Transactions.sol\":615:1146  function createTransaction(address from, address to, uint256 amount) external whenNotPaused onlyOwner{... */\n        tag_17:\n            /* \"@openzeppelin/contracts/security/Pausable.sol\":1239:1258  _requireNotPaused() */\n          tag_51\n            /* \"@openzeppelin/contracts/security/Pausable.sol\":1239:1256  _requireNotPaused */\n          tag_52\n            /* \"@openzeppelin/contracts/security/Pausable.sol\":1239:1258  _requireNotPaused() */\n          jump\t// in\n        tag_51:\n            /* \"@openzeppelin/contracts/access/Ownable.sol\":1094:1107  _checkOwner() */\n          tag_54\n            /* \"@openzeppelin/contracts/access/Ownable.sol\":1094:1105  _checkOwner */\n          tag_55\n            /* \"@openzeppelin/contracts/access/Ownable.sol\":1094:1107  _checkOwner() */\n          jump\t// in\n        tag_54:\n            /* \"contracts/Transactions.sol\":761:762  0 */\n          0x00\n            /* \"contracts/Transactions.sol\":745:763  from != address(0) */\n          0xffffffffffffffffffffffffffffffffffffffff\n          and\n            /* \"contracts/Transactions.sol\":745:749  from */\n          dup4\n            /* \"contracts/Transactions.sol\":745:763  from != address(0) */\n          0xffffffffffffffffffffffffffffffffffffffff\n          and\n          sub\n            /* \"contracts/Transactions.sol\":737:811  require(from != address(0), \"Transactions: sender cannot be zero address\") */\n          tag_57\n          jumpi\n          mload(0x40)\n          0x08c379a000000000000000000000000000000000000000000000000000000000\n          dup2\n          mstore\n          0x04\n          add\n          tag_58\n          swap1\n          tag_59\n          jump\t// in\n        tag_58:\n          mload(0x40)\n          dup1\n          swap2\n          sub\n          swap1\n          revert\n        tag_57:\n            /* \"contracts/Transactions.sol\":846:847  0 */\n          0x00\n            /* \"contracts/Transactions.sol\":830:848  to   != address(0) */\n          0xffffffffffffffffffffffffffffffffffffffff\n          and\n            /* \"contracts/Transactions.sol\":830:832  to */\n          dup3\n            /* \"contracts/Transactions.sol\":830:848  to   != address(0) */\n          0xffffffffffffffffffffffffffffffffffffffff\n          and\n          sub\n            /* \"contracts/Transactions.sol\":822:899  require(to   != address(0), \"Transactions: recipient cannot be zero address\") */\n          tag_60\n          jumpi\n          mload(0x40)\n          0x08c379a000000000000000000000000000000000000000000000000000000000\n          dup2\n          mstore\n          0x04\n          add\n          tag_61\n          swap1\n          tag_62\n          jump\t// in\n        tag_61:\n          mload(0x40)\n          dup1\n          swap2\n          sub\n          swap1\n          revert\n        tag_60:\n            /* \"contracts/Transactions.sol\":927:928  0 */\n          0x00\n            /* \"contracts/Transactions.sol\":918:924  amount */\n          dup2\n            /* \"contracts/Transactions.sol\":918:928  amount > 0 */\n          gt\n            /* \"contracts/Transactions.sol\":910:987  require(amount > 0,         \"Transactions: amount must be greater than zero\") */\n          tag_63\n          jumpi\n          mload(0x40)\n          0x08c379a000000000000000000000000000000000000000000000000000000000\n          dup2\n          mstore\n          0x04\n          add\n          tag_64\n          swap1\n          tag_65\n          jump\t// in\n        tag_64:\n          mload(0x40)\n          dup1\n          swap2\n          sub\n          swap1\n          revert\n        tag_63:\n            /* \"contracts/Transactions.sol\":1000:1030  Transaction memory transaction */\n          0x00\n            /* \"contracts/Transactions.sol\":1033:1079  Transaction(from, to, amount, block.timestamp) */\n          mload(0x40)\n          dup1\n          0x80\n          add\n          0x40\n          mstore\n          dup1\n            /* \"contracts/Transactions.sol\":1045:1049  from */\n          dup6\n            /* \"contracts/Transactions.sol\":1033:1079  Transaction(from, to, amount, block.timestamp) */\n          0xffffffffffffffffffffffffffffffffffffffff\n          and\n          dup2\n          mstore\n          0x20\n          add\n            /* \"contracts/Transactions.sol\":1051:1053  to */\n          dup5\n            /* \"contracts/Transactions.sol\":1033:1079  Transaction(from, to, amount, block.timestamp) */\n          0xffffffffffffffffffffffffffffffffffffffff\n          and\n          dup2\n          mstore\n          0x20\n          add\n            /* \"contracts/Transactions.sol\":1055:1061  amount */\n          dup4\n            /* \"contracts/Transactions.sol\":1033:1079  Transaction(from, to, amount, block.timestamp) */\n          dup2\n          mstore\n          0x20\n          add\n            /* \"contracts/Transactions.sol\":1063:1078  block.timestamp */\n          timestamp\n            /* \"contracts/Transactions.sol\":1033:1079  Transaction(from, to, amount, block.timestamp) */\n          dup2\n          mstore\n          pop\n            /* \"contracts/Transactions.sol\":1000:1079  Transaction memory transaction = Transaction(from, to, amount, block.timestamp) */\n          swap1\n          pop\n            /* \"contracts/Transactions.sol\":1090:1108  transactionHistory */\n          0x01\n            /* \"contracts/Transactions.sol\":1090:1120  transactionHistory[msg.sender] */\n          0x00\n            /* \"contracts/Transactions.sol\":1109:1119  msg.sender */\n          caller\n            /* \"contracts/Transactions.sol\":1090:1120  transactionHistory[msg.sender] */\n          0xffffffffffffffffffffffffffffffffffffffff\n          and\n          0xffffffffffffffffffffffffffffffffffffffff\n          and\n          dup2\n          mstore\n          0x20\n          add\n          swap1\n          dup2\n          mstore\n          0x20\n          add\n          0x00\n          keccak256\n            /* \"contracts/Transactions.sol\":1126:1137  transaction */\n          dup2\n            /* \"contracts/Transactions.sol\":1090:1138  transactionHistory[msg.sender].push(transaction) */\n          swap1\n          dup1\n          0x01\n          dup2\n          sload\n          add\n          dup1\n          dup3\n          sstore\n          dup1\n          swap2\n          pop\n          pop\n          0x01\n          swap1\n          sub\n          swap1\n          0x00\n          mstore\n          keccak256(0x00, 0x20)\n          swap1\n          0x04\n          mul\n          add\n          0x00\n          swap1\n          swap2\n          swap1\n          swap2\n          swap1\n          swap2\n          pop\n          0x00\n          dup3\n          add\n          mload\n          dup2\n          0x00\n          add\n          exp(0x0100, 0x00)\n          dup2\n          sload\n          dup2\n          0xffffffffffffffffffffffffffffffffffffffff\n          mul\n          not\n          and\n          swap1\n          dup4\n          0xffffffffffffffffffffffffffffffffffffffff\n          and\n          mul\n          or\n          swap1\n          sstore\n          pop\n          0x20\n          dup3\n          add\n          mload\n          dup2\n          0x01\n          add\n          exp(0x0100, 0x00)\n          dup2\n          sload\n          dup2\n          0xffffffffffffffffffffffffffffffffffffffff\n          mul\n          not\n          and\n          swap1\n          dup4\n          0xffffffffffffffffffffffffffffffffffffffff\n          and\n          mul\n          or\n          swap1\n          sstore\n          pop\n          0x40\n          dup3\n          add\n          mload\n          dup2\n          0x02\n          add\n          sstore\n          0x60\n          dup3\n          add\n          mload\n          dup2\n          0x03\n          add\n          sstore\n          pop\n          pop\n            /* \"contracts/Transactions.sol\":716:1146  {... */\n          pop\n            /* \"contracts/Transactions.sol\":615:1146  function createTransaction(address from, address to, uint256 amount) external whenNotPaused onlyOwner{... */\n          pop\n          pop\n          pop\n          jump\t// out\n            /* \"contracts/Transactions.sol\":1561:1814  function getTransaction(uint256 index) external view returns (Transaction memory){... */\n        tag_21:\n            /* \"contracts/Transactions.sol\":1623:1641  Transaction memory */\n          tag_67\n          tag_68\n          jump\t// in\n        tag_67:\n            /* \"contracts/Transactions.sol\":1679:1697  transactionHistory */\n          0x01\n            /* \"contracts/Transactions.sol\":1679:1709  transactionHistory[msg.sender] */\n          0x00\n            /* \"contracts/Transactions.sol\":1698:1708  msg.sender */\n          caller\n            /* \"contracts/Transactions.sol\":1679:1709  transactionHistory[msg.sender] */\n          0xffffffffffffffffffffffffffffffffffffffff\n          and\n          0xffffffffffffffffffffffffffffffffffffffff\n          and\n          dup2\n          mstore\n          0x20\n          add\n          swap1\n          dup2\n          mstore\n          0x20\n          add\n          0x00\n          keccak256\n            /* \"contracts/Transactions.sol\":1679:1716  transactionHistory[msg.sender].length */\n          dup1\n          sload\n          swap1\n          pop\n            /* \"contracts/Transactions.sol\":1671:1676  index */\n          dup3\n            /* \"contracts/Transactions.sol\":1671:1716  index < transactionHistory[msg.sender].length */\n          lt\n            /* \"contracts/Transactions.sol\":1663:1749  require(index < transactionHistory[msg.sender].length, \"Transactions: index too high\") */\n          tag_70\n          jumpi\n          mload(0x40)\n          0x08c379a000000000000000000000000000000000000000000000000000000000\n          dup2\n          mstore\n          0x04\n          add\n          tag_71\n          swap1\n          tag_72\n          jump\t// in\n        tag_71:\n          mload(0x40)\n          dup1\n          swap2\n          sub\n          swap1\n          revert\n        tag_70:\n            /* \"contracts/Transactions.sol\":1769:1787  transactionHistory */\n          0x01\n            /* \"contracts/Transactions.sol\":1769:1799  transactionHistory[msg.sender] */\n          0x00\n            /* \"contracts/Transactions.sol\":1788:1798  msg.sender */\n          caller\n            /* \"contracts/Transactions.sol\":1769:1799  transactionHistory[msg.sender] */\n          0xffffffffffffffffffffffffffffffffffffffff\n          and\n          0xffffffffffffffffffffffffffffffffffffffff\n          and\n          dup2\n          mstore\n          0x20\n          add\n          swap1\n          dup2\n          mstore\n          0x20\n          add\n          0x00\n          keccak256\n            /* \"contracts/Transactions.sol\":1800:1805  index */\n          dup3\n            /* \"contracts/Transactions.sol\":1769:1806  transactionHistory[msg.sender][index] */\n          dup2\n          sload\n          dup2\n          lt\n          tag_73\n          jumpi\n          tag_74\n          tag_75\n          jump\t// in\n        tag_74:\n        tag_73:\n          swap1\n          0x00\n          mstore\n          keccak256(0x00, 0x20)\n          swap1\n          0x04\n          mul\n          add\n            /* \"contracts/Transactions.sol\":1762:1806  return transactionHistory[msg.sender][index] */\n          mload(0x40)\n          dup1\n          0x80\n          add\n          0x40\n          mstore\n          swap1\n          dup2\n          0x00\n          dup3\n          add\n          0x00\n          swap1\n          sload\n          swap1\n          0x0100\n          exp\n          swap1\n          div\n          0xffffffffffffffffffffffffffffffffffffffff\n          and\n          0xffffffffffffffffffffffffffffffffffffffff\n          and\n          0xffffffffffffffffffffffffffffffffffffffff\n          and\n          dup2\n          mstore\n          0x20\n          add\n          0x01\n          dup3\n          add\n          0x00\n          swap1\n          sload\n          swap1\n          0x0100\n          exp\n          swap1\n          div\n          0xffffffffffffffffffffffffffffffffffffffff\n          and\n          0xffffffffffffffffffffffffffffffffffffffff\n          and\n          0xffffffffffffffffffffffffffffffffffffffff\n          and\n          dup2\n          mstore\n          0x20\n          add\n          0x02\n          dup3\n          add\n          sload\n          dup2\n          mstore\n          0x20\n          add\n          0x03\n          dup3\n          add\n          sload\n          dup2\n          mstore\n          pop\n          pop\n          swap1\n          pop\n            /* \"contracts/Transactions.sol\":1561:1814  function getTransaction(uint256 index) external view returns (Transaction memory){... */\n          swap2\n          swap1\n          pop\n          jump\t// out\n            /* \"contracts/Transactions.sol\":1881:1934  function unpause() external onlyOwner { _unpause(); } */\n        tag_25:\n            /* \"@openzeppelin/contracts/access/Ownable.sol\":1094:1107  _checkOwner() */\n          tag_78\n            /* \"@openzeppelin/contracts/access/Ownable.sol\":1094:1105  _checkOwner */\n          tag_55\n            /* \"@openzeppelin/contracts/access/Ownable.sol\":1094:1107  _checkOwner() */\n          jump\t// in\n        tag_78:\n            /* \"contracts/Transactions.sol\":1921:1931  _unpause() */\n          tag_80\n            /* \"contracts/Transactions.sol\":1921:1929  _unpause */\n          tag_81\n            /* \"contracts/Transactions.sol\":1921:1931  _unpause() */\n          jump\t// in\n        tag_80:\n            /* \"contracts/Transactions.sol\":1881:1934  function unpause() external onlyOwner { _unpause(); } */\n          jump\t// out\n            /* \"@openzeppelin/contracts/security/Pausable.sol\":1615:1699  function paused() public view virtual returns (bool) {... */\n        tag_27:\n            /* \"@openzeppelin/contracts/security/Pausable.sol\":1662:1666  bool */\n          0x00\n            /* \"@openzeppelin/contracts/security/Pausable.sol\":1685:1692  _paused */\n          dup1\n          0x14\n          swap1\n          sload\n          swap1\n          0x0100\n          exp\n          swap1\n          div\n          0xff\n          and\n            /* \"@openzeppelin/contracts/security/Pausable.sol\":1678:1692  return _paused */\n          swap1\n          pop\n            /* \"@openzeppelin/contracts/security/Pausable.sol\":1615:1699  function paused() public view virtual returns (bool) {... */\n          swap1\n          jump\t// out\n            /* \"@openzeppelin/contracts/access/Ownable.sol\":1831:1932  function renounceOwnership() public virtual onlyOwner {... */\n        tag_31:\n            /* \"@openzeppelin/contracts/access/Ownable.sol\":1094:1107  _checkOwner() */\n          tag_84\n            /* \"@openzeppelin/contracts/access/Ownable.sol\":1094:1105  _checkOwner */\n          tag_55\n            /* \"@openzeppelin/contracts/access/Ownable.sol\":1094:1107  _checkOwner() */\n          jump\t// in\n        tag_84:\n            /* \"@openzeppelin/contracts/access/Ownable.sol\":1895:1925  _transferOwnership(address(0)) */\n          tag_86\n            /* \"@openzeppelin/contracts/access/Ownable.sol\":1922:1923  0 */\n          0x00\n            /* \"@openzeppelin/contracts/access/Ownable.sol\":1895:1913  _transferOwnership */\n          tag_87\n            /* \"@openzeppelin/contracts/access/Ownable.sol\":1895:1925  _transferOwnership(address(0)) */\n          jump\t// in\n        tag_86:\n            /* \"@openzeppelin/contracts/access/Ownable.sol\":1831:1932  function renounceOwnership() public virtual onlyOwner {... */\n          jump\t// out\n            /* \"contracts/Transactions.sol\":1824:1875  function pause()   external onlyOwner { _pause(); } */\n        tag_33:\n            /* \"@openzeppelin/contracts/access/Ownable.sol\":1094:1107  _checkOwner() */\n          tag_89\n            /* \"@openzeppelin/contracts/access/Ownable.sol\":1094:1105  _checkOwner */\n          tag_55\n            /* \"@openzeppelin/contracts/access/Ownable.sol\":1094:1107  _checkOwner() */\n          jump\t// in\n        tag_89:\n            /* \"contracts/Transactions.sol\":1864:1872  _pause() */\n          tag_91\n            /* \"contracts/Transactions.sol\":1864:1870  _pause */\n          tag_92\n            /* \"contracts/Transactions.sol\":1864:1872  _pause() */\n          jump\t// in\n        tag_91:\n            /* \"contracts/Transactions.sol\":1824:1875  function pause()   external onlyOwner { _pause(); } */\n          jump\t// out\n            /* \"@openzeppelin/contracts/access/Ownable.sol\":1201:1286  function owner() public view virtual returns (address) {... */\n        tag_35:\n            /* \"@openzeppelin/contracts/access/Ownable.sol\":1247:1254  address */\n          0x00\n            /* \"@openzeppelin/contracts/access/Ownable.sol\":1273:1279  _owner */\n          dup1\n          0x00\n          swap1\n          sload\n          swap1\n          0x0100\n          exp\n          swap1\n          div\n          0xffffffffffffffffffffffffffffffffffffffff\n          and\n            /* \"@openzeppelin/contracts/access/Ownable.sol\":1266:1279  return _owner */\n          swap1\n          pop\n            /* \"@openzeppelin/contracts/access/Ownable.sol\":1201:1286  function owner() public view virtual returns (address) {... */\n          swap1\n          jump\t// out\n            /* \"contracts/Transactions.sol\":1214:1347  function getTransactionHistoryLength() external view returns (uint256){... */\n        tag_39:\n            /* \"contracts/Transactions.sol\":1276:1283  uint256 */\n          0x00\n            /* \"contracts/Transactions.sol\":1302:1320  transactionHistory */\n          0x01\n            /* \"contracts/Transactions.sol\":1302:1332  transactionHistory[msg.sender] */\n          0x00\n            /* \"contracts/Transactions.sol\":1321:1331  msg.sender */\n          caller\n            /* \"contracts/Transactions.sol\":1302:1332  transactionHistory[msg.sender] */\n          0xffffffffffffffffffffffffffffffffffffffff\n          and\n          0xffffffffffffffffffffffffffffffffffffffff\n          and\n          dup2\n          mstore\n          0x20\n          add\n          swap1\n          dup2\n          mstore\n          0x20\n          add\n          0x00\n          keccak256\n            /* \"contracts/Transactions.sol\":1302:1339  transactionHistory[msg.sender].length */\n          dup1\n          sload\n          swap1\n          pop\n            /* \"contracts/Transactions.sol\":1295:1339  return transactionHistory[msg.sender].length */\n          swap1\n          pop\n            /* \"contracts/Transactions.sol\":1214:1347  function getTransactionHistoryLength() external view returns (uint256){... */\n          swap1\n          jump\t// out\n            /* \"contracts/Transactions.sol\":1387:1520  function getTransactionHistory() external view returns (Transaction[] memory){... */\n        tag_43:\n            /* \"contracts/Transactions.sol\":1443:1463  Transaction[] memory */\n          0x60\n            /* \"contracts/Transactions.sol\":1482:1500  transactionHistory */\n          0x01\n            /* \"contracts/Transactions.sol\":1482:1512  transactionHistory[msg.sender] */\n          0x00\n            /* \"contracts/Transactions.sol\":1501:1511  msg.sender */\n          caller\n            /* \"contracts/Transactions.sol\":1482:1512  transactionHistory[msg.sender] */\n          0xffffffffffffffffffffffffffffffffffffffff\n          and\n          0xffffffffffffffffffffffffffffffffffffffff\n          and\n          dup2\n          mstore\n          0x20\n          add\n          swap1\n          dup2\n          mstore\n          0x20\n          add\n          0x00\n          keccak256\n            /* \"contracts/Transactions.sol\":1475:1512  return transactionHistory[msg.sender] */\n          dup1\n          sload\n          dup1\n          0x20\n          mul\n          0x20\n          add\n          mload(0x40)\n          swap1\n          dup2\n          add\n          0x40\n          mstore\n          dup1\n          swap3\n          swap2\n          swap1\n          dup2\n          dup2\n          mstore\n          0x20\n          add\n          0x00\n          swap1\n        tag_96:\n          dup3\n          dup3\n          lt\n          iszero\n          tag_97\n          jumpi\n          dup4\n          dup3\n          swap1\n          0x00\n          mstore\n          keccak256(0x00, 0x20)\n          swap1\n          0x04\n          mul\n          add\n          mload(0x40)\n          dup1\n          0x80\n          add\n          0x40\n          mstore\n          swap1\n          dup2\n          0x00\n          dup3\n          add\n          0x00\n          swap1\n          sload\n          swap1\n          0x0100\n          exp\n          swap1\n          div\n          0xffffffffffffffffffffffffffffffffffffffff\n          and\n          0xffffffffffffffffffffffffffffffffffffffff\n          and\n          0xffffffffffffffffffffffffffffffffffffffff\n          and\n          dup2\n          mstore\n          0x20\n          add\n          0x01\n          dup3\n          add\n          0x00\n          swap1\n          sload\n          swap1\n          0x0100\n          exp\n          swap1\n          div\n          0xffffffffffffffffffffffffffffffffffffffff\n          and\n          0xffffffffffffffffffffffffffffffffffffffff\n          and\n          0xffffffffffffffffffffffffffffffffffffffff\n          and\n          dup2\n          mstore\n          0x20\n          add\n          0x02\n          dup3\n          add\n          sload\n          dup2\n          mstore\n          0x20\n          add\n          0x03\n          dup3\n          add\n          sload\n          dup2\n          mstore\n          pop\n          pop\n          dup2\n          mstore\n          0x20\n          add\n          swap1\n          0x01\n          add\n          swap1\n          jump(tag_96)\n        tag_97:\n          pop\n          pop\n          pop\n          pop\n          swap1\n          pop\n            /* \"contracts/Transactions.sol\":1387:1520  function getTransactionHistory() external view returns (Transaction[] memory){... */\n          swap1\n          jump\t// out\n            /* \"@openzeppelin/contracts/access/Ownable.sol\":2081:2279  function transferOwnership(address newOwner) public virtual onlyOwner {... */\n        tag_49:\n            /* \"@openzeppelin/contracts/access/Ownable.sol\":1094:1107  _checkOwner() */\n          tag_100\n            /* \"@openzeppelin/contracts/access/Ownable.sol\":1094:1105  _checkOwner */\n          tag_55\n            /* \"@openzeppelin/contracts/access/Ownable.sol\":1094:1107  _checkOwner() */\n          jump\t// in\n        tag_100:\n            /* \"@openzeppelin/contracts/access/Ownable.sol\":2189:2190  0 */\n          0x00\n            /* \"@openzeppelin/contracts/access/Ownable.sol\":2169:2191  newOwner != address(0) */\n          0xffffffffffffffffffffffffffffffffffffffff\n          and\n            /* \"@openzeppelin/contracts/access/Ownable.sol\":2169:2177  newOwner */\n          dup2\n            /* \"@openzeppelin/contracts/access/Ownable.sol\":2169:2191  newOwner != address(0) */\n          0xffffffffffffffffffffffffffffffffffffffff\n          and\n          sub\n            /* \"@openzeppelin/contracts/access/Ownable.sol\":2161:2234  require(newOwner != address(0), \"Ownable: new owner is the zero address\") */\n          tag_102\n          jumpi\n          mload(0x40)\n          0x08c379a000000000000000000000000000000000000000000000000000000000\n          dup2\n          mstore\n          0x04\n          add\n          tag_103\n          swap1\n          tag_104\n          jump\t// in\n        tag_103:\n          mload(0x40)\n          dup1\n          swap2\n          sub\n          swap1\n          revert\n        tag_102:\n            /* \"@openzeppelin/contracts/access/Ownable.sol\":2244:2272  _transferOwnership(newOwner) */\n          tag_105\n            /* \"@openzeppelin/contracts/access/Ownable.sol\":2263:2271  newOwner */\n          dup2\n            /* \"@openzeppelin/contracts/access/Ownable.sol\":2244:2262  _transferOwnership */\n          tag_87\n            /* \"@openzeppelin/contracts/access/Ownable.sol\":2244:2272  _transferOwnership(newOwner) */\n          jump\t// in\n        tag_105:\n            /* \"@openzeppelin/contracts/access/Ownable.sol\":2081:2279  function transferOwnership(address newOwner) public virtual onlyOwner {... */\n          pop\n          jump\t// out\n            /* \"@openzeppelin/contracts/security/Pausable.sol\":1767:1873  function _requireNotPaused() internal view virtual {... */\n        tag_52:\n            /* \"@openzeppelin/contracts/security/Pausable.sol\":1837:1845  paused() */\n          tag_107\n            /* \"@openzeppelin/contracts/security/Pausable.sol\":1837:1843  paused */\n          tag_27\n            /* \"@openzeppelin/contracts/security/Pausable.sol\":1837:1845  paused() */\n          jump\t// in\n        tag_107:\n            /* \"@openzeppelin/contracts/security/Pausable.sol\":1836:1845  !paused() */\n          iszero\n            /* \"@openzeppelin/contracts/security/Pausable.sol\":1828:1866  require(!paused(), \"Pausable: paused\") */\n          tag_108\n          jumpi\n          mload(0x40)\n          0x08c379a000000000000000000000000000000000000000000000000000000000\n          dup2\n          mstore\n          0x04\n          add\n          tag_109\n          swap1\n          tag_110\n          jump\t// in\n        tag_109:\n          mload(0x40)\n          dup1\n          swap2\n          sub\n          swap1\n          revert\n        tag_108:\n            /* \"@openzeppelin/contracts/security/Pausable.sol\":1767:1873  function _requireNotPaused() internal view virtual {... */\n          jump\t// out\n            /* \"@openzeppelin/contracts/access/Ownable.sol\":1359:1489  function _checkOwner() internal view virtual {... */\n        tag_55:\n            /* \"@openzeppelin/contracts/access/Ownable.sol\":1433:1445  _msgSender() */\n          tag_112\n            /* \"@openzeppelin/contracts/access/Ownable.sol\":1433:1443  _msgSender */\n          tag_113\n            /* \"@openzeppelin/contracts/access/Ownable.sol\":1433:1445  _msgSender() */\n          jump\t// in\n        tag_112:\n            /* \"@openzeppelin/contracts/access/Ownable.sol\":1422:1445  owner() == _msgSender() */\n          0xffffffffffffffffffffffffffffffffffffffff\n          and\n            /* \"@openzeppelin/contracts/access/Ownable.sol\":1422:1429  owner() */\n          tag_114\n            /* \"@openzeppelin/contracts/access/Ownable.sol\":1422:1427  owner */\n          tag_35\n            /* \"@openzeppelin/contracts/access/Ownable.sol\":1422:1429  owner() */\n          jump\t// in\n        tag_114:\n            /* \"@openzeppelin/contracts/access/Ownable.sol\":1422:1445  owner() == _msgSender() */\n          0xffffffffffffffffffffffffffffffffffffffff\n          and\n          eq\n            /* \"@openzeppelin/contracts/access/Ownable.sol\":1414:1482  require(owner() == _msgSender(), \"Ownable: caller is not the owner\") */\n          tag_115\n          jumpi\n          mload(0x40)\n          0x08c379a000000000000000000000000000000000000000000000000000000000\n          dup2\n          mstore\n          0x04\n          add\n          tag_116\n          swap1\n          tag_117\n          jump\t// in\n        tag_116:\n          mload(0x40)\n          dup1\n          swap2\n          sub\n          swap1\n          revert\n        tag_115:\n            /* \"@openzeppelin/contracts/access/Ownable.sol\":1359:1489  function _checkOwner() internal view virtual {... */\n          jump\t// out\n            /* \"@openzeppelin/contracts/security/Pausable.sol\":2433:2550  function _unpause() internal virtual whenPaused {... */\n        tag_81:\n            /* \"@openzeppelin/contracts/security/Pausable.sol\":1486:1502  _requirePaused() */\n          tag_119\n            /* \"@openzeppelin/contracts/security/Pausable.sol\":1486:1500  _requirePaused */\n          tag_120\n            /* \"@openzeppelin/contracts/security/Pausable.sol\":1486:1502  _requirePaused() */\n          jump\t// in\n        tag_119:\n            /* \"@openzeppelin/contracts/security/Pausable.sol\":2501:2506  false */\n          0x00\n            /* \"@openzeppelin/contracts/security/Pausable.sol\":2491:2498  _paused */\n          dup1\n          0x14\n            /* \"@openzeppelin/contracts/security/Pausable.sol\":2491:2506  _paused = false */\n          0x0100\n          exp\n          dup2\n          sload\n          dup2\n          0xff\n          mul\n          not\n          and\n          swap1\n          dup4\n          iszero\n          iszero\n          mul\n          or\n          swap1\n          sstore\n          pop\n            /* \"@openzeppelin/contracts/security/Pausable.sol\":2521:2543  Unpaused(_msgSender()) */\n          0x5db9ee0a495bf2e6ff9c91a7834c1ba4fdd244a5e8aa4e537bd38aeae4b073aa\n            /* \"@openzeppelin/contracts/security/Pausable.sol\":2530:2542  _msgSender() */\n          tag_122\n            /* \"@openzeppelin/contracts/security/Pausable.sol\":2530:2540  _msgSender */\n          tag_113\n            /* \"@openzeppelin/contracts/security/Pausable.sol\":2530:2542  _msgSender() */\n          jump\t// in\n        tag_122:\n            /* \"@openzeppelin/contracts/security/Pausable.sol\":2521:2543  Unpaused(_msgSender()) */\n          mload(0x40)\n          tag_123\n          swap2\n          swap1\n          tag_37\n          jump\t// in\n        tag_123:\n          mload(0x40)\n          dup1\n          swap2\n          sub\n          swap1\n          log1\n            /* \"@openzeppelin/contracts/security/Pausable.sol\":2433:2550  function _unpause() internal virtual whenPaused {... */\n          jump\t// out\n            /* \"@openzeppelin/contracts/access/Ownable.sol\":2433:2620  function _transferOwnership(address newOwner) internal virtual {... */\n        tag_87:\n            /* \"@openzeppelin/contracts/access/Ownable.sol\":2506:2522  address oldOwner */\n          0x00\n            /* \"@openzeppelin/contracts/access/Ownable.sol\":2525:2531  _owner */\n          dup1\n          0x00\n          swap1\n          sload\n          swap1\n          0x0100\n          exp\n          swap1\n          div\n          0xffffffffffffffffffffffffffffffffffffffff\n          and\n            /* \"@openzeppelin/contracts/access/Ownable.sol\":2506:2531  address oldOwner = _owner */\n          swap1\n          pop\n            /* \"@openzeppelin/contracts/access/Ownable.sol\":2550:2558  newOwner */\n          dup2\n            /* \"@openzeppelin/contracts/access/Ownable.sol\":2541:2547  _owner */\n          0x00\n          dup1\n            /* \"@openzeppelin/contracts/access/Ownable.sol\":2541:2558  _owner = newOwner */\n          0x0100\n          exp\n          dup2\n          sload\n          dup2\n          0xffffffffffffffffffffffffffffffffffffffff\n          mul\n          not\n          and\n          swap1\n          dup4\n          0xffffffffffffffffffffffffffffffffffffffff\n          and\n          mul\n          or\n          swap1\n          sstore\n          pop\n            /* \"@openzeppelin/contracts/access/Ownable.sol\":2604:2612  newOwner */\n          dup2\n            /* \"@openzeppelin/contracts/access/Ownable.sol\":2573:2613  OwnershipTransferred(oldOwner, newOwner) */\n          0xffffffffffffffffffffffffffffffffffffffff\n          and\n            /* \"@openzeppelin/contracts/access/Ownable.sol\":2594:2602  oldOwner */\n          dup2\n            /* \"@openzeppelin/contracts/access/Ownable.sol\":2573:2613  OwnershipTransferred(oldOwner, newOwner) */\n          0xffffffffffffffffffffffffffffffffffffffff\n          and\n          0x8be0079c531659141344cd1fd0a4f28419497f9722a3daafe3b4186f6b6457e0\n          mload(0x40)\n          mload(0x40)\n          dup1\n          swap2\n          sub\n          swap1\n          log3\n            /* \"@openzeppelin/contracts/access/Ownable.sol\":2496:2620  {... */\n          pop\n            /* \"@openzeppelin/contracts/access/Ownable.sol\":2433:2620  function _transferOwnership(address newOwner) internal virtual {... */\n          pop\n          jump\t// out\n            /* \"@openzeppelin/contracts/security/Pausable.sol\":2186:2301  function _pause() internal virtual whenNotPaused {... */\n        tag_92:\n            /* \"@openzeppelin/contracts/security/Pausable.sol\":1239:1258  _requireNotPaused() */\n          tag_126\n            /* \"@openzeppelin/contracts/security/Pausable.sol\":1239:1256  _requireNotPaused */\n          tag_52\n            /* \"@openzeppelin/contracts/security/Pausable.sol\":1239:1258  _requireNotPaused() */\n          jump\t// in\n        tag_126:\n            /* \"@openzeppelin/contracts/security/Pausable.sol\":2255:2259  true */\n          0x01\n            /* \"@openzeppelin/contracts/security/Pausable.sol\":2245:2252  _paused */\n          0x00\n          0x14\n            /* \"@openzeppelin/contracts/security/Pausable.sol\":2245:2259  _paused = true */\n          0x0100\n          exp\n          dup2\n          sload\n          dup2\n          0xff\n          mul\n          not\n          and\n          swap1\n          dup4\n          iszero\n          iszero\n          mul\n          or\n          swap1\n          sstore\n          pop\n            /* \"@openzeppelin/contracts/security/Pausable.sol\":2274:2294  Paused(_msgSender()) */\n          0x62e78cea01bee320cd4e420270b5ea74000d11b0c9f74754ebdbfc544b05a258\n            /* \"@openzeppelin/contracts/security/Pausable.sol\":2281:2293  _msgSender() */\n          tag_128\n            /* \"@openzeppelin/contracts/security/Pausable.sol\":2281:2291  _msgSender */\n          tag_113\n            /* \"@openzeppelin/contracts/security/Pausable.sol\":2281:2293  _msgSender() */\n          jump\t// in\n        tag_128:\n            /* \"@openzeppelin/contracts/security/Pausable.sol\":2274:2294  Paused(_msgSender()) */\n          mload(0x40)\n          tag_129\n          swap2\n          swap1\n          tag_37\n          jump\t// in\n        tag_129:\n          mload(0x40)\n          dup1\n          swap2\n          sub\n          swap1\n          log1\n            /* \"@openzeppelin/contracts/security/Pausable.sol\":2186:2301  function _pause() internal virtual whenNotPaused {... */\n          jump\t// out\n            /* \"@openzeppelin/contracts/utils/Context.sol\":640:736  function _msgSender() internal view virtual returns (address) {... */\n        tag_113:\n            /* \"@openzeppelin/contracts/utils/Context.sol\":693:700  address */\n          0x00\n            /* \"@openzeppelin/contracts/utils/Context.sol\":719:729  msg.sender */\n          caller\n            /* \"@openzeppelin/contracts/utils/Context.sol\":712:729  return msg.sender */\n          swap1\n          pop\n            /* \"@openzeppelin/contracts/utils/Context.sol\":640:736  function _msgSender() internal view virtual returns (address) {... */\n          swap1\n          jump\t// out\n            /* \"@openzeppelin/contracts/security/Pausable.sol\":1945:2051  function _requirePaused() internal view virtual {... */\n        tag_120:\n            /* \"@openzeppelin/contracts/security/Pausable.sol\":2011:2019  paused() */\n          tag_132\n            /* \"@openzeppelin/contracts/security/Pausable.sol\":2011:2017  paused */\n          tag_27\n            /* \"@openzeppelin/contracts/security/Pausable.sol\":2011:2019  paused() */\n          jump\t// in\n        tag_132:\n            /* \"@openzeppelin/contracts/security/Pausable.sol\":2003:2044  require(paused(), \"Pausable: not paused\") */\n          tag_133\n          jumpi\n          mload(0x40)\n          0x08c379a000000000000000000000000000000000000000000000000000000000\n          dup2\n          mstore\n          0x04\n          add\n          tag_134\n          swap1\n          tag_135\n          jump\t// in\n        tag_134:\n          mload(0x40)\n          dup1\n          swap2\n          sub\n          swap1\n          revert\n        tag_133:\n            /* \"@openzeppelin/contracts/security/Pausable.sol\":1945:2051  function _requirePaused() internal view virtual {... */\n          jump\t// out\n        tag_68:\n          mload(0x40)\n          dup1\n          0x80\n          add\n          0x40\n          mstore\n          dup1\n          and(0xffffffffffffffffffffffffffffffffffffffff, 0x00)\n          dup2\n          mstore\n          0x20\n          add\n          and(0xffffffffffffffffffffffffffffffffffffffff, 0x00)\n          dup2\n          mstore\n          0x20\n          add\n          0x00\n          dup2\n          mstore\n          0x20\n          add\n          0x00\n          dup2\n          mstore\n          pop\n          swap1\n          jump\t// out\n            /* \"#utility.yul\":88:205   */\n        tag_137:\n            /* \"#utility.yul\":197:198   */\n          0x00\n            /* \"#utility.yul\":194:195   */\n          dup1\n            /* \"#utility.yul\":187:199   */\n          revert\n            /* \"#utility.yul\":334:460   */\n        tag_139:\n            /* \"#utility.yul\":371:378   */\n          0x00\n            /* \"#utility.yul\":411:453   */\n          0xffffffffffffffffffffffffffffffffffffffff\n            /* \"#utility.yul\":404:409   */\n          dup3\n            /* \"#utility.yul\":400:454   */\n          and\n            /* \"#utility.yul\":389:454   */\n          swap1\n          pop\n            /* \"#utility.yul\":334:460   */\n          swap2\n          swap1\n          pop\n          jump\t// out\n            /* \"#utility.yul\":466:562   */\n        tag_140:\n            /* \"#utility.yul\":503:510   */\n          0x00\n            /* \"#utility.yul\":532:556   */\n          tag_183\n            /* \"#utility.yul\":550:555   */\n          dup3\n            /* \"#utility.yul\":532:556   */\n          tag_139\n          jump\t// in\n        tag_183:\n            /* \"#utility.yul\":521:556   */\n          swap1\n          pop\n            /* \"#utility.yul\":466:562   */\n          swap2\n          swap1\n          pop\n          jump\t// out\n            /* \"#utility.yul\":568:690   */\n        tag_141:\n            /* \"#utility.yul\":641:665   */\n          tag_185\n            /* \"#utility.yul\":659:664   */\n          dup2\n            /* \"#utility.yul\":641:665   */\n          tag_140\n          jump\t// in\n        tag_185:\n            /* \"#utility.yul\":634:639   */\n          dup2\n            /* \"#utility.yul\":631:666   */\n          eq\n            /* \"#utility.yul\":621:684   */\n          tag_186\n          jumpi\n            /* \"#utility.yul\":680:681   */\n          0x00\n            /* \"#utility.yul\":677:678   */\n          dup1\n            /* \"#utility.yul\":670:682   */\n          revert\n            /* \"#utility.yul\":621:684   */\n        tag_186:\n            /* \"#utility.yul\":568:690   */\n          pop\n          jump\t// out\n            /* \"#utility.yul\":696:835   */\n        tag_142:\n            /* \"#utility.yul\":742:747   */\n          0x00\n            /* \"#utility.yul\":780:786   */\n          dup2\n            /* \"#utility.yul\":767:787   */\n          calldataload\n            /* \"#utility.yul\":758:787   */\n          swap1\n          pop\n            /* \"#utility.yul\":796:829   */\n          tag_188\n            /* \"#utility.yul\":823:828   */\n          dup2\n            /* \"#utility.yul\":796:829   */\n          tag_141\n          jump\t// in\n        tag_188:\n            /* \"#utility.yul\":696:835   */\n          swap3\n          swap2\n          pop\n          pop\n          jump\t// out\n            /* \"#utility.yul\":841:918   */\n        tag_143:\n            /* \"#utility.yul\":878:885   */\n          0x00\n            /* \"#utility.yul\":907:912   */\n          dup2\n            /* \"#utility.yul\":896:912   */\n          swap1\n          pop\n            /* \"#utility.yul\":841:918   */\n          swap2\n          swap1\n          pop\n          jump\t// out\n            /* \"#utility.yul\":924:1046   */\n        tag_144:\n            /* \"#utility.yul\":997:1021   */\n          tag_191\n            /* \"#utility.yul\":1015:1020   */\n          dup2\n            /* \"#utility.yul\":997:1021   */\n          tag_143\n          jump\t// in\n        tag_191:\n            /* \"#utility.yul\":990:995   */\n          dup2\n            /* \"#utility.yul\":987:1022   */\n          eq\n            /* \"#utility.yul\":977:1040   */\n          tag_192\n          jumpi\n            /* \"#utility.yul\":1036:1037   */\n          0x00\n            /* \"#utility.yul\":1033:1034   */\n          dup1\n            /* \"#utility.yul\":1026:1038   */\n          revert\n            /* \"#utility.yul\":977:1040   */\n        tag_192:\n            /* \"#utility.yul\":924:1046   */\n          pop\n          jump\t// out\n            /* \"#utility.yul\":1052:1191   */\n        tag_145:\n            /* \"#utility.yul\":1098:1103   */\n          0x00\n            /* \"#utility.yul\":1136:1142   */\n          dup2\n            /* \"#utility.yul\":1123:1143   */\n          calldataload\n            /* \"#utility.yul\":1114:1143   */\n          swap1\n          pop\n            /* \"#utility.yul\":1152:1185   */\n          tag_194\n            /* \"#utility.yul\":1179:1184   */\n          dup2\n            /* \"#utility.yul\":1152:1185   */\n          tag_144\n          jump\t// in\n        tag_194:\n            /* \"#utility.yul\":1052:1191   */\n          swap3\n          swap2\n          pop\n          pop\n          jump\t// out\n            /* \"#utility.yul\":1197:1816   */\n        tag_16:\n            /* \"#utility.yul\":1274:1280   */\n          0x00\n            /* \"#utility.yul\":1282:1288   */\n          dup1\n            /* \"#utility.yul\":1290:1296   */\n          0x00\n            /* \"#utility.yul\":1339:1341   */\n          0x60\n            /* \"#utility.yul\":1327:1336   */\n          dup5\n            /* \"#utility.yul\":1318:1325   */\n          dup7\n            /* \"#utility.yul\":1314:1337   */\n          sub\n            /* \"#utility.yul\":1310:1342   */\n          slt\n            /* \"#utility.yul\":1307:1426   */\n          iszero\n          tag_196\n          jumpi\n            /* \"#utility.yul\":1345:1424   */\n          tag_197\n          tag_137\n          jump\t// in\n        tag_197:\n            /* \"#utility.yul\":1307:1426   */\n        tag_196:\n            /* \"#utility.yul\":1465:1466   */\n          0x00\n            /* \"#utility.yul\":1490:1543   */\n          tag_198\n            /* \"#utility.yul\":1535:1542   */\n          dup7\n            /* \"#utility.yul\":1526:1532   */\n          dup3\n            /* \"#utility.yul\":1515:1524   */\n          dup8\n            /* \"#utility.yul\":1511:1533   */\n          add\n            /* \"#utility.yul\":1490:1543   */\n          tag_142\n          jump\t// in\n        tag_198:\n            /* \"#utility.yul\":1480:1543   */\n          swap4\n          pop\n            /* \"#utility.yul\":1436:1553   */\n          pop\n            /* \"#utility.yul\":1592:1594   */\n          0x20\n            /* \"#utility.yul\":1618:1671   */\n          tag_199\n            /* \"#utility.yul\":1663:1670   */\n          dup7\n            /* \"#utility.yul\":1654:1660   */\n          dup3\n            /* \"#utility.yul\":1643:1652   */\n          dup8\n            /* \"#utility.yul\":1639:1661   */\n          add\n            /* \"#utility.yul\":1618:1671   */\n          tag_142\n          jump\t// in\n        tag_199:\n            /* \"#utility.yul\":1608:1671   */\n          swap3\n          pop\n            /* \"#utility.yul\":1563:1681   */\n          pop\n            /* \"#utility.yul\":1720:1722   */\n          0x40\n            /* \"#utility.yul\":1746:1799   */\n          tag_200\n            /* \"#utility.yul\":1791:1798   */\n          dup7\n            /* \"#utility.yul\":1782:1788   */\n          dup3\n            /* \"#utility.yul\":1771:1780   */\n          dup8\n            /* \"#utility.yul\":1767:1789   */\n          add\n            /* \"#utility.yul\":1746:1799   */\n          tag_145\n          jump\t// in\n        tag_200:\n            /* \"#utility.yul\":1736:1799   */\n          swap2\n          pop\n            /* \"#utility.yul\":1691:1809   */\n          pop\n            /* \"#utility.yul\":1197:1816   */\n          swap3\n          pop\n          swap3\n          pop\n          swap3\n          jump\t// out\n            /* \"#utility.yul\":1822:2151   */\n        tag_20:\n            /* \"#utility.yul\":1881:1887   */\n          0x00\n            /* \"#utility.yul\":1930:1932   */\n          0x20\n            /* \"#utility.yul\":1918:1927   */\n          dup3\n            /* \"#utility.yul\":1909:1916   */\n          dup5\n            /* \"#utility.yul\":1905:1928   */\n          sub\n            /* \"#utility.yul\":1901:1933   */\n          slt\n            /* \"#utility.yul\":1898:2017   */\n          iszero\n          tag_202\n          jumpi\n            /* \"#utility.yul\":1936:2015   */\n          tag_203\n          tag_137\n          jump\t// in\n        tag_203:\n            /* \"#utility.yul\":1898:2017   */\n        tag_202:\n            /* \"#utility.yul\":2056:2057   */\n          0x00\n            /* \"#utility.yul\":2081:2134   */\n          tag_204\n            /* \"#utility.yul\":2126:2133   */\n          dup5\n            /* \"#utility.yul\":2117:2123   */\n          dup3\n            /* \"#utility.yul\":2106:2115   */\n          dup6\n            /* \"#utility.yul\":2102:2124   */\n          add\n            /* \"#utility.yul\":2081:2134   */\n          tag_145\n          jump\t// in\n        tag_204:\n            /* \"#utility.yul\":2071:2134   */\n          swap2\n          pop\n            /* \"#utility.yul\":2027:2144   */\n          pop\n            /* \"#utility.yul\":1822:2151   */\n          swap3\n          swap2\n          pop\n          pop\n          jump\t// out\n            /* \"#utility.yul\":2157:2265   */\n        tag_146:\n            /* \"#utility.yul\":2234:2258   */\n          tag_206\n            /* \"#utility.yul\":2252:2257   */\n          dup2\n            /* \"#utility.yul\":2234:2258   */\n          tag_140\n          jump\t// in\n        tag_206:\n            /* \"#utility.yul\":2229:2232   */\n          dup3\n            /* \"#utility.yul\":2222:2259   */\n          mstore\n            /* \"#utility.yul\":2157:2265   */\n          pop\n          pop\n          jump\t// out\n            /* \"#utility.yul\":2271:2379   */\n        tag_147:\n            /* \"#utility.yul\":2348:2372   */\n          tag_208\n            /* \"#utility.yul\":2366:2371   */\n          dup2\n            /* \"#utility.yul\":2348:2372   */\n          tag_143\n          jump\t// in\n        tag_208:\n            /* \"#utility.yul\":2343:2346   */\n          dup3\n            /* \"#utility.yul\":2336:2373   */\n          mstore\n            /* \"#utility.yul\":2271:2379   */\n          pop\n          pop\n          jump\t// out\n            /* \"#utility.yul\":2459:3327   */\n        tag_148:\n            /* \"#utility.yul\":2614:2618   */\n          0x80\n            /* \"#utility.yul\":2609:2612   */\n          dup3\n            /* \"#utility.yul\":2605:2619   */\n          add\n            /* \"#utility.yul\":2701:2705   */\n          0x00\n            /* \"#utility.yul\":2694:2699   */\n          dup3\n            /* \"#utility.yul\":2690:2706   */\n          add\n            /* \"#utility.yul\":2684:2707   */\n          mload\n            /* \"#utility.yul\":2720:2783   */\n          tag_210\n            /* \"#utility.yul\":2777:2781   */\n          0x00\n            /* \"#utility.yul\":2772:2775   */\n          dup6\n            /* \"#utility.yul\":2768:2782   */\n          add\n            /* \"#utility.yul\":2754:2766   */\n          dup3\n            /* \"#utility.yul\":2720:2783   */\n          tag_146\n          jump\t// in\n        tag_210:\n            /* \"#utility.yul\":2629:2793   */\n          pop\n            /* \"#utility.yul\":2873:2877   */\n          0x20\n            /* \"#utility.yul\":2866:2871   */\n          dup3\n            /* \"#utility.yul\":2862:2878   */\n          add\n            /* \"#utility.yul\":2856:2879   */\n          mload\n            /* \"#utility.yul\":2892:2955   */\n          tag_211\n            /* \"#utility.yul\":2949:2953   */\n          0x20\n            /* \"#utility.yul\":2944:2947   */\n          dup6\n            /* \"#utility.yul\":2940:2954   */\n          add\n            /* \"#utility.yul\":2926:2938   */\n          dup3\n            /* \"#utility.yul\":2892:2955   */\n          tag_146\n          jump\t// in\n        tag_211:\n            /* \"#utility.yul\":2803:2965   */\n          pop\n            /* \"#utility.yul\":3049:3053   */\n          0x40\n            /* \"#utility.yul\":3042:3047   */\n          dup3\n            /* \"#utility.yul\":3038:3054   */\n          add\n            /* \"#utility.yul\":3032:3055   */\n          mload\n            /* \"#utility.yul\":3068:3131   */\n          tag_212\n            /* \"#utility.yul\":3125:3129   */\n          0x40\n            /* \"#utility.yul\":3120:3123   */\n          dup6\n            /* \"#utility.yul\":3116:3130   */\n          add\n            /* \"#utility.yul\":3102:3114   */\n          dup3\n            /* \"#utility.yul\":3068:3131   */\n          tag_147\n          jump\t// in\n        tag_212:\n            /* \"#utility.yul\":2975:3141   */\n          pop\n            /* \"#utility.yul\":3228:3232   */\n          0x60\n            /* \"#utility.yul\":3221:3226   */\n          dup3\n            /* \"#utility.yul\":3217:3233   */\n          add\n            /* \"#utility.yul\":3211:3234   */\n          mload\n            /* \"#utility.yul\":3247:3310   */\n          tag_213\n            /* \"#utility.yul\":3304:3308   */\n          0x60\n            /* \"#utility.yul\":3299:3302   */\n          dup6\n            /* \"#utility.yul\":3295:3309   */\n          add\n            /* \"#utility.yul\":3281:3293   */\n          dup3\n            /* \"#utility.yul\":3247:3310   */\n          tag_147\n          jump\t// in\n        tag_213:\n            /* \"#utility.yul\":3151:3320   */\n          pop\n            /* \"#utility.yul\":2583:3327   */\n          pop\n            /* \"#utility.yul\":2459:3327   */\n          pop\n          pop\n          jump\t// out\n            /* \"#utility.yul\":3333:3672   */\n        tag_23:\n            /* \"#utility.yul\":3484:3488   */\n          0x00\n            /* \"#utility.yul\":3522:3525   */\n          0x80\n            /* \"#utility.yul\":3511:3520   */\n          dup3\n            /* \"#utility.yul\":3507:3526   */\n          add\n            /* \"#utility.yul\":3499:3526   */\n          swap1\n          pop\n            /* \"#utility.yul\":3536:3665   */\n          tag_215\n            /* \"#utility.yul\":3662:3663   */\n          0x00\n            /* \"#utility.yul\":3651:3660   */\n          dup4\n            /* \"#utility.yul\":3647:3664   */\n          add\n            /* \"#utility.yul\":3638:3644   */\n          dup5\n            /* \"#utility.yul\":3536:3665   */\n          tag_148\n          jump\t// in\n        tag_215:\n            /* \"#utility.yul\":3333:3672   */\n          swap3\n          swap2\n          pop\n          pop\n          jump\t// out\n            /* \"#utility.yul\":3678:3768   */\n        tag_149:\n            /* \"#utility.yul\":3712:3719   */\n          0x00\n            /* \"#utility.yul\":3755:3760   */\n          dup2\n            /* \"#utility.yul\":3748:3761   */\n          iszero\n            /* \"#utility.yul\":3741:3762   */\n          iszero\n            /* \"#utility.yul\":3730:3762   */\n          swap1\n          pop\n            /* \"#utility.yul\":3678:3768   */\n          swap2\n          swap1\n          pop\n          jump\t// out\n            /* \"#utility.yul\":3774:3883   */\n        tag_150:\n            /* \"#utility.yul\":3855:3876   */\n          tag_218\n            /* \"#utility.yul\":3870:3875   */\n          dup2\n            /* \"#utility.yul\":3855:3876   */\n          tag_149\n          jump\t// in\n        tag_218:\n            /* \"#utility.yul\":3850:3853   */\n          dup3\n            /* \"#utility.yul\":3843:3877   */\n          mstore\n            /* \"#utility.yul\":3774:3883   */\n          pop\n          pop\n          jump\t// out\n            /* \"#utility.yul\":3889:4099   */\n        tag_29:\n            /* \"#utility.yul\":3976:3980   */\n          0x00\n            /* \"#utility.yul\":4014:4016   */\n          0x20\n            /* \"#utility.yul\":4003:4012   */\n          dup3\n            /* \"#utility.yul\":3999:4017   */\n          add\n            /* \"#utility.yul\":3991:4017   */\n          swap1\n          pop\n            /* \"#utility.yul\":4027:4092   */\n          tag_220\n            /* \"#utility.yul\":4089:4090   */\n          0x00\n            /* \"#utility.yul\":4078:4087   */\n          dup4\n            /* \"#utility.yul\":4074:4091   */\n          add\n            /* \"#utility.yul\":4065:4071   */\n          dup5\n            /* \"#utility.yul\":4027:4092   */\n          tag_150\n          jump\t// in\n        tag_220:\n            /* \"#utility.yul\":3889:4099   */\n          swap3\n          swap2\n          pop\n          pop\n          jump\t// out\n            /* \"#utility.yul\":4105:4223   */\n        tag_151:\n            /* \"#utility.yul\":4192:4216   */\n          tag_222\n            /* \"#utility.yul\":4210:4215   */\n          dup2\n            /* \"#utility.yul\":4192:4216   */\n          tag_140\n          jump\t// in\n        tag_222:\n            /* \"#utility.yul\":4187:4190   */\n          dup3\n            /* \"#utility.yul\":4180:4217   */\n          mstore\n            /* \"#utility.yul\":4105:4223   */\n          pop\n          pop\n          jump\t// out\n            /* \"#utility.yul\":4229:4451   */\n        tag_37:\n            /* \"#utility.yul\":4322:4326   */\n          0x00\n            /* \"#utility.yul\":4360:4362   */\n          0x20\n            /* \"#utility.yul\":4349:4358   */\n          dup3\n            /* \"#utility.yul\":4345:4363   */\n          add\n            /* \"#utility.yul\":4337:4363   */\n          swap1\n          pop\n            /* \"#utility.yul\":4373:4444   */\n          tag_224\n            /* \"#utility.yul\":4441:4442   */\n          0x00\n            /* \"#utility.yul\":4430:4439   */\n          dup4\n            /* \"#utility.yul\":4426:4443   */\n          add\n            /* \"#utility.yul\":4417:4423   */\n          dup5\n            /* \"#utility.yul\":4373:4444   */\n          tag_151\n          jump\t// in\n        tag_224:\n            /* \"#utility.yul\":4229:4451   */\n          swap3\n          swap2\n          pop\n          pop\n          jump\t// out\n            /* \"#utility.yul\":4457:4575   */\n        tag_152:\n            /* \"#utility.yul\":4544:4568   */\n          tag_226\n            /* \"#utility.yul\":4562:4567   */\n          dup2\n            /* \"#utility.yul\":4544:4568   */\n          tag_143\n          jump\t// in\n        tag_226:\n            /* \"#utility.yul\":4539:4542   */\n          dup3\n            /* \"#utility.yul\":4532:4569   */\n          mstore\n            /* \"#utility.yul\":4457:4575   */\n          pop\n          pop\n          jump\t// out\n            /* \"#utility.yul\":4581:4803   */\n        tag_41:\n            /* \"#utility.yul\":4674:4678   */\n          0x00\n            /* \"#utility.yul\":4712:4714   */\n          0x20\n            /* \"#utility.yul\":4701:4710   */\n          dup3\n            /* \"#utility.yul\":4697:4715   */\n          add\n            /* \"#utility.yul\":4689:4715   */\n          swap1\n          pop\n            /* \"#utility.yul\":4725:4796   */\n          tag_228\n            /* \"#utility.yul\":4793:4794   */\n          0x00\n            /* \"#utility.yul\":4782:4791   */\n          dup4\n            /* \"#utility.yul\":4778:4795   */\n          add\n            /* \"#utility.yul\":4769:4775   */\n          dup5\n            /* \"#utility.yul\":4725:4796   */\n          tag_152\n          jump\t// in\n        tag_228:\n            /* \"#utility.yul\":4581:4803   */\n          swap3\n          swap2\n          pop\n          pop\n          jump\t// out\n            /* \"#utility.yul\":4809:4952   */\n        tag_153:\n            /* \"#utility.yul\":4905:4911   */\n          0x00\n            /* \"#utility.yul\":4939:4944   */\n          dup2\n            /* \"#utility.yul\":4933:4945   */\n          mload\n            /* \"#utility.yul\":4923:4945   */\n          swap1\n          pop\n            /* \"#utility.yul\":4809:4952   */\n          swap2\n          swap1\n          pop\n          jump\t// out\n            /* \"#utility.yul\":4958:5171   */\n        tag_154:\n            /* \"#utility.yul\":5086:5097   */\n          0x00\n            /* \"#utility.yul\":5120:5126   */\n          dup3\n            /* \"#utility.yul\":5115:5118   */\n          dup3\n            /* \"#utility.yul\":5108:5127   */\n          mstore\n            /* \"#utility.yul\":5160:5164   */\n          0x20\n            /* \"#utility.yul\":5155:5158   */\n          dup3\n            /* \"#utility.yul\":5151:5165   */\n          add\n            /* \"#utility.yul\":5136:5165   */\n          swap1\n          pop\n            /* \"#utility.yul\":4958:5171   */\n          swap3\n          swap2\n          pop\n          pop\n          jump\t// out\n            /* \"#utility.yul\":5177:5338   */\n        tag_155:\n            /* \"#utility.yul\":5273:5277   */\n          0x00\n            /* \"#utility.yul\":5296:5299   */\n          dup2\n            /* \"#utility.yul\":5288:5299   */\n          swap1\n          pop\n            /* \"#utility.yul\":5326:5330   */\n          0x20\n            /* \"#utility.yul\":5321:5324   */\n          dup3\n            /* \"#utility.yul\":5317:5331   */\n          add\n            /* \"#utility.yul\":5309:5331   */\n          swap1\n          pop\n            /* \"#utility.yul\":5177:5338   */\n          swap2\n          swap1\n          pop\n          jump\t// out\n            /* \"#utility.yul\":5418:6276   */\n        tag_156:\n            /* \"#utility.yul\":5563:5567   */\n          0x80\n            /* \"#utility.yul\":5558:5561   */\n          dup3\n            /* \"#utility.yul\":5554:5568   */\n          add\n            /* \"#utility.yul\":5650:5654   */\n          0x00\n            /* \"#utility.yul\":5643:5648   */\n          dup3\n            /* \"#utility.yul\":5639:5655   */\n          add\n            /* \"#utility.yul\":5633:5656   */\n          mload\n            /* \"#utility.yul\":5669:5732   */\n          tag_233\n            /* \"#utility.yul\":5726:5730   */\n          0x00\n            /* \"#utility.yul\":5721:5724   */\n          dup6\n            /* \"#utility.yul\":5717:5731   */\n          add\n            /* \"#utility.yul\":5703:5715   */\n          dup3\n            /* \"#utility.yul\":5669:5732   */\n          tag_146\n          jump\t// in\n        tag_233:\n            /* \"#utility.yul\":5578:5742   */\n          pop\n            /* \"#utility.yul\":5822:5826   */\n          0x20\n            /* \"#utility.yul\":5815:5820   */\n          dup3\n            /* \"#utility.yul\":5811:5827   */\n          add\n            /* \"#utility.yul\":5805:5828   */\n          mload\n            /* \"#utility.yul\":5841:5904   */\n          tag_234\n            /* \"#utility.yul\":5898:5902   */\n          0x20\n            /* \"#utility.yul\":5893:5896   */\n          dup6\n            /* \"#utility.yul\":5889:5903   */\n          add\n            /* \"#utility.yul\":5875:5887   */\n          dup3\n            /* \"#utility.yul\":5841:5904   */\n          tag_146\n          jump\t// in\n        tag_234:\n            /* \"#utility.yul\":5752:5914   */\n          pop\n            /* \"#utility.yul\":5998:6002   */\n          0x40\n            /* \"#utility.yul\":5991:5996   */\n          dup3\n            /* \"#utility.yul\":5987:6003   */\n          add\n            /* \"#utility.yul\":5981:6004   */\n          mload\n            /* \"#utility.yul\":6017:6080   */\n          tag_235\n            /* \"#utility.yul\":6074:6078   */\n          0x40\n            /* \"#utility.yul\":6069:6072   */\n          dup6\n            /* \"#utility.yul\":6065:6079   */\n          add\n            /* \"#utility.yul\":6051:6063   */\n          dup3\n            /* \"#utility.yul\":6017:6080   */\n          tag_147\n          jump\t// in\n        tag_235:\n            /* \"#utility.yul\":5924:6090   */\n          pop\n            /* \"#utility.yul\":6177:6181   */\n          0x60\n            /* \"#utility.yul\":6170:6175   */\n          dup3\n            /* \"#utility.yul\":6166:6182   */\n          add\n            /* \"#utility.yul\":6160:6183   */\n          mload\n            /* \"#utility.yul\":6196:6259   */\n          tag_236\n            /* \"#utility.yul\":6253:6257   */\n          0x60\n            /* \"#utility.yul\":6248:6251   */\n          dup6\n            /* \"#utility.yul\":6244:6258   */\n          add\n            /* \"#utility.yul\":6230:6242   */\n          dup3\n            /* \"#utility.yul\":6196:6259   */\n          tag_147\n          jump\t// in\n        tag_236:\n            /* \"#utility.yul\":6100:6269   */\n          pop\n            /* \"#utility.yul\":5532:6276   */\n          pop\n            /* \"#utility.yul\":5418:6276   */\n          pop\n          pop\n          jump\t// out\n            /* \"#utility.yul\":6282:6577   */\n        tag_157:\n            /* \"#utility.yul\":6409:6419   */\n          0x00\n            /* \"#utility.yul\":6430:6534   */\n          tag_238\n            /* \"#utility.yul\":6530:6533   */\n          dup4\n            /* \"#utility.yul\":6522:6528   */\n          dup4\n            /* \"#utility.yul\":6430:6534   */\n          tag_156\n          jump\t// in\n        tag_238:\n            /* \"#utility.yul\":6566:6570   */\n          0x80\n            /* \"#utility.yul\":6561:6564   */\n          dup4\n            /* \"#utility.yul\":6557:6571   */\n          add\n            /* \"#utility.yul\":6543:6571   */\n          swap1\n          pop\n            /* \"#utility.yul\":6282:6577   */\n          swap3\n          swap2\n          pop\n          pop\n          jump\t// out\n            /* \"#utility.yul\":6583:6725   */\n        tag_158:\n            /* \"#utility.yul\":6682:6686   */\n          0x00\n            /* \"#utility.yul\":6714:6718   */\n          0x20\n            /* \"#utility.yul\":6709:6712   */\n          dup3\n            /* \"#utility.yul\":6705:6719   */\n          add\n            /* \"#utility.yul\":6697:6719   */\n          swap1\n          pop\n            /* \"#utility.yul\":6583:6725   */\n          swap2\n          swap1\n          pop\n          jump\t// out\n            /* \"#utility.yul\":6809:7773   */\n        tag_159:\n            /* \"#utility.yul\":6986:6989   */\n          0x00\n            /* \"#utility.yul\":7015:7098   */\n          tag_241\n            /* \"#utility.yul\":7092:7097   */\n          dup3\n            /* \"#utility.yul\":7015:7098   */\n          tag_153\n          jump\t// in\n        tag_241:\n            /* \"#utility.yul\":7114:7229   */\n          tag_242\n            /* \"#utility.yul\":7222:7228   */\n          dup2\n            /* \"#utility.yul\":7217:7220   */\n          dup6\n            /* \"#utility.yul\":7114:7229   */\n          tag_154\n          jump\t// in\n        tag_242:\n            /* \"#utility.yul\":7107:7229   */\n          swap4\n          pop\n            /* \"#utility.yul\":7253:7338   */\n          tag_243\n            /* \"#utility.yul\":7332:7337   */\n          dup4\n            /* \"#utility.yul\":7253:7338   */\n          tag_155\n          jump\t// in\n        tag_243:\n            /* \"#utility.yul\":7361:7368   */\n          dup1\n            /* \"#utility.yul\":7392:7393   */\n          0x00\n            /* \"#utility.yul\":7377:7748   */\n        tag_244:\n            /* \"#utility.yul\":7402:7408   */\n          dup4\n            /* \"#utility.yul\":7399:7400   */\n          dup2\n            /* \"#utility.yul\":7396:7409   */\n          lt\n            /* \"#utility.yul\":7377:7748   */\n          iszero\n          tag_246\n          jumpi\n            /* \"#utility.yul\":7478:7484   */\n          dup2\n            /* \"#utility.yul\":7472:7485   */\n          mload\n            /* \"#utility.yul\":7505:7626   */\n          tag_247\n            /* \"#utility.yul\":7622:7625   */\n          dup9\n            /* \"#utility.yul\":7607:7620   */\n          dup3\n            /* \"#utility.yul\":7505:7626   */\n          tag_157\n          jump\t// in\n        tag_247:\n            /* \"#utility.yul\":7498:7626   */\n          swap8\n          pop\n            /* \"#utility.yul\":7649:7738   */\n          tag_248\n            /* \"#utility.yul\":7731:7737   */\n          dup4\n            /* \"#utility.yul\":7649:7738   */\n          tag_158\n          jump\t// in\n        tag_248:\n            /* \"#utility.yul\":7639:7738   */\n          swap3\n          pop\n            /* \"#utility.yul\":7437:7748   */\n          pop\n            /* \"#utility.yul\":7424:7425   */\n          0x01\n            /* \"#utility.yul\":7421:7422   */\n          dup2\n            /* \"#utility.yul\":7417:7426   */\n          add\n            /* \"#utility.yul\":7412:7426   */\n          swap1\n          pop\n            /* \"#utility.yul\":7377:7748   */\n          jump(tag_244)\n        tag_246:\n            /* \"#utility.yul\":7381:7395   */\n          pop\n            /* \"#utility.yul\":7764:7767   */\n          dup6\n            /* \"#utility.yul\":7757:7767   */\n          swap4\n          pop\n            /* \"#utility.yul\":6991:7773   */\n          pop\n          pop\n          pop\n            /* \"#utility.yul\":6809:7773   */\n          swap3\n          swap2\n          pop\n          pop\n          jump\t// out\n            /* \"#utility.yul\":7779:8268   */\n        tag_45:\n            /* \"#utility.yul\":7980:7984   */\n          0x00\n            /* \"#utility.yul\":8018:8020   */\n          0x20\n            /* \"#utility.yul\":8007:8016   */\n          dup3\n            /* \"#utility.yul\":8003:8021   */\n          add\n            /* \"#utility.yul\":7995:8021   */\n          swap1\n          pop\n            /* \"#utility.yul\":8067:8076   */\n          dup2\n            /* \"#utility.yul\":8061:8065   */\n          dup2\n            /* \"#utility.yul\":8057:8077   */\n          sub\n            /* \"#utility.yul\":8053:8054   */\n          0x00\n            /* \"#utility.yul\":8042:8051   */\n          dup4\n            /* \"#utility.yul\":8038:8055   */\n          add\n            /* \"#utility.yul\":8031:8078   */\n          mstore\n            /* \"#utility.yul\":8095:8261   */\n          tag_250\n            /* \"#utility.yul\":8256:8260   */\n          dup2\n            /* \"#utility.yul\":8247:8253   */\n          dup5\n            /* \"#utility.yul\":8095:8261   */\n          tag_159\n          jump\t// in\n        tag_250:\n            /* \"#utility.yul\":8087:8261   */\n          swap1\n          pop\n            /* \"#utility.yul\":7779:8268   */\n          swap3\n          swap2\n          pop\n          pop\n          jump\t// out\n            /* \"#utility.yul\":8274:8603   */\n        tag_48:\n            /* \"#utility.yul\":8333:8339   */\n          0x00\n            /* \"#utility.yul\":8382:8384   */\n          0x20\n            /* \"#utility.yul\":8370:8379   */\n          dup3\n            /* \"#utility.yul\":8361:8368   */\n          dup5\n            /* \"#utility.yul\":8357:8380   */\n          sub\n            /* \"#utility.yul\":8353:8385   */\n          slt\n            /* \"#utility.yul\":8350:8469   */\n          iszero\n          tag_252\n          jumpi\n            /* \"#utility.yul\":8388:8467   */\n          tag_253\n          tag_137\n          jump\t// in\n        tag_253:\n            /* \"#utility.yul\":8350:8469   */\n        tag_252:\n            /* \"#utility.yul\":8508:8509   */\n          0x00\n            /* \"#utility.yul\":8533:8586   */\n          tag_254\n            /* \"#utility.yul\":8578:8585   */\n          dup5\n            /* \"#utility.yul\":8569:8575   */\n          dup3\n            /* \"#utility.yul\":8558:8567   */\n          dup6\n            /* \"#utility.yul\":8554:8576   */\n          add\n            /* \"#utility.yul\":8533:8586   */\n          tag_142\n          jump\t// in\n        tag_254:\n            /* \"#utility.yul\":8523:8586   */\n          swap2\n          pop\n            /* \"#utility.yul\":8479:8596   */\n          pop\n            /* \"#utility.yul\":8274:8603   */\n          swap3\n          swap2\n          pop\n          pop\n          jump\t// out\n            /* \"#utility.yul\":8609:8778   */\n        tag_160:\n            /* \"#utility.yul\":8693:8704   */\n          0x00\n            /* \"#utility.yul\":8727:8733   */\n          dup3\n            /* \"#utility.yul\":8722:8725   */\n          dup3\n            /* \"#utility.yul\":8715:8734   */\n          mstore\n            /* \"#utility.yul\":8767:8771   */\n          0x20\n            /* \"#utility.yul\":8762:8765   */\n          dup3\n            /* \"#utility.yul\":8758:8772   */\n          add\n            /* \"#utility.yul\":8743:8772   */\n          swap1\n          pop\n            /* \"#utility.yul\":8609:8778   */\n          swap3\n          swap2\n          pop\n          pop\n          jump\t// out\n            /* \"#utility.yul\":8784:9014   */\n        tag_161:\n            /* \"#utility.yul\":8924:8958   */\n          0x5472616e73616374696f6e733a2073656e6465722063616e6e6f74206265207a\n            /* \"#utility.yul\":8920:8921   */\n          0x00\n            /* \"#utility.yul\":8912:8918   */\n          dup3\n            /* \"#utility.yul\":8908:8922   */\n          add\n            /* \"#utility.yul\":8901:8959   */\n          mstore\n            /* \"#utility.yul\":8993:9006   */\n          0x65726f2061646472657373000000000000000000000000000000000000000000\n            /* \"#utility.yul\":8988:8990   */\n          0x20\n            /* \"#utility.yul\":8980:8986   */\n          dup3\n            /* \"#utility.yul\":8976:8991   */\n          add\n            /* \"#utility.yul\":8969:9007   */\n          mstore\n            /* \"#utility.yul\":8784:9014   */\n          pop\n          jump\t// out\n            /* \"#utility.yul\":9020:9386   */\n        tag_162:\n            /* \"#utility.yul\":9162:9165   */\n          0x00\n            /* \"#utility.yul\":9183:9250   */\n          tag_258\n            /* \"#utility.yul\":9247:9249   */\n          0x2b\n            /* \"#utility.yul\":9242:9245   */\n          dup4\n            /* \"#utility.yul\":9183:9250   */\n          tag_160\n          jump\t// in\n        tag_258:\n            /* \"#utility.yul\":9176:9250   */\n          swap2\n          pop\n            /* \"#utility.yul\":9259:9352   */\n          tag_259\n            /* \"#utility.yul\":9348:9351   */\n          dup3\n            /* \"#utility.yul\":9259:9352   */\n          tag_161\n          jump\t// in\n        tag_259:\n            /* \"#utility.yul\":9377:9379   */\n          0x40\n            /* \"#utility.yul\":9372:9375   */\n          dup3\n            /* \"#utility.yul\":9368:9380   */\n          add\n            /* \"#utility.yul\":9361:9380   */\n          swap1\n          pop\n            /* \"#utility.yul\":9020:9386   */\n          swap2\n          swap1\n          pop\n          jump\t// out\n            /* \"#utility.yul\":9392:9811   */\n        tag_59:\n            /* \"#utility.yul\":9558:9562   */\n          0x00\n            /* \"#utility.yul\":9596:9598   */\n          0x20\n            /* \"#utility.yul\":9585:9594   */\n          dup3\n            /* \"#utility.yul\":9581:9599   */\n          add\n            /* \"#utility.yul\":9573:9599   */\n          swap1\n          pop\n            /* \"#utility.yul\":9645:9654   */\n          dup2\n            /* \"#utility.yul\":9639:9643   */\n          dup2\n            /* \"#utility.yul\":9635:9655   */\n          sub\n            /* \"#utility.yul\":9631:9632   */\n          0x00\n            /* \"#utility.yul\":9620:9629   */\n          dup4\n            /* \"#utility.yul\":9616:9633   */\n          add\n            /* \"#utility.yul\":9609:9656   */\n          mstore\n            /* \"#utility.yul\":9673:9804   */\n          tag_261\n            /* \"#utility.yul\":9799:9803   */\n          dup2\n            /* \"#utility.yul\":9673:9804   */\n          tag_162\n          jump\t// in\n        tag_261:\n            /* \"#utility.yul\":9665:9804   */\n          swap1\n          pop\n            /* \"#utility.yul\":9392:9811   */\n          swap2\n          swap1\n          pop\n          jump\t// out\n            /* \"#utility.yul\":9817:10050   */\n        tag_163:\n            /* \"#utility.yul\":9957:9991   */\n          0x5472616e73616374696f6e733a20726563697069656e742063616e6e6f742062\n            /* \"#utility.yul\":9953:9954   */\n          0x00\n            /* \"#utility.yul\":9945:9951   */\n          dup3\n            /* \"#utility.yul\":9941:9955   */\n          add\n            /* \"#utility.yul\":9934:9992   */\n          mstore\n            /* \"#utility.yul\":10026:10042   */\n          0x65207a65726f2061646472657373000000000000000000000000000000000000\n            /* \"#utility.yul\":10021:10023   */\n          0x20\n            /* \"#utility.yul\":10013:10019   */\n          dup3\n            /* \"#utility.yul\":10009:10024   */\n          add\n            /* \"#utility.yul\":10002:10043   */\n          mstore\n            /* \"#utility.yul\":9817:10050   */\n          pop\n          jump\t// out\n            /* \"#utility.yul\":10056:10422   */\n        tag_164:\n            /* \"#utility.yul\":10198:10201   */\n          0x00\n            /* \"#utility.yul\":10219:10286   */\n          tag_264\n            /* \"#utility.yul\":10283:10285   */\n          0x2e\n            /* \"#utility.yul\":10278:10281   */\n          dup4\n            /* \"#utility.yul\":10219:10286   */\n          tag_160\n          jump\t// in\n        tag_264:\n            /* \"#utility.yul\":10212:10286   */\n          swap2\n          pop\n            /* \"#utility.yul\":10295:10388   */\n          tag_265\n            /* \"#utility.yul\":10384:10387   */\n          dup3\n            /* \"#utility.yul\":10295:10388   */\n          tag_163\n          jump\t// in\n        tag_265:\n            /* \"#utility.yul\":10413:10415   */\n          0x40\n            /* \"#utility.yul\":10408:10411   */\n          dup3\n            /* \"#utility.yul\":10404:10416   */\n          add\n            /* \"#utility.yul\":10397:10416   */\n          swap1\n          pop\n            /* \"#utility.yul\":10056:10422   */\n          swap2\n          swap1\n          pop\n          jump\t// out\n            /* \"#utility.yul\":10428:10847   */\n        tag_62:\n            /* \"#utility.yul\":10594:10598   */\n          0x00\n            /* \"#utility.yul\":10632:10634   */\n          0x20\n            /* \"#utility.yul\":10621:10630   */\n          dup3\n            /* \"#utility.yul\":10617:10635   */\n          add\n            /* \"#utility.yul\":10609:10635   */\n          swap1\n          pop\n            /* \"#utility.yul\":10681:10690   */\n          dup2\n            /* \"#utility.yul\":10675:10679   */\n          dup2\n            /* \"#utility.yul\":10671:10691   */\n          sub\n            /* \"#utility.yul\":10667:10668   */\n          0x00\n            /* \"#utility.yul\":10656:10665   */\n          dup4\n            /* \"#utility.yul\":10652:10669   */\n          add\n            /* \"#utility.yul\":10645:10692   */\n          mstore\n            /* \"#utility.yul\":10709:10840   */\n          tag_267\n            /* \"#utility.yul\":10835:10839   */\n          dup2\n            /* \"#utility.yul\":10709:10840   */\n          tag_164\n          jump\t// in\n        tag_267:\n            /* \"#utility.yul\":10701:10840   */\n          swap1\n          pop\n            /* \"#utility.yul\":10428:10847   */\n          swap2\n          swap1\n          pop\n          jump\t// out\n            /* \"#utility.yul\":10853:11086   */\n        tag_165:\n            /* \"#utility.yul\":10993:11027   */\n          0x5472616e73616374696f6e733a20616d6f756e74206d75737420626520677265\n            /* \"#utility.yul\":10989:10990   */\n          0x00\n            /* \"#utility.yul\":10981:10987   */\n          dup3\n            /* \"#utility.yul\":10977:10991   */\n          add\n            /* \"#utility.yul\":10970:11028   */\n          mstore\n            /* \"#utility.yul\":11062:11078   */\n          0x61746572207468616e207a65726f000000000000000000000000000000000000\n            /* \"#utility.yul\":11057:11059   */\n          0x20\n            /* \"#utility.yul\":11049:11055   */\n          dup3\n            /* \"#utility.yul\":11045:11060   */\n          add\n            /* \"#utility.yul\":11038:11079   */\n          mstore\n            /* \"#utility.yul\":10853:11086   */\n          pop\n          jump\t// out\n            /* \"#utility.yul\":11092:11458   */\n        tag_166:\n            /* \"#utility.yul\":11234:11237   */\n          0x00\n            /* \"#utility.yul\":11255:11322   */\n          tag_270\n            /* \"#utility.yul\":11319:11321   */\n          0x2e\n            /* \"#utility.yul\":11314:11317   */\n          dup4\n            /* \"#utility.yul\":11255:11322   */\n          tag_160\n          jump\t// in\n        tag_270:\n            /* \"#utility.yul\":11248:11322   */\n          swap2\n          pop\n            /* \"#utility.yul\":11331:11424   */\n          tag_271\n            /* \"#utility.yul\":11420:11423   */\n          dup3\n            /* \"#utility.yul\":11331:11424   */\n          tag_165\n          jump\t// in\n        tag_271:\n            /* \"#utility.yul\":11449:11451   */\n          0x40\n            /* \"#utility.yul\":11444:11447   */\n          dup3\n            /* \"#utility.yul\":11440:11452   */\n          add\n            /* \"#utility.yul\":11433:11452   */\n          swap1\n          pop\n            /* \"#utility.yul\":11092:11458   */\n          swap2\n          swap1\n          pop\n          jump\t// out\n            /* \"#utility.yul\":11464:11883   */\n        tag_65:\n            /* \"#utility.yul\":11630:11634   */\n          0x00\n            /* \"#utility.yul\":11668:11670   */\n          0x20\n            /* \"#utility.yul\":11657:11666   */\n          dup3\n            /* \"#utility.yul\":11653:11671   */\n          add\n            /* \"#utility.yul\":11645:11671   */\n          swap1\n          pop\n            /* \"#utility.yul\":11717:11726   */\n          dup2\n            /* \"#utility.yul\":11711:11715   */\n          dup2\n            /* \"#utility.yul\":11707:11727   */\n          sub\n            /* \"#utility.yul\":11703:11704   */\n          0x00\n            /* \"#utility.yul\":11692:11701   */\n          dup4\n            /* \"#utility.yul\":11688:11705   */\n          add\n            /* \"#utility.yul\":11681:11728   */\n          mstore\n            /* \"#utility.yul\":11745:11876   */\n          tag_273\n            /* \"#utility.yul\":11871:11875   */\n          dup2\n            /* \"#utility.yul\":11745:11876   */\n          tag_166\n          jump\t// in\n        tag_273:\n            /* \"#utility.yul\":11737:11876   */\n          swap1\n          pop\n            /* \"#utility.yul\":11464:11883   */\n          swap2\n          swap1\n          pop\n          jump\t// out\n            /* \"#utility.yul\":11889:12067   */\n        tag_167:\n            /* \"#utility.yul\":12029:12059   */\n          0x5472616e73616374696f6e733a20696e64657820746f6f206869676800000000\n            /* \"#utility.yul\":12025:12026   */\n          0x00\n            /* \"#utility.yul\":12017:12023   */\n          dup3\n            /* \"#utility.yul\":12013:12027   */\n          add\n            /* \"#utility.yul\":12006:12060   */\n          mstore\n            /* \"#utility.yul\":11889:12067   */\n          pop\n          jump\t// out\n            /* \"#utility.yul\":12073:12439   */\n        tag_168:\n            /* \"#utility.yul\":12215:12218   */\n          0x00\n            /* \"#utility.yul\":12236:12303   */\n          tag_276\n            /* \"#utility.yul\":12300:12302   */\n          0x1c\n            /* \"#utility.yul\":12295:12298   */\n          dup4\n            /* \"#utility.yul\":12236:12303   */\n          tag_160\n          jump\t// in\n        tag_276:\n            /* \"#utility.yul\":12229:12303   */\n          swap2\n          pop\n            /* \"#utility.yul\":12312:12405   */\n          tag_277\n            /* \"#utility.yul\":12401:12404   */\n          dup3\n            /* \"#utility.yul\":12312:12405   */\n          tag_167\n          jump\t// in\n        tag_277:\n            /* \"#utility.yul\":12430:12432   */\n          0x20\n            /* \"#utility.yul\":12425:12428   */\n          dup3\n            /* \"#utility.yul\":12421:12433   */\n          add\n            /* \"#utility.yul\":12414:12433   */\n          swap1\n          pop\n            /* \"#utility.yul\":12073:12439   */\n          swap2\n          swap1\n          pop\n          jump\t// out\n            /* \"#utility.yul\":12445:12864   */\n        tag_72:\n            /* \"#utility.yul\":12611:12615   */\n          0x00\n            /* \"#utility.yul\":12649:12651   */\n          0x20\n            /* \"#utility.yul\":12638:12647   */\n          dup3\n            /* \"#utility.yul\":12634:12652   */\n          add\n            /* \"#utility.yul\":12626:12652   */\n          swap1\n          pop\n            /* \"#utility.yul\":12698:12707   */\n          dup2\n            /* \"#utility.yul\":12692:12696   */\n          dup2\n            /* \"#utility.yul\":12688:12708   */\n          sub\n            /* \"#utility.yul\":12684:12685   */\n          0x00\n            /* \"#utility.yul\":12673:12682   */\n          dup4\n            /* \"#utility.yul\":12669:12686   */\n          add\n            /* \"#utility.yul\":12662:12709   */\n          mstore\n            /* \"#utility.yul\":12726:12857   */\n          tag_279\n            /* \"#utility.yul\":12852:12856   */\n          dup2\n            /* \"#utility.yul\":12726:12857   */\n          tag_168\n          jump\t// in\n        tag_279:\n            /* \"#utility.yul\":12718:12857   */\n          swap1\n          pop\n            /* \"#utility.yul\":12445:12864   */\n          swap2\n          swap1\n          pop\n          jump\t// out\n            /* \"#utility.yul\":12870:13050   */\n        tag_75:\n            /* \"#utility.yul\":12918:12995   */\n          0x4e487b7100000000000000000000000000000000000000000000000000000000\n            /* \"#utility.yul\":12915:12916   */\n          0x00\n            /* \"#utility.yul\":12908:12996   */\n          mstore\n            /* \"#utility.yul\":13015:13019   */\n          0x32\n            /* \"#utility.yul\":13012:13013   */\n          0x04\n            /* \"#utility.yul\":13005:13020   */\n          mstore\n            /* \"#utility.yul\":13039:13043   */\n          0x24\n            /* \"#utility.yul\":13036:13037   */\n          0x00\n            /* \"#utility.yul\":13029:13044   */\n          revert\n            /* \"#utility.yul\":13056:13281   */\n        tag_169:\n            /* \"#utility.yul\":13196:13230   */\n          0x4f776e61626c653a206e6577206f776e657220697320746865207a65726f2061\n            /* \"#utility.yul\":13192:13193   */\n          0x00\n            /* \"#utility.yul\":13184:13190   */\n          dup3\n            /* \"#utility.yul\":13180:13194   */\n          add\n            /* \"#utility.yul\":13173:13231   */\n          mstore\n            /* \"#utility.yul\":13265:13273   */\n          0x6464726573730000000000000000000000000000000000000000000000000000\n            /* \"#utility.yul\":13260:13262   */\n          0x20\n            /* \"#utility.yul\":13252:13258   */\n          dup3\n            /* \"#utility.yul\":13248:13263   */\n          add\n            /* \"#utility.yul\":13241:13274   */\n          mstore\n            /* \"#utility.yul\":13056:13281   */\n          pop\n          jump\t// out\n            /* \"#utility.yul\":13287:13653   */\n        tag_170:\n            /* \"#utility.yul\":13429:13432   */\n          0x00\n            /* \"#utility.yul\":13450:13517   */\n          tag_283\n            /* \"#utility.yul\":13514:13516   */\n          0x26\n            /* \"#utility.yul\":13509:13512   */\n          dup4\n            /* \"#utility.yul\":13450:13517   */\n          tag_160\n          jump\t// in\n        tag_283:\n            /* \"#utility.yul\":13443:13517   */\n          swap2\n          pop\n            /* \"#utility.yul\":13526:13619   */\n          tag_284\n            /* \"#utility.yul\":13615:13618   */\n          dup3\n            /* \"#utility.yul\":13526:13619   */\n          tag_169\n          jump\t// in\n        tag_284:\n            /* \"#utility.yul\":13644:13646   */\n          0x40\n            /* \"#utility.yul\":13639:13642   */\n          dup3\n            /* \"#utility.yul\":13635:13647   */\n          add\n            /* \"#utility.yul\":13628:13647   */\n          swap1\n          pop\n            /* \"#utility.yul\":13287:13653   */\n          swap2\n          swap1\n          pop\n          jump\t// out\n            /* \"#utility.yul\":13659:14078   */\n        tag_104:\n            /* \"#utility.yul\":13825:13829   */\n          0x00\n            /* \"#utility.yul\":13863:13865   */\n          0x20\n            /* \"#utility.yul\":13852:13861   */\n          dup3\n            /* \"#utility.yul\":13848:13866   */\n          add\n            /* \"#utility.yul\":13840:13866   */\n          swap1\n          pop\n            /* \"#utility.yul\":13912:13921   */\n          dup2\n            /* \"#utility.yul\":13906:13910   */\n          dup2\n            /* \"#utility.yul\":13902:13922   */\n          sub\n            /* \"#utility.yul\":13898:13899   */\n          0x00\n            /* \"#utility.yul\":13887:13896   */\n          dup4\n            /* \"#utility.yul\":13883:13900   */\n          add\n            /* \"#utility.yul\":13876:13923   */\n          mstore\n            /* \"#utility.yul\":13940:14071   */\n          tag_286\n            /* \"#utility.yul\":14066:14070   */\n          dup2\n            /* \"#utility.yul\":13940:14071   */\n          tag_170\n          jump\t// in\n        tag_286:\n            /* \"#utility.yul\":13932:14071   */\n          swap1\n          pop\n            /* \"#utility.yul\":13659:14078   */\n          swap2\n          swap1\n          pop\n          jump\t// out\n            /* \"#utility.yul\":14084:14250   */\n        tag_171:\n            /* \"#utility.yul\":14224:14242   */\n          0x5061757361626c653a2070617573656400000000000000000000000000000000\n            /* \"#utility.yul\":14220:14221   */\n          0x00\n            /* \"#utility.yul\":14212:14218   */\n          dup3\n            /* \"#utility.yul\":14208:14222   */\n          add\n            /* \"#utility.yul\":14201:14243   */\n          mstore\n            /* \"#utility.yul\":14084:14250   */\n          pop\n          jump\t// out\n            /* \"#utility.yul\":14256:14622   */\n        tag_172:\n            /* \"#utility.yul\":14398:14401   */\n          0x00\n            /* \"#utility.yul\":14419:14486   */\n          tag_289\n            /* \"#utility.yul\":14483:14485   */\n          0x10\n            /* \"#utility.yul\":14478:14481   */\n          dup4\n            /* \"#utility.yul\":14419:14486   */\n          tag_160\n          jump\t// in\n        tag_289:\n            /* \"#utility.yul\":14412:14486   */\n          swap2\n          pop\n            /* \"#utility.yul\":14495:14588   */\n          tag_290\n            /* \"#utility.yul\":14584:14587   */\n          dup3\n            /* \"#utility.yul\":14495:14588   */\n          tag_171\n          jump\t// in\n        tag_290:\n            /* \"#utility.yul\":14613:14615   */\n          0x20\n            /* \"#utility.yul\":14608:14611   */\n          dup3\n            /* \"#utility.yul\":14604:14616   */\n          add\n            /* \"#utility.yul\":14597:14616   */\n          swap1\n          pop\n            /* \"#utility.yul\":14256:14622   */\n          swap2\n          swap1\n          pop\n          jump\t// out\n            /* \"#utility.yul\":14628:15047   */\n        tag_110:\n            /* \"#utility.yul\":14794:14798   */\n          0x00\n            /* \"#utility.yul\":14832:14834   */\n          0x20\n            /* \"#utility.yul\":14821:14830   */\n          dup3\n            /* \"#utility.yul\":14817:14835   */\n          add\n            /* \"#utility.yul\":14809:14835   */\n          swap1\n          pop\n            /* \"#utility.yul\":14881:14890   */\n          dup2\n            /* \"#utility.yul\":14875:14879   */\n          dup2\n            /* \"#utility.yul\":14871:14891   */\n          sub\n            /* \"#utility.yul\":14867:14868   */\n          0x00\n            /* \"#utility.yul\":14856:14865   */\n          dup4\n            /* \"#utility.yul\":14852:14869   */\n          add\n            /* \"#utility.yul\":14845:14892   */\n          mstore\n            /* \"#utility.yul\":14909:15040   */\n          tag_292\n            /* \"#utility.yul\":15035:15039   */\n          dup2\n            /* \"#utility.yul\":14909:15040   */\n          tag_172\n          jump\t// in\n        tag_292:\n            /* \"#utility.yul\":14901:15040   */\n          swap1\n          pop\n            /* \"#utility.yul\":14628:15047   */\n          swap2\n          swap1\n          pop\n          jump\t// out\n            /* \"#utility.yul\":15053:15235   */\n        tag_173:\n            /* \"#utility.yul\":15193:15227   */\n          0x4f776e61626c653a2063616c6c6572206973206e6f7420746865206f776e6572\n            /* \"#utility.yul\":15189:15190   */\n          0x00\n            /* \"#utility.yul\":15181:15187   */\n          dup3\n            /* \"#utility.yul\":15177:15191   */\n          add\n            /* \"#utility.yul\":15170:15228   */\n          mstore\n            /* \"#utility.yul\":15053:15235   */\n          pop\n          jump\t// out\n            /* \"#utility.yul\":15241:15607   */\n        tag_174:\n            /* \"#utility.yul\":15383:15386   */\n          0x00\n            /* \"#utility.yul\":15404:15471   */\n          tag_295\n            /* \"#utility.yul\":15468:15470   */\n          0x20\n            /* \"#utility.yul\":15463:15466   */\n          dup4\n            /* \"#utility.yul\":15404:15471   */\n          tag_160\n          jump\t// in\n        tag_295:\n            /* \"#utility.yul\":15397:15471   */\n          swap2\n          pop\n            /* \"#utility.yul\":15480:15573   */\n          tag_296\n            /* \"#utility.yul\":15569:15572   */\n          dup3\n            /* \"#utility.yul\":15480:15573   */\n          tag_173\n          jump\t// in\n        tag_296:\n            /* \"#utility.yul\":15598:15600   */\n          0x20\n            /* \"#utility.yul\":15593:15596   */\n          dup3\n            /* \"#utility.yul\":15589:15601   */\n          add\n            /* \"#utility.yul\":15582:15601   */\n          swap1\n          pop\n            /* \"#utility.yul\":15241:15607   */\n          swap2\n          swap1\n          pop\n          jump\t// out\n            /* \"#utility.yul\":15613:16032   */\n        tag_117:\n            /* \"#utility.yul\":15779:15783   */\n          0x00\n            /* \"#utility.yul\":15817:15819   */\n          0x20\n            /* \"#utility.yul\":15806:15815   */\n          dup3\n            /* \"#utility.yul\":15802:15820   */\n          add\n            /* \"#utility.yul\":15794:15820   */\n          swap1\n          pop\n            /* \"#utility.yul\":15866:15875   */\n          dup2\n            /* \"#utility.yul\":15860:15864   */\n          dup2\n            /* \"#utility.yul\":15856:15876   */\n          sub\n            /* \"#utility.yul\":15852:15853   */\n          0x00\n            /* \"#utility.yul\":15841:15850   */\n          dup4\n            /* \"#utility.yul\":15837:15854   */\n          add\n            /* \"#utility.yul\":15830:15877   */\n          mstore\n            /* \"#utility.yul\":15894:16025   */\n          tag_298\n            /* \"#utility.yul\":16020:16024   */\n          dup2\n            /* \"#utility.yul\":15894:16025   */\n          tag_174\n          jump\t// in\n        tag_298:\n            /* \"#utility.yul\":15886:16025   */\n          swap1\n          pop\n            /* \"#utility.yul\":15613:16032   */\n          swap2\n          swap1\n          pop\n          jump\t// out\n            /* \"#utility.yul\":16038:16208   */\n        tag_175:\n            /* \"#utility.yul\":16178:16200   */\n          0x5061757361626c653a206e6f7420706175736564000000000000000000000000\n            /* \"#utility.yul\":16174:16175   */\n          0x00\n            /* \"#utility.yul\":16166:16172   */\n          dup3\n            /* \"#utility.yul\":16162:16176   */\n          add\n            /* \"#utility.yul\":16155:16201   */\n          mstore\n            /* \"#utility.yul\":16038:16208   */\n          pop\n          jump\t// out\n            /* \"#utility.yul\":16214:16580   */\n        tag_176:\n            /* \"#utility.yul\":16356:16359   */\n          0x00\n            /* \"#utility.yul\":16377:16444   */\n          tag_301\n            /* \"#utility.yul\":16441:16443   */\n          0x14\n            /* \"#utility.yul\":16436:16439   */\n          dup4\n            /* \"#utility.yul\":16377:16444   */\n          tag_160\n          jump\t// in\n        tag_301:\n            /* \"#utility.yul\":16370:16444   */\n          swap2\n          pop\n            /* \"#utility.yul\":16453:16546   */\n          tag_302\n            /* \"#utility.yul\":16542:16545   */\n          dup3\n            /* \"#utility.yul\":16453:16546   */\n          tag_175\n          jump\t// in\n        tag_302:\n            /* \"#utility.yul\":16571:16573   */\n          0x20\n            /* \"#utility.yul\":16566:16569   */\n          dup3\n            /* \"#utility.yul\":16562:16574   */\n          add\n            /* \"#utility.yul\":16555:16574   */\n          swap1\n          pop\n            /* \"#utility.yul\":16214:16580   */\n          swap2\n          swap1\n          pop\n          jump\t// out\n            /* \"#utility.yul\":16586:17005   */\n        tag_135:\n            /* \"#utility.yul\":16752:16756   */\n          0x00\n            /* \"#utility.yul\":16790:16792   */\n          0x20\n            /* \"#utility.yul\":16779:16788   */\n          dup3\n            /* \"#utility.yul\":16775:16793   */\n          add\n            /* \"#utility.yul\":16767:16793   */\n          swap1\n          pop\n            /* \"#utility.yul\":16839:16848   */\n          dup2\n            /* \"#utility.yul\":16833:16837   */\n          dup2\n            /* \"#utility.yul\":16829:16849   */\n          sub\n            /* \"#utility.yul\":16825:16826   */\n          0x00\n            /* \"#utility.yul\":16814:16823   */\n          dup4\n            /* \"#utility.yul\":16810:16827   */\n          add\n            /* \"#utility.yul\":16803:16850   */\n          mstore\n            /* \"#utility.yul\":16867:16998   */\n          tag_304\n            /* \"#utility.yul\":16993:16997   */\n          dup2\n            /* \"#utility.yul\":16867:16998   */\n          tag_176\n          jump\t// in\n        tag_304:\n            /* \"#utility.yul\":16859:16998   */\n          swap1\n          pop\n            /* \"#utility.yul\":16586:17005   */\n          swap2\n          swap1\n          pop\n          jump\t// out\n\n        auxdata: 0xa26469706673582212206c826b38099eab3678006e3399d2c2e714fbc832741f3c475c8b8a0076f25ce464736f6c63430008110033\n    }\n}\n",
				"bytecode": {
					"linkReferences": {},
					"object": "60806040523480156200001157600080fd5b5060405162002eb738038062002eb7833981810160405281019062000037919062000270565b620000576200004b6200012c60201b60201c565b6200013460201b60201c565b60008060146101000a81548160ff021916908315150217905550600180819055506040516200008690620001f8565b604051809103906000f080158015620000a3573d6000803e3d6000fd5b50600260006101000a81548173ffffffffffffffffffffffffffffffffffffffff021916908373ffffffffffffffffffffffffffffffffffffffff16021790555080600360006101000a81548173ffffffffffffffffffffffffffffffffffffffff021916908373ffffffffffffffffffffffffffffffffffffffff16021790555050620002a2565b600033905090565b60008060009054906101000a900473ffffffffffffffffffffffffffffffffffffffff169050816000806101000a81548173ffffffffffffffffffffffffffffffffffffffff021916908373ffffffffffffffffffffffffffffffffffffffff1602179055508173ffffffffffffffffffffffffffffffffffffffff168173ffffffffffffffffffffffffffffffffffffffff167f8be0079c531659141344cd1fd0a4f28419497f9722a3daafe3b4186f6b6457e060405160405180910390a35050565b6114a28062001a1583390190565b600080fd5b600073ffffffffffffffffffffffffffffffffffffffff82169050919050565b600062000238826200020b565b9050919050565b6200024a816200022b565b81146200025657600080fd5b50565b6000815190506200026a816200023f565b92915050565b60006020828403121562000289576200028862000206565b5b6000620002998482850162000259565b91505092915050565b61176380620002b26000396000f3fe608060405234801561001057600080fd5b50600436106100cf5760003560e01c80638456cb591161008c578063bec3fa1711610066578063bec3fa17146101b8578063f2193627146101d4578063f2fde38b146101f2578063fe73b27f1461020e576100cf565b80638456cb59146101725780638da5cb5b1461017c578063b76d4fc31461019a576100cf565b806310fe9ae8146100d457806312065fe0146100f257806333ea3dc8146101105780633f4ba83a146101405780635c975abb1461014a578063715018a614610168575b600080fd5b6100dc61022a565b6040516100e99190610c5c565b60405180910390f35b6100fa610254565b6040516101079190610c90565b60405180910390f35b61012a60048036038101906101259190610ceb565b6102f7565b6040516101379190610d8b565b60405180910390f35b6101486103a2565b005b6101526103b4565b60405161015f9190610dc1565b60405180910390f35b6101706103ca565b005b61017a6103de565b005b6101846103f0565b6040516101919190610c5c565b60405180910390f35b6101a2610419565b6040516101af9190610ee0565b60405180910390f35b6101d260048036038101906101cd9190610f2e565b6104b6565b005b6101dc6106fc565b6040516101e99190610c90565b60405180910390f35b61020c60048036038101906102079190610f6e565b610794565b005b61022860048036038101906102239190610f9b565b610817565b005b6000600360009054906101000a900473ffffffffffffffffffffffffffffffffffffffff16905090565b6000600360009054906101000a900473ffffffffffffffffffffffffffffffffffffffff1673ffffffffffffffffffffffffffffffffffffffff166370a08231306040518263ffffffff1660e01b81526004016102b19190610c5c565b602060405180830381865afa1580156102ce573d6000803e3d6000fd5b505050506040513d601f19601f820116820180604052508101906102f29190611003565b905090565b6102ff610bc7565b600260009054906101000a900473ffffffffffffffffffffffffffffffffffffffff1673ffffffffffffffffffffffffffffffffffffffff166333ea3dc8836040518263ffffffff1660e01b815260040161035a9190610c90565b608060405180830381865afa158015610377573d6000803e3d6000fd5b505050506040513d601f19601f8201168201806040525081019061039b919061114e565b9050919050565b6103aa6108cd565b6103b261094b565b565b60008060149054906101000a900460ff16905090565b6103d26108cd565b6103dc60006109ad565b565b6103e66108cd565b6103ee610a71565b565b60008060009054906101000a900473ffffffffffffffffffffffffffffffffffffffff16905090565b6060600260009054906101000a900473ffffffffffffffffffffffffffffffffffffffff1673ffffffffffffffffffffffffffffffffffffffff1663b76d4fc36040518163ffffffff1660e01b8152600401600060405180830381865afa158015610488573d6000803e3d6000fd5b505050506040513d6000823e3d601f19601f820116820180604052508101906104b19190611248565b905090565b6104be610ad4565b6104c66108cd565b6104ce610b1e565b600073ffffffffffffffffffffffffffffffffffffffff168273ffffffffffffffffffffffffffffffffffffffff160361053d576040517f08c379a000000000000000000000000000000000000000000000000000000000815260040161053490611314565b60405180910390fd5b60008111610580576040517f08c379a0000000000000000000000000000000000000000000000000000000008152600401610577906113a6565b60405180910390fd5b600360009054906101000a900473ffffffffffffffffffffffffffffffffffffffff1673ffffffffffffffffffffffffffffffffffffffff1663a9059cbb83836040518363ffffffff1660e01b81526004016105dd9291906113c6565b6020604051808303816000875af11580156105fc573d6000803e3d6000fd5b505050506040513d601f19601f82011682018060405250810190610620919061141b565b61065f576040517f08c379a000000000000000000000000000000000000000000000000000000000815260040161065690611494565b60405180910390fd5b600260009054906101000a900473ffffffffffffffffffffffffffffffffffffffff1673ffffffffffffffffffffffffffffffffffffffff16630b826afa3084846040518463ffffffff1660e01b81526004016106be939291906114b4565b600060405180830381600087803b1580156106d857600080fd5b505af11580156106ec573d6000803e3d6000fd5b505050506106f8610b6d565b5050565b6000600260009054906101000a900473ffffffffffffffffffffffffffffffffffffffff1673ffffffffffffffffffffffffffffffffffffffff16639f71c3c96040518163ffffffff1660e01b8152600401602060405180830381865afa15801561076b573d6000803e3d6000fd5b505050506040513d601f19601f8201168201806040525081019061078f9190611003565b905090565b61079c6108cd565b600073ffffffffffffffffffffffffffffffffffffffff168173ffffffffffffffffffffffffffffffffffffffff160361080b576040517f08c379a00000000000000000000000000000000000000000000000000000000081526004016108029061155d565b60405180910390fd5b610814816109ad565b50565b61081f610ad4565b6108276108cd565b61082f610b1e565b600260009054906101000a900473ffffffffffffffffffffffffffffffffffffffff1673ffffffffffffffffffffffffffffffffffffffff16630b826afa8484846040518463ffffffff1660e01b815260040161088e939291906114b4565b600060405180830381600087803b1580156108a857600080fd5b505af11580156108bc573d6000803e3d6000fd5b505050506108c8610b6d565b505050565b6108d5610b76565b73ffffffffffffffffffffffffffffffffffffffff166108f36103f0565b73ffffffffffffffffffffffffffffffffffffffff1614610949576040517f08c379a0000000000000000000000000000000000000000000000000000000008152600401610940906115c9565b60405180910390fd5b565b610953610b7e565b60008060146101000a81548160ff0219169083151502179055507f5db9ee0a495bf2e6ff9c91a7834c1ba4fdd244a5e8aa4e537bd38aeae4b073aa610996610b76565b6040516109a39190610c5c565b60405180910390a1565b60008060009054906101000a900473ffffffffffffffffffffffffffffffffffffffff169050816000806101000a81548173ffffffffffffffffffffffffffffffffffffffff021916908373ffffffffffffffffffffffffffffffffffffffff1602179055508173ffffffffffffffffffffffffffffffffffffffff168173ffffffffffffffffffffffffffffffffffffffff167f8be0079c531659141344cd1fd0a4f28419497f9722a3daafe3b4186f6b6457e060405160405180910390a35050565b610a79610ad4565b6001600060146101000a81548160ff0219169083151502179055507f62e78cea01bee320cd4e420270b5ea74000d11b0c9f74754ebdbfc544b05a258610abd610b76565b604051610aca9190610c5c565b60405180910390a1565b610adc6103b4565b15610b1c576040517f08c379a0000000000000000000000000000000000000000000000000000000008152600401610b1390611635565b60405180910390fd5b565b600260015403610b63576040517f08c379a0000000000000000000000000000000000000000000000000000000008152600401610b5a906116a1565b60405180910390fd5b6002600181905550565b60018081905550565b600033905090565b610b866103b4565b610bc5576040517f08c379a0000000000000000000000000000000000000000000000000000000008152600401610bbc9061170d565b60405180910390fd5b565b6040518060800160405280600073ffffffffffffffffffffffffffffffffffffffff168152602001600073ffffffffffffffffffffffffffffffffffffffff16815260200160008152602001600081525090565b600073ffffffffffffffffffffffffffffffffffffffff82169050919050565b6000610c4682610c1b565b9050919050565b610c5681610c3b565b82525050565b6000602082019050610c716000830184610c4d565b92915050565b6000819050919050565b610c8a81610c77565b82525050565b6000602082019050610ca56000830184610c81565b92915050565b6000604051905090565b600080fd5b600080fd5b610cc881610c77565b8114610cd357600080fd5b50565b600081359050610ce581610cbf565b92915050565b600060208284031215610d0157610d00610cb5565b5b6000610d0f84828501610cd6565b91505092915050565b610d2181610c3b565b82525050565b610d3081610c77565b82525050565b608082016000820151610d4c6000850182610d18565b506020820151610d5f6020850182610d18565b506040820151610d726040850182610d27565b506060820151610d856060850182610d27565b50505050565b6000608082019050610da06000830184610d36565b92915050565b60008115159050919050565b610dbb81610da6565b82525050565b6000602082019050610dd66000830184610db2565b92915050565b600081519050919050565b600082825260208201905092915050565b6000819050602082019050919050565b608082016000820151610e1e6000850182610d18565b506020820151610e316020850182610d18565b506040820151610e446040850182610d27565b506060820151610e576060850182610d27565b50505050565b6000610e698383610e08565b60808301905092915050565b6000602082019050919050565b6000610e8d82610ddc565b610e978185610de7565b9350610ea283610df8565b8060005b83811015610ed3578151610eba8882610e5d565b9750610ec583610e75565b925050600181019050610ea6565b5085935050505092915050565b60006020820190508181036000830152610efa8184610e82565b905092915050565b610f0b81610c3b565b8114610f1657600080fd5b50565b600081359050610f2881610f02565b92915050565b60008060408385031215610f4557610f44610cb5565b5b6000610f5385828601610f19565b9250506020610f6485828601610cd6565b9150509250929050565b600060208284031215610f8457610f83610cb5565b5b6000610f9284828501610f19565b91505092915050565b600080600060608486031215610fb457610fb3610cb5565b5b6000610fc286828701610f19565b9350506020610fd386828701610f19565b9250506040610fe486828701610cd6565b9150509250925092565b600081519050610ffd81610cbf565b92915050565b60006020828403121561101957611018610cb5565b5b600061102784828501610fee565b91505092915050565b600080fd5b6000601f19601f8301169050919050565b7f4e487b7100000000000000000000000000000000000000000000000000000000600052604160045260246000fd5b61107e82611035565b810181811067ffffffffffffffff8211171561109d5761109c611046565b5b80604052505050565b60006110b0610cab565b90506110bc8282611075565b919050565b6000815190506110d081610f02565b92915050565b6000608082840312156110ec576110eb611030565b5b6110f660806110a6565b90506000611106848285016110c1565b600083015250602061111a848285016110c1565b602083015250604061112e84828501610fee565b604083015250606061114284828501610fee565b60608301525092915050565b60006080828403121561116457611163610cb5565b5b6000611172848285016110d6565b91505092915050565b600080fd5b600067ffffffffffffffff82111561119b5761119a611046565b5b602082029050602081019050919050565b600080fd5b60006111c46111bf84611180565b6110a6565b905080838252602082019050608084028301858111156111e7576111e66111ac565b5b835b8181101561121057806111fc88826110d6565b8452602084019350506080810190506111e9565b5050509392505050565b600082601f83011261122f5761122e61117b565b5b815161123f8482602086016111b1565b91505092915050565b60006020828403121561125e5761125d610cb5565b5b600082015167ffffffffffffffff81111561127c5761127b610cba565b5b6112888482850161121a565b91505092915050565b600082825260208201905092915050565b7f50656c6957616c6c65743a20726563697069656e742063616e6e6f742062652060008201527f7a65726f20616464726573730000000000000000000000000000000000000000602082015250565b60006112fe602c83611291565b9150611309826112a2565b604082019050919050565b6000602082019050818103600083015261132d816112f1565b9050919050565b7f50656c6957616c6c65743a20616d6f756e74206d75737420626520677265617460008201527f6572207468616e207a65726f0000000000000000000000000000000000000000602082015250565b6000611390602c83611291565b915061139b82611334565b604082019050919050565b600060208201905081810360008301526113bf81611383565b9050919050565b60006040820190506113db6000830185610c4d565b6113e86020830184610c81565b9392505050565b6113f881610da6565b811461140357600080fd5b50565b600081519050611415816113ef565b92915050565b60006020828403121561143157611430610cb5565b5b600061143f84828501611406565b91505092915050565b7f50656c6957616c6c65743a205472616e73666572204661696c65640000000000600082015250565b600061147e601b83611291565b915061148982611448565b602082019050919050565b600060208201905081810360008301526114ad81611471565b9050919050565b60006060820190506114c96000830186610c4d565b6114d66020830185610c4d565b6114e36040830184610c81565b949350505050565b7f4f776e61626c653a206e6577206f776e657220697320746865207a65726f206160008201527f6464726573730000000000000000000000000000000000000000000000000000602082015250565b6000611547602683611291565b9150611552826114eb565b604082019050919050565b600060208201905081810360008301526115768161153a565b9050919050565b7f4f776e61626c653a2063616c6c6572206973206e6f7420746865206f776e6572600082015250565b60006115b3602083611291565b91506115be8261157d565b602082019050919050565b600060208201905081810360008301526115e2816115a6565b9050919050565b7f5061757361626c653a2070617573656400000000000000000000000000000000600082015250565b600061161f601083611291565b915061162a826115e9565b602082019050919050565b6000602082019050818103600083015261164e81611612565b9050919050565b7f5265656e7472616e637947756172643a207265656e7472616e742063616c6c00600082015250565b600061168b601f83611291565b915061169682611655565b602082019050919050565b600060208201905081810360008301526116ba8161167e565b9050919050565b7f5061757361626c653a206e6f7420706175736564000000000000000000000000600082015250565b60006116f7601483611291565b9150611702826116c1565b602082019050919050565b60006020820190508181036000830152611726816116ea565b905091905056fea26469706673582212202d5769e05921653b7847f8622ac5b5402fc1af99a99bc591ab1b04b0f6cb15be64736f6c63430008110033608060405234801561001057600080fd5b5061002d61002261004c60201b60201c565b61005460201b60201c565b60008060146101000a81548160ff021916908315150217905550610118565b600033905090565b60008060009054906101000a900473ffffffffffffffffffffffffffffffffffffffff169050816000806101000a81548173ffffffffffffffffffffffffffffffffffffffff021916908373ffffffffffffffffffffffffffffffffffffffff1602179055508173ffffffffffffffffffffffffffffffffffffffff168173ffffffffffffffffffffffffffffffffffffffff167f8be0079c531659141344cd1fd0a4f28419497f9722a3daafe3b4186f6b6457e060405160405180910390a35050565b61137b806101276000396000f3fe608060405234801561001057600080fd5b506004361061009e5760003560e01c80638456cb59116100665780638456cb59146101215780638da5cb5b1461012b5780639f71c3c914610149578063b76d4fc314610167578063f2fde38b146101855761009e565b80630b826afa146100a357806333ea3dc8146100bf5780633f4ba83a146100ef5780635c975abb146100f9578063715018a614610117575b600080fd5b6100bd60048036038101906100b89190610c22565b6101a1565b005b6100d960048036038101906100d49190610c75565b610436565b6040516100e69190610d15565b60405180910390f35b6100f76105f3565b005b610101610605565b60405161010e9190610d4b565b60405180910390f35b61011f61061b565b005b61012961062f565b005b610133610641565b6040516101409190610d75565b60405180910390f35b61015161066a565b60405161015e9190610d9f565b60405180910390f35b61016f6106b4565b60405161017c9190610ebe565b60405180910390f35b61019f600480360381019061019a9190610ee0565b610810565b005b6101a9610893565b6101b16108dd565b600073ffffffffffffffffffffffffffffffffffffffff168373ffffffffffffffffffffffffffffffffffffffff1603610220576040517f08c379a000000000000000000000000000000000000000000000000000000000815260040161021790610f90565b60405180910390fd5b600073ffffffffffffffffffffffffffffffffffffffff168273ffffffffffffffffffffffffffffffffffffffff160361028f576040517f08c379a000000000000000000000000000000000000000000000000000000000815260040161028690611022565b60405180910390fd5b600081116102d2576040517f08c379a00000000000000000000000000000000000000000000000000000000081526004016102c9906110b4565b60405180910390fd5b600060405180608001604052808573ffffffffffffffffffffffffffffffffffffffff1681526020018473ffffffffffffffffffffffffffffffffffffffff168152602001838152602001428152509050600160003373ffffffffffffffffffffffffffffffffffffffff1673ffffffffffffffffffffffffffffffffffffffff16815260200190815260200160002081908060018154018082558091505060019003906000526020600020906004020160009091909190915060008201518160000160006101000a81548173ffffffffffffffffffffffffffffffffffffffff021916908373ffffffffffffffffffffffffffffffffffffffff16021790555060208201518160010160006101000a81548173ffffffffffffffffffffffffffffffffffffffff021916908373ffffffffffffffffffffffffffffffffffffffff1602179055506040820151816002015560608201518160030155505050505050565b61043e610b35565b600160003373ffffffffffffffffffffffffffffffffffffffff1673ffffffffffffffffffffffffffffffffffffffff1681526020019081526020016000208054905082106104c2576040517f08c379a00000000000000000000000000000000000000000000000000000000081526004016104b990611120565b60405180910390fd5b600160003373ffffffffffffffffffffffffffffffffffffffff1673ffffffffffffffffffffffffffffffffffffffff168152602001908152602001600020828154811061051357610512611140565b5b90600052602060002090600402016040518060800160405290816000820160009054906101000a900473ffffffffffffffffffffffffffffffffffffffff1673ffffffffffffffffffffffffffffffffffffffff1673ffffffffffffffffffffffffffffffffffffffff1681526020016001820160009054906101000a900473ffffffffffffffffffffffffffffffffffffffff1673ffffffffffffffffffffffffffffffffffffffff1673ffffffffffffffffffffffffffffffffffffffff168152602001600282015481526020016003820154815250509050919050565b6105fb6108dd565b61060361095b565b565b60008060149054906101000a900460ff16905090565b6106236108dd565b61062d60006109bd565b565b6106376108dd565b61063f610a81565b565b60008060009054906101000a900473ffffffffffffffffffffffffffffffffffffffff16905090565b6000600160003373ffffffffffffffffffffffffffffffffffffffff1673ffffffffffffffffffffffffffffffffffffffff16815260200190815260200160002080549050905090565b6060600160003373ffffffffffffffffffffffffffffffffffffffff1673ffffffffffffffffffffffffffffffffffffffff168152602001908152602001600020805480602002602001604051908101604052809291908181526020016000905b8282101561080757838290600052602060002090600402016040518060800160405290816000820160009054906101000a900473ffffffffffffffffffffffffffffffffffffffff1673ffffffffffffffffffffffffffffffffffffffff1673ffffffffffffffffffffffffffffffffffffffff1681526020016001820160009054906101000a900473ffffffffffffffffffffffffffffffffffffffff1673ffffffffffffffffffffffffffffffffffffffff1673ffffffffffffffffffffffffffffffffffffffff1681526020016002820154815260200160038201548152505081526020019060010190610715565b50505050905090565b6108186108dd565b600073ffffffffffffffffffffffffffffffffffffffff168173ffffffffffffffffffffffffffffffffffffffff1603610887576040517f08c379a000000000000000000000000000000000000000000000000000000000815260040161087e906111e1565b60405180910390fd5b610890816109bd565b50565b61089b610605565b156108db576040517f08c379a00000000000000000000000000000000000000000000000000000000081526004016108d29061124d565b60405180910390fd5b565b6108e5610ae4565b73ffffffffffffffffffffffffffffffffffffffff16610903610641565b73ffffffffffffffffffffffffffffffffffffffff1614610959576040517f08c379a0000000000000000000000000000000000000000000000000000000008152600401610950906112b9565b60405180910390fd5b565b610963610aec565b60008060146101000a81548160ff0219169083151502179055507f5db9ee0a495bf2e6ff9c91a7834c1ba4fdd244a5e8aa4e537bd38aeae4b073aa6109a6610ae4565b6040516109b39190610d75565b60405180910390a1565b60008060009054906101000a900473ffffffffffffffffffffffffffffffffffffffff169050816000806101000a81548173ffffffffffffffffffffffffffffffffffffffff021916908373ffffffffffffffffffffffffffffffffffffffff1602179055508173ffffffffffffffffffffffffffffffffffffffff168173ffffffffffffffffffffffffffffffffffffffff167f8be0079c531659141344cd1fd0a4f28419497f9722a3daafe3b4186f6b6457e060405160405180910390a35050565b610a89610893565b6001600060146101000a81548160ff0219169083151502179055507f62e78cea01bee320cd4e420270b5ea74000d11b0c9f74754ebdbfc544b05a258610acd610ae4565b604051610ada9190610d75565b60405180910390a1565b600033905090565b610af4610605565b610b33576040517f08c379a0000000000000000000000000000000000000000000000000000000008152600401610b2a90611325565b60405180910390fd5b565b6040518060800160405280600073ffffffffffffffffffffffffffffffffffffffff168152602001600073ffffffffffffffffffffffffffffffffffffffff16815260200160008152602001600081525090565b600080fd5b600073ffffffffffffffffffffffffffffffffffffffff82169050919050565b6000610bb982610b8e565b9050919050565b610bc981610bae565b8114610bd457600080fd5b50565b600081359050610be681610bc0565b92915050565b6000819050919050565b610bff81610bec565b8114610c0a57600080fd5b50565b600081359050610c1c81610bf6565b92915050565b600080600060608486031215610c3b57610c3a610b89565b5b6000610c4986828701610bd7565b9350506020610c5a86828701610bd7565b9250506040610c6b86828701610c0d565b9150509250925092565b600060208284031215610c8b57610c8a610b89565b5b6000610c9984828501610c0d565b91505092915050565b610cab81610bae565b82525050565b610cba81610bec565b82525050565b608082016000820151610cd66000850182610ca2565b506020820151610ce96020850182610ca2565b506040820151610cfc6040850182610cb1565b506060820151610d0f6060850182610cb1565b50505050565b6000608082019050610d2a6000830184610cc0565b92915050565b60008115159050919050565b610d4581610d30565b82525050565b6000602082019050610d606000830184610d3c565b92915050565b610d6f81610bae565b82525050565b6000602082019050610d8a6000830184610d66565b92915050565b610d9981610bec565b82525050565b6000602082019050610db46000830184610d90565b92915050565b600081519050919050565b600082825260208201905092915050565b6000819050602082019050919050565b608082016000820151610dfc6000850182610ca2565b506020820151610e0f6020850182610ca2565b506040820151610e226040850182610cb1565b506060820151610e356060850182610cb1565b50505050565b6000610e478383610de6565b60808301905092915050565b6000602082019050919050565b6000610e6b82610dba565b610e758185610dc5565b9350610e8083610dd6565b8060005b83811015610eb1578151610e988882610e3b565b9750610ea383610e53565b925050600181019050610e84565b5085935050505092915050565b60006020820190508181036000830152610ed88184610e60565b905092915050565b600060208284031215610ef657610ef5610b89565b5b6000610f0484828501610bd7565b91505092915050565b600082825260208201905092915050565b7f5472616e73616374696f6e733a2073656e6465722063616e6e6f74206265207a60008201527f65726f2061646472657373000000000000000000000000000000000000000000602082015250565b6000610f7a602b83610f0d565b9150610f8582610f1e565b604082019050919050565b60006020820190508181036000830152610fa981610f6d565b9050919050565b7f5472616e73616374696f6e733a20726563697069656e742063616e6e6f74206260008201527f65207a65726f2061646472657373000000000000000000000000000000000000602082015250565b600061100c602e83610f0d565b915061101782610fb0565b604082019050919050565b6000602082019050818103600083015261103b81610fff565b9050919050565b7f5472616e73616374696f6e733a20616d6f756e74206d7573742062652067726560008201527f61746572207468616e207a65726f000000000000000000000000000000000000602082015250565b600061109e602e83610f0d565b91506110a982611042565b604082019050919050565b600060208201905081810360008301526110cd81611091565b9050919050565b7f5472616e73616374696f6e733a20696e64657820746f6f206869676800000000600082015250565b600061110a601c83610f0d565b9150611115826110d4565b602082019050919050565b60006020820190508181036000830152611139816110fd565b9050919050565b7f4e487b7100000000000000000000000000000000000000000000000000000000600052603260045260246000fd5b7f4f776e61626c653a206e6577206f776e657220697320746865207a65726f206160008201527f6464726573730000000000000000000000000000000000000000000000000000602082015250565b60006111cb602683610f0d565b91506111d68261116f565b604082019050919050565b600060208201905081810360008301526111fa816111be565b9050919050565b7f5061757361626c653a2070617573656400000000000000000000000000000000600082015250565b6000611237601083610f0d565b915061124282611201565b602082019050919050565b600060208201905081810360008301526112668161122a565b9050919050565b7f4f776e61626c653a2063616c6c6572206973206e6f7420746865206f776e6572600082015250565b60006112a3602083610f0d565b91506112ae8261126d565b602082019050919050565b600060208201905081810360008301526112d281611296565b9050919050565b7f5061757361626c653a206e6f7420706175736564000000000000000000000000600082015250565b600061130f601483610f0d565b915061131a826112d9565b602082019050919050565b6000602082019050818103600083015261133e81611302565b905091905056fea26469706673582212206c826b38099eab3678006e3399d2c2e714fbc832741f3c475c8b8a0076f25ce464736f6c63430008110033",
					"opcodes": "PUSH1 0x80 PUSH1 0x40 MSTORE CALLVALUE DUP1 ISZERO PUSH3 0x11 JUMPI PUSH1 0x0 DUP1 REVERT JUMPDEST POP PUSH1 0x40 MLOAD PUSH3 0x2EB7 CODESIZE SUB DUP1 PUSH3 0x2EB7 DUP4 CODECOPY DUP2 DUP2 ADD PUSH1 0x40 MSTORE DUP2 ADD SWAP1 PUSH3 0x37 SWAP2 SWAP1 PUSH3 0x270 JUMP JUMPDEST PUSH3 0x57 PUSH3 0x4B PUSH3 0x12C PUSH1 0x20 SHL PUSH1 0x20 SHR JUMP JUMPDEST PUSH3 0x134 PUSH1 0x20 SHL PUSH1 0x20 SHR JUMP JUMPDEST PUSH1 0x0 DUP1 PUSH1 0x14 PUSH2 0x100 EXP DUP2 SLOAD DUP2 PUSH1 0xFF MUL NOT AND SWAP1 DUP4 ISZERO ISZERO MUL OR SWAP1 SSTORE POP PUSH1 0x1 DUP1 DUP2 SWAP1 SSTORE POP PUSH1 0x40 MLOAD PUSH3 0x86 SWAP1 PUSH3 0x1F8 JUMP JUMPDEST PUSH1 0x40 MLOAD DUP1 SWAP2 SUB SWAP1 PUSH1 0x0 CREATE DUP1 ISZERO DUP1 ISZERO PUSH3 0xA3 JUMPI RETURNDATASIZE PUSH1 0x0 DUP1 RETURNDATACOPY RETURNDATASIZE PUSH1 0x0 REVERT JUMPDEST POP PUSH1 0x2 PUSH1 0x0 PUSH2 0x100 EXP DUP2 SLOAD DUP2 PUSH20 0xFFFFFFFFFFFFFFFFFFFFFFFFFFFFFFFFFFFFFFFF MUL NOT AND SWAP1 DUP4 PUSH20 0xFFFFFFFFFFFFFFFFFFFFFFFFFFFFFFFFFFFFFFFF AND MUL OR SWAP1 SSTORE POP DUP1 PUSH1 0x3 PUSH1 0x0 PUSH2 0x100 EXP DUP2 SLOAD DUP2 PUSH20 0xFFFFFFFFFFFFFFFFFFFFFFFFFFFFFFFFFFFFFFFF MUL NOT AND SWAP1 DUP4 PUSH20 0xFFFFFFFFFFFFFFFFFFFFFFFFFFFFFFFFFFFFFFFF AND MUL OR SWAP1 SSTORE POP POP PUSH3 0x2A2 JUMP JUMPDEST PUSH1 0x0 CALLER SWAP1 POP SWAP1 JUMP JUMPDEST PUSH1 0x0 DUP1 PUSH1 0x0 SWAP1 SLOAD SWAP1 PUSH2 0x100 EXP SWAP1 DIV PUSH20 0xFFFFFFFFFFFFFFFFFFFFFFFFFFFFFFFFFFFFFFFF AND SWAP1 POP DUP2 PUSH1 0x0 DUP1 PUSH2 0x100 EXP DUP2 SLOAD DUP2 PUSH20 0xFFFFFFFFFFFFFFFFFFFFFFFFFFFFFFFFFFFFFFFF MUL NOT AND SWAP1 DUP4 PUSH20 0xFFFFFFFFFFFFFFFFFFFFFFFFFFFFFFFFFFFFFFFF AND MUL OR SWAP1 SSTORE POP DUP2 PUSH20 0xFFFFFFFFFFFFFFFFFFFFFFFFFFFFFFFFFFFFFFFF AND DUP2 PUSH20 0xFFFFFFFFFFFFFFFFFFFFFFFFFFFFFFFFFFFFFFFF AND PUSH32 0x8BE0079C531659141344CD1FD0A4F28419497F9722A3DAAFE3B4186F6B6457E0 PUSH1 0x40 MLOAD PUSH1 0x40 MLOAD DUP1 SWAP2 SUB SWAP1 LOG3 POP POP JUMP JUMPDEST PUSH2 0x14A2 DUP1 PUSH3 0x1A15 DUP4 CODECOPY ADD SWAP1 JUMP JUMPDEST PUSH1 0x0 DUP1 REVERT JUMPDEST PUSH1 0x0 PUSH20 0xFFFFFFFFFFFFFFFFFFFFFFFFFFFFFFFFFFFFFFFF DUP3 AND SWAP1 POP SWAP2 SWAP1 POP JUMP JUMPDEST PUSH1 0x0 PUSH3 0x238 DUP3 PUSH3 0x20B JUMP JUMPDEST SWAP1 POP SWAP2 SWAP1 POP JUMP JUMPDEST PUSH3 0x24A DUP2 PUSH3 0x22B JUMP JUMPDEST DUP2 EQ PUSH3 0x256 JUMPI PUSH1 0x0 DUP1 REVERT JUMPDEST POP JUMP JUMPDEST PUSH1 0x0 DUP2 MLOAD SWAP1 POP PUSH3 0x26A DUP2 PUSH3 0x23F JUMP JUMPDEST SWAP3 SWAP2 POP POP JUMP JUMPDEST PUSH1 0x0 PUSH1 0x20 DUP3 DUP5 SUB SLT ISZERO PUSH3 0x289 JUMPI PUSH3 0x288 PUSH3 0x206 JUMP JUMPDEST JUMPDEST PUSH1 0x0 PUSH3 0x299 DUP5 DUP3 DUP6 ADD PUSH3 0x259 JUMP JUMPDEST SWAP2 POP POP SWAP3 SWAP2 POP POP JUMP JUMPDEST PUSH2 0x1763 DUP1 PUSH3 0x2B2 PUSH1 0x0 CODECOPY PUSH1 0x0 RETURN INVALID PUSH1 0x80 PUSH1 0x40 MSTORE CALLVALUE DUP1 ISZERO PUSH2 0x10 JUMPI PUSH1 0x0 DUP1 REVERT JUMPDEST POP PUSH1 0x4 CALLDATASIZE LT PUSH2 0xCF JUMPI PUSH1 0x0 CALLDATALOAD PUSH1 0xE0 SHR DUP1 PUSH4 0x8456CB59 GT PUSH2 0x8C JUMPI DUP1 PUSH4 0xBEC3FA17 GT PUSH2 0x66 JUMPI DUP1 PUSH4 0xBEC3FA17 EQ PUSH2 0x1B8 JUMPI DUP1 PUSH4 0xF2193627 EQ PUSH2 0x1D4 JUMPI DUP1 PUSH4 0xF2FDE38B EQ PUSH2 0x1F2 JUMPI DUP1 PUSH4 0xFE73B27F EQ PUSH2 0x20E JUMPI PUSH2 0xCF JUMP JUMPDEST DUP1 PUSH4 0x8456CB59 EQ PUSH2 0x172 JUMPI DUP1 PUSH4 0x8DA5CB5B EQ PUSH2 0x17C JUMPI DUP1 PUSH4 0xB76D4FC3 EQ PUSH2 0x19A JUMPI PUSH2 0xCF JUMP JUMPDEST DUP1 PUSH4 0x10FE9AE8 EQ PUSH2 0xD4 JUMPI DUP1 PUSH4 0x12065FE0 EQ PUSH2 0xF2 JUMPI DUP1 PUSH4 0x33EA3DC8 EQ PUSH2 0x110 JUMPI DUP1 PUSH4 0x3F4BA83A EQ PUSH2 0x140 JUMPI DUP1 PUSH4 0x5C975ABB EQ PUSH2 0x14A JUMPI DUP1 PUSH4 0x715018A6 EQ PUSH2 0x168 JUMPI JUMPDEST PUSH1 0x0 DUP1 REVERT JUMPDEST PUSH2 0xDC PUSH2 0x22A JUMP JUMPDEST PUSH1 0x40 MLOAD PUSH2 0xE9 SWAP2 SWAP1 PUSH2 0xC5C JUMP JUMPDEST PUSH1 0x40 MLOAD DUP1 SWAP2 SUB SWAP1 RETURN JUMPDEST PUSH2 0xFA PUSH2 0x254 JUMP JUMPDEST PUSH1 0x40 MLOAD PUSH2 0x107 SWAP2 SWAP1 PUSH2 0xC90 JUMP JUMPDEST PUSH1 0x40 MLOAD DUP1 SWAP2 SUB SWAP1 RETURN JUMPDEST PUSH2 0x12A PUSH1 0x4 DUP1 CALLDATASIZE SUB DUP2 ADD SWAP1 PUSH2 0x125 SWAP2 SWAP1 PUSH2 0xCEB JUMP JUMPDEST PUSH2 0x2F7 JUMP JUMPDEST PUSH1 0x40 MLOAD PUSH2 0x137 SWAP2 SWAP1 PUSH2 0xD8B JUMP JUMPDEST PUSH1 0x40 MLOAD DUP1 SWAP2 SUB SWAP1 RETURN JUMPDEST PUSH2 0x148 PUSH2 0x3A2 JUMP JUMPDEST STOP JUMPDEST PUSH2 0x152 PUSH2 0x3B4 JUMP JUMPDEST PUSH1 0x40 MLOAD PUSH2 0x15F SWAP2 SWAP1 PUSH2 0xDC1 JUMP JUMPDEST PUSH1 0x40 MLOAD DUP1 SWAP2 SUB SWAP1 RETURN JUMPDEST PUSH2 0x170 PUSH2 0x3CA JUMP JUMPDEST STOP JUMPDEST PUSH2 0x17A PUSH2 0x3DE JUMP JUMPDEST STOP JUMPDEST PUSH2 0x184 PUSH2 0x3F0 JUMP JUMPDEST PUSH1 0x40 MLOAD PUSH2 0x191 SWAP2 SWAP1 PUSH2 0xC5C JUMP JUMPDEST PUSH1 0x40 MLOAD DUP1 SWAP2 SUB SWAP1 RETURN JUMPDEST PUSH2 0x1A2 PUSH2 0x419 JUMP JUMPDEST PUSH1 0x40 MLOAD PUSH2 0x1AF SWAP2 SWAP1 PUSH2 0xEE0 JUMP JUMPDEST PUSH1 0x40 MLOAD DUP1 SWAP2 SUB SWAP1 RETURN JUMPDEST PUSH2 0x1D2 PUSH1 0x4 DUP1 CALLDATASIZE SUB DUP2 ADD SWAP1 PUSH2 0x1CD SWAP2 SWAP1 PUSH2 0xF2E JUMP JUMPDEST PUSH2 0x4B6 JUMP JUMPDEST STOP JUMPDEST PUSH2 0x1DC PUSH2 0x6FC JUMP JUMPDEST PUSH1 0x40 MLOAD PUSH2 0x1E9 SWAP2 SWAP1 PUSH2 0xC90 JUMP JUMPDEST PUSH1 0x40 MLOAD DUP1 SWAP2 SUB SWAP1 RETURN JUMPDEST PUSH2 0x20C PUSH1 0x4 DUP1 CALLDATASIZE SUB DUP2 ADD SWAP1 PUSH2 0x207 SWAP2 SWAP1 PUSH2 0xF6E JUMP JUMPDEST PUSH2 0x794 JUMP JUMPDEST STOP JUMPDEST PUSH2 0x228 PUSH1 0x4 DUP1 CALLDATASIZE SUB DUP2 ADD SWAP1 PUSH2 0x223 SWAP2 SWAP1 PUSH2 0xF9B JUMP JUMPDEST PUSH2 0x817 JUMP JUMPDEST STOP JUMPDEST PUSH1 0x0 PUSH1 0x3 PUSH1 0x0 SWAP1 SLOAD SWAP1 PUSH2 0x100 EXP SWAP1 DIV PUSH20 0xFFFFFFFFFFFFFFFFFFFFFFFFFFFFFFFFFFFFFFFF AND SWAP1 POP SWAP1 JUMP JUMPDEST PUSH1 0x0 PUSH1 0x3 PUSH1 0x0 SWAP1 SLOAD SWAP1 PUSH2 0x100 EXP SWAP1 DIV PUSH20 0xFFFFFFFFFFFFFFFFFFFFFFFFFFFFFFFFFFFFFFFF AND PUSH20 0xFFFFFFFFFFFFFFFFFFFFFFFFFFFFFFFFFFFFFFFF AND PUSH4 0x70A08231 ADDRESS PUSH1 0x40 MLOAD DUP3 PUSH4 0xFFFFFFFF AND PUSH1 0xE0 SHL DUP2 MSTORE PUSH1 0x4 ADD PUSH2 0x2B1 SWAP2 SWAP1 PUSH2 0xC5C JUMP JUMPDEST PUSH1 0x20 PUSH1 0x40 MLOAD DUP1 DUP4 SUB DUP2 DUP7 GAS STATICCALL ISZERO DUP1 ISZERO PUSH2 0x2CE JUMPI RETURNDATASIZE PUSH1 0x0 DUP1 RETURNDATACOPY RETURNDATASIZE PUSH1 0x0 REVERT JUMPDEST POP POP POP POP PUSH1 0x40 MLOAD RETURNDATASIZE PUSH1 0x1F NOT PUSH1 0x1F DUP3 ADD AND DUP3 ADD DUP1 PUSH1 0x40 MSTORE POP DUP2 ADD SWAP1 PUSH2 0x2F2 SWAP2 SWAP1 PUSH2 0x1003 JUMP JUMPDEST SWAP1 POP SWAP1 JUMP JUMPDEST PUSH2 0x2FF PUSH2 0xBC7 JUMP JUMPDEST PUSH1 0x2 PUSH1 0x0 SWAP1 SLOAD SWAP1 PUSH2 0x100 EXP SWAP1 DIV PUSH20 0xFFFFFFFFFFFFFFFFFFFFFFFFFFFFFFFFFFFFFFFF AND PUSH20 0xFFFFFFFFFFFFFFFFFFFFFFFFFFFFFFFFFFFFFFFF AND PUSH4 0x33EA3DC8 DUP4 PUSH1 0x40 MLOAD DUP3 PUSH4 0xFFFFFFFF AND PUSH1 0xE0 SHL DUP2 MSTORE PUSH1 0x4 ADD PUSH2 0x35A SWAP2 SWAP1 PUSH2 0xC90 JUMP JUMPDEST PUSH1 0x80 PUSH1 0x40 MLOAD DUP1 DUP4 SUB DUP2 DUP7 GAS STATICCALL ISZERO DUP1 ISZERO PUSH2 0x377 JUMPI RETURNDATASIZE PUSH1 0x0 DUP1 RETURNDATACOPY RETURNDATASIZE PUSH1 0x0 REVERT JUMPDEST POP POP POP POP PUSH1 0x40 MLOAD RETURNDATASIZE PUSH1 0x1F NOT PUSH1 0x1F DUP3 ADD AND DUP3 ADD DUP1 PUSH1 0x40 MSTORE POP DUP2 ADD SWAP1 PUSH2 0x39B SWAP2 SWAP1 PUSH2 0x114E JUMP JUMPDEST SWAP1 POP SWAP2 SWAP1 POP JUMP JUMPDEST PUSH2 0x3AA PUSH2 0x8CD JUMP JUMPDEST PUSH2 0x3B2 PUSH2 0x94B JUMP JUMPDEST JUMP JUMPDEST PUSH1 0x0 DUP1 PUSH1 0x14 SWAP1 SLOAD SWAP1 PUSH2 0x100 EXP SWAP1 DIV PUSH1 0xFF AND SWAP1 POP SWAP1 JUMP JUMPDEST PUSH2 0x3D2 PUSH2 0x8CD JUMP JUMPDEST PUSH2 0x3DC PUSH1 0x0 PUSH2 0x9AD JUMP JUMPDEST JUMP JUMPDEST PUSH2 0x3E6 PUSH2 0x8CD JUMP JUMPDEST PUSH2 0x3EE PUSH2 0xA71 JUMP JUMPDEST JUMP JUMPDEST PUSH1 0x0 DUP1 PUSH1 0x0 SWAP1 SLOAD SWAP1 PUSH2 0x100 EXP SWAP1 DIV PUSH20 0xFFFFFFFFFFFFFFFFFFFFFFFFFFFFFFFFFFFFFFFF AND SWAP1 POP SWAP1 JUMP JUMPDEST PUSH1 0x60 PUSH1 0x2 PUSH1 0x0 SWAP1 SLOAD SWAP1 PUSH2 0x100 EXP SWAP1 DIV PUSH20 0xFFFFFFFFFFFFFFFFFFFFFFFFFFFFFFFFFFFFFFFF AND PUSH20 0xFFFFFFFFFFFFFFFFFFFFFFFFFFFFFFFFFFFFFFFF AND PUSH4 0xB76D4FC3 PUSH1 0x40 MLOAD DUP2 PUSH4 0xFFFFFFFF AND PUSH1 0xE0 SHL DUP2 MSTORE PUSH1 0x4 ADD PUSH1 0x0 PUSH1 0x40 MLOAD DUP1 DUP4 SUB DUP2 DUP7 GAS STATICCALL ISZERO DUP1 ISZERO PUSH2 0x488 JUMPI RETURNDATASIZE PUSH1 0x0 DUP1 RETURNDATACOPY RETURNDATASIZE PUSH1 0x0 REVERT JUMPDEST POP POP POP POP PUSH1 0x40 MLOAD RETURNDATASIZE PUSH1 0x0 DUP3 RETURNDATACOPY RETURNDATASIZE PUSH1 0x1F NOT PUSH1 0x1F DUP3 ADD AND DUP3 ADD DUP1 PUSH1 0x40 MSTORE POP DUP2 ADD SWAP1 PUSH2 0x4B1 SWAP2 SWAP1 PUSH2 0x1248 JUMP JUMPDEST SWAP1 POP SWAP1 JUMP JUMPDEST PUSH2 0x4BE PUSH2 0xAD4 JUMP JUMPDEST PUSH2 0x4C6 PUSH2 0x8CD JUMP JUMPDEST PUSH2 0x4CE PUSH2 0xB1E JUMP JUMPDEST PUSH1 0x0 PUSH20 0xFFFFFFFFFFFFFFFFFFFFFFFFFFFFFFFFFFFFFFFF AND DUP3 PUSH20 0xFFFFFFFFFFFFFFFFFFFFFFFFFFFFFFFFFFFFFFFF AND SUB PUSH2 0x53D JUMPI PUSH1 0x40 MLOAD PUSH32 0x8C379A000000000000000000000000000000000000000000000000000000000 DUP2 MSTORE PUSH1 0x4 ADD PUSH2 0x534 SWAP1 PUSH2 0x1314 JUMP JUMPDEST PUSH1 0x40 MLOAD DUP1 SWAP2 SUB SWAP1 REVERT JUMPDEST PUSH1 0x0 DUP2 GT PUSH2 0x580 JUMPI PUSH1 0x40 MLOAD PUSH32 0x8C379A000000000000000000000000000000000000000000000000000000000 DUP2 MSTORE PUSH1 0x4 ADD PUSH2 0x577 SWAP1 PUSH2 0x13A6 JUMP JUMPDEST PUSH1 0x40 MLOAD DUP1 SWAP2 SUB SWAP1 REVERT JUMPDEST PUSH1 0x3 PUSH1 0x0 SWAP1 SLOAD SWAP1 PUSH2 0x100 EXP SWAP1 DIV PUSH20 0xFFFFFFFFFFFFFFFFFFFFFFFFFFFFFFFFFFFFFFFF AND PUSH20 0xFFFFFFFFFFFFFFFFFFFFFFFFFFFFFFFFFFFFFFFF AND PUSH4 0xA9059CBB DUP4 DUP4 PUSH1 0x40 MLOAD DUP4 PUSH4 0xFFFFFFFF AND PUSH1 0xE0 SHL DUP2 MSTORE PUSH1 0x4 ADD PUSH2 0x5DD SWAP3 SWAP2 SWAP1 PUSH2 0x13C6 JUMP JUMPDEST PUSH1 0x20 PUSH1 0x40 MLOAD DUP1 DUP4 SUB DUP2 PUSH1 0x0 DUP8 GAS CALL ISZERO DUP1 ISZERO PUSH2 0x5FC JUMPI RETURNDATASIZE PUSH1 0x0 DUP1 RETURNDATACOPY RETURNDATASIZE PUSH1 0x0 REVERT JUMPDEST POP POP POP POP PUSH1 0x40 MLOAD RETURNDATASIZE PUSH1 0x1F NOT PUSH1 0x1F DUP3 ADD AND DUP3 ADD DUP1 PUSH1 0x40 MSTORE POP DUP2 ADD SWAP1 PUSH2 0x620 SWAP2 SWAP1 PUSH2 0x141B JUMP JUMPDEST PUSH2 0x65F JUMPI PUSH1 0x40 MLOAD PUSH32 0x8C379A000000000000000000000000000000000000000000000000000000000 DUP2 MSTORE PUSH1 0x4 ADD PUSH2 0x656 SWAP1 PUSH2 0x1494 JUMP JUMPDEST PUSH1 0x40 MLOAD DUP1 SWAP2 SUB SWAP1 REVERT JUMPDEST PUSH1 0x2 PUSH1 0x0 SWAP1 SLOAD SWAP1 PUSH2 0x100 EXP SWAP1 DIV PUSH20 0xFFFFFFFFFFFFFFFFFFFFFFFFFFFFFFFFFFFFFFFF AND PUSH20 0xFFFFFFFFFFFFFFFFFFFFFFFFFFFFFFFFFFFFFFFF AND PUSH4 0xB826AFA ADDRESS DUP5 DUP5 PUSH1 0x40 MLOAD DUP5 PUSH4 0xFFFFFFFF AND PUSH1 0xE0 SHL DUP2 MSTORE PUSH1 0x4 ADD PUSH2 0x6BE SWAP4 SWAP3 SWAP2 SWAP1 PUSH2 0x14B4 JUMP JUMPDEST PUSH1 0x0 PUSH1 0x40 MLOAD DUP1 DUP4 SUB DUP2 PUSH1 0x0 DUP8 DUP1 EXTCODESIZE ISZERO DUP1 ISZERO PUSH2 0x6D8 JUMPI PUSH1 0x0 DUP1 REVERT JUMPDEST POP GAS CALL ISZERO DUP1 ISZERO PUSH2 0x6EC JUMPI RETURNDATASIZE PUSH1 0x0 DUP1 RETURNDATACOPY RETURNDATASIZE PUSH1 0x0 REVERT JUMPDEST POP POP POP POP PUSH2 0x6F8 PUSH2 0xB6D JUMP JUMPDEST POP POP JUMP JUMPDEST PUSH1 0x0 PUSH1 0x2 PUSH1 0x0 SWAP1 SLOAD SWAP1 PUSH2 0x100 EXP SWAP1 DIV PUSH20 0xFFFFFFFFFFFFFFFFFFFFFFFFFFFFFFFFFFFFFFFF AND PUSH20 0xFFFFFFFFFFFFFFFFFFFFFFFFFFFFFFFFFFFFFFFF AND PUSH4 0x9F71C3C9 PUSH1 0x40 MLOAD DUP2 PUSH4 0xFFFFFFFF AND PUSH1 0xE0 SHL DUP2 MSTORE PUSH1 0x4 ADD PUSH1 0x20 PUSH1 0x40 MLOAD DUP1 DUP4 SUB DUP2 DUP7 GAS STATICCALL ISZERO DUP1 ISZERO PUSH2 0x76B JUMPI RETURNDATASIZE PUSH1 0x0 DUP1 RETURNDATACOPY RETURNDATASIZE PUSH1 0x0 REVERT JUMPDEST POP POP POP POP PUSH1 0x40 MLOAD RETURNDATASIZE PUSH1 0x1F NOT PUSH1 0x1F DUP3 ADD AND DUP3 ADD DUP1 PUSH1 0x40 MSTORE POP DUP2 ADD SWAP1 PUSH2 0x78F SWAP2 SWAP1 PUSH2 0x1003 JUMP JUMPDEST SWAP1 POP SWAP1 JUMP JUMPDEST PUSH2 0x79C PUSH2 0x8CD JUMP JUMPDEST PUSH1 0x0 PUSH20 0xFFFFFFFFFFFFFFFFFFFFFFFFFFFFFFFFFFFFFFFF AND DUP2 PUSH20 0xFFFFFFFFFFFFFFFFFFFFFFFFFFFFFFFFFFFFFFFF AND SUB PUSH2 0x80B JUMPI PUSH1 0x40 MLOAD PUSH32 0x8C379A000000000000000000000000000000000000000000000000000000000 DUP2 MSTORE PUSH1 0x4 ADD PUSH2 0x802 SWAP1 PUSH2 0x155D JUMP JUMPDEST PUSH1 0x40 MLOAD DUP1 SWAP2 SUB SWAP1 REVERT JUMPDEST PUSH2 0x814 DUP2 PUSH2 0x9AD JUMP JUMPDEST POP JUMP JUMPDEST PUSH2 0x81F PUSH2 0xAD4 JUMP JUMPDEST PUSH2 0x827 PUSH2 0x8CD JUMP JUMPDEST PUSH2 0x82F PUSH2 0xB1E JUMP JUMPDEST PUSH1 0x2 PUSH1 0x0 SWAP1 SLOAD SWAP1 PUSH2 0x100 EXP SWAP1 DIV PUSH20 0xFFFFFFFFFFFFFFFFFFFFFFFFFFFFFFFFFFFFFFFF AND PUSH20 0xFFFFFFFFFFFFFFFFFFFFFFFFFFFFFFFFFFFFFFFF AND PUSH4 0xB826AFA DUP5 DUP5 DUP5 PUSH1 0x40 MLOAD DUP5 PUSH4 0xFFFFFFFF AND PUSH1 0xE0 SHL DUP2 MSTORE PUSH1 0x4 ADD PUSH2 0x88E SWAP4 SWAP3 SWAP2 SWAP1 PUSH2 0x14B4 JUMP JUMPDEST PUSH1 0x0 PUSH1 0x40 MLOAD DUP1 DUP4 SUB DUP2 PUSH1 0x0 DUP8 DUP1 EXTCODESIZE ISZERO DUP1 ISZERO PUSH2 0x8A8 JUMPI PUSH1 0x0 DUP1 REVERT JUMPDEST POP GAS CALL ISZERO DUP1 ISZERO PUSH2 0x8BC JUMPI RETURNDATASIZE PUSH1 0x0 DUP1 RETURNDATACOPY RETURNDATASIZE PUSH1 0x0 REVERT JUMPDEST POP POP POP POP PUSH2 0x8C8 PUSH2 0xB6D JUMP JUMPDEST POP POP POP JUMP JUMPDEST PUSH2 0x8D5 PUSH2 0xB76 JUMP JUMPDEST PUSH20 0xFFFFFFFFFFFFFFFFFFFFFFFFFFFFFFFFFFFFFFFF AND PUSH2 0x8F3 PUSH2 0x3F0 JUMP JUMPDEST PUSH20 0xFFFFFFFFFFFFFFFFFFFFFFFFFFFFFFFFFFFFFFFF AND EQ PUSH2 0x949 JUMPI PUSH1 0x40 MLOAD PUSH32 0x8C379A000000000000000000000000000000000000000000000000000000000 DUP2 MSTORE PUSH1 0x4 ADD PUSH2 0x940 SWAP1 PUSH2 0x15C9 JUMP JUMPDEST PUSH1 0x40 MLOAD DUP1 SWAP2 SUB SWAP1 REVERT JUMPDEST JUMP JUMPDEST PUSH2 0x953 PUSH2 0xB7E JUMP JUMPDEST PUSH1 0x0 DUP1 PUSH1 0x14 PUSH2 0x100 EXP DUP2 SLOAD DUP2 PUSH1 0xFF MUL NOT AND SWAP1 DUP4 ISZERO ISZERO MUL OR SWAP1 SSTORE POP PUSH32 0x5DB9EE0A495BF2E6FF9C91A7834C1BA4FDD244A5E8AA4E537BD38AEAE4B073AA PUSH2 0x996 PUSH2 0xB76 JUMP JUMPDEST PUSH1 0x40 MLOAD PUSH2 0x9A3 SWAP2 SWAP1 PUSH2 0xC5C JUMP JUMPDEST PUSH1 0x40 MLOAD DUP1 SWAP2 SUB SWAP1 LOG1 JUMP JUMPDEST PUSH1 0x0 DUP1 PUSH1 0x0 SWAP1 SLOAD SWAP1 PUSH2 0x100 EXP SWAP1 DIV PUSH20 0xFFFFFFFFFFFFFFFFFFFFFFFFFFFFFFFFFFFFFFFF AND SWAP1 POP DUP2 PUSH1 0x0 DUP1 PUSH2 0x100 EXP DUP2 SLOAD DUP2 PUSH20 0xFFFFFFFFFFFFFFFFFFFFFFFFFFFFFFFFFFFFFFFF MUL NOT AND SWAP1 DUP4 PUSH20 0xFFFFFFFFFFFFFFFFFFFFFFFFFFFFFFFFFFFFFFFF AND MUL OR SWAP1 SSTORE POP DUP2 PUSH20 0xFFFFFFFFFFFFFFFFFFFFFFFFFFFFFFFFFFFFFFFF AND DUP2 PUSH20 0xFFFFFFFFFFFFFFFFFFFFFFFFFFFFFFFFFFFFFFFF AND PUSH32 0x8BE0079C531659141344CD1FD0A4F28419497F9722A3DAAFE3B4186F6B6457E0 PUSH1 0x40 MLOAD PUSH1 0x40 MLOAD DUP1 SWAP2 SUB SWAP1 LOG3 POP POP JUMP JUMPDEST PUSH2 0xA79 PUSH2 0xAD4 JUMP JUMPDEST PUSH1 0x1 PUSH1 0x0 PUSH1 0x14 PUSH2 0x100 EXP DUP2 SLOAD DUP2 PUSH1 0xFF MUL NOT AND SWAP1 DUP4 ISZERO ISZERO MUL OR SWAP1 SSTORE POP PUSH32 0x62E78CEA01BEE320CD4E420270B5EA74000D11B0C9F74754EBDBFC544B05A258 PUSH2 0xABD PUSH2 0xB76 JUMP JUMPDEST PUSH1 0x40 MLOAD PUSH2 0xACA SWAP2 SWAP1 PUSH2 0xC5C JUMP JUMPDEST PUSH1 0x40 MLOAD DUP1 SWAP2 SUB SWAP1 LOG1 JUMP JUMPDEST PUSH2 0xADC PUSH2 0x3B4 JUMP JUMPDEST ISZERO PUSH2 0xB1C JUMPI PUSH1 0x40 MLOAD PUSH32 0x8C379A000000000000000000000000000000000000000000000000000000000 DUP2 MSTORE PUSH1 0x4 ADD PUSH2 0xB13 SWAP1 PUSH2 0x1635 JUMP JUMPDEST PUSH1 0x40 MLOAD DUP1 SWAP2 SUB SWAP1 REVERT JUMPDEST JUMP JUMPDEST PUSH1 0x2 PUSH1 0x1 SLOAD SUB PUSH2 0xB63 JUMPI PUSH1 0x40 MLOAD PUSH32 0x8C379A000000000000000000000000000000000000000000000000000000000 DUP2 MSTORE PUSH1 0x4 ADD PUSH2 0xB5A SWAP1 PUSH2 0x16A1 JUMP JUMPDEST PUSH1 0x40 MLOAD DUP1 SWAP2 SUB SWAP1 REVERT JUMPDEST PUSH1 0x2 PUSH1 0x1 DUP2 SWAP1 SSTORE POP JUMP JUMPDEST PUSH1 0x1 DUP1 DUP2 SWAP1 SSTORE POP JUMP JUMPDEST PUSH1 0x0 CALLER SWAP1 POP SWAP1 JUMP JUMPDEST PUSH2 0xB86 PUSH2 0x3B4 JUMP JUMPDEST PUSH2 0xBC5 JUMPI PUSH1 0x40 MLOAD PUSH32 0x8C379A000000000000000000000000000000000000000000000000000000000 DUP2 MSTORE PUSH1 0x4 ADD PUSH2 0xBBC SWAP1 PUSH2 0x170D JUMP JUMPDEST PUSH1 0x40 MLOAD DUP1 SWAP2 SUB SWAP1 REVERT JUMPDEST JUMP JUMPDEST PUSH1 0x40 MLOAD DUP1 PUSH1 0x80 ADD PUSH1 0x40 MSTORE DUP1 PUSH1 0x0 PUSH20 0xFFFFFFFFFFFFFFFFFFFFFFFFFFFFFFFFFFFFFFFF AND DUP2 MSTORE PUSH1 0x20 ADD PUSH1 0x0 PUSH20 0xFFFFFFFFFFFFFFFFFFFFFFFFFFFFFFFFFFFFFFFF AND DUP2 MSTORE PUSH1 0x20 ADD PUSH1 0x0 DUP2 MSTORE PUSH1 0x20 ADD PUSH1 0x0 DUP2 MSTORE POP SWAP1 JUMP JUMPDEST PUSH1 0x0 PUSH20 0xFFFFFFFFFFFFFFFFFFFFFFFFFFFFFFFFFFFFFFFF DUP3 AND SWAP1 POP SWAP2 SWAP1 POP JUMP JUMPDEST PUSH1 0x0 PUSH2 0xC46 DUP3 PUSH2 0xC1B JUMP JUMPDEST SWAP1 POP SWAP2 SWAP1 POP JUMP JUMPDEST PUSH2 0xC56 DUP2 PUSH2 0xC3B JUMP JUMPDEST DUP3 MSTORE POP POP JUMP JUMPDEST PUSH1 0x0 PUSH1 0x20 DUP3 ADD SWAP1 POP PUSH2 0xC71 PUSH1 0x0 DUP4 ADD DUP5 PUSH2 0xC4D JUMP JUMPDEST SWAP3 SWAP2 POP POP JUMP JUMPDEST PUSH1 0x0 DUP2 SWAP1 POP SWAP2 SWAP1 POP JUMP JUMPDEST PUSH2 0xC8A DUP2 PUSH2 0xC77 JUMP JUMPDEST DUP3 MSTORE POP POP JUMP JUMPDEST PUSH1 0x0 PUSH1 0x20 DUP3 ADD SWAP1 POP PUSH2 0xCA5 PUSH1 0x0 DUP4 ADD DUP5 PUSH2 0xC81 JUMP JUMPDEST SWAP3 SWAP2 POP POP JUMP JUMPDEST PUSH1 0x0 PUSH1 0x40 MLOAD SWAP1 POP SWAP1 JUMP JUMPDEST PUSH1 0x0 DUP1 REVERT JUMPDEST PUSH1 0x0 DUP1 REVERT JUMPDEST PUSH2 0xCC8 DUP2 PUSH2 0xC77 JUMP JUMPDEST DUP2 EQ PUSH2 0xCD3 JUMPI PUSH1 0x0 DUP1 REVERT JUMPDEST POP JUMP JUMPDEST PUSH1 0x0 DUP2 CALLDATALOAD SWAP1 POP PUSH2 0xCE5 DUP2 PUSH2 0xCBF JUMP JUMPDEST SWAP3 SWAP2 POP POP JUMP JUMPDEST PUSH1 0x0 PUSH1 0x20 DUP3 DUP5 SUB SLT ISZERO PUSH2 0xD01 JUMPI PUSH2 0xD00 PUSH2 0xCB5 JUMP JUMPDEST JUMPDEST PUSH1 0x0 PUSH2 0xD0F DUP5 DUP3 DUP6 ADD PUSH2 0xCD6 JUMP JUMPDEST SWAP2 POP POP SWAP3 SWAP2 POP POP JUMP JUMPDEST PUSH2 0xD21 DUP2 PUSH2 0xC3B JUMP JUMPDEST DUP3 MSTORE POP POP JUMP JUMPDEST PUSH2 0xD30 DUP2 PUSH2 0xC77 JUMP JUMPDEST DUP3 MSTORE POP POP JUMP JUMPDEST PUSH1 0x80 DUP3 ADD PUSH1 0x0 DUP3 ADD MLOAD PUSH2 0xD4C PUSH1 0x0 DUP6 ADD DUP3 PUSH2 0xD18 JUMP JUMPDEST POP PUSH1 0x20 DUP3 ADD MLOAD PUSH2 0xD5F PUSH1 0x20 DUP6 ADD DUP3 PUSH2 0xD18 JUMP JUMPDEST POP PUSH1 0x40 DUP3 ADD MLOAD PUSH2 0xD72 PUSH1 0x40 DUP6 ADD DUP3 PUSH2 0xD27 JUMP JUMPDEST POP PUSH1 0x60 DUP3 ADD MLOAD PUSH2 0xD85 PUSH1 0x60 DUP6 ADD DUP3 PUSH2 0xD27 JUMP JUMPDEST POP POP POP POP JUMP JUMPDEST PUSH1 0x0 PUSH1 0x80 DUP3 ADD SWAP1 POP PUSH2 0xDA0 PUSH1 0x0 DUP4 ADD DUP5 PUSH2 0xD36 JUMP JUMPDEST SWAP3 SWAP2 POP POP JUMP JUMPDEST PUSH1 0x0 DUP2 ISZERO ISZERO SWAP1 POP SWAP2 SWAP1 POP JUMP JUMPDEST PUSH2 0xDBB DUP2 PUSH2 0xDA6 JUMP JUMPDEST DUP3 MSTORE POP POP JUMP JUMPDEST PUSH1 0x0 PUSH1 0x20 DUP3 ADD SWAP1 POP PUSH2 0xDD6 PUSH1 0x0 DUP4 ADD DUP5 PUSH2 0xDB2 JUMP JUMPDEST SWAP3 SWAP2 POP POP JUMP JUMPDEST PUSH1 0x0 DUP2 MLOAD SWAP1 POP SWAP2 SWAP1 POP JUMP JUMPDEST PUSH1 0x0 DUP3 DUP3 MSTORE PUSH1 0x20 DUP3 ADD SWAP1 POP SWAP3 SWAP2 POP POP JUMP JUMPDEST PUSH1 0x0 DUP2 SWAP1 POP PUSH1 0x20 DUP3 ADD SWAP1 POP SWAP2 SWAP1 POP JUMP JUMPDEST PUSH1 0x80 DUP3 ADD PUSH1 0x0 DUP3 ADD MLOAD PUSH2 0xE1E PUSH1 0x0 DUP6 ADD DUP3 PUSH2 0xD18 JUMP JUMPDEST POP PUSH1 0x20 DUP3 ADD MLOAD PUSH2 0xE31 PUSH1 0x20 DUP6 ADD DUP3 PUSH2 0xD18 JUMP JUMPDEST POP PUSH1 0x40 DUP3 ADD MLOAD PUSH2 0xE44 PUSH1 0x40 DUP6 ADD DUP3 PUSH2 0xD27 JUMP JUMPDEST POP PUSH1 0x60 DUP3 ADD MLOAD PUSH2 0xE57 PUSH1 0x60 DUP6 ADD DUP3 PUSH2 0xD27 JUMP JUMPDEST POP POP POP POP JUMP JUMPDEST PUSH1 0x0 PUSH2 0xE69 DUP4 DUP4 PUSH2 0xE08 JUMP JUMPDEST PUSH1 0x80 DUP4 ADD SWAP1 POP SWAP3 SWAP2 POP POP JUMP JUMPDEST PUSH1 0x0 PUSH1 0x20 DUP3 ADD SWAP1 POP SWAP2 SWAP1 POP JUMP JUMPDEST PUSH1 0x0 PUSH2 0xE8D DUP3 PUSH2 0xDDC JUMP JUMPDEST PUSH2 0xE97 DUP2 DUP6 PUSH2 0xDE7 JUMP JUMPDEST SWAP4 POP PUSH2 0xEA2 DUP4 PUSH2 0xDF8 JUMP JUMPDEST DUP1 PUSH1 0x0 JUMPDEST DUP4 DUP2 LT ISZERO PUSH2 0xED3 JUMPI DUP2 MLOAD PUSH2 0xEBA DUP9 DUP3 PUSH2 0xE5D JUMP JUMPDEST SWAP8 POP PUSH2 0xEC5 DUP4 PUSH2 0xE75 JUMP JUMPDEST SWAP3 POP POP PUSH1 0x1 DUP2 ADD SWAP1 POP PUSH2 0xEA6 JUMP JUMPDEST POP DUP6 SWAP4 POP POP POP POP SWAP3 SWAP2 POP POP JUMP JUMPDEST PUSH1 0x0 PUSH1 0x20 DUP3 ADD SWAP1 POP DUP2 DUP2 SUB PUSH1 0x0 DUP4 ADD MSTORE PUSH2 0xEFA DUP2 DUP5 PUSH2 0xE82 JUMP JUMPDEST SWAP1 POP SWAP3 SWAP2 POP POP JUMP JUMPDEST PUSH2 0xF0B DUP2 PUSH2 0xC3B JUMP JUMPDEST DUP2 EQ PUSH2 0xF16 JUMPI PUSH1 0x0 DUP1 REVERT JUMPDEST POP JUMP JUMPDEST PUSH1 0x0 DUP2 CALLDATALOAD SWAP1 POP PUSH2 0xF28 DUP2 PUSH2 0xF02 JUMP JUMPDEST SWAP3 SWAP2 POP POP JUMP JUMPDEST PUSH1 0x0 DUP1 PUSH1 0x40 DUP4 DUP6 SUB SLT ISZERO PUSH2 0xF45 JUMPI PUSH2 0xF44 PUSH2 0xCB5 JUMP JUMPDEST JUMPDEST PUSH1 0x0 PUSH2 0xF53 DUP6 DUP3 DUP7 ADD PUSH2 0xF19 JUMP JUMPDEST SWAP3 POP POP PUSH1 0x20 PUSH2 0xF64 DUP6 DUP3 DUP7 ADD PUSH2 0xCD6 JUMP JUMPDEST SWAP2 POP POP SWAP3 POP SWAP3 SWAP1 POP JUMP JUMPDEST PUSH1 0x0 PUSH1 0x20 DUP3 DUP5 SUB SLT ISZERO PUSH2 0xF84 JUMPI PUSH2 0xF83 PUSH2 0xCB5 JUMP JUMPDEST JUMPDEST PUSH1 0x0 PUSH2 0xF92 DUP5 DUP3 DUP6 ADD PUSH2 0xF19 JUMP JUMPDEST SWAP2 POP POP SWAP3 SWAP2 POP POP JUMP JUMPDEST PUSH1 0x0 DUP1 PUSH1 0x0 PUSH1 0x60 DUP5 DUP7 SUB SLT ISZERO PUSH2 0xFB4 JUMPI PUSH2 0xFB3 PUSH2 0xCB5 JUMP JUMPDEST JUMPDEST PUSH1 0x0 PUSH2 0xFC2 DUP7 DUP3 DUP8 ADD PUSH2 0xF19 JUMP JUMPDEST SWAP4 POP POP PUSH1 0x20 PUSH2 0xFD3 DUP7 DUP3 DUP8 ADD PUSH2 0xF19 JUMP JUMPDEST SWAP3 POP POP PUSH1 0x40 PUSH2 0xFE4 DUP7 DUP3 DUP8 ADD PUSH2 0xCD6 JUMP JUMPDEST SWAP2 POP POP SWAP3 POP SWAP3 POP SWAP3 JUMP JUMPDEST PUSH1 0x0 DUP2 MLOAD SWAP1 POP PUSH2 0xFFD DUP2 PUSH2 0xCBF JUMP JUMPDEST SWAP3 SWAP2 POP POP JUMP JUMPDEST PUSH1 0x0 PUSH1 0x20 DUP3 DUP5 SUB SLT ISZERO PUSH2 0x1019 JUMPI PUSH2 0x1018 PUSH2 0xCB5 JUMP JUMPDEST JUMPDEST PUSH1 0x0 PUSH2 0x1027 DUP5 DUP3 DUP6 ADD PUSH2 0xFEE JUMP JUMPDEST SWAP2 POP POP SWAP3 SWAP2 POP POP JUMP JUMPDEST PUSH1 0x0 DUP1 REVERT JUMPDEST PUSH1 0x0 PUSH1 0x1F NOT PUSH1 0x1F DUP4 ADD AND SWAP1 POP SWAP2 SWAP1 POP JUMP JUMPDEST PUSH32 0x4E487B7100000000000000000000000000000000000000000000000000000000 PUSH1 0x0 MSTORE PUSH1 0x41 PUSH1 0x4 MSTORE PUSH1 0x24 PUSH1 0x0 REVERT JUMPDEST PUSH2 0x107E DUP3 PUSH2 0x1035 JUMP JUMPDEST DUP2 ADD DUP2 DUP2 LT PUSH8 0xFFFFFFFFFFFFFFFF DUP3 GT OR ISZERO PUSH2 0x109D JUMPI PUSH2 0x109C PUSH2 0x1046 JUMP JUMPDEST JUMPDEST DUP1 PUSH1 0x40 MSTORE POP POP POP JUMP JUMPDEST PUSH1 0x0 PUSH2 0x10B0 PUSH2 0xCAB JUMP JUMPDEST SWAP1 POP PUSH2 0x10BC DUP3 DUP3 PUSH2 0x1075 JUMP JUMPDEST SWAP2 SWAP1 POP JUMP JUMPDEST PUSH1 0x0 DUP2 MLOAD SWAP1 POP PUSH2 0x10D0 DUP2 PUSH2 0xF02 JUMP JUMPDEST SWAP3 SWAP2 POP POP JUMP JUMPDEST PUSH1 0x0 PUSH1 0x80 DUP3 DUP5 SUB SLT ISZERO PUSH2 0x10EC JUMPI PUSH2 0x10EB PUSH2 0x1030 JUMP JUMPDEST JUMPDEST PUSH2 0x10F6 PUSH1 0x80 PUSH2 0x10A6 JUMP JUMPDEST SWAP1 POP PUSH1 0x0 PUSH2 0x1106 DUP5 DUP3 DUP6 ADD PUSH2 0x10C1 JUMP JUMPDEST PUSH1 0x0 DUP4 ADD MSTORE POP PUSH1 0x20 PUSH2 0x111A DUP5 DUP3 DUP6 ADD PUSH2 0x10C1 JUMP JUMPDEST PUSH1 0x20 DUP4 ADD MSTORE POP PUSH1 0x40 PUSH2 0x112E DUP5 DUP3 DUP6 ADD PUSH2 0xFEE JUMP JUMPDEST PUSH1 0x40 DUP4 ADD MSTORE POP PUSH1 0x60 PUSH2 0x1142 DUP5 DUP3 DUP6 ADD PUSH2 0xFEE JUMP JUMPDEST PUSH1 0x60 DUP4 ADD MSTORE POP SWAP3 SWAP2 POP POP JUMP JUMPDEST PUSH1 0x0 PUSH1 0x80 DUP3 DUP5 SUB SLT ISZERO PUSH2 0x1164 JUMPI PUSH2 0x1163 PUSH2 0xCB5 JUMP JUMPDEST JUMPDEST PUSH1 0x0 PUSH2 0x1172 DUP5 DUP3 DUP6 ADD PUSH2 0x10D6 JUMP JUMPDEST SWAP2 POP POP SWAP3 SWAP2 POP POP JUMP JUMPDEST PUSH1 0x0 DUP1 REVERT JUMPDEST PUSH1 0x0 PUSH8 0xFFFFFFFFFFFFFFFF DUP3 GT ISZERO PUSH2 0x119B JUMPI PUSH2 0x119A PUSH2 0x1046 JUMP JUMPDEST JUMPDEST PUSH1 0x20 DUP3 MUL SWAP1 POP PUSH1 0x20 DUP2 ADD SWAP1 POP SWAP2 SWAP1 POP JUMP JUMPDEST PUSH1 0x0 DUP1 REVERT JUMPDEST PUSH1 0x0 PUSH2 0x11C4 PUSH2 0x11BF DUP5 PUSH2 0x1180 JUMP JUMPDEST PUSH2 0x10A6 JUMP JUMPDEST SWAP1 POP DUP1 DUP4 DUP3 MSTORE PUSH1 0x20 DUP3 ADD SWAP1 POP PUSH1 0x80 DUP5 MUL DUP4 ADD DUP6 DUP2 GT ISZERO PUSH2 0x11E7 JUMPI PUSH2 0x11E6 PUSH2 0x11AC JUMP JUMPDEST JUMPDEST DUP4 JUMPDEST DUP2 DUP2 LT ISZERO PUSH2 0x1210 JUMPI DUP1 PUSH2 0x11FC DUP9 DUP3 PUSH2 0x10D6 JUMP JUMPDEST DUP5 MSTORE PUSH1 0x20 DUP5 ADD SWAP4 POP POP PUSH1 0x80 DUP2 ADD SWAP1 POP PUSH2 0x11E9 JUMP JUMPDEST POP POP POP SWAP4 SWAP3 POP POP POP JUMP JUMPDEST PUSH1 0x0 DUP3 PUSH1 0x1F DUP4 ADD SLT PUSH2 0x122F JUMPI PUSH2 0x122E PUSH2 0x117B JUMP JUMPDEST JUMPDEST DUP2 MLOAD PUSH2 0x123F DUP5 DUP3 PUSH1 0x20 DUP7 ADD PUSH2 0x11B1 JUMP JUMPDEST SWAP2 POP POP SWAP3 SWAP2 POP POP JUMP JUMPDEST PUSH1 0x0 PUSH1 0x20 DUP3 DUP5 SUB SLT ISZERO PUSH2 0x125E JUMPI PUSH2 0x125D PUSH2 0xCB5 JUMP JUMPDEST JUMPDEST PUSH1 0x0 DUP3 ADD MLOAD PUSH8 0xFFFFFFFFFFFFFFFF DUP2 GT ISZERO PUSH2 0x127C JUMPI PUSH2 0x127B PUSH2 0xCBA JUMP JUMPDEST JUMPDEST PUSH2 0x1288 DUP5 DUP3 DUP6 ADD PUSH2 0x121A JUMP JUMPDEST SWAP2 POP POP SWAP3 SWAP2 POP POP JUMP JUMPDEST PUSH1 0x0 DUP3 DUP3 MSTORE PUSH1 0x20 DUP3 ADD SWAP1 POP SWAP3 SWAP2 POP POP JUMP JUMPDEST PUSH32 0x50656C6957616C6C65743A20726563697069656E742063616E6E6F7420626520 PUSH1 0x0 DUP3 ADD MSTORE PUSH32 0x7A65726F20616464726573730000000000000000000000000000000000000000 PUSH1 0x20 DUP3 ADD MSTORE POP JUMP JUMPDEST PUSH1 0x0 PUSH2 0x12FE PUSH1 0x2C DUP4 PUSH2 0x1291 JUMP JUMPDEST SWAP2 POP PUSH2 0x1309 DUP3 PUSH2 0x12A2 JUMP JUMPDEST PUSH1 0x40 DUP3 ADD SWAP1 POP SWAP2 SWAP1 POP JUMP JUMPDEST PUSH1 0x0 PUSH1 0x20 DUP3 ADD SWAP1 POP DUP2 DUP2 SUB PUSH1 0x0 DUP4 ADD MSTORE PUSH2 0x132D DUP2 PUSH2 0x12F1 JUMP JUMPDEST SWAP1 POP SWAP2 SWAP1 POP JUMP JUMPDEST PUSH32 0x50656C6957616C6C65743A20616D6F756E74206D757374206265206772656174 PUSH1 0x0 DUP3 ADD MSTORE PUSH32 0x6572207468616E207A65726F0000000000000000000000000000000000000000 PUSH1 0x20 DUP3 ADD MSTORE POP JUMP JUMPDEST PUSH1 0x0 PUSH2 0x1390 PUSH1 0x2C DUP4 PUSH2 0x1291 JUMP JUMPDEST SWAP2 POP PUSH2 0x139B DUP3 PUSH2 0x1334 JUMP JUMPDEST PUSH1 0x40 DUP3 ADD SWAP1 POP SWAP2 SWAP1 POP JUMP JUMPDEST PUSH1 0x0 PUSH1 0x20 DUP3 ADD SWAP1 POP DUP2 DUP2 SUB PUSH1 0x0 DUP4 ADD MSTORE PUSH2 0x13BF DUP2 PUSH2 0x1383 JUMP JUMPDEST SWAP1 POP SWAP2 SWAP1 POP JUMP JUMPDEST PUSH1 0x0 PUSH1 0x40 DUP3 ADD SWAP1 POP PUSH2 0x13DB PUSH1 0x0 DUP4 ADD DUP6 PUSH2 0xC4D JUMP JUMPDEST PUSH2 0x13E8 PUSH1 0x20 DUP4 ADD DUP5 PUSH2 0xC81 JUMP JUMPDEST SWAP4 SWAP3 POP POP POP JUMP JUMPDEST PUSH2 0x13F8 DUP2 PUSH2 0xDA6 JUMP JUMPDEST DUP2 EQ PUSH2 0x1403 JUMPI PUSH1 0x0 DUP1 REVERT JUMPDEST POP JUMP JUMPDEST PUSH1 0x0 DUP2 MLOAD SWAP1 POP PUSH2 0x1415 DUP2 PUSH2 0x13EF JUMP JUMPDEST SWAP3 SWAP2 POP POP JUMP JUMPDEST PUSH1 0x0 PUSH1 0x20 DUP3 DUP5 SUB SLT ISZERO PUSH2 0x1431 JUMPI PUSH2 0x1430 PUSH2 0xCB5 JUMP JUMPDEST JUMPDEST PUSH1 0x0 PUSH2 0x143F DUP5 DUP3 DUP6 ADD PUSH2 0x1406 JUMP JUMPDEST SWAP2 POP POP SWAP3 SWAP2 POP POP JUMP JUMPDEST PUSH32 0x50656C6957616C6C65743A205472616E73666572204661696C65640000000000 PUSH1 0x0 DUP3 ADD MSTORE POP JUMP JUMPDEST PUSH1 0x0 PUSH2 0x147E PUSH1 0x1B DUP4 PUSH2 0x1291 JUMP JUMPDEST SWAP2 POP PUSH2 0x1489 DUP3 PUSH2 0x1448 JUMP JUMPDEST PUSH1 0x20 DUP3 ADD SWAP1 POP SWAP2 SWAP1 POP JUMP JUMPDEST PUSH1 0x0 PUSH1 0x20 DUP3 ADD SWAP1 POP DUP2 DUP2 SUB PUSH1 0x0 DUP4 ADD MSTORE PUSH2 0x14AD DUP2 PUSH2 0x1471 JUMP JUMPDEST SWAP1 POP SWAP2 SWAP1 POP JUMP JUMPDEST PUSH1 0x0 PUSH1 0x60 DUP3 ADD SWAP1 POP PUSH2 0x14C9 PUSH1 0x0 DUP4 ADD DUP7 PUSH2 0xC4D JUMP JUMPDEST PUSH2 0x14D6 PUSH1 0x20 DUP4 ADD DUP6 PUSH2 0xC4D JUMP JUMPDEST PUSH2 0x14E3 PUSH1 0x40 DUP4 ADD DUP5 PUSH2 0xC81 JUMP JUMPDEST SWAP5 SWAP4 POP POP POP POP JUMP JUMPDEST PUSH32 0x4F776E61626C653A206E6577206F776E657220697320746865207A65726F2061 PUSH1 0x0 DUP3 ADD MSTORE PUSH32 0x6464726573730000000000000000000000000000000000000000000000000000 PUSH1 0x20 DUP3 ADD MSTORE POP JUMP JUMPDEST PUSH1 0x0 PUSH2 0x1547 PUSH1 0x26 DUP4 PUSH2 0x1291 JUMP JUMPDEST SWAP2 POP PUSH2 0x1552 DUP3 PUSH2 0x14EB JUMP JUMPDEST PUSH1 0x40 DUP3 ADD SWAP1 POP SWAP2 SWAP1 POP JUMP JUMPDEST PUSH1 0x0 PUSH1 0x20 DUP3 ADD SWAP1 POP DUP2 DUP2 SUB PUSH1 0x0 DUP4 ADD MSTORE PUSH2 0x1576 DUP2 PUSH2 0x153A JUMP JUMPDEST SWAP1 POP SWAP2 SWAP1 POP JUMP JUMPDEST PUSH32 0x4F776E61626C653A2063616C6C6572206973206E6F7420746865206F776E6572 PUSH1 0x0 DUP3 ADD MSTORE POP JUMP JUMPDEST PUSH1 0x0 PUSH2 0x15B3 PUSH1 0x20 DUP4 PUSH2 0x1291 JUMP JUMPDEST SWAP2 POP PUSH2 0x15BE DUP3 PUSH2 0x157D JUMP JUMPDEST PUSH1 0x20 DUP3 ADD SWAP1 POP SWAP2 SWAP1 POP JUMP JUMPDEST PUSH1 0x0 PUSH1 0x20 DUP3 ADD SWAP1 POP DUP2 DUP2 SUB PUSH1 0x0 DUP4 ADD MSTORE PUSH2 0x15E2 DUP2 PUSH2 0x15A6 JUMP JUMPDEST SWAP1 POP SWAP2 SWAP1 POP JUMP JUMPDEST PUSH32 0x5061757361626C653A2070617573656400000000000000000000000000000000 PUSH1 0x0 DUP3 ADD MSTORE POP JUMP JUMPDEST PUSH1 0x0 PUSH2 0x161F PUSH1 0x10 DUP4 PUSH2 0x1291 JUMP JUMPDEST SWAP2 POP PUSH2 0x162A DUP3 PUSH2 0x15E9 JUMP JUMPDEST PUSH1 0x20 DUP3 ADD SWAP1 POP SWAP2 SWAP1 POP JUMP JUMPDEST PUSH1 0x0 PUSH1 0x20 DUP3 ADD SWAP1 POP DUP2 DUP2 SUB PUSH1 0x0 DUP4 ADD MSTORE PUSH2 0x164E DUP2 PUSH2 0x1612 JUMP JUMPDEST SWAP1 POP SWAP2 SWAP1 POP JUMP JUMPDEST PUSH32 0x5265656E7472616E637947756172643A207265656E7472616E742063616C6C00 PUSH1 0x0 DUP3 ADD MSTORE POP JUMP JUMPDEST PUSH1 0x0 PUSH2 0x168B PUSH1 0x1F DUP4 PUSH2 0x1291 JUMP JUMPDEST SWAP2 POP PUSH2 0x1696 DUP3 PUSH2 0x1655 JUMP JUMPDEST PUSH1 0x20 DUP3 ADD SWAP1 POP SWAP2 SWAP1 POP JUMP JUMPDEST PUSH1 0x0 PUSH1 0x20 DUP3 ADD SWAP1 POP DUP2 DUP2 SUB PUSH1 0x0 DUP4 ADD MSTORE PUSH2 0x16BA DUP2 PUSH2 0x167E JUMP JUMPDEST SWAP1 POP SWAP2 SWAP1 POP JUMP JUMPDEST PUSH32 0x5061757361626C653A206E6F7420706175736564000000000000000000000000 PUSH1 0x0 DUP3 ADD MSTORE POP JUMP JUMPDEST PUSH1 0x0 PUSH2 0x16F7 PUSH1 0x14 DUP4 PUSH2 0x1291 JUMP JUMPDEST SWAP2 POP PUSH2 0x1702 DUP3 PUSH2 0x16C1 JUMP JUMPDEST PUSH1 0x20 DUP3 ADD SWAP1 POP SWAP2 SWAP1 POP JUMP JUMPDEST PUSH1 0x0 PUSH1 0x20 DUP3 ADD SWAP1 POP DUP2 DUP2 SUB PUSH1 0x0 DUP4 ADD MSTORE PUSH2 0x1726 DUP2 PUSH2 0x16EA JUMP JUMPDEST SWAP1 POP SWAP2 SWAP1 POP JUMP INVALID LOG2 PUSH5 0x6970667358 0x22 SLT KECCAK256 0x2D JUMPI PUSH10 0xE05921653B7847F8622A 0xC5 0xB5 BLOCKHASH 0x2F 0xC1 0xAF SWAP10 0xA9 SWAP12 0xC5 SWAP2 0xAB SHL DIV 0xB0 0xF6 0xCB ISZERO 0xBE PUSH5 0x736F6C6343 STOP ADDMOD GT STOP CALLER PUSH1 0x80 PUSH1 0x40 MSTORE CALLVALUE DUP1 ISZERO PUSH2 0x10 JUMPI PUSH1 0x0 DUP1 REVERT JUMPDEST POP PUSH2 0x2D PUSH2 0x22 PUSH2 0x4C PUSH1 0x20 SHL PUSH1 0x20 SHR JUMP JUMPDEST PUSH2 0x54 PUSH1 0x20 SHL PUSH1 0x20 SHR JUMP JUMPDEST PUSH1 0x0 DUP1 PUSH1 0x14 PUSH2 0x100 EXP DUP2 SLOAD DUP2 PUSH1 0xFF MUL NOT AND SWAP1 DUP4 ISZERO ISZERO MUL OR SWAP1 SSTORE POP PUSH2 0x118 JUMP JUMPDEST PUSH1 0x0 CALLER SWAP1 POP SWAP1 JUMP JUMPDEST PUSH1 0x0 DUP1 PUSH1 0x0 SWAP1 SLOAD SWAP1 PUSH2 0x100 EXP SWAP1 DIV PUSH20 0xFFFFFFFFFFFFFFFFFFFFFFFFFFFFFFFFFFFFFFFF AND SWAP1 POP DUP2 PUSH1 0x0 DUP1 PUSH2 0x100 EXP DUP2 SLOAD DUP2 PUSH20 0xFFFFFFFFFFFFFFFFFFFFFFFFFFFFFFFFFFFFFFFF MUL NOT AND SWAP1 DUP4 PUSH20 0xFFFFFFFFFFFFFFFFFFFFFFFFFFFFFFFFFFFFFFFF AND MUL OR SWAP1 SSTORE POP DUP2 PUSH20 0xFFFFFFFFFFFFFFFFFFFFFFFFFFFFFFFFFFFFFFFF AND DUP2 PUSH20 0xFFFFFFFFFFFFFFFFFFFFFFFFFFFFFFFFFFFFFFFF AND PUSH32 0x8BE0079C531659141344CD1FD0A4F28419497F9722A3DAAFE3B4186F6B6457E0 PUSH1 0x40 MLOAD PUSH1 0x40 MLOAD DUP1 SWAP2 SUB SWAP1 LOG3 POP POP JUMP JUMPDEST PUSH2 0x137B DUP1 PUSH2 0x127 PUSH1 0x0 CODECOPY PUSH1 0x0 RETURN INVALID PUSH1 0x80 PUSH1 0x40 MSTORE CALLVALUE DUP1 ISZERO PUSH2 0x10 JUMPI PUSH1 0x0 DUP1 REVERT JUMPDEST POP PUSH1 0x4 CALLDATASIZE LT PUSH2 0x9E JUMPI PUSH1 0x0 CALLDATALOAD PUSH1 0xE0 SHR DUP1 PUSH4 0x8456CB59 GT PUSH2 0x66 JUMPI DUP1 PUSH4 0x8456CB59 EQ PUSH2 0x121 JUMPI DUP1 PUSH4 0x8DA5CB5B EQ PUSH2 0x12B JUMPI DUP1 PUSH4 0x9F71C3C9 EQ PUSH2 0x149 JUMPI DUP1 PUSH4 0xB76D4FC3 EQ PUSH2 0x167 JUMPI DUP1 PUSH4 0xF2FDE38B EQ PUSH2 0x185 JUMPI PUSH2 0x9E JUMP JUMPDEST DUP1 PUSH4 0xB826AFA EQ PUSH2 0xA3 JUMPI DUP1 PUSH4 0x33EA3DC8 EQ PUSH2 0xBF JUMPI DUP1 PUSH4 0x3F4BA83A EQ PUSH2 0xEF JUMPI DUP1 PUSH4 0x5C975ABB EQ PUSH2 0xF9 JUMPI DUP1 PUSH4 0x715018A6 EQ PUSH2 0x117 JUMPI JUMPDEST PUSH1 0x0 DUP1 REVERT JUMPDEST PUSH2 0xBD PUSH1 0x4 DUP1 CALLDATASIZE SUB DUP2 ADD SWAP1 PUSH2 0xB8 SWAP2 SWAP1 PUSH2 0xC22 JUMP JUMPDEST PUSH2 0x1A1 JUMP JUMPDEST STOP JUMPDEST PUSH2 0xD9 PUSH1 0x4 DUP1 CALLDATASIZE SUB DUP2 ADD SWAP1 PUSH2 0xD4 SWAP2 SWAP1 PUSH2 0xC75 JUMP JUMPDEST PUSH2 0x436 JUMP JUMPDEST PUSH1 0x40 MLOAD PUSH2 0xE6 SWAP2 SWAP1 PUSH2 0xD15 JUMP JUMPDEST PUSH1 0x40 MLOAD DUP1 SWAP2 SUB SWAP1 RETURN JUMPDEST PUSH2 0xF7 PUSH2 0x5F3 JUMP JUMPDEST STOP JUMPDEST PUSH2 0x101 PUSH2 0x605 JUMP JUMPDEST PUSH1 0x40 MLOAD PUSH2 0x10E SWAP2 SWAP1 PUSH2 0xD4B JUMP JUMPDEST PUSH1 0x40 MLOAD DUP1 SWAP2 SUB SWAP1 RETURN JUMPDEST PUSH2 0x11F PUSH2 0x61B JUMP JUMPDEST STOP JUMPDEST PUSH2 0x129 PUSH2 0x62F JUMP JUMPDEST STOP JUMPDEST PUSH2 0x133 PUSH2 0x641 JUMP JUMPDEST PUSH1 0x40 MLOAD PUSH2 0x140 SWAP2 SWAP1 PUSH2 0xD75 JUMP JUMPDEST PUSH1 0x40 MLOAD DUP1 SWAP2 SUB SWAP1 RETURN JUMPDEST PUSH2 0x151 PUSH2 0x66A JUMP JUMPDEST PUSH1 0x40 MLOAD PUSH2 0x15E SWAP2 SWAP1 PUSH2 0xD9F JUMP JUMPDEST PUSH1 0x40 MLOAD DUP1 SWAP2 SUB SWAP1 RETURN JUMPDEST PUSH2 0x16F PUSH2 0x6B4 JUMP JUMPDEST PUSH1 0x40 MLOAD PUSH2 0x17C SWAP2 SWAP1 PUSH2 0xEBE JUMP JUMPDEST PUSH1 0x40 MLOAD DUP1 SWAP2 SUB SWAP1 RETURN JUMPDEST PUSH2 0x19F PUSH1 0x4 DUP1 CALLDATASIZE SUB DUP2 ADD SWAP1 PUSH2 0x19A SWAP2 SWAP1 PUSH2 0xEE0 JUMP JUMPDEST PUSH2 0x810 JUMP JUMPDEST STOP JUMPDEST PUSH2 0x1A9 PUSH2 0x893 JUMP JUMPDEST PUSH2 0x1B1 PUSH2 0x8DD JUMP JUMPDEST PUSH1 0x0 PUSH20 0xFFFFFFFFFFFFFFFFFFFFFFFFFFFFFFFFFFFFFFFF AND DUP4 PUSH20 0xFFFFFFFFFFFFFFFFFFFFFFFFFFFFFFFFFFFFFFFF AND SUB PUSH2 0x220 JUMPI PUSH1 0x40 MLOAD PUSH32 0x8C379A000000000000000000000000000000000000000000000000000000000 DUP2 MSTORE PUSH1 0x4 ADD PUSH2 0x217 SWAP1 PUSH2 0xF90 JUMP JUMPDEST PUSH1 0x40 MLOAD DUP1 SWAP2 SUB SWAP1 REVERT JUMPDEST PUSH1 0x0 PUSH20 0xFFFFFFFFFFFFFFFFFFFFFFFFFFFFFFFFFFFFFFFF AND DUP3 PUSH20 0xFFFFFFFFFFFFFFFFFFFFFFFFFFFFFFFFFFFFFFFF AND SUB PUSH2 0x28F JUMPI PUSH1 0x40 MLOAD PUSH32 0x8C379A000000000000000000000000000000000000000000000000000000000 DUP2 MSTORE PUSH1 0x4 ADD PUSH2 0x286 SWAP1 PUSH2 0x1022 JUMP JUMPDEST PUSH1 0x40 MLOAD DUP1 SWAP2 SUB SWAP1 REVERT JUMPDEST PUSH1 0x0 DUP2 GT PUSH2 0x2D2 JUMPI PUSH1 0x40 MLOAD PUSH32 0x8C379A000000000000000000000000000000000000000000000000000000000 DUP2 MSTORE PUSH1 0x4 ADD PUSH2 0x2C9 SWAP1 PUSH2 0x10B4 JUMP JUMPDEST PUSH1 0x40 MLOAD DUP1 SWAP2 SUB SWAP1 REVERT JUMPDEST PUSH1 0x0 PUSH1 0x40 MLOAD DUP1 PUSH1 0x80 ADD PUSH1 0x40 MSTORE DUP1 DUP6 PUSH20 0xFFFFFFFFFFFFFFFFFFFFFFFFFFFFFFFFFFFFFFFF AND DUP2 MSTORE PUSH1 0x20 ADD DUP5 PUSH20 0xFFFFFFFFFFFFFFFFFFFFFFFFFFFFFFFFFFFFFFFF AND DUP2 MSTORE PUSH1 0x20 ADD DUP4 DUP2 MSTORE PUSH1 0x20 ADD TIMESTAMP DUP2 MSTORE POP SWAP1 POP PUSH1 0x1 PUSH1 0x0 CALLER PUSH20 0xFFFFFFFFFFFFFFFFFFFFFFFFFFFFFFFFFFFFFFFF AND PUSH20 0xFFFFFFFFFFFFFFFFFFFFFFFFFFFFFFFFFFFFFFFF AND DUP2 MSTORE PUSH1 0x20 ADD SWAP1 DUP2 MSTORE PUSH1 0x20 ADD PUSH1 0x0 KECCAK256 DUP2 SWAP1 DUP1 PUSH1 0x1 DUP2 SLOAD ADD DUP1 DUP3 SSTORE DUP1 SWAP2 POP POP PUSH1 0x1 SWAP1 SUB SWAP1 PUSH1 0x0 MSTORE PUSH1 0x20 PUSH1 0x0 KECCAK256 SWAP1 PUSH1 0x4 MUL ADD PUSH1 0x0 SWAP1 SWAP2 SWAP1 SWAP2 SWAP1 SWAP2 POP PUSH1 0x0 DUP3 ADD MLOAD DUP2 PUSH1 0x0 ADD PUSH1 0x0 PUSH2 0x100 EXP DUP2 SLOAD DUP2 PUSH20 0xFFFFFFFFFFFFFFFFFFFFFFFFFFFFFFFFFFFFFFFF MUL NOT AND SWAP1 DUP4 PUSH20 0xFFFFFFFFFFFFFFFFFFFFFFFFFFFFFFFFFFFFFFFF AND MUL OR SWAP1 SSTORE POP PUSH1 0x20 DUP3 ADD MLOAD DUP2 PUSH1 0x1 ADD PUSH1 0x0 PUSH2 0x100 EXP DUP2 SLOAD DUP2 PUSH20 0xFFFFFFFFFFFFFFFFFFFFFFFFFFFFFFFFFFFFFFFF MUL NOT AND SWAP1 DUP4 PUSH20 0xFFFFFFFFFFFFFFFFFFFFFFFFFFFFFFFFFFFFFFFF AND MUL OR SWAP1 SSTORE POP PUSH1 0x40 DUP3 ADD MLOAD DUP2 PUSH1 0x2 ADD SSTORE PUSH1 0x60 DUP3 ADD MLOAD DUP2 PUSH1 0x3 ADD SSTORE POP POP POP POP POP POP JUMP JUMPDEST PUSH2 0x43E PUSH2 0xB35 JUMP JUMPDEST PUSH1 0x1 PUSH1 0x0 CALLER PUSH20 0xFFFFFFFFFFFFFFFFFFFFFFFFFFFFFFFFFFFFFFFF AND PUSH20 0xFFFFFFFFFFFFFFFFFFFFFFFFFFFFFFFFFFFFFFFF AND DUP2 MSTORE PUSH1 0x20 ADD SWAP1 DUP2 MSTORE PUSH1 0x20 ADD PUSH1 0x0 KECCAK256 DUP1 SLOAD SWAP1 POP DUP3 LT PUSH2 0x4C2 JUMPI PUSH1 0x40 MLOAD PUSH32 0x8C379A000000000000000000000000000000000000000000000000000000000 DUP2 MSTORE PUSH1 0x4 ADD PUSH2 0x4B9 SWAP1 PUSH2 0x1120 JUMP JUMPDEST PUSH1 0x40 MLOAD DUP1 SWAP2 SUB SWAP1 REVERT JUMPDEST PUSH1 0x1 PUSH1 0x0 CALLER PUSH20 0xFFFFFFFFFFFFFFFFFFFFFFFFFFFFFFFFFFFFFFFF AND PUSH20 0xFFFFFFFFFFFFFFFFFFFFFFFFFFFFFFFFFFFFFFFF AND DUP2 MSTORE PUSH1 0x20 ADD SWAP1 DUP2 MSTORE PUSH1 0x20 ADD PUSH1 0x0 KECCAK256 DUP3 DUP2 SLOAD DUP2 LT PUSH2 0x513 JUMPI PUSH2 0x512 PUSH2 0x1140 JUMP JUMPDEST JUMPDEST SWAP1 PUSH1 0x0 MSTORE PUSH1 0x20 PUSH1 0x0 KECCAK256 SWAP1 PUSH1 0x4 MUL ADD PUSH1 0x40 MLOAD DUP1 PUSH1 0x80 ADD PUSH1 0x40 MSTORE SWAP1 DUP2 PUSH1 0x0 DUP3 ADD PUSH1 0x0 SWAP1 SLOAD SWAP1 PUSH2 0x100 EXP SWAP1 DIV PUSH20 0xFFFFFFFFFFFFFFFFFFFFFFFFFFFFFFFFFFFFFFFF AND PUSH20 0xFFFFFFFFFFFFFFFFFFFFFFFFFFFFFFFFFFFFFFFF AND PUSH20 0xFFFFFFFFFFFFFFFFFFFFFFFFFFFFFFFFFFFFFFFF AND DUP2 MSTORE PUSH1 0x20 ADD PUSH1 0x1 DUP3 ADD PUSH1 0x0 SWAP1 SLOAD SWAP1 PUSH2 0x100 EXP SWAP1 DIV PUSH20 0xFFFFFFFFFFFFFFFFFFFFFFFFFFFFFFFFFFFFFFFF AND PUSH20 0xFFFFFFFFFFFFFFFFFFFFFFFFFFFFFFFFFFFFFFFF AND PUSH20 0xFFFFFFFFFFFFFFFFFFFFFFFFFFFFFFFFFFFFFFFF AND DUP2 MSTORE PUSH1 0x20 ADD PUSH1 0x2 DUP3 ADD SLOAD DUP2 MSTORE PUSH1 0x20 ADD PUSH1 0x3 DUP3 ADD SLOAD DUP2 MSTORE POP POP SWAP1 POP SWAP2 SWAP1 POP JUMP JUMPDEST PUSH2 0x5FB PUSH2 0x8DD JUMP JUMPDEST PUSH2 0x603 PUSH2 0x95B JUMP JUMPDEST JUMP JUMPDEST PUSH1 0x0 DUP1 PUSH1 0x14 SWAP1 SLOAD SWAP1 PUSH2 0x100 EXP SWAP1 DIV PUSH1 0xFF AND SWAP1 POP SWAP1 JUMP JUMPDEST PUSH2 0x623 PUSH2 0x8DD JUMP JUMPDEST PUSH2 0x62D PUSH1 0x0 PUSH2 0x9BD JUMP JUMPDEST JUMP JUMPDEST PUSH2 0x637 PUSH2 0x8DD JUMP JUMPDEST PUSH2 0x63F PUSH2 0xA81 JUMP JUMPDEST JUMP JUMPDEST PUSH1 0x0 DUP1 PUSH1 0x0 SWAP1 SLOAD SWAP1 PUSH2 0x100 EXP SWAP1 DIV PUSH20 0xFFFFFFFFFFFFFFFFFFFFFFFFFFFFFFFFFFFFFFFF AND SWAP1 POP SWAP1 JUMP JUMPDEST PUSH1 0x0 PUSH1 0x1 PUSH1 0x0 CALLER PUSH20 0xFFFFFFFFFFFFFFFFFFFFFFFFFFFFFFFFFFFFFFFF AND PUSH20 0xFFFFFFFFFFFFFFFFFFFFFFFFFFFFFFFFFFFFFFFF AND DUP2 MSTORE PUSH1 0x20 ADD SWAP1 DUP2 MSTORE PUSH1 0x20 ADD PUSH1 0x0 KECCAK256 DUP1 SLOAD SWAP1 POP SWAP1 POP SWAP1 JUMP JUMPDEST PUSH1 0x60 PUSH1 0x1 PUSH1 0x0 CALLER PUSH20 0xFFFFFFFFFFFFFFFFFFFFFFFFFFFFFFFFFFFFFFFF AND PUSH20 0xFFFFFFFFFFFFFFFFFFFFFFFFFFFFFFFFFFFFFFFF AND DUP2 MSTORE PUSH1 0x20 ADD SWAP1 DUP2 MSTORE PUSH1 0x20 ADD PUSH1 0x0 KECCAK256 DUP1 SLOAD DUP1 PUSH1 0x20 MUL PUSH1 0x20 ADD PUSH1 0x40 MLOAD SWAP1 DUP2 ADD PUSH1 0x40 MSTORE DUP1 SWAP3 SWAP2 SWAP1 DUP2 DUP2 MSTORE PUSH1 0x20 ADD PUSH1 0x0 SWAP1 JUMPDEST DUP3 DUP3 LT ISZERO PUSH2 0x807 JUMPI DUP4 DUP3 SWAP1 PUSH1 0x0 MSTORE PUSH1 0x20 PUSH1 0x0 KECCAK256 SWAP1 PUSH1 0x4 MUL ADD PUSH1 0x40 MLOAD DUP1 PUSH1 0x80 ADD PUSH1 0x40 MSTORE SWAP1 DUP2 PUSH1 0x0 DUP3 ADD PUSH1 0x0 SWAP1 SLOAD SWAP1 PUSH2 0x100 EXP SWAP1 DIV PUSH20 0xFFFFFFFFFFFFFFFFFFFFFFFFFFFFFFFFFFFFFFFF AND PUSH20 0xFFFFFFFFFFFFFFFFFFFFFFFFFFFFFFFFFFFFFFFF AND PUSH20 0xFFFFFFFFFFFFFFFFFFFFFFFFFFFFFFFFFFFFFFFF AND DUP2 MSTORE PUSH1 0x20 ADD PUSH1 0x1 DUP3 ADD PUSH1 0x0 SWAP1 SLOAD SWAP1 PUSH2 0x100 EXP SWAP1 DIV PUSH20 0xFFFFFFFFFFFFFFFFFFFFFFFFFFFFFFFFFFFFFFFF AND PUSH20 0xFFFFFFFFFFFFFFFFFFFFFFFFFFFFFFFFFFFFFFFF AND PUSH20 0xFFFFFFFFFFFFFFFFFFFFFFFFFFFFFFFFFFFFFFFF AND DUP2 MSTORE PUSH1 0x20 ADD PUSH1 0x2 DUP3 ADD SLOAD DUP2 MSTORE PUSH1 0x20 ADD PUSH1 0x3 DUP3 ADD SLOAD DUP2 MSTORE POP POP DUP2 MSTORE PUSH1 0x20 ADD SWAP1 PUSH1 0x1 ADD SWAP1 PUSH2 0x715 JUMP JUMPDEST POP POP POP POP SWAP1 POP SWAP1 JUMP JUMPDEST PUSH2 0x818 PUSH2 0x8DD JUMP JUMPDEST PUSH1 0x0 PUSH20 0xFFFFFFFFFFFFFFFFFFFFFFFFFFFFFFFFFFFFFFFF AND DUP2 PUSH20 0xFFFFFFFFFFFFFFFFFFFFFFFFFFFFFFFFFFFFFFFF AND SUB PUSH2 0x887 JUMPI PUSH1 0x40 MLOAD PUSH32 0x8C379A000000000000000000000000000000000000000000000000000000000 DUP2 MSTORE PUSH1 0x4 ADD PUSH2 0x87E SWAP1 PUSH2 0x11E1 JUMP JUMPDEST PUSH1 0x40 MLOAD DUP1 SWAP2 SUB SWAP1 REVERT JUMPDEST PUSH2 0x890 DUP2 PUSH2 0x9BD JUMP JUMPDEST POP JUMP JUMPDEST PUSH2 0x89B PUSH2 0x605 JUMP JUMPDEST ISZERO PUSH2 0x8DB JUMPI PUSH1 0x40 MLOAD PUSH32 0x8C379A000000000000000000000000000000000000000000000000000000000 DUP2 MSTORE PUSH1 0x4 ADD PUSH2 0x8D2 SWAP1 PUSH2 0x124D JUMP JUMPDEST PUSH1 0x40 MLOAD DUP1 SWAP2 SUB SWAP1 REVERT JUMPDEST JUMP JUMPDEST PUSH2 0x8E5 PUSH2 0xAE4 JUMP JUMPDEST PUSH20 0xFFFFFFFFFFFFFFFFFFFFFFFFFFFFFFFFFFFFFFFF AND PUSH2 0x903 PUSH2 0x641 JUMP JUMPDEST PUSH20 0xFFFFFFFFFFFFFFFFFFFFFFFFFFFFFFFFFFFFFFFF AND EQ PUSH2 0x959 JUMPI PUSH1 0x40 MLOAD PUSH32 0x8C379A000000000000000000000000000000000000000000000000000000000 DUP2 MSTORE PUSH1 0x4 ADD PUSH2 0x950 SWAP1 PUSH2 0x12B9 JUMP JUMPDEST PUSH1 0x40 MLOAD DUP1 SWAP2 SUB SWAP1 REVERT JUMPDEST JUMP JUMPDEST PUSH2 0x963 PUSH2 0xAEC JUMP JUMPDEST PUSH1 0x0 DUP1 PUSH1 0x14 PUSH2 0x100 EXP DUP2 SLOAD DUP2 PUSH1 0xFF MUL NOT AND SWAP1 DUP4 ISZERO ISZERO MUL OR SWAP1 SSTORE POP PUSH32 0x5DB9EE0A495BF2E6FF9C91A7834C1BA4FDD244A5E8AA4E537BD38AEAE4B073AA PUSH2 0x9A6 PUSH2 0xAE4 JUMP JUMPDEST PUSH1 0x40 MLOAD PUSH2 0x9B3 SWAP2 SWAP1 PUSH2 0xD75 JUMP JUMPDEST PUSH1 0x40 MLOAD DUP1 SWAP2 SUB SWAP1 LOG1 JUMP JUMPDEST PUSH1 0x0 DUP1 PUSH1 0x0 SWAP1 SLOAD SWAP1 PUSH2 0x100 EXP SWAP1 DIV PUSH20 0xFFFFFFFFFFFFFFFFFFFFFFFFFFFFFFFFFFFFFFFF AND SWAP1 POP DUP2 PUSH1 0x0 DUP1 PUSH2 0x100 EXP DUP2 SLOAD DUP2 PUSH20 0xFFFFFFFFFFFFFFFFFFFFFFFFFFFFFFFFFFFFFFFF MUL NOT AND SWAP1 DUP4 PUSH20 0xFFFFFFFFFFFFFFFFFFFFFFFFFFFFFFFFFFFFFFFF AND MUL OR SWAP1 SSTORE POP DUP2 PUSH20 0xFFFFFFFFFFFFFFFFFFFFFFFFFFFFFFFFFFFFFFFF AND DUP2 PUSH20 0xFFFFFFFFFFFFFFFFFFFFFFFFFFFFFFFFFFFFFFFF AND PUSH32 0x8BE0079C531659141344CD1FD0A4F28419497F9722A3DAAFE3B4186F6B6457E0 PUSH1 0x40 MLOAD PUSH1 0x40 MLOAD DUP1 SWAP2 SUB SWAP1 LOG3 POP POP JUMP JUMPDEST PUSH2 0xA89 PUSH2 0x893 JUMP JUMPDEST PUSH1 0x1 PUSH1 0x0 PUSH1 0x14 PUSH2 0x100 EXP DUP2 SLOAD DUP2 PUSH1 0xFF MUL NOT AND SWAP1 DUP4 ISZERO ISZERO MUL OR SWAP1 SSTORE POP PUSH32 0x62E78CEA01BEE320CD4E420270B5EA74000D11B0C9F74754EBDBFC544B05A258 PUSH2 0xACD PUSH2 0xAE4 JUMP JUMPDEST PUSH1 0x40 MLOAD PUSH2 0xADA SWAP2 SWAP1 PUSH2 0xD75 JUMP JUMPDEST PUSH1 0x40 MLOAD DUP1 SWAP2 SUB SWAP1 LOG1 JUMP JUMPDEST PUSH1 0x0 CALLER SWAP1 POP SWAP1 JUMP JUMPDEST PUSH2 0xAF4 PUSH2 0x605 JUMP JUMPDEST PUSH2 0xB33 JUMPI PUSH1 0x40 MLOAD PUSH32 0x8C379A000000000000000000000000000000000000000000000000000000000 DUP2 MSTORE PUSH1 0x4 ADD PUSH2 0xB2A SWAP1 PUSH2 0x1325 JUMP JUMPDEST PUSH1 0x40 MLOAD DUP1 SWAP2 SUB SWAP1 REVERT JUMPDEST JUMP JUMPDEST PUSH1 0x40 MLOAD DUP1 PUSH1 0x80 ADD PUSH1 0x40 MSTORE DUP1 PUSH1 0x0 PUSH20 0xFFFFFFFFFFFFFFFFFFFFFFFFFFFFFFFFFFFFFFFF AND DUP2 MSTORE PUSH1 0x20 ADD PUSH1 0x0 PUSH20 0xFFFFFFFFFFFFFFFFFFFFFFFFFFFFFFFFFFFFFFFF AND DUP2 MSTORE PUSH1 0x20 ADD PUSH1 0x0 DUP2 MSTORE PUSH1 0x20 ADD PUSH1 0x0 DUP2 MSTORE POP SWAP1 JUMP JUMPDEST PUSH1 0x0 DUP1 REVERT JUMPDEST PUSH1 0x0 PUSH20 0xFFFFFFFFFFFFFFFFFFFFFFFFFFFFFFFFFFFFFFFF DUP3 AND SWAP1 POP SWAP2 SWAP1 POP JUMP JUMPDEST PUSH1 0x0 PUSH2 0xBB9 DUP3 PUSH2 0xB8E JUMP JUMPDEST SWAP1 POP SWAP2 SWAP1 POP JUMP JUMPDEST PUSH2 0xBC9 DUP2 PUSH2 0xBAE JUMP JUMPDEST DUP2 EQ PUSH2 0xBD4 JUMPI PUSH1 0x0 DUP1 REVERT JUMPDEST POP JUMP JUMPDEST PUSH1 0x0 DUP2 CALLDATALOAD SWAP1 POP PUSH2 0xBE6 DUP2 PUSH2 0xBC0 JUMP JUMPDEST SWAP3 SWAP2 POP POP JUMP JUMPDEST PUSH1 0x0 DUP2 SWAP1 POP SWAP2 SWAP1 POP JUMP JUMPDEST PUSH2 0xBFF DUP2 PUSH2 0xBEC JUMP JUMPDEST DUP2 EQ PUSH2 0xC0A JUMPI PUSH1 0x0 DUP1 REVERT JUMPDEST POP JUMP JUMPDEST PUSH1 0x0 DUP2 CALLDATALOAD SWAP1 POP PUSH2 0xC1C DUP2 PUSH2 0xBF6 JUMP JUMPDEST SWAP3 SWAP2 POP POP JUMP JUMPDEST PUSH1 0x0 DUP1 PUSH1 0x0 PUSH1 0x60 DUP5 DUP7 SUB SLT ISZERO PUSH2 0xC3B JUMPI PUSH2 0xC3A PUSH2 0xB89 JUMP JUMPDEST JUMPDEST PUSH1 0x0 PUSH2 0xC49 DUP7 DUP3 DUP8 ADD PUSH2 0xBD7 JUMP JUMPDEST SWAP4 POP POP PUSH1 0x20 PUSH2 0xC5A DUP7 DUP3 DUP8 ADD PUSH2 0xBD7 JUMP JUMPDEST SWAP3 POP POP PUSH1 0x40 PUSH2 0xC6B DUP7 DUP3 DUP8 ADD PUSH2 0xC0D JUMP JUMPDEST SWAP2 POP POP SWAP3 POP SWAP3 POP SWAP3 JUMP JUMPDEST PUSH1 0x0 PUSH1 0x20 DUP3 DUP5 SUB SLT ISZERO PUSH2 0xC8B JUMPI PUSH2 0xC8A PUSH2 0xB89 JUMP JUMPDEST JUMPDEST PUSH1 0x0 PUSH2 0xC99 DUP5 DUP3 DUP6 ADD PUSH2 0xC0D JUMP JUMPDEST SWAP2 POP POP SWAP3 SWAP2 POP POP JUMP JUMPDEST PUSH2 0xCAB DUP2 PUSH2 0xBAE JUMP JUMPDEST DUP3 MSTORE POP POP JUMP JUMPDEST PUSH2 0xCBA DUP2 PUSH2 0xBEC JUMP JUMPDEST DUP3 MSTORE POP POP JUMP JUMPDEST PUSH1 0x80 DUP3 ADD PUSH1 0x0 DUP3 ADD MLOAD PUSH2 0xCD6 PUSH1 0x0 DUP6 ADD DUP3 PUSH2 0xCA2 JUMP JUMPDEST POP PUSH1 0x20 DUP3 ADD MLOAD PUSH2 0xCE9 PUSH1 0x20 DUP6 ADD DUP3 PUSH2 0xCA2 JUMP JUMPDEST POP PUSH1 0x40 DUP3 ADD MLOAD PUSH2 0xCFC PUSH1 0x40 DUP6 ADD DUP3 PUSH2 0xCB1 JUMP JUMPDEST POP PUSH1 0x60 DUP3 ADD MLOAD PUSH2 0xD0F PUSH1 0x60 DUP6 ADD DUP3 PUSH2 0xCB1 JUMP JUMPDEST POP POP POP POP JUMP JUMPDEST PUSH1 0x0 PUSH1 0x80 DUP3 ADD SWAP1 POP PUSH2 0xD2A PUSH1 0x0 DUP4 ADD DUP5 PUSH2 0xCC0 JUMP JUMPDEST SWAP3 SWAP2 POP POP JUMP JUMPDEST PUSH1 0x0 DUP2 ISZERO ISZERO SWAP1 POP SWAP2 SWAP1 POP JUMP JUMPDEST PUSH2 0xD45 DUP2 PUSH2 0xD30 JUMP JUMPDEST DUP3 MSTORE POP POP JUMP JUMPDEST PUSH1 0x0 PUSH1 0x20 DUP3 ADD SWAP1 POP PUSH2 0xD60 PUSH1 0x0 DUP4 ADD DUP5 PUSH2 0xD3C JUMP JUMPDEST SWAP3 SWAP2 POP POP JUMP JUMPDEST PUSH2 0xD6F DUP2 PUSH2 0xBAE JUMP JUMPDEST DUP3 MSTORE POP POP JUMP JUMPDEST PUSH1 0x0 PUSH1 0x20 DUP3 ADD SWAP1 POP PUSH2 0xD8A PUSH1 0x0 DUP4 ADD DUP5 PUSH2 0xD66 JUMP JUMPDEST SWAP3 SWAP2 POP POP JUMP JUMPDEST PUSH2 0xD99 DUP2 PUSH2 0xBEC JUMP JUMPDEST DUP3 MSTORE POP POP JUMP JUMPDEST PUSH1 0x0 PUSH1 0x20 DUP3 ADD SWAP1 POP PUSH2 0xDB4 PUSH1 0x0 DUP4 ADD DUP5 PUSH2 0xD90 JUMP JUMPDEST SWAP3 SWAP2 POP POP JUMP JUMPDEST PUSH1 0x0 DUP2 MLOAD SWAP1 POP SWAP2 SWAP1 POP JUMP JUMPDEST PUSH1 0x0 DUP3 DUP3 MSTORE PUSH1 0x20 DUP3 ADD SWAP1 POP SWAP3 SWAP2 POP POP JUMP JUMPDEST PUSH1 0x0 DUP2 SWAP1 POP PUSH1 0x20 DUP3 ADD SWAP1 POP SWAP2 SWAP1 POP JUMP JUMPDEST PUSH1 0x80 DUP3 ADD PUSH1 0x0 DUP3 ADD MLOAD PUSH2 0xDFC PUSH1 0x0 DUP6 ADD DUP3 PUSH2 0xCA2 JUMP JUMPDEST POP PUSH1 0x20 DUP3 ADD MLOAD PUSH2 0xE0F PUSH1 0x20 DUP6 ADD DUP3 PUSH2 0xCA2 JUMP JUMPDEST POP PUSH1 0x40 DUP3 ADD MLOAD PUSH2 0xE22 PUSH1 0x40 DUP6 ADD DUP3 PUSH2 0xCB1 JUMP JUMPDEST POP PUSH1 0x60 DUP3 ADD MLOAD PUSH2 0xE35 PUSH1 0x60 DUP6 ADD DUP3 PUSH2 0xCB1 JUMP JUMPDEST POP POP POP POP JUMP JUMPDEST PUSH1 0x0 PUSH2 0xE47 DUP4 DUP4 PUSH2 0xDE6 JUMP JUMPDEST PUSH1 0x80 DUP4 ADD SWAP1 POP SWAP3 SWAP2 POP POP JUMP JUMPDEST PUSH1 0x0 PUSH1 0x20 DUP3 ADD SWAP1 POP SWAP2 SWAP1 POP JUMP JUMPDEST PUSH1 0x0 PUSH2 0xE6B DUP3 PUSH2 0xDBA JUMP JUMPDEST PUSH2 0xE75 DUP2 DUP6 PUSH2 0xDC5 JUMP JUMPDEST SWAP4 POP PUSH2 0xE80 DUP4 PUSH2 0xDD6 JUMP JUMPDEST DUP1 PUSH1 0x0 JUMPDEST DUP4 DUP2 LT ISZERO PUSH2 0xEB1 JUMPI DUP2 MLOAD PUSH2 0xE98 DUP9 DUP3 PUSH2 0xE3B JUMP JUMPDEST SWAP8 POP PUSH2 0xEA3 DUP4 PUSH2 0xE53 JUMP JUMPDEST SWAP3 POP POP PUSH1 0x1 DUP2 ADD SWAP1 POP PUSH2 0xE84 JUMP JUMPDEST POP DUP6 SWAP4 POP POP POP POP SWAP3 SWAP2 POP POP JUMP JUMPDEST PUSH1 0x0 PUSH1 0x20 DUP3 ADD SWAP1 POP DUP2 DUP2 SUB PUSH1 0x0 DUP4 ADD MSTORE PUSH2 0xED8 DUP2 DUP5 PUSH2 0xE60 JUMP JUMPDEST SWAP1 POP SWAP3 SWAP2 POP POP JUMP JUMPDEST PUSH1 0x0 PUSH1 0x20 DUP3 DUP5 SUB SLT ISZERO PUSH2 0xEF6 JUMPI PUSH2 0xEF5 PUSH2 0xB89 JUMP JUMPDEST JUMPDEST PUSH1 0x0 PUSH2 0xF04 DUP5 DUP3 DUP6 ADD PUSH2 0xBD7 JUMP JUMPDEST SWAP2 POP POP SWAP3 SWAP2 POP POP JUMP JUMPDEST PUSH1 0x0 DUP3 DUP3 MSTORE PUSH1 0x20 DUP3 ADD SWAP1 POP SWAP3 SWAP2 POP POP JUMP JUMPDEST PUSH32 0x5472616E73616374696F6E733A2073656E6465722063616E6E6F74206265207A PUSH1 0x0 DUP3 ADD MSTORE PUSH32 0x65726F2061646472657373000000000000000000000000000000000000000000 PUSH1 0x20 DUP3 ADD MSTORE POP JUMP JUMPDEST PUSH1 0x0 PUSH2 0xF7A PUSH1 0x2B DUP4 PUSH2 0xF0D JUMP JUMPDEST SWAP2 POP PUSH2 0xF85 DUP3 PUSH2 0xF1E JUMP JUMPDEST PUSH1 0x40 DUP3 ADD SWAP1 POP SWAP2 SWAP1 POP JUMP JUMPDEST PUSH1 0x0 PUSH1 0x20 DUP3 ADD SWAP1 POP DUP2 DUP2 SUB PUSH1 0x0 DUP4 ADD MSTORE PUSH2 0xFA9 DUP2 PUSH2 0xF6D JUMP JUMPDEST SWAP1 POP SWAP2 SWAP1 POP JUMP JUMPDEST PUSH32 0x5472616E73616374696F6E733A20726563697069656E742063616E6E6F742062 PUSH1 0x0 DUP3 ADD MSTORE PUSH32 0x65207A65726F2061646472657373000000000000000000000000000000000000 PUSH1 0x20 DUP3 ADD MSTORE POP JUMP JUMPDEST PUSH1 0x0 PUSH2 0x100C PUSH1 0x2E DUP4 PUSH2 0xF0D JUMP JUMPDEST SWAP2 POP PUSH2 0x1017 DUP3 PUSH2 0xFB0 JUMP JUMPDEST PUSH1 0x40 DUP3 ADD SWAP1 POP SWAP2 SWAP1 POP JUMP JUMPDEST PUSH1 0x0 PUSH1 0x20 DUP3 ADD SWAP1 POP DUP2 DUP2 SUB PUSH1 0x0 DUP4 ADD MSTORE PUSH2 0x103B DUP2 PUSH2 0xFFF JUMP JUMPDEST SWAP1 POP SWAP2 SWAP1 POP JUMP JUMPDEST PUSH32 0x5472616E73616374696F6E733A20616D6F756E74206D75737420626520677265 PUSH1 0x0 DUP3 ADD MSTORE PUSH32 0x61746572207468616E207A65726F000000000000000000000000000000000000 PUSH1 0x20 DUP3 ADD MSTORE POP JUMP JUMPDEST PUSH1 0x0 PUSH2 0x109E PUSH1 0x2E DUP4 PUSH2 0xF0D JUMP JUMPDEST SWAP2 POP PUSH2 0x10A9 DUP3 PUSH2 0x1042 JUMP JUMPDEST PUSH1 0x40 DUP3 ADD SWAP1 POP SWAP2 SWAP1 POP JUMP JUMPDEST PUSH1 0x0 PUSH1 0x20 DUP3 ADD SWAP1 POP DUP2 DUP2 SUB PUSH1 0x0 DUP4 ADD MSTORE PUSH2 0x10CD DUP2 PUSH2 0x1091 JUMP JUMPDEST SWAP1 POP SWAP2 SWAP1 POP JUMP JUMPDEST PUSH32 0x5472616E73616374696F6E733A20696E64657820746F6F206869676800000000 PUSH1 0x0 DUP3 ADD MSTORE POP JUMP JUMPDEST PUSH1 0x0 PUSH2 0x110A PUSH1 0x1C DUP4 PUSH2 0xF0D JUMP JUMPDEST SWAP2 POP PUSH2 0x1115 DUP3 PUSH2 0x10D4 JUMP JUMPDEST PUSH1 0x20 DUP3 ADD SWAP1 POP SWAP2 SWAP1 POP JUMP JUMPDEST PUSH1 0x0 PUSH1 0x20 DUP3 ADD SWAP1 POP DUP2 DUP2 SUB PUSH1 0x0 DUP4 ADD MSTORE PUSH2 0x1139 DUP2 PUSH2 0x10FD JUMP JUMPDEST SWAP1 POP SWAP2 SWAP1 POP JUMP JUMPDEST PUSH32 0x4E487B7100000000000000000000000000000000000000000000000000000000 PUSH1 0x0 MSTORE PUSH1 0x32 PUSH1 0x4 MSTORE PUSH1 0x24 PUSH1 0x0 REVERT JUMPDEST PUSH32 0x4F776E61626C653A206E6577206F776E657220697320746865207A65726F2061 PUSH1 0x0 DUP3 ADD MSTORE PUSH32 0x6464726573730000000000000000000000000000000000000000000000000000 PUSH1 0x20 DUP3 ADD MSTORE POP JUMP JUMPDEST PUSH1 0x0 PUSH2 0x11CB PUSH1 0x26 DUP4 PUSH2 0xF0D JUMP JUMPDEST SWAP2 POP PUSH2 0x11D6 DUP3 PUSH2 0x116F JUMP JUMPDEST PUSH1 0x40 DUP3 ADD SWAP1 POP SWAP2 SWAP1 POP JUMP JUMPDEST PUSH1 0x0 PUSH1 0x20 DUP3 ADD SWAP1 POP DUP2 DUP2 SUB PUSH1 0x0 DUP4 ADD MSTORE PUSH2 0x11FA DUP2 PUSH2 0x11BE JUMP JUMPDEST SWAP1 POP SWAP2 SWAP1 POP JUMP JUMPDEST PUSH32 0x5061757361626C653A2070617573656400000000000000000000000000000000 PUSH1 0x0 DUP3 ADD MSTORE POP JUMP JUMPDEST PUSH1 0x0 PUSH2 0x1237 PUSH1 0x10 DUP4 PUSH2 0xF0D JUMP JUMPDEST SWAP2 POP PUSH2 0x1242 DUP3 PUSH2 0x1201 JUMP JUMPDEST PUSH1 0x20 DUP3 ADD SWAP1 POP SWAP2 SWAP1 POP JUMP JUMPDEST PUSH1 0x0 PUSH1 0x20 DUP3 ADD SWAP1 POP DUP2 DUP2 SUB PUSH1 0x0 DUP4 ADD MSTORE PUSH2 0x1266 DUP2 PUSH2 0x122A JUMP JUMPDEST SWAP1 POP SWAP2 SWAP1 POP JUMP JUMPDEST PUSH32 0x4F776E61626C653A2063616C6C6572206973206E6F7420746865206F776E6572 PUSH1 0x0 DUP3 ADD MSTORE POP JUMP JUMPDEST PUSH1 0x0 PUSH2 0x12A3 PUSH1 0x20 DUP4 PUSH2 0xF0D JUMP JUMPDEST SWAP2 POP PUSH2 0x12AE DUP3 PUSH2 0x126D JUMP JUMPDEST PUSH1 0x20 DUP3 ADD SWAP1 POP SWAP2 SWAP1 POP JUMP JUMPDEST PUSH1 0x0 PUSH1 0x20 DUP3 ADD SWAP1 POP DUP2 DUP2 SUB PUSH1 0x0 DUP4 ADD MSTORE PUSH2 0x12D2 DUP2 PUSH2 0x1296 JUMP JUMPDEST SWAP1 POP SWAP2 SWAP1 POP JUMP JUMPDEST PUSH32 0x5061757361626C653A206E6F7420706175736564000000000000000000000000 PUSH1 0x0 DUP3 ADD MSTORE POP JUMP JUMPDEST PUSH1 0x0 PUSH2 0x130F PUSH1 0x14 DUP4 PUSH2 0xF0D JUMP JUMPDEST SWAP2 POP PUSH2 0x131A DUP3 PUSH2 0x12D9 JUMP JUMPDEST PUSH1 0x20 DUP3 ADD SWAP1 POP SWAP2 SWAP1 POP JUMP JUMPDEST PUSH1 0x0 PUSH1 0x20 DUP3 ADD SWAP1 POP DUP2 DUP2 SUB PUSH1 0x0 DUP4 ADD MSTORE PUSH2 0x133E DUP2 PUSH2 0x1302 JUMP JUMPDEST SWAP1 POP SWAP2 SWAP1 POP JUMP INVALID LOG2 PUSH5 0x6970667358 0x22 SLT KECCAK256 PUSH13 0x826B38099EAB3678006E3399D2 0xC2 0xE7 EQ 0xFB 0xC8 ORIGIN PUSH21 0x1F3C475C8B8A0076F25CE464736F6C634300081100 CALLER "
				},
				"gasEstimates": {
					"creation": {
						"codeDepositCost": "1197400",
						"executionCost": "infinite",
						"totalCost": "infinite"
					},
					"external": {
						"addTransaction(address,address,uint256)": "infinite",
						"getBalance()": "infinite",
						"getTokenAddress()": "2523",
						"getTransaction(uint256)": "infinite",
						"getTransactionHistory()": "infinite",
						"getTransactionsLength()": "infinite",
						"owner()": "2567",
						"pause()": "infinite",
						"paused()": "2618",
						"renounceOwnership()": "30509",
						"transferOwnership(address)": "30810",
						"transferTokens(address,uint256)": "infinite",
						"unpause()": "infinite"
					}
				},
				"methodIdentifiers": {
					"addTransaction(address,address,uint256)": "fe73b27f",
					"getBalance()": "12065fe0",
					"getTokenAddress()": "10fe9ae8",
					"getTransaction(uint256)": "33ea3dc8",
					"getTransactionHistory()": "b76d4fc3",
					"getTransactionsLength()": "f2193627",
					"owner()": "8da5cb5b",
					"pause()": "8456cb59",
					"paused()": "5c975abb",
					"renounceOwnership()": "715018a6",
					"transferOwnership(address)": "f2fde38b",
					"transferTokens(address,uint256)": "bec3fa17",
					"unpause()": "3f4ba83a"
				}
			},
			"storageLayout": {
				"storage": [
					{
						"astId": 7,
						"contract": "contracts/PeliWalletFacade.sol:PeliWalletFacade",
						"label": "_owner",
						"offset": 0,
						"slot": "0",
						"type": "t_address"
					},
					{
						"astId": 130,
						"contract": "contracts/PeliWalletFacade.sol:PeliWalletFacade",
						"label": "_paused",
						"offset": 20,
						"slot": "0",
						"type": "t_bool"
					},
					{
						"astId": 231,
						"contract": "contracts/PeliWalletFacade.sol:PeliWalletFacade",
						"label": "_status",
						"offset": 0,
						"slot": "1",
						"type": "t_uint256"
					},
					{
						"astId": 1036,
						"contract": "contracts/PeliWalletFacade.sol:PeliWalletFacade",
						"label": "transactionsManager",
						"offset": 0,
						"slot": "2",
						"type": "t_contract(Transactions)1371"
					},
					{
						"astId": 1039,
						"contract": "contracts/PeliWalletFacade.sol:PeliWalletFacade",
						"label": "pelicoin",
						"offset": 0,
						"slot": "3",
						"type": "t_contract(IERC20)352"
					}
				],
				"types": {
					"t_address": {
						"encoding": "inplace",
						"label": "address",
						"numberOfBytes": "20"
					},
					"t_bool": {
						"encoding": "inplace",
						"label": "bool",
						"numberOfBytes": "1"
					},
					"t_contract(IERC20)352": {
						"encoding": "inplace",
						"label": "contract IERC20",
						"numberOfBytes": "20"
					},
					"t_contract(Transactions)1371": {
						"encoding": "inplace",
						"label": "contract Transactions",
						"numberOfBytes": "20"
					},
					"t_uint256": {
						"encoding": "inplace",
						"label": "uint256",
						"numberOfBytes": "32"
					}
				}
			},
			"userdoc": {
				"kind": "user",
				"methods": {},
				"version": 1
			}
		}
	}
}