{
  "contractName": "PeliWalletFacade",
  "abi": [
    {
      "inputs": [
        {
          "internalType": "address",
          "name": "pelicoinAddress",
          "type": "address"
        }
      ],
      "stateMutability": "nonpayable",
      "type": "constructor"
    },
    {
      "anonymous": false,
      "inputs": [
        {
          "indexed": true,
          "internalType": "address",
          "name": "previousOwner",
          "type": "address"
        },
        {
          "indexed": true,
          "internalType": "address",
          "name": "newOwner",
          "type": "address"
        }
      ],
      "name": "OwnershipTransferred",
      "type": "event"
    },
    {
      "anonymous": false,
      "inputs": [
        {
          "indexed": false,
          "internalType": "address",
          "name": "account",
          "type": "address"
        }
      ],
      "name": "Paused",
      "type": "event"
    },
    {
      "anonymous": false,
      "inputs": [
        {
          "indexed": false,
          "internalType": "address",
          "name": "account",
          "type": "address"
        }
      ],
      "name": "Unpaused",
      "type": "event"
    },
    {
      "inputs": [],
      "name": "owner",
      "outputs": [
        {
          "internalType": "address",
          "name": "",
          "type": "address"
        }
      ],
      "stateMutability": "view",
      "type": "function"
    },
    {
      "inputs": [],
      "name": "paused",
      "outputs": [
        {
          "internalType": "bool",
          "name": "",
          "type": "bool"
        }
      ],
      "stateMutability": "view",
      "type": "function"
    },
    {
      "inputs": [],
      "name": "renounceOwnership",
      "outputs": [],
      "stateMutability": "nonpayable",
      "type": "function"
    },
    {
      "inputs": [
        {
          "internalType": "address",
          "name": "newOwner",
          "type": "address"
        }
      ],
      "name": "transferOwnership",
      "outputs": [],
      "stateMutability": "nonpayable",
      "type": "function"
    },
    {
      "inputs": [],
      "name": "getTokenAddress",
      "outputs": [
        {
          "internalType": "address",
          "name": "",
          "type": "address"
        }
      ],
      "stateMutability": "view",
      "type": "function"
    },
    {
      "inputs": [
        {
          "internalType": "address",
          "name": "to",
          "type": "address"
        },
        {
          "internalType": "uint256",
          "name": "amount",
          "type": "uint256"
        }
      ],
      "name": "transferTokens",
      "outputs": [],
      "stateMutability": "nonpayable",
      "type": "function"
    },
    {
      "inputs": [
        {
          "internalType": "address",
          "name": "from",
          "type": "address"
        },
        {
          "internalType": "address",
          "name": "to",
          "type": "address"
        },
        {
          "internalType": "uint256",
          "name": "amount",
          "type": "uint256"
        }
      ],
      "name": "addTransaction",
      "outputs": [],
      "stateMutability": "nonpayable",
      "type": "function"
    },
    {
      "inputs": [],
      "name": "getBalance",
      "outputs": [
        {
          "internalType": "uint256",
          "name": "",
          "type": "uint256"
        }
      ],
      "stateMutability": "view",
      "type": "function"
    },
    {
      "inputs": [],
      "name": "getTransactionsLength",
      "outputs": [
        {
          "internalType": "uint256",
          "name": "",
          "type": "uint256"
        }
      ],
      "stateMutability": "view",
      "type": "function"
    },
    {
      "inputs": [
        {
          "internalType": "uint256",
          "name": "index",
          "type": "uint256"
        }
      ],
      "name": "getTransaction",
      "outputs": [
        {
          "components": [
            {
              "internalType": "address",
              "name": "from",
              "type": "address"
            },
            {
              "internalType": "address",
              "name": "to",
              "type": "address"
            },
            {
              "internalType": "uint256",
              "name": "amount",
              "type": "uint256"
            },
            {
              "internalType": "uint256",
              "name": "timestamp",
              "type": "uint256"
            }
          ],
          "internalType": "struct Transactions.Transaction",
          "name": "",
          "type": "tuple"
        }
      ],
      "stateMutability": "view",
      "type": "function"
    },
    {
      "inputs": [],
      "name": "getTransactionHistory",
      "outputs": [
        {
          "components": [
            {
              "internalType": "address",
              "name": "from",
              "type": "address"
            },
            {
              "internalType": "address",
              "name": "to",
              "type": "address"
            },
            {
              "internalType": "uint256",
              "name": "amount",
              "type": "uint256"
            },
            {
              "internalType": "uint256",
              "name": "timestamp",
              "type": "uint256"
            }
          ],
          "internalType": "struct Transactions.Transaction[]",
          "name": "",
          "type": "tuple[]"
        }
      ],
      "stateMutability": "view",
      "type": "function"
    },
    {
      "inputs": [],
      "name": "pause",
      "outputs": [],
      "stateMutability": "nonpayable",
      "type": "function"
    },
    {
      "inputs": [],
      "name": "unpause",
      "outputs": [],
      "stateMutability": "nonpayable",
      "type": "function"
    }
  ],
  "bytecode": "0x60806040523480156200001157600080fd5b5060405162002eb738038062002eb7833981810160405281019062000037919062000270565b620000576200004b6200012c60201b60201c565b6200013460201b60201c565b60008060146101000a81548160ff021916908315150217905550600180819055506040516200008690620001f8565b604051809103906000f080158015620000a3573d6000803e3d6000fd5b50600260006101000a81548173ffffffffffffffffffffffffffffffffffffffff021916908373ffffffffffffffffffffffffffffffffffffffff16021790555080600360006101000a81548173ffffffffffffffffffffffffffffffffffffffff021916908373ffffffffffffffffffffffffffffffffffffffff16021790555050620002a2565b600033905090565b60008060009054906101000a900473ffffffffffffffffffffffffffffffffffffffff169050816000806101000a81548173ffffffffffffffffffffffffffffffffffffffff021916908373ffffffffffffffffffffffffffffffffffffffff1602179055508173ffffffffffffffffffffffffffffffffffffffff168173ffffffffffffffffffffffffffffffffffffffff167f8be0079c531659141344cd1fd0a4f28419497f9722a3daafe3b4186f6b6457e060405160405180910390a35050565b6114a28062001a1583390190565b600080fd5b600073ffffffffffffffffffffffffffffffffffffffff82169050919050565b600062000238826200020b565b9050919050565b6200024a816200022b565b81146200025657600080fd5b50565b6000815190506200026a816200023f565b92915050565b60006020828403121562000289576200028862000206565b5b6000620002998482850162000259565b91505092915050565b61176380620002b26000396000f3fe608060405234801561001057600080fd5b50600436106100cf5760003560e01c80638456cb591161008c578063bec3fa1711610066578063bec3fa17146101b8578063f2193627146101d4578063f2fde38b146101f2578063fe73b27f1461020e576100cf565b80638456cb59146101725780638da5cb5b1461017c578063b76d4fc31461019a576100cf565b806310fe9ae8146100d457806312065fe0146100f257806333ea3dc8146101105780633f4ba83a146101405780635c975abb1461014a578063715018a614610168575b600080fd5b6100dc61022a565b6040516100e99190610c5c565b60405180910390f35b6100fa610254565b6040516101079190610c90565b60405180910390f35b61012a60048036038101906101259190610ceb565b6102f7565b6040516101379190610d8b565b60405180910390f35b6101486103a2565b005b6101526103b4565b60405161015f9190610dc1565b60405180910390f35b6101706103ca565b005b61017a6103de565b005b6101846103f0565b6040516101919190610c5c565b60405180910390f35b6101a2610419565b6040516101af9190610ee0565b60405180910390f35b6101d260048036038101906101cd9190610f2e565b6104b6565b005b6101dc6106fc565b6040516101e99190610c90565b60405180910390f35b61020c60048036038101906102079190610f6e565b610794565b005b61022860048036038101906102239190610f9b565b610817565b005b6000600360009054906101000a900473ffffffffffffffffffffffffffffffffffffffff16905090565b6000600360009054906101000a900473ffffffffffffffffffffffffffffffffffffffff1673ffffffffffffffffffffffffffffffffffffffff166370a08231306040518263ffffffff1660e01b81526004016102b19190610c5c565b602060405180830381865afa1580156102ce573d6000803e3d6000fd5b505050506040513d601f19601f820116820180604052508101906102f29190611003565b905090565b6102ff610bc7565b600260009054906101000a900473ffffffffffffffffffffffffffffffffffffffff1673ffffffffffffffffffffffffffffffffffffffff166333ea3dc8836040518263ffffffff1660e01b815260040161035a9190610c90565b608060405180830381865afa158015610377573d6000803e3d6000fd5b505050506040513d601f19601f8201168201806040525081019061039b919061114e565b9050919050565b6103aa6108cd565b6103b261094b565b565b60008060149054906101000a900460ff16905090565b6103d26108cd565b6103dc60006109ad565b565b6103e66108cd565b6103ee610a71565b565b60008060009054906101000a900473ffffffffffffffffffffffffffffffffffffffff16905090565b6060600260009054906101000a900473ffffffffffffffffffffffffffffffffffffffff1673ffffffffffffffffffffffffffffffffffffffff1663b76d4fc36040518163ffffffff1660e01b8152600401600060405180830381865afa158015610488573d6000803e3d6000fd5b505050506040513d6000823e3d601f19601f820116820180604052508101906104b19190611248565b905090565b6104be610ad4565b6104c66108cd565b6104ce610b1e565b600073ffffffffffffffffffffffffffffffffffffffff168273ffffffffffffffffffffffffffffffffffffffff160361053d576040517f08c379a000000000000000000000000000000000000000000000000000000000815260040161053490611314565b60405180910390fd5b60008111610580576040517f08c379a0000000000000000000000000000000000000000000000000000000008152600401610577906113a6565b60405180910390fd5b600360009054906101000a900473ffffffffffffffffffffffffffffffffffffffff1673ffffffffffffffffffffffffffffffffffffffff1663a9059cbb83836040518363ffffffff1660e01b81526004016105dd9291906113c6565b6020604051808303816000875af11580156105fc573d6000803e3d6000fd5b505050506040513d601f19601f82011682018060405250810190610620919061141b565b61065f576040517f08c379a000000000000000000000000000000000000000000000000000000000815260040161065690611494565b60405180910390fd5b600260009054906101000a900473ffffffffffffffffffffffffffffffffffffffff1673ffffffffffffffffffffffffffffffffffffffff16630b826afa3084846040518463ffffffff1660e01b81526004016106be939291906114b4565b600060405180830381600087803b1580156106d857600080fd5b505af11580156106ec573d6000803e3d6000fd5b505050506106f8610b6d565b5050565b6000600260009054906101000a900473ffffffffffffffffffffffffffffffffffffffff1673ffffffffffffffffffffffffffffffffffffffff16639f71c3c96040518163ffffffff1660e01b8152600401602060405180830381865afa15801561076b573d6000803e3d6000fd5b505050506040513d601f19601f8201168201806040525081019061078f9190611003565b905090565b61079c6108cd565b600073ffffffffffffffffffffffffffffffffffffffff168173ffffffffffffffffffffffffffffffffffffffff160361080b576040517f08c379a00000000000000000000000000000000000000000000000000000000081526004016108029061155d565b60405180910390fd5b610814816109ad565b50565b61081f610ad4565b6108276108cd565b61082f610b1e565b600260009054906101000a900473ffffffffffffffffffffffffffffffffffffffff1673ffffffffffffffffffffffffffffffffffffffff16630b826afa8484846040518463ffffffff1660e01b815260040161088e939291906114b4565b600060405180830381600087803b1580156108a857600080fd5b505af11580156108bc573d6000803e3d6000fd5b505050506108c8610b6d565b505050565b6108d5610b76565b73ffffffffffffffffffffffffffffffffffffffff166108f36103f0565b73ffffffffffffffffffffffffffffffffffffffff1614610949576040517f08c379a0000000000000000000000000000000000000000000000000000000008152600401610940906115c9565b60405180910390fd5b565b610953610b7e565b60008060146101000a81548160ff0219169083151502179055507f5db9ee0a495bf2e6ff9c91a7834c1ba4fdd244a5e8aa4e537bd38aeae4b073aa610996610b76565b6040516109a39190610c5c565b60405180910390a1565b60008060009054906101000a900473ffffffffffffffffffffffffffffffffffffffff169050816000806101000a81548173ffffffffffffffffffffffffffffffffffffffff021916908373ffffffffffffffffffffffffffffffffffffffff1602179055508173ffffffffffffffffffffffffffffffffffffffff168173ffffffffffffffffffffffffffffffffffffffff167f8be0079c531659141344cd1fd0a4f28419497f9722a3daafe3b4186f6b6457e060405160405180910390a35050565b610a79610ad4565b6001600060146101000a81548160ff0219169083151502179055507f62e78cea01bee320cd4e420270b5ea74000d11b0c9f74754ebdbfc544b05a258610abd610b76565b604051610aca9190610c5c565b60405180910390a1565b610adc6103b4565b15610b1c576040517f08c379a0000000000000000000000000000000000000000000000000000000008152600401610b1390611635565b60405180910390fd5b565b600260015403610b63576040517f08c379a0000000000000000000000000000000000000000000000000000000008152600401610b5a906116a1565b60405180910390fd5b6002600181905550565b60018081905550565b600033905090565b610b866103b4565b610bc5576040517f08c379a0000000000000000000000000000000000000000000000000000000008152600401610bbc9061170d565b60405180910390fd5b565b6040518060800160405280600073ffffffffffffffffffffffffffffffffffffffff168152602001600073ffffffffffffffffffffffffffffffffffffffff16815260200160008152602001600081525090565b600073ffffffffffffffffffffffffffffffffffffffff82169050919050565b6000610c4682610c1b565b9050919050565b610c5681610c3b565b82525050565b6000602082019050610c716000830184610c4d565b92915050565b6000819050919050565b610c8a81610c77565b82525050565b6000602082019050610ca56000830184610c81565b92915050565b6000604051905090565b600080fd5b600080fd5b610cc881610c77565b8114610cd357600080fd5b50565b600081359050610ce581610cbf565b92915050565b600060208284031215610d0157610d00610cb5565b5b6000610d0f84828501610cd6565b91505092915050565b610d2181610c3b565b82525050565b610d3081610c77565b82525050565b608082016000820151610d4c6000850182610d18565b506020820151610d5f6020850182610d18565b506040820151610d726040850182610d27565b506060820151610d856060850182610d27565b50505050565b6000608082019050610da06000830184610d36565b92915050565b60008115159050919050565b610dbb81610da6565b82525050565b6000602082019050610dd66000830184610db2565b92915050565b600081519050919050565b600082825260208201905092915050565b6000819050602082019050919050565b608082016000820151610e1e6000850182610d18565b506020820151610e316020850182610d18565b506040820151610e446040850182610d27565b506060820151610e576060850182610d27565b50505050565b6000610e698383610e08565b60808301905092915050565b6000602082019050919050565b6000610e8d82610ddc565b610e978185610de7565b9350610ea283610df8565b8060005b83811015610ed3578151610eba8882610e5d565b9750610ec583610e75565b925050600181019050610ea6565b5085935050505092915050565b60006020820190508181036000830152610efa8184610e82565b905092915050565b610f0b81610c3b565b8114610f1657600080fd5b50565b600081359050610f2881610f02565b92915050565b60008060408385031215610f4557610f44610cb5565b5b6000610f5385828601610f19565b9250506020610f6485828601610cd6565b9150509250929050565b600060208284031215610f8457610f83610cb5565b5b6000610f9284828501610f19565b91505092915050565b600080600060608486031215610fb457610fb3610cb5565b5b6000610fc286828701610f19565b9350506020610fd386828701610f19565b9250506040610fe486828701610cd6565b9150509250925092565b600081519050610ffd81610cbf565b92915050565b60006020828403121561101957611018610cb5565b5b600061102784828501610fee565b91505092915050565b600080fd5b6000601f19601f8301169050919050565b7f4e487b7100000000000000000000000000000000000000000000000000000000600052604160045260246000fd5b61107e82611035565b810181811067ffffffffffffffff8211171561109d5761109c611046565b5b80604052505050565b60006110b0610cab565b90506110bc8282611075565b919050565b6000815190506110d081610f02565b92915050565b6000608082840312156110ec576110eb611030565b5b6110f660806110a6565b90506000611106848285016110c1565b600083015250602061111a848285016110c1565b602083015250604061112e84828501610fee565b604083015250606061114284828501610fee565b60608301525092915050565b60006080828403121561116457611163610cb5565b5b6000611172848285016110d6565b91505092915050565b600080fd5b600067ffffffffffffffff82111561119b5761119a611046565b5b602082029050602081019050919050565b600080fd5b60006111c46111bf84611180565b6110a6565b905080838252602082019050608084028301858111156111e7576111e66111ac565b5b835b8181101561121057806111fc88826110d6565b8452602084019350506080810190506111e9565b5050509392505050565b600082601f83011261122f5761122e61117b565b5b815161123f8482602086016111b1565b91505092915050565b60006020828403121561125e5761125d610cb5565b5b600082015167ffffffffffffffff81111561127c5761127b610cba565b5b6112888482850161121a565b91505092915050565b600082825260208201905092915050565b7f50656c6957616c6c65743a20726563697069656e742063616e6e6f742062652060008201527f7a65726f20616464726573730000000000000000000000000000000000000000602082015250565b60006112fe602c83611291565b9150611309826112a2565b604082019050919050565b6000602082019050818103600083015261132d816112f1565b9050919050565b7f50656c6957616c6c65743a20616d6f756e74206d75737420626520677265617460008201527f6572207468616e207a65726f0000000000000000000000000000000000000000602082015250565b6000611390602c83611291565b915061139b82611334565b604082019050919050565b600060208201905081810360008301526113bf81611383565b9050919050565b60006040820190506113db6000830185610c4d565b6113e86020830184610c81565b9392505050565b6113f881610da6565b811461140357600080fd5b50565b600081519050611415816113ef565b92915050565b60006020828403121561143157611430610cb5565b5b600061143f84828501611406565b91505092915050565b7f50656c6957616c6c65743a205472616e73666572204661696c65640000000000600082015250565b600061147e601b83611291565b915061148982611448565b602082019050919050565b600060208201905081810360008301526114ad81611471565b9050919050565b60006060820190506114c96000830186610c4d565b6114d66020830185610c4d565b6114e36040830184610c81565b949350505050565b7f4f776e61626c653a206e6577206f776e657220697320746865207a65726f206160008201527f6464726573730000000000000000000000000000000000000000000000000000602082015250565b6000611547602683611291565b9150611552826114eb565b604082019050919050565b600060208201905081810360008301526115768161153a565b9050919050565b7f4f776e61626c653a2063616c6c6572206973206e6f7420746865206f776e6572600082015250565b60006115b3602083611291565b91506115be8261157d565b602082019050919050565b600060208201905081810360008301526115e2816115a6565b9050919050565b7f5061757361626c653a2070617573656400000000000000000000000000000000600082015250565b600061161f601083611291565b915061162a826115e9565b602082019050919050565b6000602082019050818103600083015261164e81611612565b9050919050565b7f5265656e7472616e637947756172643a207265656e7472616e742063616c6c00600082015250565b600061168b601f83611291565b915061169682611655565b602082019050919050565b600060208201905081810360008301526116ba8161167e565b9050919050565b7f5061757361626c653a206e6f7420706175736564000000000000000000000000600082015250565b60006116f7601483611291565b9150611702826116c1565b602082019050919050565b60006020820190508181036000830152611726816116ea565b905091905056fea2646970667358221220d50ac907d391a506fe24f6abaa8e8e78698f08458ed886c5f3ec8471353f9a3064736f6c63430008110033608060405234801561001057600080fd5b5061002d61002261004c60201b60201c565b61005460201b60201c565b60008060146101000a81548160ff021916908315150217905550610118565b600033905090565b60008060009054906101000a900473ffffffffffffffffffffffffffffffffffffffff169050816000806101000a81548173ffffffffffffffffffffffffffffffffffffffff021916908373ffffffffffffffffffffffffffffffffffffffff1602179055508173ffffffffffffffffffffffffffffffffffffffff168173ffffffffffffffffffffffffffffffffffffffff167f8be0079c531659141344cd1fd0a4f28419497f9722a3daafe3b4186f6b6457e060405160405180910390a35050565b61137b806101276000396000f3fe608060405234801561001057600080fd5b506004361061009e5760003560e01c80638456cb59116100665780638456cb59146101215780638da5cb5b1461012b5780639f71c3c914610149578063b76d4fc314610167578063f2fde38b146101855761009e565b80630b826afa146100a357806333ea3dc8146100bf5780633f4ba83a146100ef5780635c975abb146100f9578063715018a614610117575b600080fd5b6100bd60048036038101906100b89190610c22565b6101a1565b005b6100d960048036038101906100d49190610c75565b610436565b6040516100e69190610d15565b60405180910390f35b6100f76105f3565b005b610101610605565b60405161010e9190610d4b565b60405180910390f35b61011f61061b565b005b61012961062f565b005b610133610641565b6040516101409190610d75565b60405180910390f35b61015161066a565b60405161015e9190610d9f565b60405180910390f35b61016f6106b4565b60405161017c9190610ebe565b60405180910390f35b61019f600480360381019061019a9190610ee0565b610810565b005b6101a9610893565b6101b16108dd565b600073ffffffffffffffffffffffffffffffffffffffff168373ffffffffffffffffffffffffffffffffffffffff1603610220576040517f08c379a000000000000000000000000000000000000000000000000000000000815260040161021790610f90565b60405180910390fd5b600073ffffffffffffffffffffffffffffffffffffffff168273ffffffffffffffffffffffffffffffffffffffff160361028f576040517f08c379a000000000000000000000000000000000000000000000000000000000815260040161028690611022565b60405180910390fd5b600081116102d2576040517f08c379a00000000000000000000000000000000000000000000000000000000081526004016102c9906110b4565b60405180910390fd5b600060405180608001604052808573ffffffffffffffffffffffffffffffffffffffff1681526020018473ffffffffffffffffffffffffffffffffffffffff168152602001838152602001428152509050600160003373ffffffffffffffffffffffffffffffffffffffff1673ffffffffffffffffffffffffffffffffffffffff16815260200190815260200160002081908060018154018082558091505060019003906000526020600020906004020160009091909190915060008201518160000160006101000a81548173ffffffffffffffffffffffffffffffffffffffff021916908373ffffffffffffffffffffffffffffffffffffffff16021790555060208201518160010160006101000a81548173ffffffffffffffffffffffffffffffffffffffff021916908373ffffffffffffffffffffffffffffffffffffffff1602179055506040820151816002015560608201518160030155505050505050565b61043e610b35565b600160003373ffffffffffffffffffffffffffffffffffffffff1673ffffffffffffffffffffffffffffffffffffffff1681526020019081526020016000208054905082106104c2576040517f08c379a00000000000000000000000000000000000000000000000000000000081526004016104b990611120565b60405180910390fd5b600160003373ffffffffffffffffffffffffffffffffffffffff1673ffffffffffffffffffffffffffffffffffffffff168152602001908152602001600020828154811061051357610512611140565b5b90600052602060002090600402016040518060800160405290816000820160009054906101000a900473ffffffffffffffffffffffffffffffffffffffff1673ffffffffffffffffffffffffffffffffffffffff1673ffffffffffffffffffffffffffffffffffffffff1681526020016001820160009054906101000a900473ffffffffffffffffffffffffffffffffffffffff1673ffffffffffffffffffffffffffffffffffffffff1673ffffffffffffffffffffffffffffffffffffffff168152602001600282015481526020016003820154815250509050919050565b6105fb6108dd565b61060361095b565b565b60008060149054906101000a900460ff16905090565b6106236108dd565b61062d60006109bd565b565b6106376108dd565b61063f610a81565b565b60008060009054906101000a900473ffffffffffffffffffffffffffffffffffffffff16905090565b6000600160003373ffffffffffffffffffffffffffffffffffffffff1673ffffffffffffffffffffffffffffffffffffffff16815260200190815260200160002080549050905090565b6060600160003373ffffffffffffffffffffffffffffffffffffffff1673ffffffffffffffffffffffffffffffffffffffff168152602001908152602001600020805480602002602001604051908101604052809291908181526020016000905b8282101561080757838290600052602060002090600402016040518060800160405290816000820160009054906101000a900473ffffffffffffffffffffffffffffffffffffffff1673ffffffffffffffffffffffffffffffffffffffff1673ffffffffffffffffffffffffffffffffffffffff1681526020016001820160009054906101000a900473ffffffffffffffffffffffffffffffffffffffff1673ffffffffffffffffffffffffffffffffffffffff1673ffffffffffffffffffffffffffffffffffffffff1681526020016002820154815260200160038201548152505081526020019060010190610715565b50505050905090565b6108186108dd565b600073ffffffffffffffffffffffffffffffffffffffff168173ffffffffffffffffffffffffffffffffffffffff1603610887576040517f08c379a000000000000000000000000000000000000000000000000000000000815260040161087e906111e1565b60405180910390fd5b610890816109bd565b50565b61089b610605565b156108db576040517f08c379a00000000000000000000000000000000000000000000000000000000081526004016108d29061124d565b60405180910390fd5b565b6108e5610ae4565b73ffffffffffffffffffffffffffffffffffffffff16610903610641565b73ffffffffffffffffffffffffffffffffffffffff1614610959576040517f08c379a0000000000000000000000000000000000000000000000000000000008152600401610950906112b9565b60405180910390fd5b565b610963610aec565b60008060146101000a81548160ff0219169083151502179055507f5db9ee0a495bf2e6ff9c91a7834c1ba4fdd244a5e8aa4e537bd38aeae4b073aa6109a6610ae4565b6040516109b39190610d75565b60405180910390a1565b60008060009054906101000a900473ffffffffffffffffffffffffffffffffffffffff169050816000806101000a81548173ffffffffffffffffffffffffffffffffffffffff021916908373ffffffffffffffffffffffffffffffffffffffff1602179055508173ffffffffffffffffffffffffffffffffffffffff168173ffffffffffffffffffffffffffffffffffffffff167f8be0079c531659141344cd1fd0a4f28419497f9722a3daafe3b4186f6b6457e060405160405180910390a35050565b610a89610893565b6001600060146101000a81548160ff0219169083151502179055507f62e78cea01bee320cd4e420270b5ea74000d11b0c9f74754ebdbfc544b05a258610acd610ae4565b604051610ada9190610d75565b60405180910390a1565b600033905090565b610af4610605565b610b33576040517f08c379a0000000000000000000000000000000000000000000000000000000008152600401610b2a90611325565b60405180910390fd5b565b6040518060800160405280600073ffffffffffffffffffffffffffffffffffffffff168152602001600073ffffffffffffffffffffffffffffffffffffffff16815260200160008152602001600081525090565b600080fd5b600073ffffffffffffffffffffffffffffffffffffffff82169050919050565b6000610bb982610b8e565b9050919050565b610bc981610bae565b8114610bd457600080fd5b50565b600081359050610be681610bc0565b92915050565b6000819050919050565b610bff81610bec565b8114610c0a57600080fd5b50565b600081359050610c1c81610bf6565b92915050565b600080600060608486031215610c3b57610c3a610b89565b5b6000610c4986828701610bd7565b9350506020610c5a86828701610bd7565b9250506040610c6b86828701610c0d565b9150509250925092565b600060208284031215610c8b57610c8a610b89565b5b6000610c9984828501610c0d565b91505092915050565b610cab81610bae565b82525050565b610cba81610bec565b82525050565b608082016000820151610cd66000850182610ca2565b506020820151610ce96020850182610ca2565b506040820151610cfc6040850182610cb1565b506060820151610d0f6060850182610cb1565b50505050565b6000608082019050610d2a6000830184610cc0565b92915050565b60008115159050919050565b610d4581610d30565b82525050565b6000602082019050610d606000830184610d3c565b92915050565b610d6f81610bae565b82525050565b6000602082019050610d8a6000830184610d66565b92915050565b610d9981610bec565b82525050565b6000602082019050610db46000830184610d90565b92915050565b600081519050919050565b600082825260208201905092915050565b6000819050602082019050919050565b608082016000820151610dfc6000850182610ca2565b506020820151610e0f6020850182610ca2565b506040820151610e226040850182610cb1565b506060820151610e356060850182610cb1565b50505050565b6000610e478383610de6565b60808301905092915050565b6000602082019050919050565b6000610e6b82610dba565b610e758185610dc5565b9350610e8083610dd6565b8060005b83811015610eb1578151610e988882610e3b565b9750610ea383610e53565b925050600181019050610e84565b5085935050505092915050565b60006020820190508181036000830152610ed88184610e60565b905092915050565b600060208284031215610ef657610ef5610b89565b5b6000610f0484828501610bd7565b91505092915050565b600082825260208201905092915050565b7f5472616e73616374696f6e733a2073656e6465722063616e6e6f74206265207a60008201527f65726f2061646472657373000000000000000000000000000000000000000000602082015250565b6000610f7a602b83610f0d565b9150610f8582610f1e565b604082019050919050565b60006020820190508181036000830152610fa981610f6d565b9050919050565b7f5472616e73616374696f6e733a20726563697069656e742063616e6e6f74206260008201527f65207a65726f2061646472657373000000000000000000000000000000000000602082015250565b600061100c602e83610f0d565b915061101782610fb0565b604082019050919050565b6000602082019050818103600083015261103b81610fff565b9050919050565b7f5472616e73616374696f6e733a20616d6f756e74206d7573742062652067726560008201527f61746572207468616e207a65726f000000000000000000000000000000000000602082015250565b600061109e602e83610f0d565b91506110a982611042565b604082019050919050565b600060208201905081810360008301526110cd81611091565b9050919050565b7f5472616e73616374696f6e733a20696e64657820746f6f206869676800000000600082015250565b600061110a601c83610f0d565b9150611115826110d4565b602082019050919050565b60006020820190508181036000830152611139816110fd565b9050919050565b7f4e487b7100000000000000000000000000000000000000000000000000000000600052603260045260246000fd5b7f4f776e61626c653a206e6577206f776e657220697320746865207a65726f206160008201527f6464726573730000000000000000000000000000000000000000000000000000602082015250565b60006111cb602683610f0d565b91506111d68261116f565b604082019050919050565b600060208201905081810360008301526111fa816111be565b9050919050565b7f5061757361626c653a2070617573656400000000000000000000000000000000600082015250565b6000611237601083610f0d565b915061124282611201565b602082019050919050565b600060208201905081810360008301526112668161122a565b9050919050565b7f4f776e61626c653a2063616c6c6572206973206e6f7420746865206f776e6572600082015250565b60006112a3602083610f0d565b91506112ae8261126d565b602082019050919050565b600060208201905081810360008301526112d281611296565b9050919050565b7f5061757361626c653a206e6f7420706175736564000000000000000000000000600082015250565b600061130f601483610f0d565b915061131a826112d9565b602082019050919050565b6000602082019050818103600083015261133e81611302565b905091905056fea26469706673582212202c29b49eb1d71238b7ee59f0dba799c2ee2774979336ff665dac87d32310140864736f6c63430008110033",
  "immutableReferences": {},
  "source": "// SPDX-License-Identifier: MIT\r\npragma solidity ^0.8.17;\r\n\r\nimport \"@openzeppelin/contracts/security/ReentrancyGuard.sol\";\r\nimport \"@openzeppelin/contracts/token/ERC20/IERC20.sol\";\r\nimport \"@openzeppelin/contracts/security/Pausable.sol\";\r\nimport \"@openzeppelin/contracts/access/Ownable.sol\";\r\nimport \"@openzeppelin/contracts/utils/Address.sol\";\r\n\r\nimport \"./Transactions.sol\";\r\n\r\n\r\ncontract PeliWalletFacade is Ownable, Pausable, ReentrancyGuard{\r\n\r\n    using Address for address;\r\n   \r\n    // PeliWallet private peliWallet;\r\n    Transactions private transactionsManager;\r\n    IERC20 private pelicoin; \r\n\r\n\r\n    constructor(address pelicoinAddress){\r\n        transactionsManager = new Transactions();\r\n        pelicoin = IERC20(pelicoinAddress);\r\n    }\r\n\r\n\r\n    /* PELICOIN TOKEN */\r\n\r\n        // Gets Token Address\r\n        function getTokenAddress() external view returns (address){\r\n            return address(pelicoin);\r\n        }\r\n\r\n\r\n    /* WALLET TRANSACTIONS */\r\n\r\n        // Transfers pelicoin to another account\r\n        function transferTokens(address to, uint256 amount) external whenNotPaused onlyOwner nonReentrant{\r\n         \r\n            require(to != address(0), \"PeliWallet: recipient cannot be zero address\");\r\n            require(amount > 0,       \"PeliWallet: amount must be greater than zero\");\r\n    \r\n            require(pelicoin.transfer(to, amount), \"PeliWallet: Transfer Failed\");\r\n     \r\n            transactionsManager.createTransaction(address(this), to, amount);\r\n        }\r\n\r\n        // Update transaction history\r\n        function addTransaction(address from, address to, uint256 amount) external \r\n        whenNotPaused onlyOwner nonReentrant{\r\n            transactionsManager.createTransaction(from, to, amount);\r\n        }\r\n\r\n        // Gets pelicoin balance\r\n        function getBalance() external view returns (uint256){\r\n            return pelicoin.balanceOf(address(this));\r\n        }\r\n\r\n\r\n    /* TRANSACTION INFORMATION */\r\n\r\n        // Gets the amount of transactions in the transaction history\r\n        function getTransactionsLength() external view returns (uint256){\r\n            return transactionsManager.getTransactionHistoryLength();\r\n        }\r\n\r\n        // Gets the transaction from the transaction history at location \"index\"\r\n         function getTransaction(uint256 index) external view returns (Transactions.Transaction memory){\r\n            return transactionsManager.getTransaction(index);\r\n        }\r\n\r\n        // Gets the transaction history\r\n        function getTransactionHistory() external view returns (Transactions.Transaction[] memory){\r\n            return transactionsManager.getTransactionHistory();\r\n        }\r\n\r\n    \r\n    /* PAUSE / UNPAUSE */\r\n\r\n        // Triggers stopped state if and only if the contract is not paused.\r\n        function pause()   external onlyOwner { _pause(); }\r\n\r\n        // Returns to normal state if and only if the contract is paused\r\n        function unpause() external onlyOwner { _unpause(); }\r\n}",
  "sourcePath": "C:\\Users\\user\\Downloads\\UWI-Wire-Smart-Contract\\contracts\\PeliWalletFacade.sol",
  "compiler": {
    "name": "solc",
    "version": "0.8.17+commit.8df45f5f.Emscripten.clang"
  },
  "schemaVersion": "3.4.11",
  "updatedAt": "2023-04-19T03:14:34.719Z",
  "devdoc": {
    "kind": "dev",
    "methods": {
      "owner()": {
        "details": "Returns the address of the current owner."
      },
      "paused()": {
        "details": "Returns true if the contract is paused, and false otherwise."
      },
      "renounceOwnership()": {
        "details": "Leaves the contract without owner. It will not be possible to call `onlyOwner` functions anymore. Can only be called by the current owner. NOTE: Renouncing ownership will leave the contract without an owner, thereby removing any functionality that is only available to the owner."
      },
      "transferOwnership(address)": {
        "details": "Transfers ownership of the contract to a new account (`newOwner`). Can only be called by the current owner."
      }
    },
    "version": 1
  },
  "userdoc": {
    "kind": "user",
    "methods": {},
    "version": 1
  }
}