{
  "contractName": "PeliWalletFacade",
  "abi": [
    {
      "inputs": [
        {
          "internalType": "address",
          "name": "pelicoinAddress",
          "type": "address"
        }
      ],
      "stateMutability": "nonpayable",
      "type": "constructor"
    },
    {
      "anonymous": false,
      "inputs": [
        {
          "indexed": true,
          "internalType": "address",
          "name": "previousOwner",
          "type": "address"
        },
        {
          "indexed": true,
          "internalType": "address",
          "name": "newOwner",
          "type": "address"
        }
      ],
      "name": "OwnershipTransferred",
      "type": "event"
    },
    {
      "anonymous": false,
      "inputs": [
        {
          "indexed": false,
          "internalType": "address",
          "name": "account",
          "type": "address"
        }
      ],
      "name": "Paused",
      "type": "event"
    },
    {
      "anonymous": false,
      "inputs": [
        {
          "indexed": false,
          "internalType": "address",
          "name": "account",
          "type": "address"
        }
      ],
      "name": "Unpaused",
      "type": "event"
    },
    {
      "inputs": [],
      "name": "owner",
      "outputs": [
        {
          "internalType": "address",
          "name": "",
          "type": "address"
        }
      ],
      "stateMutability": "view",
      "type": "function"
    },
    {
      "inputs": [],
      "name": "paused",
      "outputs": [
        {
          "internalType": "bool",
          "name": "",
          "type": "bool"
        }
      ],
      "stateMutability": "view",
      "type": "function"
    },
    {
      "inputs": [],
      "name": "renounceOwnership",
      "outputs": [],
      "stateMutability": "nonpayable",
      "type": "function"
    },
    {
      "inputs": [
        {
          "internalType": "address",
          "name": "newOwner",
          "type": "address"
        }
      ],
      "name": "transferOwnership",
      "outputs": [],
      "stateMutability": "nonpayable",
      "type": "function"
    },
    {
      "inputs": [],
      "name": "getTokenAddress",
      "outputs": [
        {
          "internalType": "address",
          "name": "",
          "type": "address"
        }
      ],
      "stateMutability": "view",
      "type": "function"
    },
    {
      "inputs": [
        {
          "internalType": "address",
          "name": "to",
          "type": "address"
        },
        {
          "internalType": "uint256",
          "name": "amount",
          "type": "uint256"
        }
      ],
      "name": "transferTokens",
      "outputs": [],
      "stateMutability": "nonpayable",
      "type": "function"
    },
    {
      "inputs": [
        {
          "internalType": "address",
          "name": "from",
          "type": "address"
        },
        {
          "internalType": "address",
          "name": "to",
          "type": "address"
        },
        {
          "internalType": "uint256",
          "name": "amount",
          "type": "uint256"
        }
      ],
      "name": "addTransaction",
      "outputs": [],
      "stateMutability": "nonpayable",
      "type": "function"
    },
    {
      "inputs": [
        {
          "internalType": "contract IERC20",
          "name": "token",
          "type": "address"
        },
        {
          "internalType": "uint256",
          "name": "amount",
          "type": "uint256"
        }
      ],
      "name": "withdrawTokens",
      "outputs": [],
      "stateMutability": "nonpayable",
      "type": "function"
    },
    {
      "inputs": [],
      "name": "getBalance",
      "outputs": [
        {
          "internalType": "uint256",
          "name": "",
          "type": "uint256"
        }
      ],
      "stateMutability": "view",
      "type": "function"
    },
    {
      "inputs": [],
      "name": "getTransactionsLength",
      "outputs": [
        {
          "internalType": "uint256",
          "name": "",
          "type": "uint256"
        }
      ],
      "stateMutability": "view",
      "type": "function"
    },
    {
      "inputs": [
        {
          "internalType": "uint256",
          "name": "index",
          "type": "uint256"
        }
      ],
      "name": "getTransaction",
      "outputs": [
        {
          "components": [
            {
              "internalType": "address",
              "name": "from",
              "type": "address"
            },
            {
              "internalType": "address",
              "name": "to",
              "type": "address"
            },
            {
              "internalType": "uint256",
              "name": "amount",
              "type": "uint256"
            },
            {
              "internalType": "uint256",
              "name": "timestamp",
              "type": "uint256"
            }
          ],
          "internalType": "struct Transactions.Transaction",
          "name": "",
          "type": "tuple"
        }
      ],
      "stateMutability": "view",
      "type": "function"
    },
    {
      "inputs": [],
      "name": "getTransactionHistory",
      "outputs": [
        {
          "components": [
            {
              "internalType": "address",
              "name": "from",
              "type": "address"
            },
            {
              "internalType": "address",
              "name": "to",
              "type": "address"
            },
            {
              "internalType": "uint256",
              "name": "amount",
              "type": "uint256"
            },
            {
              "internalType": "uint256",
              "name": "timestamp",
              "type": "uint256"
            }
          ],
          "internalType": "struct Transactions.Transaction[]",
          "name": "",
          "type": "tuple[]"
        }
      ],
      "stateMutability": "view",
      "type": "function"
    },
    {
      "inputs": [],
      "name": "pause",
      "outputs": [],
      "stateMutability": "nonpayable",
      "type": "function"
    },
    {
      "inputs": [],
      "name": "unpause",
      "outputs": [],
      "stateMutability": "nonpayable",
      "type": "function"
    }
  ],
  "bytecode": "0x60806040523480156200001157600080fd5b506040516200439f3803806200439f8339818101604052810190620000379190620002ea565b620000576200004b6200019860201b60201c565b620001a060201b60201c565b60008060146101000a81548160ff02191690831515021790555060018081905550604051620000869062000264565b604051809103906000f080158015620000a3573d6000803e3d6000fd5b50600260006101000a81548173ffffffffffffffffffffffffffffffffffffffff021916908373ffffffffffffffffffffffffffffffffffffffff160217905550604051620000f29062000272565b604051809103906000f0801580156200010f573d6000803e3d6000fd5b50600360006101000a81548173ffffffffffffffffffffffffffffffffffffffff021916908373ffffffffffffffffffffffffffffffffffffffff16021790555080600460006101000a81548173ffffffffffffffffffffffffffffffffffffffff021916908373ffffffffffffffffffffffffffffffffffffffff160217905550506200031c565b600033905090565b60008060009054906101000a900473ffffffffffffffffffffffffffffffffffffffff169050816000806101000a81548173ffffffffffffffffffffffffffffffffffffffff021916908373ffffffffffffffffffffffffffffffffffffffff1602179055508173ffffffffffffffffffffffffffffffffffffffff168173ffffffffffffffffffffffffffffffffffffffff167f8be0079c531659141344cd1fd0a4f28419497f9722a3daafe3b4186f6b6457e060405160405180910390a35050565b61120b8062001cf283390190565b6114a28062002efd83390190565b600080fd5b600073ffffffffffffffffffffffffffffffffffffffff82169050919050565b6000620002b28262000285565b9050919050565b620002c481620002a5565b8114620002d057600080fd5b50565b600081519050620002e481620002b9565b92915050565b60006020828403121562000303576200030262000280565b5b60006200031384828501620002d3565b91505092915050565b6119c6806200032c6000396000f3fe608060405234801561001057600080fd5b50600436106100ea5760003560e01c80638456cb591161008c578063bec3fa1711610066578063bec3fa17146101ef578063f21936271461020b578063f2fde38b14610229578063fe73b27f14610245576100ea565b80638456cb59146101a95780638da5cb5b146101b3578063b76d4fc3146101d1576100ea565b806333ea3dc8116100c857806333ea3dc8146101475780633f4ba83a146101775780635c975abb14610181578063715018a61461019f576100ea565b806306b091f9146100ef57806310fe9ae81461010b57806312065fe014610129575b600080fd5b61010960048036038101906101049190610de3565b610261565b005b610113610314565b6040516101209190610e32565b60405180910390f35b61013161033e565b60405161013e9190610e5c565b60405180910390f35b610161600480360381019061015c9190610e77565b610405565b60405161016e9190610f17565b60405180910390f35b61017f6104b0565b005b6101896104c2565b6040516101969190610f4d565b60405180910390f35b6101a76104d8565b005b6101b16104ec565b005b6101bb6104fe565b6040516101c89190610e32565b60405180910390f35b6101d9610527565b6040516101e6919061106c565b60405180910390f35b610209600480360381019061020491906110ba565b6105c4565b005b61021361080a565b6040516102209190610e5c565b60405180910390f35b610243600480360381019061023e91906110fa565b6108a2565b005b61025f600480360381019061025a9190611127565b610925565b005b6102696109db565b610271610a25565b610279610aa3565b600260009054906101000a900473ffffffffffffffffffffffffffffffffffffffff1673ffffffffffffffffffffffffffffffffffffffff1663f3fef3a383836040518363ffffffff1660e01b81526004016102d69291906111d9565b600060405180830381600087803b1580156102f057600080fd5b505af1158015610304573d6000803e3d6000fd5b50505050610310610af2565b5050565b6000600460009054906101000a900473ffffffffffffffffffffffffffffffffffffffff16905090565b6000600260009054906101000a900473ffffffffffffffffffffffffffffffffffffffff1673ffffffffffffffffffffffffffffffffffffffff1663f7888aec600460009054906101000a900473ffffffffffffffffffffffffffffffffffffffff16306040518363ffffffff1660e01b81526004016103bf929190611202565b602060405180830381865afa1580156103dc573d6000803e3d6000fd5b505050506040513d601f19601f820116820180604052508101906104009190611240565b905090565b61040d610cd5565b600360009054906101000a900473ffffffffffffffffffffffffffffffffffffffff1673ffffffffffffffffffffffffffffffffffffffff166333ea3dc8836040518263ffffffff1660e01b81526004016104689190610e5c565b608060405180830381865afa158015610485573d6000803e3d6000fd5b505050506040513d601f19601f820116820180604052508101906104a9919061138b565b9050919050565b6104b8610a25565b6104c0610afb565b565b60008060149054906101000a900460ff16905090565b6104e0610a25565b6104ea6000610b5d565b565b6104f4610a25565b6104fc610c21565b565b60008060009054906101000a900473ffffffffffffffffffffffffffffffffffffffff16905090565b6060600360009054906101000a900473ffffffffffffffffffffffffffffffffffffffff1673ffffffffffffffffffffffffffffffffffffffff1663b76d4fc36040518163ffffffff1660e01b8152600401600060405180830381865afa158015610596573d6000803e3d6000fd5b505050506040513d6000823e3d601f19601f820116820180604052508101906105bf9190611485565b905090565b6105cc6109db565b6105d4610a25565b6105dc610aa3565b600073ffffffffffffffffffffffffffffffffffffffff168273ffffffffffffffffffffffffffffffffffffffff160361064b576040517f08c379a000000000000000000000000000000000000000000000000000000000815260040161064290611551565b60405180910390fd5b6000811161068e576040517f08c379a0000000000000000000000000000000000000000000000000000000008152600401610685906115e3565b60405180910390fd5b600460009054906101000a900473ffffffffffffffffffffffffffffffffffffffff1673ffffffffffffffffffffffffffffffffffffffff1663a9059cbb83836040518363ffffffff1660e01b81526004016106eb929190611603565b6020604051808303816000875af115801561070a573d6000803e3d6000fd5b505050506040513d601f19601f8201168201806040525081019061072e9190611658565b61076d576040517f08c379a0000000000000000000000000000000000000000000000000000000008152600401610764906116f7565b60405180910390fd5b600360009054906101000a900473ffffffffffffffffffffffffffffffffffffffff1673ffffffffffffffffffffffffffffffffffffffff16630b826afa3084846040518463ffffffff1660e01b81526004016107cc93929190611717565b600060405180830381600087803b1580156107e657600080fd5b505af11580156107fa573d6000803e3d6000fd5b50505050610806610af2565b5050565b6000600360009054906101000a900473ffffffffffffffffffffffffffffffffffffffff1673ffffffffffffffffffffffffffffffffffffffff16639f71c3c96040518163ffffffff1660e01b8152600401602060405180830381865afa158015610879573d6000803e3d6000fd5b505050506040513d601f19601f8201168201806040525081019061089d9190611240565b905090565b6108aa610a25565b600073ffffffffffffffffffffffffffffffffffffffff168173ffffffffffffffffffffffffffffffffffffffff1603610919576040517f08c379a0000000000000000000000000000000000000000000000000000000008152600401610910906117c0565b60405180910390fd5b61092281610b5d565b50565b61092d6109db565b610935610a25565b61093d610aa3565b600360009054906101000a900473ffffffffffffffffffffffffffffffffffffffff1673ffffffffffffffffffffffffffffffffffffffff16630b826afa8484846040518463ffffffff1660e01b815260040161099c93929190611717565b600060405180830381600087803b1580156109b657600080fd5b505af11580156109ca573d6000803e3d6000fd5b505050506109d6610af2565b505050565b6109e36104c2565b15610a23576040517f08c379a0000000000000000000000000000000000000000000000000000000008152600401610a1a9061182c565b60405180910390fd5b565b610a2d610c84565b73ffffffffffffffffffffffffffffffffffffffff16610a4b6104fe565b73ffffffffffffffffffffffffffffffffffffffff1614610aa1576040517f08c379a0000000000000000000000000000000000000000000000000000000008152600401610a9890611898565b60405180910390fd5b565b600260015403610ae8576040517f08c379a0000000000000000000000000000000000000000000000000000000008152600401610adf90611904565b60405180910390fd5b6002600181905550565b60018081905550565b610b03610c8c565b60008060146101000a81548160ff0219169083151502179055507f5db9ee0a495bf2e6ff9c91a7834c1ba4fdd244a5e8aa4e537bd38aeae4b073aa610b46610c84565b604051610b539190610e32565b60405180910390a1565b60008060009054906101000a900473ffffffffffffffffffffffffffffffffffffffff169050816000806101000a81548173ffffffffffffffffffffffffffffffffffffffff021916908373ffffffffffffffffffffffffffffffffffffffff1602179055508173ffffffffffffffffffffffffffffffffffffffff168173ffffffffffffffffffffffffffffffffffffffff167f8be0079c531659141344cd1fd0a4f28419497f9722a3daafe3b4186f6b6457e060405160405180910390a35050565b610c296109db565b6001600060146101000a81548160ff0219169083151502179055507f62e78cea01bee320cd4e420270b5ea74000d11b0c9f74754ebdbfc544b05a258610c6d610c84565b604051610c7a9190610e32565b60405180910390a1565b600033905090565b610c946104c2565b610cd3576040517f08c379a0000000000000000000000000000000000000000000000000000000008152600401610cca90611970565b60405180910390fd5b565b6040518060800160405280600073ffffffffffffffffffffffffffffffffffffffff168152602001600073ffffffffffffffffffffffffffffffffffffffff16815260200160008152602001600081525090565b6000604051905090565b600080fd5b600080fd5b600073ffffffffffffffffffffffffffffffffffffffff82169050919050565b6000610d6882610d3d565b9050919050565b6000610d7a82610d5d565b9050919050565b610d8a81610d6f565b8114610d9557600080fd5b50565b600081359050610da781610d81565b92915050565b6000819050919050565b610dc081610dad565b8114610dcb57600080fd5b50565b600081359050610ddd81610db7565b92915050565b60008060408385031215610dfa57610df9610d33565b5b6000610e0885828601610d98565b9250506020610e1985828601610dce565b9150509250929050565b610e2c81610d5d565b82525050565b6000602082019050610e476000830184610e23565b92915050565b610e5681610dad565b82525050565b6000602082019050610e716000830184610e4d565b92915050565b600060208284031215610e8d57610e8c610d33565b5b6000610e9b84828501610dce565b91505092915050565b610ead81610d5d565b82525050565b610ebc81610dad565b82525050565b608082016000820151610ed86000850182610ea4565b506020820151610eeb6020850182610ea4565b506040820151610efe6040850182610eb3565b506060820151610f116060850182610eb3565b50505050565b6000608082019050610f2c6000830184610ec2565b92915050565b60008115159050919050565b610f4781610f32565b82525050565b6000602082019050610f626000830184610f3e565b92915050565b600081519050919050565b600082825260208201905092915050565b6000819050602082019050919050565b608082016000820151610faa6000850182610ea4565b506020820151610fbd6020850182610ea4565b506040820151610fd06040850182610eb3565b506060820151610fe36060850182610eb3565b50505050565b6000610ff58383610f94565b60808301905092915050565b6000602082019050919050565b600061101982610f68565b6110238185610f73565b935061102e83610f84565b8060005b8381101561105f5781516110468882610fe9565b975061105183611001565b925050600181019050611032565b5085935050505092915050565b60006020820190508181036000830152611086818461100e565b905092915050565b61109781610d5d565b81146110a257600080fd5b50565b6000813590506110b48161108e565b92915050565b600080604083850312156110d1576110d0610d33565b5b60006110df858286016110a5565b92505060206110f085828601610dce565b9150509250929050565b6000602082840312156111105761110f610d33565b5b600061111e848285016110a5565b91505092915050565b6000806000606084860312156111405761113f610d33565b5b600061114e868287016110a5565b935050602061115f868287016110a5565b925050604061117086828701610dce565b9150509250925092565b6000819050919050565b600061119f61119a61119584610d3d565b61117a565b610d3d565b9050919050565b60006111b182611184565b9050919050565b60006111c3826111a6565b9050919050565b6111d3816111b8565b82525050565b60006040820190506111ee60008301856111ca565b6111fb6020830184610e4d565b9392505050565b600060408201905061121760008301856111ca565b6112246020830184610e23565b9392505050565b60008151905061123a81610db7565b92915050565b60006020828403121561125657611255610d33565b5b60006112648482850161122b565b91505092915050565b600080fd5b6000601f19601f8301169050919050565b7f4e487b7100000000000000000000000000000000000000000000000000000000600052604160045260246000fd5b6112bb82611272565b810181811067ffffffffffffffff821117156112da576112d9611283565b5b80604052505050565b60006112ed610d29565b90506112f982826112b2565b919050565b60008151905061130d8161108e565b92915050565b6000608082840312156113295761132861126d565b5b61133360806112e3565b90506000611343848285016112fe565b6000830152506020611357848285016112fe565b602083015250604061136b8482850161122b565b604083015250606061137f8482850161122b565b60608301525092915050565b6000608082840312156113a1576113a0610d33565b5b60006113af84828501611313565b91505092915050565b600080fd5b600067ffffffffffffffff8211156113d8576113d7611283565b5b602082029050602081019050919050565b600080fd5b60006114016113fc846113bd565b6112e3565b90508083825260208201905060808402830185811115611424576114236113e9565b5b835b8181101561144d57806114398882611313565b845260208401935050608081019050611426565b5050509392505050565b600082601f83011261146c5761146b6113b8565b5b815161147c8482602086016113ee565b91505092915050565b60006020828403121561149b5761149a610d33565b5b600082015167ffffffffffffffff8111156114b9576114b8610d38565b5b6114c584828501611457565b91505092915050565b600082825260208201905092915050565b7f50656c6957616c6c65743a20726563697069656e742063616e6e6f742062652060008201527f7a65726f20616464726573730000000000000000000000000000000000000000602082015250565b600061153b602c836114ce565b9150611546826114df565b604082019050919050565b6000602082019050818103600083015261156a8161152e565b9050919050565b7f50656c6957616c6c65743a20616d6f756e74206d75737420626520677265617460008201527f6572207468616e207a65726f0000000000000000000000000000000000000000602082015250565b60006115cd602c836114ce565b91506115d882611571565b604082019050919050565b600060208201905081810360008301526115fc816115c0565b9050919050565b60006040820190506116186000830185610e23565b6116256020830184610e4d565b9392505050565b61163581610f32565b811461164057600080fd5b50565b6000815190506116528161162c565b92915050565b60006020828403121561166e5761166d610d33565b5b600061167c84828501611643565b91505092915050565b7f50656c6957616c6c65744661636164653a205472616e73666572204661696c6560008201527f6400000000000000000000000000000000000000000000000000000000000000602082015250565b60006116e16021836114ce565b91506116ec82611685565b604082019050919050565b60006020820190508181036000830152611710816116d4565b9050919050565b600060608201905061172c6000830186610e23565b6117396020830185610e23565b6117466040830184610e4d565b949350505050565b7f4f776e61626c653a206e6577206f776e657220697320746865207a65726f206160008201527f6464726573730000000000000000000000000000000000000000000000000000602082015250565b60006117aa6026836114ce565b91506117b58261174e565b604082019050919050565b600060208201905081810360008301526117d98161179d565b9050919050565b7f5061757361626c653a2070617573656400000000000000000000000000000000600082015250565b60006118166010836114ce565b9150611821826117e0565b602082019050919050565b6000602082019050818103600083015261184581611809565b9050919050565b7f4f776e61626c653a2063616c6c6572206973206e6f7420746865206f776e6572600082015250565b60006118826020836114ce565b915061188d8261184c565b602082019050919050565b600060208201905081810360008301526118b181611875565b9050919050565b7f5265656e7472616e637947756172643a207265656e7472616e742063616c6c00600082015250565b60006118ee601f836114ce565b91506118f9826118b8565b602082019050919050565b6000602082019050818103600083015261191d816118e1565b9050919050565b7f5061757361626c653a206e6f7420706175736564000000000000000000000000600082015250565b600061195a6014836114ce565b915061196582611924565b602082019050919050565b600060208201905081810360008301526119898161194d565b905091905056fea2646970667358221220886a5b9960c51dab7604ea4b543b6e7618ff421a1ba8d9c8044ba95356c7a53d64736f6c63430008110033608060405234801561001057600080fd5b5061002d61002261004c60201b60201c565b61005460201b60201c565b60008060146101000a81548160ff021916908315150217905550610118565b600033905090565b60008060009054906101000a900473ffffffffffffffffffffffffffffffffffffffff169050816000806101000a81548173ffffffffffffffffffffffffffffffffffffffff021916908373ffffffffffffffffffffffffffffffffffffffff1602179055508173ffffffffffffffffffffffffffffffffffffffff168173ffffffffffffffffffffffffffffffffffffffff167f8be0079c531659141344cd1fd0a4f28419497f9722a3daafe3b4186f6b6457e060405160405180910390a35050565b6110e4806101276000396000f3fe608060405234801561001057600080fd5b50600436106100935760003560e01c80638da5cb5b116100665780638da5cb5b146100d4578063a64b6e5f146100f2578063f2fde38b1461010e578063f3fef3a31461012a578063f7888aec1461014657610093565b80633f4ba83a146100985780635c975abb146100a2578063715018a6146100c05780638456cb59146100ca575b600080fd5b6100a0610176565b005b6100aa610188565b6040516100b7919061098a565b60405180910390f35b6100c861019e565b005b6100d26101b2565b005b6100dc6101c4565b6040516100e991906109e6565b60405180910390f35b61010c60048036038101906101079190610aa6565b6101ed565b005b61012860048036038101906101239190610af9565b610440565b005b610144600480360381019061013f9190610b26565b6104c3565b005b610160600480360381019061015b9190610b66565b610649565b60405161016d9190610bb5565b60405180910390f35b61017e6106cd565b61018661074b565b565b60008060149054906101000a900460ff16905090565b6101a66106cd565b6101b060006107ad565b565b6101ba6106cd565b6101c2610871565b565b60008060009054906101000a900473ffffffffffffffffffffffffffffffffffffffff16905090565b6101f56108d4565b6101fd6106cd565b600073ffffffffffffffffffffffffffffffffffffffff168273ffffffffffffffffffffffffffffffffffffffff160361026c576040517f08c379a000000000000000000000000000000000000000000000000000000000815260040161026390610c53565b60405180910390fd5b600081116102af576040517f08c379a00000000000000000000000000000000000000000000000000000000081526004016102a690610ce5565b60405180910390fd5b8273ffffffffffffffffffffffffffffffffffffffff166323b872dd3384846040518463ffffffff1660e01b81526004016102ec93929190610d05565b6020604051808303816000875af115801561030b573d6000803e3d6000fd5b505050506040513d601f19601f8201168201806040525081019061032f9190610d68565b508273ffffffffffffffffffffffffffffffffffffffff1663a9059cbb83836040518363ffffffff1660e01b815260040161036b929190610d95565b6020604051808303816000875af115801561038a573d6000803e3d6000fd5b505050506040513d601f19601f820116820180604052508101906103ae9190610d68565b6103ed576040517f08c379a00000000000000000000000000000000000000000000000000000000081526004016103e490610e0a565b60405180910390fd5b8173ffffffffffffffffffffffffffffffffffffffff167fe6d858f14d755446648a6e0c8ab8b5a0f58ccc7920d4c910b0454e4dcd869af0826040516104339190610bb5565b60405180910390a2505050565b6104486106cd565b600073ffffffffffffffffffffffffffffffffffffffff168173ffffffffffffffffffffffffffffffffffffffff16036104b7576040517f08c379a00000000000000000000000000000000000000000000000000000000081526004016104ae90610e9c565b60405180910390fd5b6104c0816107ad565b50565b6104cb6108d4565b6104d36106cd565b8173ffffffffffffffffffffffffffffffffffffffff166370a08231336040518263ffffffff1660e01b815260040161050c91906109e6565b602060405180830381865afa158015610529573d6000803e3d6000fd5b505050506040513d601f19601f8201168201806040525081019061054d9190610ed1565b81111561058f576040517f08c379a000000000000000000000000000000000000000000000000000000000815260040161058690610f4a565b60405180910390fd5b8173ffffffffffffffffffffffffffffffffffffffff1663a9059cbb33836040518363ffffffff1660e01b81526004016105ca929190610d95565b6020604051808303816000875af11580156105e9573d6000803e3d6000fd5b505050506040513d601f19601f8201168201806040525081019061060d9190610d68565b507f430648de173157e069201c943adb2d4e340e7cf5b27b1b09c9cb852f03d63b568160405161063d9190610bb5565b60405180910390a15050565b60008273ffffffffffffffffffffffffffffffffffffffff166370a08231836040518263ffffffff1660e01b815260040161068491906109e6565b602060405180830381865afa1580156106a1573d6000803e3d6000fd5b505050506040513d601f19601f820116820180604052508101906106c59190610ed1565b905092915050565b6106d561091e565b73ffffffffffffffffffffffffffffffffffffffff166106f36101c4565b73ffffffffffffffffffffffffffffffffffffffff1614610749576040517f08c379a000000000000000000000000000000000000000000000000000000000815260040161074090610fb6565b60405180910390fd5b565b610753610926565b60008060146101000a81548160ff0219169083151502179055507f5db9ee0a495bf2e6ff9c91a7834c1ba4fdd244a5e8aa4e537bd38aeae4b073aa61079661091e565b6040516107a391906109e6565b60405180910390a1565b60008060009054906101000a900473ffffffffffffffffffffffffffffffffffffffff169050816000806101000a81548173ffffffffffffffffffffffffffffffffffffffff021916908373ffffffffffffffffffffffffffffffffffffffff1602179055508173ffffffffffffffffffffffffffffffffffffffff168173ffffffffffffffffffffffffffffffffffffffff167f8be0079c531659141344cd1fd0a4f28419497f9722a3daafe3b4186f6b6457e060405160405180910390a35050565b6108796108d4565b6001600060146101000a81548160ff0219169083151502179055507f62e78cea01bee320cd4e420270b5ea74000d11b0c9f74754ebdbfc544b05a2586108bd61091e565b6040516108ca91906109e6565b60405180910390a1565b6108dc610188565b1561091c576040517f08c379a000000000000000000000000000000000000000000000000000000000815260040161091390611022565b60405180910390fd5b565b600033905090565b61092e610188565b61096d576040517f08c379a00000000000000000000000000000000000000000000000000000000081526004016109649061108e565b60405180910390fd5b565b60008115159050919050565b6109848161096f565b82525050565b600060208201905061099f600083018461097b565b92915050565b600073ffffffffffffffffffffffffffffffffffffffff82169050919050565b60006109d0826109a5565b9050919050565b6109e0816109c5565b82525050565b60006020820190506109fb60008301846109d7565b92915050565b600080fd5b6000610a11826109c5565b9050919050565b610a2181610a06565b8114610a2c57600080fd5b50565b600081359050610a3e81610a18565b92915050565b610a4d816109c5565b8114610a5857600080fd5b50565b600081359050610a6a81610a44565b92915050565b6000819050919050565b610a8381610a70565b8114610a8e57600080fd5b50565b600081359050610aa081610a7a565b92915050565b600080600060608486031215610abf57610abe610a01565b5b6000610acd86828701610a2f565b9350506020610ade86828701610a5b565b9250506040610aef86828701610a91565b9150509250925092565b600060208284031215610b0f57610b0e610a01565b5b6000610b1d84828501610a5b565b91505092915050565b60008060408385031215610b3d57610b3c610a01565b5b6000610b4b85828601610a2f565b9250506020610b5c85828601610a91565b9150509250929050565b60008060408385031215610b7d57610b7c610a01565b5b6000610b8b85828601610a2f565b9250506020610b9c85828601610a5b565b9150509250929050565b610baf81610a70565b82525050565b6000602082019050610bca6000830184610ba6565b92915050565b600082825260208201905092915050565b7f50656c6957616c6c65743a20726563697069656e742063616e6e6f742062652060008201527f7a65726f20616464726573730000000000000000000000000000000000000000602082015250565b6000610c3d602c83610bd0565b9150610c4882610be1565b604082019050919050565b60006020820190508181036000830152610c6c81610c30565b9050919050565b7f50656c6957616c6c65743a20616d6f756e74206d75737420626520677265617460008201527f6572207468616e207a65726f0000000000000000000000000000000000000000602082015250565b6000610ccf602c83610bd0565b9150610cda82610c73565b604082019050919050565b60006020820190508181036000830152610cfe81610cc2565b9050919050565b6000606082019050610d1a60008301866109d7565b610d2760208301856109d7565b610d346040830184610ba6565b949350505050565b610d458161096f565b8114610d5057600080fd5b50565b600081519050610d6281610d3c565b92915050565b600060208284031215610d7e57610d7d610a01565b5b6000610d8c84828501610d53565b91505092915050565b6000604082019050610daa60008301856109d7565b610db76020830184610ba6565b9392505050565b7f50656c6957616c6c65743a205472616e73666572204661696c65640000000000600082015250565b6000610df4601b83610bd0565b9150610dff82610dbe565b602082019050919050565b60006020820190508181036000830152610e2381610de7565b9050919050565b7f4f776e61626c653a206e6577206f776e657220697320746865207a65726f206160008201527f6464726573730000000000000000000000000000000000000000000000000000602082015250565b6000610e86602683610bd0565b9150610e9182610e2a565b604082019050919050565b60006020820190508181036000830152610eb581610e79565b9050919050565b600081519050610ecb81610a7a565b92915050565b600060208284031215610ee757610ee6610a01565b5b6000610ef584828501610ebc565b91505092915050565b7f50656c6957616c6c65743a20496e73756666696369656e742062616c616e6365600082015250565b6000610f34602083610bd0565b9150610f3f82610efe565b602082019050919050565b60006020820190508181036000830152610f6381610f27565b9050919050565b7f4f776e61626c653a2063616c6c6572206973206e6f7420746865206f776e6572600082015250565b6000610fa0602083610bd0565b9150610fab82610f6a565b602082019050919050565b60006020820190508181036000830152610fcf81610f93565b9050919050565b7f5061757361626c653a2070617573656400000000000000000000000000000000600082015250565b600061100c601083610bd0565b915061101782610fd6565b602082019050919050565b6000602082019050818103600083015261103b81610fff565b9050919050565b7f5061757361626c653a206e6f7420706175736564000000000000000000000000600082015250565b6000611078601483610bd0565b915061108382611042565b602082019050919050565b600060208201905081810360008301526110a78161106b565b905091905056fea2646970667358221220a18623e5963908d45ae68ed94e3c7583469466bec603b0a7248da86f4910fa9964736f6c63430008110033608060405234801561001057600080fd5b5061002d61002261004c60201b60201c565b61005460201b60201c565b60008060146101000a81548160ff021916908315150217905550610118565b600033905090565b60008060009054906101000a900473ffffffffffffffffffffffffffffffffffffffff169050816000806101000a81548173ffffffffffffffffffffffffffffffffffffffff021916908373ffffffffffffffffffffffffffffffffffffffff1602179055508173ffffffffffffffffffffffffffffffffffffffff168173ffffffffffffffffffffffffffffffffffffffff167f8be0079c531659141344cd1fd0a4f28419497f9722a3daafe3b4186f6b6457e060405160405180910390a35050565b61137b806101276000396000f3fe608060405234801561001057600080fd5b506004361061009e5760003560e01c80638456cb59116100665780638456cb59146101215780638da5cb5b1461012b5780639f71c3c914610149578063b76d4fc314610167578063f2fde38b146101855761009e565b80630b826afa146100a357806333ea3dc8146100bf5780633f4ba83a146100ef5780635c975abb146100f9578063715018a614610117575b600080fd5b6100bd60048036038101906100b89190610c22565b6101a1565b005b6100d960048036038101906100d49190610c75565b610436565b6040516100e69190610d15565b60405180910390f35b6100f76105f3565b005b610101610605565b60405161010e9190610d4b565b60405180910390f35b61011f61061b565b005b61012961062f565b005b610133610641565b6040516101409190610d75565b60405180910390f35b61015161066a565b60405161015e9190610d9f565b60405180910390f35b61016f6106b4565b60405161017c9190610ebe565b60405180910390f35b61019f600480360381019061019a9190610ee0565b610810565b005b6101a9610893565b6101b16108dd565b600073ffffffffffffffffffffffffffffffffffffffff168373ffffffffffffffffffffffffffffffffffffffff1603610220576040517f08c379a000000000000000000000000000000000000000000000000000000000815260040161021790610f90565b60405180910390fd5b600073ffffffffffffffffffffffffffffffffffffffff168273ffffffffffffffffffffffffffffffffffffffff160361028f576040517f08c379a000000000000000000000000000000000000000000000000000000000815260040161028690611022565b60405180910390fd5b600081116102d2576040517f08c379a00000000000000000000000000000000000000000000000000000000081526004016102c9906110b4565b60405180910390fd5b600060405180608001604052808573ffffffffffffffffffffffffffffffffffffffff1681526020018473ffffffffffffffffffffffffffffffffffffffff168152602001838152602001428152509050600160003373ffffffffffffffffffffffffffffffffffffffff1673ffffffffffffffffffffffffffffffffffffffff16815260200190815260200160002081908060018154018082558091505060019003906000526020600020906004020160009091909190915060008201518160000160006101000a81548173ffffffffffffffffffffffffffffffffffffffff021916908373ffffffffffffffffffffffffffffffffffffffff16021790555060208201518160010160006101000a81548173ffffffffffffffffffffffffffffffffffffffff021916908373ffffffffffffffffffffffffffffffffffffffff1602179055506040820151816002015560608201518160030155505050505050565b61043e610b35565b600160003373ffffffffffffffffffffffffffffffffffffffff1673ffffffffffffffffffffffffffffffffffffffff1681526020019081526020016000208054905082106104c2576040517f08c379a00000000000000000000000000000000000000000000000000000000081526004016104b990611120565b60405180910390fd5b600160003373ffffffffffffffffffffffffffffffffffffffff1673ffffffffffffffffffffffffffffffffffffffff168152602001908152602001600020828154811061051357610512611140565b5b90600052602060002090600402016040518060800160405290816000820160009054906101000a900473ffffffffffffffffffffffffffffffffffffffff1673ffffffffffffffffffffffffffffffffffffffff1673ffffffffffffffffffffffffffffffffffffffff1681526020016001820160009054906101000a900473ffffffffffffffffffffffffffffffffffffffff1673ffffffffffffffffffffffffffffffffffffffff1673ffffffffffffffffffffffffffffffffffffffff168152602001600282015481526020016003820154815250509050919050565b6105fb6108dd565b61060361095b565b565b60008060149054906101000a900460ff16905090565b6106236108dd565b61062d60006109bd565b565b6106376108dd565b61063f610a81565b565b60008060009054906101000a900473ffffffffffffffffffffffffffffffffffffffff16905090565b6000600160003373ffffffffffffffffffffffffffffffffffffffff1673ffffffffffffffffffffffffffffffffffffffff16815260200190815260200160002080549050905090565b6060600160003373ffffffffffffffffffffffffffffffffffffffff1673ffffffffffffffffffffffffffffffffffffffff168152602001908152602001600020805480602002602001604051908101604052809291908181526020016000905b8282101561080757838290600052602060002090600402016040518060800160405290816000820160009054906101000a900473ffffffffffffffffffffffffffffffffffffffff1673ffffffffffffffffffffffffffffffffffffffff1673ffffffffffffffffffffffffffffffffffffffff1681526020016001820160009054906101000a900473ffffffffffffffffffffffffffffffffffffffff1673ffffffffffffffffffffffffffffffffffffffff1673ffffffffffffffffffffffffffffffffffffffff1681526020016002820154815260200160038201548152505081526020019060010190610715565b50505050905090565b6108186108dd565b600073ffffffffffffffffffffffffffffffffffffffff168173ffffffffffffffffffffffffffffffffffffffff1603610887576040517f08c379a000000000000000000000000000000000000000000000000000000000815260040161087e906111e1565b60405180910390fd5b610890816109bd565b50565b61089b610605565b156108db576040517f08c379a00000000000000000000000000000000000000000000000000000000081526004016108d29061124d565b60405180910390fd5b565b6108e5610ae4565b73ffffffffffffffffffffffffffffffffffffffff16610903610641565b73ffffffffffffffffffffffffffffffffffffffff1614610959576040517f08c379a0000000000000000000000000000000000000000000000000000000008152600401610950906112b9565b60405180910390fd5b565b610963610aec565b60008060146101000a81548160ff0219169083151502179055507f5db9ee0a495bf2e6ff9c91a7834c1ba4fdd244a5e8aa4e537bd38aeae4b073aa6109a6610ae4565b6040516109b39190610d75565b60405180910390a1565b60008060009054906101000a900473ffffffffffffffffffffffffffffffffffffffff169050816000806101000a81548173ffffffffffffffffffffffffffffffffffffffff021916908373ffffffffffffffffffffffffffffffffffffffff1602179055508173ffffffffffffffffffffffffffffffffffffffff168173ffffffffffffffffffffffffffffffffffffffff167f8be0079c531659141344cd1fd0a4f28419497f9722a3daafe3b4186f6b6457e060405160405180910390a35050565b610a89610893565b6001600060146101000a81548160ff0219169083151502179055507f62e78cea01bee320cd4e420270b5ea74000d11b0c9f74754ebdbfc544b05a258610acd610ae4565b604051610ada9190610d75565b60405180910390a1565b600033905090565b610af4610605565b610b33576040517f08c379a0000000000000000000000000000000000000000000000000000000008152600401610b2a90611325565b60405180910390fd5b565b6040518060800160405280600073ffffffffffffffffffffffffffffffffffffffff168152602001600073ffffffffffffffffffffffffffffffffffffffff16815260200160008152602001600081525090565b600080fd5b600073ffffffffffffffffffffffffffffffffffffffff82169050919050565b6000610bb982610b8e565b9050919050565b610bc981610bae565b8114610bd457600080fd5b50565b600081359050610be681610bc0565b92915050565b6000819050919050565b610bff81610bec565b8114610c0a57600080fd5b50565b600081359050610c1c81610bf6565b92915050565b600080600060608486031215610c3b57610c3a610b89565b5b6000610c4986828701610bd7565b9350506020610c5a86828701610bd7565b9250506040610c6b86828701610c0d565b9150509250925092565b600060208284031215610c8b57610c8a610b89565b5b6000610c9984828501610c0d565b91505092915050565b610cab81610bae565b82525050565b610cba81610bec565b82525050565b608082016000820151610cd66000850182610ca2565b506020820151610ce96020850182610ca2565b506040820151610cfc6040850182610cb1565b506060820151610d0f6060850182610cb1565b50505050565b6000608082019050610d2a6000830184610cc0565b92915050565b60008115159050919050565b610d4581610d30565b82525050565b6000602082019050610d606000830184610d3c565b92915050565b610d6f81610bae565b82525050565b6000602082019050610d8a6000830184610d66565b92915050565b610d9981610bec565b82525050565b6000602082019050610db46000830184610d90565b92915050565b600081519050919050565b600082825260208201905092915050565b6000819050602082019050919050565b608082016000820151610dfc6000850182610ca2565b506020820151610e0f6020850182610ca2565b506040820151610e226040850182610cb1565b506060820151610e356060850182610cb1565b50505050565b6000610e478383610de6565b60808301905092915050565b6000602082019050919050565b6000610e6b82610dba565b610e758185610dc5565b9350610e8083610dd6565b8060005b83811015610eb1578151610e988882610e3b565b9750610ea383610e53565b925050600181019050610e84565b5085935050505092915050565b60006020820190508181036000830152610ed88184610e60565b905092915050565b600060208284031215610ef657610ef5610b89565b5b6000610f0484828501610bd7565b91505092915050565b600082825260208201905092915050565b7f5472616e73616374696f6e733a2073656e6465722063616e6e6f74206265207a60008201527f65726f2061646472657373000000000000000000000000000000000000000000602082015250565b6000610f7a602b83610f0d565b9150610f8582610f1e565b604082019050919050565b60006020820190508181036000830152610fa981610f6d565b9050919050565b7f5472616e73616374696f6e733a20726563697069656e742063616e6e6f74206260008201527f65207a65726f2061646472657373000000000000000000000000000000000000602082015250565b600061100c602e83610f0d565b915061101782610fb0565b604082019050919050565b6000602082019050818103600083015261103b81610fff565b9050919050565b7f5472616e73616374696f6e733a20616d6f756e74206d7573742062652067726560008201527f61746572207468616e207a65726f000000000000000000000000000000000000602082015250565b600061109e602e83610f0d565b91506110a982611042565b604082019050919050565b600060208201905081810360008301526110cd81611091565b9050919050565b7f5472616e73616374696f6e733a20696e64657820746f6f206869676800000000600082015250565b600061110a601c83610f0d565b9150611115826110d4565b602082019050919050565b60006020820190508181036000830152611139816110fd565b9050919050565b7f4e487b7100000000000000000000000000000000000000000000000000000000600052603260045260246000fd5b7f4f776e61626c653a206e6577206f776e657220697320746865207a65726f206160008201527f6464726573730000000000000000000000000000000000000000000000000000602082015250565b60006111cb602683610f0d565b91506111d68261116f565b604082019050919050565b600060208201905081810360008301526111fa816111be565b9050919050565b7f5061757361626c653a2070617573656400000000000000000000000000000000600082015250565b6000611237601083610f0d565b915061124282611201565b602082019050919050565b600060208201905081810360008301526112668161122a565b9050919050565b7f4f776e61626c653a2063616c6c6572206973206e6f7420746865206f776e6572600082015250565b60006112a3602083610f0d565b91506112ae8261126d565b602082019050919050565b600060208201905081810360008301526112d281611296565b9050919050565b7f5061757361626c653a206e6f7420706175736564000000000000000000000000600082015250565b600061130f601483610f0d565b915061131a826112d9565b602082019050919050565b6000602082019050818103600083015261133e81611302565b905091905056fea26469706673582212202c29b49eb1d71238b7ee59f0dba799c2ee2774979336ff665dac87d32310140864736f6c63430008110033",
  "immutableReferences": {},
  "source": "// SPDX-License-Identifier: MIT\r\npragma solidity ^0.8.17;\r\n\r\nimport \"@openzeppelin/contracts/security/ReentrancyGuard.sol\";\r\nimport \"@openzeppelin/contracts/security/Pausable.sol\";\r\nimport \"@openzeppelin/contracts/access/Ownable.sol\";\r\n\r\nimport \"./PeliWallet.sol\";\r\nimport \"./Transactions.sol\";\r\n\r\n\r\ncontract PeliWalletFacade is Ownable, Pausable, ReentrancyGuard{\r\n   \r\n    PeliWallet private peliWallet;\r\n    Transactions private transactionsManager;\r\n    IERC20 private pelicoin; \r\n\r\n\r\n    constructor(address pelicoinAddress){\r\n        peliWallet = new PeliWallet();\r\n        transactionsManager = new Transactions();\r\n        pelicoin = IERC20(pelicoinAddress);\r\n    }\r\n\r\n\r\n    /* PELICOIN TOKEN */\r\n\r\n        // Gets Token Address\r\n        function getTokenAddress() external view returns (address){\r\n            return address(pelicoin);\r\n        }\r\n\r\n\r\n    /* WALLET TRANSACTIONS */\r\n\r\n        // Transfers pelicoin to another account\r\n        function transferTokens(address to, uint256 amount) external whenNotPaused onlyOwner nonReentrant{\r\n         \r\n            require(to != address(0), \"PeliWallet: recipient cannot be zero address\");\r\n            require(amount > 0,       \"PeliWallet: amount must be greater than zero\");\r\n            \r\n            require(pelicoin.transfer(to, amount), \"PeliWalletFacade: Transfer Failed\");\r\n            // peliWallet.transferTokens(pelicoin, to, amount);\r\n            transactionsManager.createTransaction(address(this), to, amount);\r\n        }\r\n\r\n        // Update transaction history\r\n        function addTransaction(address from, address to, uint256 amount) external \r\n        whenNotPaused onlyOwner nonReentrant{\r\n            transactionsManager.createTransaction(from, to, amount);\r\n        }\r\n\r\n        // Withdraws ERC20 tokens to owner account\r\n        function withdrawTokens(IERC20 token, uint256 amount) public whenNotPaused onlyOwner nonReentrant{\r\n            peliWallet.withdraw(token, amount);\r\n        }\r\n\r\n        // Gets pelicoin balance\r\n        function getBalance() external view returns (uint256){\r\n            return peliWallet.balanceOf(pelicoin, address(this));\r\n        }\r\n\r\n\r\n    /* TRANSACTION INFORMATION */\r\n\r\n        // Gets the amount of transactions in the transaction history\r\n        function getTransactionsLength() external view returns (uint256){\r\n            return transactionsManager.getTransactionHistoryLength();\r\n        }\r\n\r\n        // Gets the transaction from the transaction history at location \"index\"\r\n         function getTransaction(uint256 index) external view returns (Transactions.Transaction memory){\r\n            return transactionsManager.getTransaction(index);\r\n        }\r\n\r\n        // Gets the transaction history\r\n        function getTransactionHistory() external view returns (Transactions.Transaction[] memory){\r\n            return transactionsManager.getTransactionHistory();\r\n        }\r\n\r\n    \r\n    /* PAUSE / UNPAUSE */\r\n\r\n        // Triggers stopped state if and only if the contract is not paused.\r\n        function pause()   external onlyOwner { _pause(); }\r\n\r\n        // Returns to normal state if and only if the contract is paused\r\n        function unpause() external onlyOwner { _unpause(); }\r\n}",
  "sourcePath": "C:\\Users\\user\\Downloads\\UWI-Wire-Smart-Contract\\contracts\\PeliWalletFacade.sol",
  "compiler": {
    "name": "solc",
    "version": "0.8.17+commit.8df45f5f.Emscripten.clang"
  },
  "schemaVersion": "3.4.11",
  "updatedAt": "2023-03-05T15:28:45.066Z",
  "devdoc": {
    "kind": "dev",
    "methods": {
      "owner()": {
        "details": "Returns the address of the current owner."
      },
      "paused()": {
        "details": "Returns true if the contract is paused, and false otherwise."
      },
      "renounceOwnership()": {
        "details": "Leaves the contract without owner. It will not be possible to call `onlyOwner` functions anymore. Can only be called by the current owner. NOTE: Renouncing ownership will leave the contract without an owner, thereby removing any functionality that is only available to the owner."
      },
      "transferOwnership(address)": {
        "details": "Transfers ownership of the contract to a new account (`newOwner`). Can only be called by the current owner."
      }
    },
    "version": 1
  },
  "userdoc": {
    "kind": "user",
    "methods": {},
    "version": 1
  }
}