{
  "contractName": "PeliWallet",
  "abi": [
    {
      "anonymous": false,
      "inputs": [
        {
          "indexed": true,
          "internalType": "address",
          "name": "previousOwner",
          "type": "address"
        },
        {
          "indexed": true,
          "internalType": "address",
          "name": "newOwner",
          "type": "address"
        }
      ],
      "name": "OwnershipTransferred",
      "type": "event"
    },
    {
      "anonymous": false,
      "inputs": [
        {
          "indexed": false,
          "internalType": "address",
          "name": "account",
          "type": "address"
        }
      ],
      "name": "Paused",
      "type": "event"
    },
    {
      "anonymous": false,
      "inputs": [
        {
          "indexed": true,
          "internalType": "address",
          "name": "to",
          "type": "address"
        },
        {
          "indexed": false,
          "internalType": "uint256",
          "name": "value",
          "type": "uint256"
        }
      ],
      "name": "Transferred",
      "type": "event"
    },
    {
      "anonymous": false,
      "inputs": [
        {
          "indexed": false,
          "internalType": "address",
          "name": "account",
          "type": "address"
        }
      ],
      "name": "Unpaused",
      "type": "event"
    },
    {
      "anonymous": false,
      "inputs": [
        {
          "indexed": false,
          "internalType": "uint256",
          "name": "value",
          "type": "uint256"
        }
      ],
      "name": "Withdrawn",
      "type": "event"
    },
    {
      "inputs": [],
      "name": "owner",
      "outputs": [
        {
          "internalType": "address",
          "name": "",
          "type": "address"
        }
      ],
      "stateMutability": "view",
      "type": "function"
    },
    {
      "inputs": [],
      "name": "paused",
      "outputs": [
        {
          "internalType": "bool",
          "name": "",
          "type": "bool"
        }
      ],
      "stateMutability": "view",
      "type": "function"
    },
    {
      "inputs": [],
      "name": "renounceOwnership",
      "outputs": [],
      "stateMutability": "nonpayable",
      "type": "function"
    },
    {
      "inputs": [
        {
          "internalType": "address",
          "name": "newOwner",
          "type": "address"
        }
      ],
      "name": "transferOwnership",
      "outputs": [],
      "stateMutability": "nonpayable",
      "type": "function"
    },
    {
      "inputs": [
        {
          "internalType": "contract IERC20",
          "name": "pelicoin",
          "type": "address"
        },
        {
          "internalType": "address",
          "name": "to",
          "type": "address"
        },
        {
          "internalType": "uint256",
          "name": "amount",
          "type": "uint256"
        }
      ],
      "name": "transferTokens",
      "outputs": [],
      "stateMutability": "nonpayable",
      "type": "function"
    },
    {
      "inputs": [
        {
          "internalType": "contract IERC20",
          "name": "token",
          "type": "address"
        },
        {
          "internalType": "uint256",
          "name": "amount",
          "type": "uint256"
        }
      ],
      "name": "withdraw",
      "outputs": [],
      "stateMutability": "nonpayable",
      "type": "function"
    },
    {
      "inputs": [
        {
          "internalType": "contract IERC20",
          "name": "token",
          "type": "address"
        },
        {
          "internalType": "address",
          "name": "account",
          "type": "address"
        }
      ],
      "name": "balanceOf",
      "outputs": [
        {
          "internalType": "uint256",
          "name": "",
          "type": "uint256"
        }
      ],
      "stateMutability": "view",
      "type": "function"
    },
    {
      "inputs": [],
      "name": "pause",
      "outputs": [],
      "stateMutability": "nonpayable",
      "type": "function"
    },
    {
      "inputs": [],
      "name": "unpause",
      "outputs": [],
      "stateMutability": "nonpayable",
      "type": "function"
    }
  ],
  "bytecode": "0x608060405234801561001057600080fd5b5061002d61002261004c60201b60201c565b61005460201b60201c565b60008060146101000a81548160ff021916908315150217905550610118565b600033905090565b60008060009054906101000a900473ffffffffffffffffffffffffffffffffffffffff169050816000806101000a81548173ffffffffffffffffffffffffffffffffffffffff021916908373ffffffffffffffffffffffffffffffffffffffff1602179055508173ffffffffffffffffffffffffffffffffffffffff168173ffffffffffffffffffffffffffffffffffffffff167f8be0079c531659141344cd1fd0a4f28419497f9722a3daafe3b4186f6b6457e060405160405180910390a35050565b6110e4806101276000396000f3fe608060405234801561001057600080fd5b50600436106100935760003560e01c80638da5cb5b116100665780638da5cb5b146100d4578063a64b6e5f146100f2578063f2fde38b1461010e578063f3fef3a31461012a578063f7888aec1461014657610093565b80633f4ba83a146100985780635c975abb146100a2578063715018a6146100c05780638456cb59146100ca575b600080fd5b6100a0610176565b005b6100aa610188565b6040516100b7919061098a565b60405180910390f35b6100c861019e565b005b6100d26101b2565b005b6100dc6101c4565b6040516100e991906109e6565b60405180910390f35b61010c60048036038101906101079190610aa6565b6101ed565b005b61012860048036038101906101239190610af9565b610440565b005b610144600480360381019061013f9190610b26565b6104c3565b005b610160600480360381019061015b9190610b66565b610649565b60405161016d9190610bb5565b60405180910390f35b61017e6106cd565b61018661074b565b565b60008060149054906101000a900460ff16905090565b6101a66106cd565b6101b060006107ad565b565b6101ba6106cd565b6101c2610871565b565b60008060009054906101000a900473ffffffffffffffffffffffffffffffffffffffff16905090565b6101f56108d4565b6101fd6106cd565b600073ffffffffffffffffffffffffffffffffffffffff168273ffffffffffffffffffffffffffffffffffffffff160361026c576040517f08c379a000000000000000000000000000000000000000000000000000000000815260040161026390610c53565b60405180910390fd5b600081116102af576040517f08c379a00000000000000000000000000000000000000000000000000000000081526004016102a690610ce5565b60405180910390fd5b8273ffffffffffffffffffffffffffffffffffffffff166323b872dd3384846040518463ffffffff1660e01b81526004016102ec93929190610d05565b6020604051808303816000875af115801561030b573d6000803e3d6000fd5b505050506040513d601f19601f8201168201806040525081019061032f9190610d68565b508273ffffffffffffffffffffffffffffffffffffffff1663a9059cbb83836040518363ffffffff1660e01b815260040161036b929190610d95565b6020604051808303816000875af115801561038a573d6000803e3d6000fd5b505050506040513d601f19601f820116820180604052508101906103ae9190610d68565b6103ed576040517f08c379a00000000000000000000000000000000000000000000000000000000081526004016103e490610e0a565b60405180910390fd5b8173ffffffffffffffffffffffffffffffffffffffff167fe6d858f14d755446648a6e0c8ab8b5a0f58ccc7920d4c910b0454e4dcd869af0826040516104339190610bb5565b60405180910390a2505050565b6104486106cd565b600073ffffffffffffffffffffffffffffffffffffffff168173ffffffffffffffffffffffffffffffffffffffff16036104b7576040517f08c379a00000000000000000000000000000000000000000000000000000000081526004016104ae90610e9c565b60405180910390fd5b6104c0816107ad565b50565b6104cb6108d4565b6104d36106cd565b8173ffffffffffffffffffffffffffffffffffffffff166370a08231336040518263ffffffff1660e01b815260040161050c91906109e6565b602060405180830381865afa158015610529573d6000803e3d6000fd5b505050506040513d601f19601f8201168201806040525081019061054d9190610ed1565b81111561058f576040517f08c379a000000000000000000000000000000000000000000000000000000000815260040161058690610f4a565b60405180910390fd5b8173ffffffffffffffffffffffffffffffffffffffff1663a9059cbb33836040518363ffffffff1660e01b81526004016105ca929190610d95565b6020604051808303816000875af11580156105e9573d6000803e3d6000fd5b505050506040513d601f19601f8201168201806040525081019061060d9190610d68565b507f430648de173157e069201c943adb2d4e340e7cf5b27b1b09c9cb852f03d63b568160405161063d9190610bb5565b60405180910390a15050565b60008273ffffffffffffffffffffffffffffffffffffffff166370a08231836040518263ffffffff1660e01b815260040161068491906109e6565b602060405180830381865afa1580156106a1573d6000803e3d6000fd5b505050506040513d601f19601f820116820180604052508101906106c59190610ed1565b905092915050565b6106d561091e565b73ffffffffffffffffffffffffffffffffffffffff166106f36101c4565b73ffffffffffffffffffffffffffffffffffffffff1614610749576040517f08c379a000000000000000000000000000000000000000000000000000000000815260040161074090610fb6565b60405180910390fd5b565b610753610926565b60008060146101000a81548160ff0219169083151502179055507f5db9ee0a495bf2e6ff9c91a7834c1ba4fdd244a5e8aa4e537bd38aeae4b073aa61079661091e565b6040516107a391906109e6565b60405180910390a1565b60008060009054906101000a900473ffffffffffffffffffffffffffffffffffffffff169050816000806101000a81548173ffffffffffffffffffffffffffffffffffffffff021916908373ffffffffffffffffffffffffffffffffffffffff1602179055508173ffffffffffffffffffffffffffffffffffffffff168173ffffffffffffffffffffffffffffffffffffffff167f8be0079c531659141344cd1fd0a4f28419497f9722a3daafe3b4186f6b6457e060405160405180910390a35050565b6108796108d4565b6001600060146101000a81548160ff0219169083151502179055507f62e78cea01bee320cd4e420270b5ea74000d11b0c9f74754ebdbfc544b05a2586108bd61091e565b6040516108ca91906109e6565b60405180910390a1565b6108dc610188565b1561091c576040517f08c379a000000000000000000000000000000000000000000000000000000000815260040161091390611022565b60405180910390fd5b565b600033905090565b61092e610188565b61096d576040517f08c379a00000000000000000000000000000000000000000000000000000000081526004016109649061108e565b60405180910390fd5b565b60008115159050919050565b6109848161096f565b82525050565b600060208201905061099f600083018461097b565b92915050565b600073ffffffffffffffffffffffffffffffffffffffff82169050919050565b60006109d0826109a5565b9050919050565b6109e0816109c5565b82525050565b60006020820190506109fb60008301846109d7565b92915050565b600080fd5b6000610a11826109c5565b9050919050565b610a2181610a06565b8114610a2c57600080fd5b50565b600081359050610a3e81610a18565b92915050565b610a4d816109c5565b8114610a5857600080fd5b50565b600081359050610a6a81610a44565b92915050565b6000819050919050565b610a8381610a70565b8114610a8e57600080fd5b50565b600081359050610aa081610a7a565b92915050565b600080600060608486031215610abf57610abe610a01565b5b6000610acd86828701610a2f565b9350506020610ade86828701610a5b565b9250506040610aef86828701610a91565b9150509250925092565b600060208284031215610b0f57610b0e610a01565b5b6000610b1d84828501610a5b565b91505092915050565b60008060408385031215610b3d57610b3c610a01565b5b6000610b4b85828601610a2f565b9250506020610b5c85828601610a91565b9150509250929050565b60008060408385031215610b7d57610b7c610a01565b5b6000610b8b85828601610a2f565b9250506020610b9c85828601610a5b565b9150509250929050565b610baf81610a70565b82525050565b6000602082019050610bca6000830184610ba6565b92915050565b600082825260208201905092915050565b7f50656c6957616c6c65743a20726563697069656e742063616e6e6f742062652060008201527f7a65726f20616464726573730000000000000000000000000000000000000000602082015250565b6000610c3d602c83610bd0565b9150610c4882610be1565b604082019050919050565b60006020820190508181036000830152610c6c81610c30565b9050919050565b7f50656c6957616c6c65743a20616d6f756e74206d75737420626520677265617460008201527f6572207468616e207a65726f0000000000000000000000000000000000000000602082015250565b6000610ccf602c83610bd0565b9150610cda82610c73565b604082019050919050565b60006020820190508181036000830152610cfe81610cc2565b9050919050565b6000606082019050610d1a60008301866109d7565b610d2760208301856109d7565b610d346040830184610ba6565b949350505050565b610d458161096f565b8114610d5057600080fd5b50565b600081519050610d6281610d3c565b92915050565b600060208284031215610d7e57610d7d610a01565b5b6000610d8c84828501610d53565b91505092915050565b6000604082019050610daa60008301856109d7565b610db76020830184610ba6565b9392505050565b7f50656c6957616c6c65743a205472616e73666572204661696c65640000000000600082015250565b6000610df4601b83610bd0565b9150610dff82610dbe565b602082019050919050565b60006020820190508181036000830152610e2381610de7565b9050919050565b7f4f776e61626c653a206e6577206f776e657220697320746865207a65726f206160008201527f6464726573730000000000000000000000000000000000000000000000000000602082015250565b6000610e86602683610bd0565b9150610e9182610e2a565b604082019050919050565b60006020820190508181036000830152610eb581610e79565b9050919050565b600081519050610ecb81610a7a565b92915050565b600060208284031215610ee757610ee6610a01565b5b6000610ef584828501610ebc565b91505092915050565b7f50656c6957616c6c65743a20496e73756666696369656e742062616c616e6365600082015250565b6000610f34602083610bd0565b9150610f3f82610efe565b602082019050919050565b60006020820190508181036000830152610f6381610f27565b9050919050565b7f4f776e61626c653a2063616c6c6572206973206e6f7420746865206f776e6572600082015250565b6000610fa0602083610bd0565b9150610fab82610f6a565b602082019050919050565b60006020820190508181036000830152610fcf81610f93565b9050919050565b7f5061757361626c653a2070617573656400000000000000000000000000000000600082015250565b600061100c601083610bd0565b915061101782610fd6565b602082019050919050565b6000602082019050818103600083015261103b81610fff565b9050919050565b7f5061757361626c653a206e6f7420706175736564000000000000000000000000600082015250565b6000611078601483610bd0565b915061108382611042565b602082019050919050565b600060208201905081810360008301526110a78161106b565b905091905056fea2646970667358221220a18623e5963908d45ae68ed94e3c7583469466bec603b0a7248da86f4910fa9964736f6c63430008110033",
  "immutableReferences": {},
  "source": "// SPDX-License-Identifier: MIT\r\npragma solidity ^0.8.17;\r\n\r\n\r\nimport \"@openzeppelin/contracts/token/ERC20/IERC20.sol\";\r\nimport \"@openzeppelin/contracts/access/Ownable.sol\";\r\nimport \"@openzeppelin/contracts/utils/Address.sol\";\r\n\r\nimport \"@openzeppelin/contracts/security/Pausable.sol\";\r\n\r\n\r\ncontract PeliWallet is Ownable, Pausable{\r\n\r\n    using Address for address;\r\n\r\n\r\n    event Transferred(address indexed to, uint256 value);\r\n    event Withdrawn(uint256 value);\r\n\r\n\r\n    // Transfer Pelicoin tokens\r\n    function transferTokens(IERC20 pelicoin, address to, uint256 amount) external whenNotPaused onlyOwner {\r\n       \r\n        require(to != address(0), \"PeliWallet: recipient cannot be zero address\");\r\n        require(amount > 0, \"PeliWallet: amount must be greater than zero\");\r\n\r\n        pelicoin.transferFrom(msg.sender, to, amount);\r\n        require(pelicoin.transfer(to, amount), \"PeliWallet: Transfer Failed\");\r\n        emit Transferred(to, amount);\r\n    }\r\n\r\n\r\n    // Withdraw Pelicoin tokens\r\n    function withdraw(IERC20 token, uint256 amount) external whenNotPaused onlyOwner{\r\n        \r\n        require(amount <= token.balanceOf(msg.sender), \"PeliWallet: Insufficient balance\");\r\n       \r\n        token.transfer(msg.sender, amount);\r\n        emit Withdrawn(amount);\r\n    }\r\n\r\n\r\n    function balanceOf(IERC20 token, address account) external view returns (uint256){\r\n        return token.balanceOf(account);\r\n    }\r\n\r\n    function pause()   external onlyOwner { _pause(); }\r\n    function unpause() external onlyOwner { _unpause(); }\r\n}",
  "sourcePath": "C:\\Users\\user\\Downloads\\UWI-Wire-Smart-Contract\\contracts\\PeliWallet.sol",
  "compiler": {
    "name": "solc",
    "version": "0.8.17+commit.8df45f5f.Emscripten.clang"
  },
  "schemaVersion": "3.4.11",
  "updatedAt": "2023-03-02T12:41:24.868Z",
  "devdoc": {
    "kind": "dev",
    "methods": {
      "owner()": {
        "details": "Returns the address of the current owner."
      },
      "paused()": {
        "details": "Returns true if the contract is paused, and false otherwise."
      },
      "renounceOwnership()": {
        "details": "Leaves the contract without owner. It will not be possible to call `onlyOwner` functions anymore. Can only be called by the current owner. NOTE: Renouncing ownership will leave the contract without an owner, thereby removing any functionality that is only available to the owner."
      },
      "transferOwnership(address)": {
        "details": "Transfers ownership of the contract to a new account (`newOwner`). Can only be called by the current owner."
      }
    },
    "version": 1
  },
  "userdoc": {
    "kind": "user",
    "methods": {},
    "version": 1
  }
}