{
  "contractName": "PeliWallet",
  "abi": [
    {
      "inputs": [],
      "stateMutability": "nonpayable",
      "type": "constructor"
    },
    {
      "anonymous": false,
      "inputs": [
        {
          "indexed": true,
          "internalType": "address",
          "name": "previousOwner",
          "type": "address"
        },
        {
          "indexed": true,
          "internalType": "address",
          "name": "newOwner",
          "type": "address"
        }
      ],
      "name": "OwnershipTransferred",
      "type": "event"
    },
    {
      "anonymous": false,
      "inputs": [
        {
          "indexed": false,
          "internalType": "address",
          "name": "account",
          "type": "address"
        }
      ],
      "name": "Paused",
      "type": "event"
    },
    {
      "anonymous": false,
      "inputs": [
        {
          "indexed": false,
          "internalType": "address",
          "name": "account",
          "type": "address"
        }
      ],
      "name": "Unpaused",
      "type": "event"
    },
    {
      "inputs": [],
      "name": "owner",
      "outputs": [
        {
          "internalType": "address",
          "name": "",
          "type": "address"
        }
      ],
      "stateMutability": "view",
      "type": "function"
    },
    {
      "inputs": [],
      "name": "paused",
      "outputs": [
        {
          "internalType": "bool",
          "name": "",
          "type": "bool"
        }
      ],
      "stateMutability": "view",
      "type": "function"
    },
    {
      "inputs": [],
      "name": "renounceOwnership",
      "outputs": [],
      "stateMutability": "nonpayable",
      "type": "function"
    },
    {
      "inputs": [
        {
          "internalType": "address",
          "name": "newOwner",
          "type": "address"
        }
      ],
      "name": "transferOwnership",
      "outputs": [],
      "stateMutability": "nonpayable",
      "type": "function"
    },
    {
      "stateMutability": "payable",
      "type": "receive"
    },
    {
      "inputs": [
        {
          "internalType": "uint256",
          "name": "_amount",
          "type": "uint256"
        }
      ],
      "name": "withdraw",
      "outputs": [],
      "stateMutability": "nonpayable",
      "type": "function"
    },
    {
      "inputs": [],
      "name": "deposit",
      "outputs": [],
      "stateMutability": "payable",
      "type": "function"
    },
    {
      "inputs": [],
      "name": "getBalance",
      "outputs": [
        {
          "internalType": "uint256",
          "name": "",
          "type": "uint256"
        }
      ],
      "stateMutability": "view",
      "type": "function"
    },
    {
      "inputs": [],
      "name": "pause",
      "outputs": [],
      "stateMutability": "nonpayable",
      "type": "function"
    },
    {
      "inputs": [],
      "name": "unpause",
      "outputs": [],
      "stateMutability": "nonpayable",
      "type": "function"
    }
  ],
  "bytecode": "0x608060405234801561001057600080fd5b5061002d61002261004c60201b60201c565b61005460201b60201c565b60008060146101000a81548160ff021916908315150217905550610118565b600033905090565b60008060009054906101000a900473ffffffffffffffffffffffffffffffffffffffff169050816000806101000a81548173ffffffffffffffffffffffffffffffffffffffff021916908373ffffffffffffffffffffffffffffffffffffffff1602179055508173ffffffffffffffffffffffffffffffffffffffff168173ffffffffffffffffffffffffffffffffffffffff167f8be0079c531659141344cd1fd0a4f28419497f9722a3daafe3b4186f6b6457e060405160405180910390a35050565b610b51806101276000396000f3fe60806040526004361061008a5760003560e01c8063715018a611610059578063715018a61461012c5780638456cb59146101435780638da5cb5b1461015a578063d0e30db014610185578063f2fde38b1461018f57610091565b806312065fe0146100965780632e1a7d4d146100c15780633f4ba83a146100ea5780635c975abb1461010157610091565b3661009157005b600080fd5b3480156100a257600080fd5b506100ab6101b8565b6040516100b89190610695565b60405180910390f35b3480156100cd57600080fd5b506100e860048036038101906100e391906106e1565b6101c0565b005b3480156100f657600080fd5b506100ff61025d565b005b34801561010d57600080fd5b5061011661026f565b6040516101239190610729565b60405180910390f35b34801561013857600080fd5b50610141610285565b005b34801561014f57600080fd5b50610158610299565b005b34801561016657600080fd5b5061016f6102ab565b60405161017c9190610785565b60405180910390f35b61018d6102d4565b005b34801561019b57600080fd5b506101b660048036038101906101b191906107cc565b610341565b005b600047905090565b6101c86103c4565b6101d0610442565b80471015610213576040517f08c379a000000000000000000000000000000000000000000000000000000000815260040161020a90610856565b60405180910390fd5b3373ffffffffffffffffffffffffffffffffffffffff166108fc829081150290604051600060405180830381858888f19350505050158015610259573d6000803e3d6000fd5b5050565b6102656103c4565b61026d61048c565b565b60008060149054906101000a900460ff16905090565b61028d6103c4565b61029760006104ee565b565b6102a16103c4565b6102a96105b2565b565b60008060009054906101000a900473ffffffffffffffffffffffffffffffffffffffff16905090565b6102dc610442565b60006102f1344761061590919063ffffffff16565b9050678ac7230489e8000081111561033e576040517f08c379a0000000000000000000000000000000000000000000000000000000008152600401610335906108c2565b60405180910390fd5b50565b6103496103c4565b600073ffffffffffffffffffffffffffffffffffffffff168173ffffffffffffffffffffffffffffffffffffffff16036103b8576040517f08c379a00000000000000000000000000000000000000000000000000000000081526004016103af90610954565b60405180910390fd5b6103c1816104ee565b50565b6103cc61062b565b73ffffffffffffffffffffffffffffffffffffffff166103ea6102ab565b73ffffffffffffffffffffffffffffffffffffffff1614610440576040517f08c379a0000000000000000000000000000000000000000000000000000000008152600401610437906109c0565b60405180910390fd5b565b61044a61026f565b1561048a576040517f08c379a000000000000000000000000000000000000000000000000000000000815260040161048190610a2c565b60405180910390fd5b565b610494610633565b60008060146101000a81548160ff0219169083151502179055507f5db9ee0a495bf2e6ff9c91a7834c1ba4fdd244a5e8aa4e537bd38aeae4b073aa6104d761062b565b6040516104e49190610785565b60405180910390a1565b60008060009054906101000a900473ffffffffffffffffffffffffffffffffffffffff169050816000806101000a81548173ffffffffffffffffffffffffffffffffffffffff021916908373ffffffffffffffffffffffffffffffffffffffff1602179055508173ffffffffffffffffffffffffffffffffffffffff168173ffffffffffffffffffffffffffffffffffffffff167f8be0079c531659141344cd1fd0a4f28419497f9722a3daafe3b4186f6b6457e060405160405180910390a35050565b6105ba610442565b6001600060146101000a81548160ff0219169083151502179055507f62e78cea01bee320cd4e420270b5ea74000d11b0c9f74754ebdbfc544b05a2586105fe61062b565b60405161060b9190610785565b60405180910390a1565b600081836106239190610a7b565b905092915050565b600033905090565b61063b61026f565b61067a576040517f08c379a000000000000000000000000000000000000000000000000000000000815260040161067190610afb565b60405180910390fd5b565b6000819050919050565b61068f8161067c565b82525050565b60006020820190506106aa6000830184610686565b92915050565b600080fd5b6106be8161067c565b81146106c957600080fd5b50565b6000813590506106db816106b5565b92915050565b6000602082840312156106f7576106f66106b0565b5b6000610705848285016106cc565b91505092915050565b60008115159050919050565b6107238161070e565b82525050565b600060208201905061073e600083018461071a565b92915050565b600073ffffffffffffffffffffffffffffffffffffffff82169050919050565b600061076f82610744565b9050919050565b61077f81610764565b82525050565b600060208201905061079a6000830184610776565b92915050565b6107a981610764565b81146107b457600080fd5b50565b6000813590506107c6816107a0565b92915050565b6000602082840312156107e2576107e16106b0565b5b60006107f0848285016107b7565b91505092915050565b600082825260208201905092915050565b7f496e73756666696369656e742062616c616e636520696e2077616c6c65740000600082015250565b6000610840601e836107f9565b915061084b8261080a565b602082019050919050565b6000602082019050818103600083015261086f81610833565b9050919050565b7f57616c6c65742062616c616e6365206c696d6974207265616368656400000000600082015250565b60006108ac601c836107f9565b91506108b782610876565b602082019050919050565b600060208201905081810360008301526108db8161089f565b9050919050565b7f4f776e61626c653a206e6577206f776e657220697320746865207a65726f206160008201527f6464726573730000000000000000000000000000000000000000000000000000602082015250565b600061093e6026836107f9565b9150610949826108e2565b604082019050919050565b6000602082019050818103600083015261096d81610931565b9050919050565b7f4f776e61626c653a2063616c6c6572206973206e6f7420746865206f776e6572600082015250565b60006109aa6020836107f9565b91506109b582610974565b602082019050919050565b600060208201905081810360008301526109d98161099d565b9050919050565b7f5061757361626c653a2070617573656400000000000000000000000000000000600082015250565b6000610a166010836107f9565b9150610a21826109e0565b602082019050919050565b60006020820190508181036000830152610a4581610a09565b9050919050565b7f4e487b7100000000000000000000000000000000000000000000000000000000600052601160045260246000fd5b6000610a868261067c565b9150610a918361067c565b9250828201905080821115610aa957610aa8610a4c565b5b92915050565b7f5061757361626c653a206e6f7420706175736564000000000000000000000000600082015250565b6000610ae56014836107f9565b9150610af082610aaf565b602082019050919050565b60006020820190508181036000830152610b1481610ad8565b905091905056fea2646970667358221220439e6cf87d6323876f4d1b096b77d939455383f06c6e2546c51da97a76c50e2c64736f6c63430008110033",
  "immutableReferences": {},
  "source": "// SPDX-License-Identifier: MIT\r\npragma solidity ^0.8.9;\r\n\r\nimport \"@openzeppelin/contracts/access/Ownable.sol\";\r\nimport \"@openzeppelin/contracts/security/Pausable.sol\";\r\nimport \"@openzeppelin/contracts/utils/math/SafeMath.sol\";\r\n\r\ncontract PeliWallet is Ownable, Pausable {\r\n    using SafeMath for uint256;\r\n\r\n    constructor(){}\r\n\r\n    receive() external payable{}\r\n\r\n    function withdraw(uint _amount) external onlyOwner whenNotPaused {\r\n        require(address(this).balance >= _amount, \"Insufficient balance in wallet\");\r\n        payable(msg.sender).transfer(_amount);\r\n    }\r\n\r\n    function deposit() external payable whenNotPaused {\r\n        // use SafeMath to prevent overflow\r\n        uint256 newBalance = address(this).balance.add(msg.value);\r\n        require(newBalance <= 10 ether, \"Wallet balance limit reached\");\r\n    }\r\n\r\n    function getBalance() external view returns (uint256) {\r\n        return address(this).balance;\r\n    }\r\n\r\n    function pause() external onlyOwner {\r\n        _pause();\r\n    }\r\n\r\n    function unpause() external onlyOwner {\r\n        _unpause();\r\n    }\r\n}\r\n",
  "sourcePath": "C:\\Users\\user\\Downloads\\UWI-Wire-Smart-Contract\\contracts\\PeliWallet.sol",
  "compiler": {
    "name": "solc",
    "version": "0.8.17+commit.8df45f5f.Emscripten.clang"
  },
  "schemaVersion": "3.4.11",
  "updatedAt": "2023-02-25T01:35:32.660Z",
  "devdoc": {
    "kind": "dev",
    "methods": {
      "owner()": {
        "details": "Returns the address of the current owner."
      },
      "paused()": {
        "details": "Returns true if the contract is paused, and false otherwise."
      },
      "renounceOwnership()": {
        "details": "Leaves the contract without owner. It will not be possible to call `onlyOwner` functions anymore. Can only be called by the current owner. NOTE: Renouncing ownership will leave the contract without an owner, thereby removing any functionality that is only available to the owner."
      },
      "transferOwnership(address)": {
        "details": "Transfers ownership of the contract to a new account (`newOwner`). Can only be called by the current owner."
      }
    },
    "version": 1
  },
  "userdoc": {
    "kind": "user",
    "methods": {},
    "version": 1
  }
}