{
  "contractName": "RolesManager",
  "abi": [
    {
      "inputs": [
        {
          "internalType": "contract Roles",
          "name": "_roles",
          "type": "address"
        }
      ],
      "stateMutability": "nonpayable",
      "type": "constructor"
    },
    {
      "anonymous": false,
      "inputs": [
        {
          "indexed": true,
          "internalType": "bytes32",
          "name": "role",
          "type": "bytes32"
        },
        {
          "indexed": true,
          "internalType": "bytes32",
          "name": "previousAdminRole",
          "type": "bytes32"
        },
        {
          "indexed": true,
          "internalType": "bytes32",
          "name": "newAdminRole",
          "type": "bytes32"
        }
      ],
      "name": "RoleAdminChanged",
      "type": "event"
    },
    {
      "anonymous": false,
      "inputs": [
        {
          "indexed": true,
          "internalType": "bytes32",
          "name": "role",
          "type": "bytes32"
        },
        {
          "indexed": true,
          "internalType": "address",
          "name": "account",
          "type": "address"
        },
        {
          "indexed": true,
          "internalType": "address",
          "name": "sender",
          "type": "address"
        }
      ],
      "name": "RoleGranted",
      "type": "event"
    },
    {
      "anonymous": false,
      "inputs": [
        {
          "indexed": true,
          "internalType": "bytes32",
          "name": "role",
          "type": "bytes32"
        },
        {
          "indexed": true,
          "internalType": "address",
          "name": "account",
          "type": "address"
        },
        {
          "indexed": true,
          "internalType": "address",
          "name": "sender",
          "type": "address"
        }
      ],
      "name": "RoleRevoked",
      "type": "event"
    },
    {
      "inputs": [],
      "name": "ADMIN_ROLE",
      "outputs": [
        {
          "internalType": "bytes32",
          "name": "",
          "type": "bytes32"
        }
      ],
      "stateMutability": "view",
      "type": "function"
    },
    {
      "inputs": [],
      "name": "DEFAULT_ADMIN_ROLE",
      "outputs": [
        {
          "internalType": "bytes32",
          "name": "",
          "type": "bytes32"
        }
      ],
      "stateMutability": "view",
      "type": "function"
    },
    {
      "inputs": [],
      "name": "USER_ROLE",
      "outputs": [
        {
          "internalType": "bytes32",
          "name": "",
          "type": "bytes32"
        }
      ],
      "stateMutability": "view",
      "type": "function"
    },
    {
      "inputs": [],
      "name": "VENDOR_ROLE",
      "outputs": [
        {
          "internalType": "bytes32",
          "name": "",
          "type": "bytes32"
        }
      ],
      "stateMutability": "view",
      "type": "function"
    },
    {
      "inputs": [
        {
          "internalType": "bytes32",
          "name": "role",
          "type": "bytes32"
        }
      ],
      "name": "getRoleAdmin",
      "outputs": [
        {
          "internalType": "bytes32",
          "name": "",
          "type": "bytes32"
        }
      ],
      "stateMutability": "view",
      "type": "function"
    },
    {
      "inputs": [
        {
          "internalType": "bytes32",
          "name": "role",
          "type": "bytes32"
        },
        {
          "internalType": "uint256",
          "name": "index",
          "type": "uint256"
        }
      ],
      "name": "getRoleMember",
      "outputs": [
        {
          "internalType": "address",
          "name": "",
          "type": "address"
        }
      ],
      "stateMutability": "view",
      "type": "function"
    },
    {
      "inputs": [
        {
          "internalType": "bytes32",
          "name": "role",
          "type": "bytes32"
        }
      ],
      "name": "getRoleMemberCount",
      "outputs": [
        {
          "internalType": "uint256",
          "name": "",
          "type": "uint256"
        }
      ],
      "stateMutability": "view",
      "type": "function"
    },
    {
      "inputs": [
        {
          "internalType": "bytes32",
          "name": "role",
          "type": "bytes32"
        },
        {
          "internalType": "address",
          "name": "account",
          "type": "address"
        }
      ],
      "name": "grantRole",
      "outputs": [],
      "stateMutability": "nonpayable",
      "type": "function"
    },
    {
      "inputs": [
        {
          "internalType": "bytes32",
          "name": "role",
          "type": "bytes32"
        },
        {
          "internalType": "address",
          "name": "account",
          "type": "address"
        }
      ],
      "name": "hasRole",
      "outputs": [
        {
          "internalType": "bool",
          "name": "",
          "type": "bool"
        }
      ],
      "stateMutability": "view",
      "type": "function"
    },
    {
      "inputs": [
        {
          "internalType": "bytes32",
          "name": "role",
          "type": "bytes32"
        },
        {
          "internalType": "address",
          "name": "account",
          "type": "address"
        }
      ],
      "name": "renounceRole",
      "outputs": [],
      "stateMutability": "nonpayable",
      "type": "function"
    },
    {
      "inputs": [
        {
          "internalType": "bytes32",
          "name": "role",
          "type": "bytes32"
        },
        {
          "internalType": "address",
          "name": "account",
          "type": "address"
        }
      ],
      "name": "revokeRole",
      "outputs": [],
      "stateMutability": "nonpayable",
      "type": "function"
    },
    {
      "inputs": [],
      "name": "roles",
      "outputs": [
        {
          "internalType": "contract Roles",
          "name": "",
          "type": "address"
        }
      ],
      "stateMutability": "view",
      "type": "function"
    },
    {
      "inputs": [
        {
          "internalType": "bytes4",
          "name": "interfaceId",
          "type": "bytes4"
        }
      ],
      "name": "supportsInterface",
      "outputs": [
        {
          "internalType": "bool",
          "name": "",
          "type": "bool"
        }
      ],
      "stateMutability": "view",
      "type": "function"
    },
    {
      "inputs": [
        {
          "internalType": "address",
          "name": "account",
          "type": "address"
        }
      ],
      "name": "grantAdminRole",
      "outputs": [],
      "stateMutability": "nonpayable",
      "type": "function"
    },
    {
      "inputs": [
        {
          "internalType": "address",
          "name": "account",
          "type": "address"
        }
      ],
      "name": "revokeAdminRole",
      "outputs": [],
      "stateMutability": "nonpayable",
      "type": "function"
    },
    {
      "inputs": [
        {
          "internalType": "address",
          "name": "account",
          "type": "address"
        }
      ],
      "name": "grantUserRole",
      "outputs": [],
      "stateMutability": "nonpayable",
      "type": "function"
    },
    {
      "inputs": [
        {
          "internalType": "address",
          "name": "account",
          "type": "address"
        }
      ],
      "name": "revokeUserRole",
      "outputs": [],
      "stateMutability": "nonpayable",
      "type": "function"
    },
    {
      "inputs": [
        {
          "internalType": "address",
          "name": "account",
          "type": "address"
        }
      ],
      "name": "grantVendorRole",
      "outputs": [],
      "stateMutability": "nonpayable",
      "type": "function"
    },
    {
      "inputs": [
        {
          "internalType": "address",
          "name": "account",
          "type": "address"
        }
      ],
      "name": "revokeVendorRole",
      "outputs": [],
      "stateMutability": "nonpayable",
      "type": "function"
    }
  ],
  "bytecode": "0x60806040523480156200001157600080fd5b5060405162001d0b38038062001d0b8339818101604052810190620000379190620003c5565b620000697fa49807205ce4d355092ef5a8a18f56e8913cf4a201fbe287825b095693c2177533620000b160201b60201c565b80600260006101000a81548173ffffffffffffffffffffffffffffffffffffffff021916908373ffffffffffffffffffffffffffffffffffffffff16021790555050620003f7565b620000c38282620000c760201b60201c565b5050565b620000de82826200010f60201b6200089c1760201c565b6200010a81600160008581526020019081526020016000206200020060201b6200097c1790919060201c565b505050565b6200012182826200023860201b60201c565b620001fc57600160008084815260200190815260200160002060000160008373ffffffffffffffffffffffffffffffffffffffff1673ffffffffffffffffffffffffffffffffffffffff16815260200190815260200160002060006101000a81548160ff021916908315150217905550620001a1620002a260201b60201c565b73ffffffffffffffffffffffffffffffffffffffff168173ffffffffffffffffffffffffffffffffffffffff16837f2f8788117e7eff1d82e926ec794901d17c78024a50270940304540a733656f0d60405160405180910390a45b5050565b600062000230836000018373ffffffffffffffffffffffffffffffffffffffff1660001b620002aa60201b60201c565b905092915050565b600080600084815260200190815260200160002060000160008373ffffffffffffffffffffffffffffffffffffffff1673ffffffffffffffffffffffffffffffffffffffff16815260200190815260200160002060009054906101000a900460ff16905092915050565b600033905090565b6000620002be83836200032460201b60201c565b620003195782600001829080600181540180825580915050600190039060005260206000200160009091909190915055826000018054905083600101600084815260200190815260200160002081905550600190506200031e565b600090505b92915050565b600080836001016000848152602001908152602001600020541415905092915050565b600080fd5b600073ffffffffffffffffffffffffffffffffffffffff82169050919050565b600062000379826200034c565b9050919050565b60006200038d826200036c565b9050919050565b6200039f8162000380565b8114620003ab57600080fd5b50565b600081519050620003bf8162000394565b92915050565b600060208284031215620003de57620003dd62000347565b5b6000620003ee84828501620003ae565b91505092915050565b61190480620004076000396000f3fe608060405234801561001057600080fd5b50600436106101215760003560e01c80639010d07c116100ad578063b415185811610071578063b415185814610308578063bd73b25d14610324578063c634b78e14610340578063ca15c8731461035c578063d547741f1461038c57610121565b80639010d07c1461025057806391d1485414610280578063926a694d146102b05780639a19c7b0146102ce578063a217fddf146102ea57610121565b80632f2ff15d116100f45780632f2ff15d146101c057806336568abe146101dc578063392f5f64146101f857806368660e3c1461021657806375b238fc1461023257610121565b806301ffc9a7146101265780631311916114610156578063248a9ca3146101745780632974650b146101a4575b600080fd5b610140600480360381019061013b9190611182565b6103a8565b60405161014d91906111ca565b60405180910390f35b61015e610422565b60405161016b91906111fe565b60405180910390f35b61018e60048036038101906101899190611245565b610446565b60405161019b91906111fe565b60405180910390f35b6101be60048036038101906101b991906112d0565b610465565b005b6101da60048036038101906101d591906112fd565b6104c5565b005b6101f660048036038101906101f191906112fd565b6104e6565b005b610200610569565b60405161020d919061139c565b60405180910390f35b610230600480360381019061022b91906112d0565b61058f565b005b61023a6105ef565b60405161024791906111fe565b60405180910390f35b61026a600480360381019061026591906113ed565b610613565b604051610277919061143c565b60405180910390f35b61029a600480360381019061029591906112fd565b610642565b6040516102a791906111ca565b60405180910390f35b6102b86106ac565b6040516102c591906111fe565b60405180910390f35b6102e860048036038101906102e391906112d0565b6106d0565b005b6102f2610730565b6040516102ff91906111fe565b60405180910390f35b610322600480360381019061031d91906112d0565b610737565b005b61033e600480360381019061033991906112d0565b610797565b005b61035a600480360381019061035591906112d0565b6107f7565b005b61037660048036038101906103719190611245565b610857565b6040516103839190611466565b60405180910390f35b6103a660048036038101906103a191906112fd565b61087b565b005b60007f5a05180f000000000000000000000000000000000000000000000000000000007bffffffffffffffffffffffffffffffffffffffffffffffffffffffff1916827bffffffffffffffffffffffffffffffffffffffffffffffffffffffff1916148061041b575061041a826109ac565b5b9050919050565b7f14823911f2da1b49f045a0929a60b8c1f2a7fc8c06c7284ca3e8ab4e193a08c881565b6000806000838152602001908152602001600020600101549050919050565b61048f7fa49807205ce4d355092ef5a8a18f56e8913cf4a201fbe287825b095693c2177533610642565b61049857600080fd5b6104c27fb66d507c1e3c1bc237b923feddf01f16873f6a23c218ec08d1c8983da3c563098261087b565b50565b6104ce82610446565b6104d781610a26565b6104e18383610a3a565b505050565b6104ee610a6e565b73ffffffffffffffffffffffffffffffffffffffff168173ffffffffffffffffffffffffffffffffffffffff161461055b576040517f08c379a000000000000000000000000000000000000000000000000000000000815260040161055290611504565b60405180910390fd5b6105658282610a76565b5050565b600260009054906101000a900473ffffffffffffffffffffffffffffffffffffffff1681565b6105b97fa49807205ce4d355092ef5a8a18f56e8913cf4a201fbe287825b095693c2177533610642565b6105c257600080fd5b6105ec7f14823911f2da1b49f045a0929a60b8c1f2a7fc8c06c7284ca3e8ab4e193a08c8826104c5565b50565b7fa49807205ce4d355092ef5a8a18f56e8913cf4a201fbe287825b095693c2177581565b600061063a8260016000868152602001908152602001600020610aaa90919063ffffffff16565b905092915050565b600080600084815260200190815260200160002060000160008373ffffffffffffffffffffffffffffffffffffffff1673ffffffffffffffffffffffffffffffffffffffff16815260200190815260200160002060009054906101000a900460ff16905092915050565b7fb66d507c1e3c1bc237b923feddf01f16873f6a23c218ec08d1c8983da3c5630981565b6106fa7fa49807205ce4d355092ef5a8a18f56e8913cf4a201fbe287825b095693c2177533610642565b61070357600080fd5b61072d7fa49807205ce4d355092ef5a8a18f56e8913cf4a201fbe287825b095693c217758261087b565b50565b6000801b81565b6107617fa49807205ce4d355092ef5a8a18f56e8913cf4a201fbe287825b095693c2177533610642565b61076a57600080fd5b6107947fb66d507c1e3c1bc237b923feddf01f16873f6a23c218ec08d1c8983da3c56309826104c5565b50565b6107c17fa49807205ce4d355092ef5a8a18f56e8913cf4a201fbe287825b095693c2177533610642565b6107ca57600080fd5b6107f47f14823911f2da1b49f045a0929a60b8c1f2a7fc8c06c7284ca3e8ab4e193a08c88261087b565b50565b6108217fa49807205ce4d355092ef5a8a18f56e8913cf4a201fbe287825b095693c2177533610642565b61082a57600080fd5b6108547fa49807205ce4d355092ef5a8a18f56e8913cf4a201fbe287825b095693c21775826104c5565b50565b600061087460016000848152602001908152602001600020610ac4565b9050919050565b61088482610446565b61088d81610a26565b6108978383610a76565b505050565b6108a68282610642565b61097857600160008084815260200190815260200160002060000160008373ffffffffffffffffffffffffffffffffffffffff1673ffffffffffffffffffffffffffffffffffffffff16815260200190815260200160002060006101000a81548160ff02191690831515021790555061091d610a6e565b73ffffffffffffffffffffffffffffffffffffffff168173ffffffffffffffffffffffffffffffffffffffff16837f2f8788117e7eff1d82e926ec794901d17c78024a50270940304540a733656f0d60405160405180910390a45b5050565b60006109a4836000018373ffffffffffffffffffffffffffffffffffffffff1660001b610ad9565b905092915050565b60007f7965db0b000000000000000000000000000000000000000000000000000000007bffffffffffffffffffffffffffffffffffffffffffffffffffffffff1916827bffffffffffffffffffffffffffffffffffffffffffffffffffffffff19161480610a1f5750610a1e82610b49565b5b9050919050565b610a3781610a32610a6e565b610bb3565b50565b610a44828261089c565b610a69816001600085815260200190815260200160002061097c90919063ffffffff16565b505050565b600033905090565b610a808282610c38565b610aa58160016000858152602001908152602001600020610d1990919063ffffffff16565b505050565b6000610ab98360000183610d49565b60001c905092915050565b6000610ad282600001610d74565b9050919050565b6000610ae58383610d85565b610b3e578260000182908060018154018082558091505060019003906000526020600020016000909190919091505582600001805490508360010160008481526020019081526020016000208190555060019050610b43565b600090505b92915050565b60007f01ffc9a7000000000000000000000000000000000000000000000000000000007bffffffffffffffffffffffffffffffffffffffffffffffffffffffff1916827bffffffffffffffffffffffffffffffffffffffffffffffffffffffff1916149050919050565b610bbd8282610642565b610c3457610bca81610da8565b610bd88360001c6020610dd5565b604051602001610be992919061162d565b6040516020818303038152906040526040517f08c379a0000000000000000000000000000000000000000000000000000000008152600401610c2b91906116b1565b60405180910390fd5b5050565b610c428282610642565b15610d1557600080600084815260200190815260200160002060000160008373ffffffffffffffffffffffffffffffffffffffff1673ffffffffffffffffffffffffffffffffffffffff16815260200190815260200160002060006101000a81548160ff021916908315150217905550610cba610a6e565b73ffffffffffffffffffffffffffffffffffffffff168173ffffffffffffffffffffffffffffffffffffffff16837ff6391f5c32d9c69d2a47ea670b442974b53935d1edc7fd64eb21e047a839171b60405160405180910390a45b5050565b6000610d41836000018373ffffffffffffffffffffffffffffffffffffffff1660001b611011565b905092915050565b6000826000018281548110610d6157610d606116d3565b5b9060005260206000200154905092915050565b600081600001805490509050919050565b600080836001016000848152602001908152602001600020541415905092915050565b6060610dce8273ffffffffffffffffffffffffffffffffffffffff16601460ff16610dd5565b9050919050565b606060006002836002610de89190611731565b610df29190611773565b67ffffffffffffffff811115610e0b57610e0a6117a7565b5b6040519080825280601f01601f191660200182016040528015610e3d5781602001600182028036833780820191505090505b5090507f300000000000000000000000000000000000000000000000000000000000000081600081518110610e7557610e746116d3565b5b60200101907effffffffffffffffffffffffffffffffffffffffffffffffffffffffffffff1916908160001a9053507f780000000000000000000000000000000000000000000000000000000000000081600181518110610ed957610ed86116d3565b5b60200101907effffffffffffffffffffffffffffffffffffffffffffffffffffffffffffff1916908160001a90535060006001846002610f199190611731565b610f239190611773565b90505b6001811115610fc3577f3031323334353637383961626364656600000000000000000000000000000000600f861660108110610f6557610f646116d3565b5b1a60f81b828281518110610f7c57610f7b6116d3565b5b60200101907effffffffffffffffffffffffffffffffffffffffffffffffffffffffffffff1916908160001a905350600485901c945080610fbc906117d6565b9050610f26565b5060008414611007576040517f08c379a0000000000000000000000000000000000000000000000000000000008152600401610ffe9061184b565b60405180910390fd5b8091505092915050565b60008083600101600084815260200190815260200160002054905060008114611119576000600182611043919061186b565b905060006001866000018054905061105b919061186b565b90508181146110ca57600086600001828154811061107c5761107b6116d3565b5b90600052602060002001549050808760000184815481106110a05761109f6116d3565b5b90600052602060002001819055508387600101600083815260200190815260200160002081905550505b856000018054806110de576110dd61189f565b5b60019003818190600052602060002001600090559055856001016000868152602001908152602001600020600090556001935050505061111f565b60009150505b92915050565b600080fd5b60007fffffffff0000000000000000000000000000000000000000000000000000000082169050919050565b61115f8161112a565b811461116a57600080fd5b50565b60008135905061117c81611156565b92915050565b60006020828403121561119857611197611125565b5b60006111a68482850161116d565b91505092915050565b60008115159050919050565b6111c4816111af565b82525050565b60006020820190506111df60008301846111bb565b92915050565b6000819050919050565b6111f8816111e5565b82525050565b600060208201905061121360008301846111ef565b92915050565b611222816111e5565b811461122d57600080fd5b50565b60008135905061123f81611219565b92915050565b60006020828403121561125b5761125a611125565b5b600061126984828501611230565b91505092915050565b600073ffffffffffffffffffffffffffffffffffffffff82169050919050565b600061129d82611272565b9050919050565b6112ad81611292565b81146112b857600080fd5b50565b6000813590506112ca816112a4565b92915050565b6000602082840312156112e6576112e5611125565b5b60006112f4848285016112bb565b91505092915050565b6000806040838503121561131457611313611125565b5b600061132285828601611230565b9250506020611333858286016112bb565b9150509250929050565b6000819050919050565b600061136261135d61135884611272565b61133d565b611272565b9050919050565b600061137482611347565b9050919050565b600061138682611369565b9050919050565b6113968161137b565b82525050565b60006020820190506113b1600083018461138d565b92915050565b6000819050919050565b6113ca816113b7565b81146113d557600080fd5b50565b6000813590506113e7816113c1565b92915050565b6000806040838503121561140457611403611125565b5b600061141285828601611230565b9250506020611423858286016113d8565b9150509250929050565b61143681611292565b82525050565b6000602082019050611451600083018461142d565b92915050565b611460816113b7565b82525050565b600060208201905061147b6000830184611457565b92915050565b600082825260208201905092915050565b7f416363657373436f6e74726f6c3a2063616e206f6e6c792072656e6f756e636560008201527f20726f6c657320666f722073656c660000000000000000000000000000000000602082015250565b60006114ee602f83611481565b91506114f982611492565b604082019050919050565b6000602082019050818103600083015261151d816114e1565b9050919050565b600081905092915050565b7f416363657373436f6e74726f6c3a206163636f756e7420000000000000000000600082015250565b6000611565601783611524565b91506115708261152f565b601782019050919050565b600081519050919050565b60005b838110156115a4578082015181840152602081019050611589565b60008484015250505050565b60006115bb8261157b565b6115c58185611524565b93506115d5818560208601611586565b80840191505092915050565b7f206973206d697373696e6720726f6c6520000000000000000000000000000000600082015250565b6000611617601183611524565b9150611622826115e1565b601182019050919050565b600061163882611558565b915061164482856115b0565b915061164f8261160a565b915061165b82846115b0565b91508190509392505050565b6000601f19601f8301169050919050565b60006116838261157b565b61168d8185611481565b935061169d818560208601611586565b6116a681611667565b840191505092915050565b600060208201905081810360008301526116cb8184611678565b905092915050565b7f4e487b7100000000000000000000000000000000000000000000000000000000600052603260045260246000fd5b7f4e487b7100000000000000000000000000000000000000000000000000000000600052601160045260246000fd5b600061173c826113b7565b9150611747836113b7565b9250828202611755816113b7565b9150828204841483151761176c5761176b611702565b5b5092915050565b600061177e826113b7565b9150611789836113b7565b92508282019050808211156117a1576117a0611702565b5b92915050565b7f4e487b7100000000000000000000000000000000000000000000000000000000600052604160045260246000fd5b60006117e1826113b7565b9150600082036117f4576117f3611702565b5b600182039050919050565b7f537472696e67733a20686578206c656e67746820696e73756666696369656e74600082015250565b6000611835602083611481565b9150611840826117ff565b602082019050919050565b6000602082019050818103600083015261186481611828565b9050919050565b6000611876826113b7565b9150611881836113b7565b925082820390508181111561189957611898611702565b5b92915050565b7f4e487b7100000000000000000000000000000000000000000000000000000000600052603160045260246000fdfea2646970667358221220ce60f9bff9ea0e4d0cd41293f14b7818d1e1e9296baf8e9e00a61d78e984c02164736f6c63430008110033",
  "immutableReferences": {},
  "source": "// SPDX-License-Identifier: MIT\r\npragma solidity ^0.8.17;\r\n\r\nimport \"./Roles.sol\";\r\n\r\ncontract RolesManager is Roles{\r\n\r\n    Roles public roles;\r\n\r\n\r\n    constructor (Roles _roles){\r\n        roles = _roles;\r\n    }\r\n\r\n\r\n    function grantAdminRole(address account) public onlyAdmin{\r\n        grantRole(ADMIN_ROLE, account);\r\n    }\r\n    \r\n    function revokeAdminRole(address account) public onlyAdmin{\r\n        revokeRole(ADMIN_ROLE, account);\r\n    }\r\n    \r\n    function grantUserRole(address account) public onlyAdmin{\r\n        grantRole(USER_ROLE, account);\r\n    }\r\n    \r\n    function revokeUserRole(address account) public onlyAdmin{\r\n        revokeRole(USER_ROLE, account);\r\n    }\r\n    \r\n    function grantVendorRole(address account) public onlyAdmin{\r\n        grantRole(VENDOR_ROLE, account);\r\n    }\r\n    \r\n    function revokeVendorRole(address account) public onlyAdmin{\r\n        revokeRole(VENDOR_ROLE, account);\r\n    }\r\n}",
  "sourcePath": "C:\\Users\\user\\Downloads\\UWI-Wire-Smart-Contract\\contracts\\roles\\RolesManager.sol",
  "compiler": {
    "name": "solc",
    "version": "0.8.17+commit.8df45f5f.Emscripten.clang"
  },
  "schemaVersion": "3.4.11",
  "updatedAt": "2023-04-19T02:00:43.801Z",
  "devdoc": {
    "kind": "dev",
    "methods": {
      "getRoleAdmin(bytes32)": {
        "details": "Returns the admin role that controls `role`. See {grantRole} and {revokeRole}. To change a role's admin, use {_setRoleAdmin}."
      },
      "getRoleMember(bytes32,uint256)": {
        "details": "Returns one of the accounts that have `role`. `index` must be a value between 0 and {getRoleMemberCount}, non-inclusive. Role bearers are not sorted in any particular way, and their ordering may change at any point. WARNING: When using {getRoleMember} and {getRoleMemberCount}, make sure you perform all queries on the same block. See the following https://forum.openzeppelin.com/t/iterating-over-elements-on-enumerableset-in-openzeppelin-contracts/2296[forum post] for more information."
      },
      "getRoleMemberCount(bytes32)": {
        "details": "Returns the number of accounts that have `role`. Can be used together with {getRoleMember} to enumerate all bearers of a role."
      },
      "grantRole(bytes32,address)": {
        "details": "Grants `role` to `account`. If `account` had not been already granted `role`, emits a {RoleGranted} event. Requirements: - the caller must have ``role``'s admin role. May emit a {RoleGranted} event."
      },
      "hasRole(bytes32,address)": {
        "details": "Returns `true` if `account` has been granted `role`."
      },
      "renounceRole(bytes32,address)": {
        "details": "Revokes `role` from the calling account. Roles are often managed via {grantRole} and {revokeRole}: this function's purpose is to provide a mechanism for accounts to lose their privileges if they are compromised (such as when a trusted device is misplaced). If the calling account had been revoked `role`, emits a {RoleRevoked} event. Requirements: - the caller must be `account`. May emit a {RoleRevoked} event."
      },
      "revokeRole(bytes32,address)": {
        "details": "Revokes `role` from `account`. If `account` had been granted `role`, emits a {RoleRevoked} event. Requirements: - the caller must have ``role``'s admin role. May emit a {RoleRevoked} event."
      },
      "supportsInterface(bytes4)": {
        "details": "See {IERC165-supportsInterface}."
      }
    },
    "version": 1
  },
  "userdoc": {
    "kind": "user",
    "methods": {},
    "version": 1
  }
}