{
  "contractName": "Roles",
  "abi": [
    {
      "inputs": [],
      "stateMutability": "nonpayable",
      "type": "constructor"
    },
    {
      "anonymous": false,
      "inputs": [
        {
          "indexed": true,
          "internalType": "bytes32",
          "name": "role",
          "type": "bytes32"
        },
        {
          "indexed": true,
          "internalType": "bytes32",
          "name": "previousAdminRole",
          "type": "bytes32"
        },
        {
          "indexed": true,
          "internalType": "bytes32",
          "name": "newAdminRole",
          "type": "bytes32"
        }
      ],
      "name": "RoleAdminChanged",
      "type": "event"
    },
    {
      "anonymous": false,
      "inputs": [
        {
          "indexed": true,
          "internalType": "bytes32",
          "name": "role",
          "type": "bytes32"
        },
        {
          "indexed": true,
          "internalType": "address",
          "name": "account",
          "type": "address"
        },
        {
          "indexed": true,
          "internalType": "address",
          "name": "sender",
          "type": "address"
        }
      ],
      "name": "RoleGranted",
      "type": "event"
    },
    {
      "anonymous": false,
      "inputs": [
        {
          "indexed": true,
          "internalType": "bytes32",
          "name": "role",
          "type": "bytes32"
        },
        {
          "indexed": true,
          "internalType": "address",
          "name": "account",
          "type": "address"
        },
        {
          "indexed": true,
          "internalType": "address",
          "name": "sender",
          "type": "address"
        }
      ],
      "name": "RoleRevoked",
      "type": "event"
    },
    {
      "inputs": [],
      "name": "ADMIN_ROLE",
      "outputs": [
        {
          "internalType": "bytes32",
          "name": "",
          "type": "bytes32"
        }
      ],
      "stateMutability": "view",
      "type": "function"
    },
    {
      "inputs": [],
      "name": "DEFAULT_ADMIN_ROLE",
      "outputs": [
        {
          "internalType": "bytes32",
          "name": "",
          "type": "bytes32"
        }
      ],
      "stateMutability": "view",
      "type": "function"
    },
    {
      "inputs": [],
      "name": "USER_ROLE",
      "outputs": [
        {
          "internalType": "bytes32",
          "name": "",
          "type": "bytes32"
        }
      ],
      "stateMutability": "view",
      "type": "function"
    },
    {
      "inputs": [],
      "name": "VENDOR_ROLE",
      "outputs": [
        {
          "internalType": "bytes32",
          "name": "",
          "type": "bytes32"
        }
      ],
      "stateMutability": "view",
      "type": "function"
    },
    {
      "inputs": [
        {
          "internalType": "bytes32",
          "name": "role",
          "type": "bytes32"
        }
      ],
      "name": "getRoleAdmin",
      "outputs": [
        {
          "internalType": "bytes32",
          "name": "",
          "type": "bytes32"
        }
      ],
      "stateMutability": "view",
      "type": "function"
    },
    {
      "inputs": [
        {
          "internalType": "bytes32",
          "name": "role",
          "type": "bytes32"
        },
        {
          "internalType": "uint256",
          "name": "index",
          "type": "uint256"
        }
      ],
      "name": "getRoleMember",
      "outputs": [
        {
          "internalType": "address",
          "name": "",
          "type": "address"
        }
      ],
      "stateMutability": "view",
      "type": "function"
    },
    {
      "inputs": [
        {
          "internalType": "bytes32",
          "name": "role",
          "type": "bytes32"
        }
      ],
      "name": "getRoleMemberCount",
      "outputs": [
        {
          "internalType": "uint256",
          "name": "",
          "type": "uint256"
        }
      ],
      "stateMutability": "view",
      "type": "function"
    },
    {
      "inputs": [
        {
          "internalType": "bytes32",
          "name": "role",
          "type": "bytes32"
        },
        {
          "internalType": "address",
          "name": "account",
          "type": "address"
        }
      ],
      "name": "grantRole",
      "outputs": [],
      "stateMutability": "nonpayable",
      "type": "function"
    },
    {
      "inputs": [
        {
          "internalType": "bytes32",
          "name": "role",
          "type": "bytes32"
        },
        {
          "internalType": "address",
          "name": "account",
          "type": "address"
        }
      ],
      "name": "hasRole",
      "outputs": [
        {
          "internalType": "bool",
          "name": "",
          "type": "bool"
        }
      ],
      "stateMutability": "view",
      "type": "function"
    },
    {
      "inputs": [
        {
          "internalType": "bytes32",
          "name": "role",
          "type": "bytes32"
        },
        {
          "internalType": "address",
          "name": "account",
          "type": "address"
        }
      ],
      "name": "renounceRole",
      "outputs": [],
      "stateMutability": "nonpayable",
      "type": "function"
    },
    {
      "inputs": [
        {
          "internalType": "bytes32",
          "name": "role",
          "type": "bytes32"
        },
        {
          "internalType": "address",
          "name": "account",
          "type": "address"
        }
      ],
      "name": "revokeRole",
      "outputs": [],
      "stateMutability": "nonpayable",
      "type": "function"
    },
    {
      "inputs": [
        {
          "internalType": "bytes4",
          "name": "interfaceId",
          "type": "bytes4"
        }
      ],
      "name": "supportsInterface",
      "outputs": [
        {
          "internalType": "bool",
          "name": "",
          "type": "bool"
        }
      ],
      "stateMutability": "view",
      "type": "function"
    }
  ],
  "bytecode": "0x60806040523480156200001157600080fd5b50620000447fa49807205ce4d355092ef5a8a18f56e8913cf4a201fbe287825b095693c21775336200004a60201b60201c565b620002e0565b6200005c82826200006060201b60201c565b5050565b620000778282620000a860201b620005031760201c565b620000a381600160008581526020019081526020016000206200019960201b620005e31790919060201c565b505050565b620000ba8282620001d160201b60201c565b6200019557600160008084815260200190815260200160002060000160008373ffffffffffffffffffffffffffffffffffffffff1673ffffffffffffffffffffffffffffffffffffffff16815260200190815260200160002060006101000a81548160ff0219169083151502179055506200013a6200023b60201b60201c565b73ffffffffffffffffffffffffffffffffffffffff168173ffffffffffffffffffffffffffffffffffffffff16837f2f8788117e7eff1d82e926ec794901d17c78024a50270940304540a733656f0d60405160405180910390a45b5050565b6000620001c9836000018373ffffffffffffffffffffffffffffffffffffffff1660001b6200024360201b60201c565b905092915050565b600080600084815260200190815260200160002060000160008373ffffffffffffffffffffffffffffffffffffffff1673ffffffffffffffffffffffffffffffffffffffff16815260200190815260200160002060009054906101000a900460ff16905092915050565b600033905090565b6000620002578383620002bd60201b60201c565b620002b2578260000182908060018154018082558091505060019003906000526020600020016000909190919091505582600001805490508360010160008481526020019081526020016000208190555060019050620002b7565b600090505b92915050565b600080836001016000848152602001908152602001600020541415905092915050565b6114c480620002f06000396000f3fe608060405234801561001057600080fd5b50600436106100b45760003560e01c80639010d07c116100715780639010d07c1461018d57806391d14854146101bd578063926a694d146101ed578063a217fddf1461020b578063ca15c87314610229578063d547741f14610259576100b4565b806301ffc9a7146100b957806313119161146100e9578063248a9ca3146101075780632f2ff15d1461013757806336568abe1461015357806375b238fc1461016f575b600080fd5b6100d360048036038101906100ce9190610de9565b610275565b6040516100e09190610e31565b60405180910390f35b6100f16102ef565b6040516100fe9190610e65565b60405180910390f35b610121600480360381019061011c9190610eac565b610313565b60405161012e9190610e65565b60405180910390f35b610151600480360381019061014c9190610f37565b610332565b005b61016d60048036038101906101689190610f37565b610353565b005b6101776103d6565b6040516101849190610e65565b60405180910390f35b6101a760048036038101906101a29190610fad565b6103fa565b6040516101b49190610ffc565b60405180910390f35b6101d760048036038101906101d29190610f37565b610429565b6040516101e49190610e31565b60405180910390f35b6101f5610493565b6040516102029190610e65565b60405180910390f35b6102136104b7565b6040516102209190610e65565b60405180910390f35b610243600480360381019061023e9190610eac565b6104be565b6040516102509190611026565b60405180910390f35b610273600480360381019061026e9190610f37565b6104e2565b005b60007f5a05180f000000000000000000000000000000000000000000000000000000007bffffffffffffffffffffffffffffffffffffffffffffffffffffffff1916827bffffffffffffffffffffffffffffffffffffffffffffffffffffffff191614806102e857506102e782610613565b5b9050919050565b7f14823911f2da1b49f045a0929a60b8c1f2a7fc8c06c7284ca3e8ab4e193a08c881565b6000806000838152602001908152602001600020600101549050919050565b61033b82610313565b6103448161068d565b61034e83836106a1565b505050565b61035b6106d5565b73ffffffffffffffffffffffffffffffffffffffff168173ffffffffffffffffffffffffffffffffffffffff16146103c8576040517f08c379a00000000000000000000000000000000000000000000000000000000081526004016103bf906110c4565b60405180910390fd5b6103d282826106dd565b5050565b7fa49807205ce4d355092ef5a8a18f56e8913cf4a201fbe287825b095693c2177581565b6000610421826001600086815260200190815260200160002061071190919063ffffffff16565b905092915050565b600080600084815260200190815260200160002060000160008373ffffffffffffffffffffffffffffffffffffffff1673ffffffffffffffffffffffffffffffffffffffff16815260200190815260200160002060009054906101000a900460ff16905092915050565b7fb66d507c1e3c1bc237b923feddf01f16873f6a23c218ec08d1c8983da3c5630981565b6000801b81565b60006104db6001600084815260200190815260200160002061072b565b9050919050565b6104eb82610313565b6104f48161068d565b6104fe83836106dd565b505050565b61050d8282610429565b6105df57600160008084815260200190815260200160002060000160008373ffffffffffffffffffffffffffffffffffffffff1673ffffffffffffffffffffffffffffffffffffffff16815260200190815260200160002060006101000a81548160ff0219169083151502179055506105846106d5565b73ffffffffffffffffffffffffffffffffffffffff168173ffffffffffffffffffffffffffffffffffffffff16837f2f8788117e7eff1d82e926ec794901d17c78024a50270940304540a733656f0d60405160405180910390a45b5050565b600061060b836000018373ffffffffffffffffffffffffffffffffffffffff1660001b610740565b905092915050565b60007f7965db0b000000000000000000000000000000000000000000000000000000007bffffffffffffffffffffffffffffffffffffffffffffffffffffffff1916827bffffffffffffffffffffffffffffffffffffffffffffffffffffffff191614806106865750610685826107b0565b5b9050919050565b61069e816106996106d5565b61081a565b50565b6106ab8282610503565b6106d081600160008581526020019081526020016000206105e390919063ffffffff16565b505050565b600033905090565b6106e7828261089f565b61070c816001600085815260200190815260200160002061098090919063ffffffff16565b505050565b600061072083600001836109b0565b60001c905092915050565b6000610739826000016109db565b9050919050565b600061074c83836109ec565b6107a55782600001829080600181540180825580915050600190039060005260206000200160009091909190915055826000018054905083600101600084815260200190815260200160002081905550600190506107aa565b600090505b92915050565b60007f01ffc9a7000000000000000000000000000000000000000000000000000000007bffffffffffffffffffffffffffffffffffffffffffffffffffffffff1916827bffffffffffffffffffffffffffffffffffffffffffffffffffffffff1916149050919050565b6108248282610429565b61089b5761083181610a0f565b61083f8360001c6020610a3c565b6040516020016108509291906111ed565b6040516020818303038152906040526040517f08c379a00000000000000000000000000000000000000000000000000000000081526004016108929190611271565b60405180910390fd5b5050565b6108a98282610429565b1561097c57600080600084815260200190815260200160002060000160008373ffffffffffffffffffffffffffffffffffffffff1673ffffffffffffffffffffffffffffffffffffffff16815260200190815260200160002060006101000a81548160ff0219169083151502179055506109216106d5565b73ffffffffffffffffffffffffffffffffffffffff168173ffffffffffffffffffffffffffffffffffffffff16837ff6391f5c32d9c69d2a47ea670b442974b53935d1edc7fd64eb21e047a839171b60405160405180910390a45b5050565b60006109a8836000018373ffffffffffffffffffffffffffffffffffffffff1660001b610c78565b905092915050565b60008260000182815481106109c8576109c7611293565b5b9060005260206000200154905092915050565b600081600001805490509050919050565b600080836001016000848152602001908152602001600020541415905092915050565b6060610a358273ffffffffffffffffffffffffffffffffffffffff16601460ff16610a3c565b9050919050565b606060006002836002610a4f91906112f1565b610a599190611333565b67ffffffffffffffff811115610a7257610a71611367565b5b6040519080825280601f01601f191660200182016040528015610aa45781602001600182028036833780820191505090505b5090507f300000000000000000000000000000000000000000000000000000000000000081600081518110610adc57610adb611293565b5b60200101907effffffffffffffffffffffffffffffffffffffffffffffffffffffffffffff1916908160001a9053507f780000000000000000000000000000000000000000000000000000000000000081600181518110610b4057610b3f611293565b5b60200101907effffffffffffffffffffffffffffffffffffffffffffffffffffffffffffff1916908160001a90535060006001846002610b8091906112f1565b610b8a9190611333565b90505b6001811115610c2a577f3031323334353637383961626364656600000000000000000000000000000000600f861660108110610bcc57610bcb611293565b5b1a60f81b828281518110610be357610be2611293565b5b60200101907effffffffffffffffffffffffffffffffffffffffffffffffffffffffffffff1916908160001a905350600485901c945080610c2390611396565b9050610b8d565b5060008414610c6e576040517f08c379a0000000000000000000000000000000000000000000000000000000008152600401610c659061140b565b60405180910390fd5b8091505092915050565b60008083600101600084815260200190815260200160002054905060008114610d80576000600182610caa919061142b565b9050600060018660000180549050610cc2919061142b565b9050818114610d31576000866000018281548110610ce357610ce2611293565b5b9060005260206000200154905080876000018481548110610d0757610d06611293565b5b90600052602060002001819055508387600101600083815260200190815260200160002081905550505b85600001805480610d4557610d4461145f565b5b600190038181906000526020600020016000905590558560010160008681526020019081526020016000206000905560019350505050610d86565b60009150505b92915050565b600080fd5b60007fffffffff0000000000000000000000000000000000000000000000000000000082169050919050565b610dc681610d91565b8114610dd157600080fd5b50565b600081359050610de381610dbd565b92915050565b600060208284031215610dff57610dfe610d8c565b5b6000610e0d84828501610dd4565b91505092915050565b60008115159050919050565b610e2b81610e16565b82525050565b6000602082019050610e466000830184610e22565b92915050565b6000819050919050565b610e5f81610e4c565b82525050565b6000602082019050610e7a6000830184610e56565b92915050565b610e8981610e4c565b8114610e9457600080fd5b50565b600081359050610ea681610e80565b92915050565b600060208284031215610ec257610ec1610d8c565b5b6000610ed084828501610e97565b91505092915050565b600073ffffffffffffffffffffffffffffffffffffffff82169050919050565b6000610f0482610ed9565b9050919050565b610f1481610ef9565b8114610f1f57600080fd5b50565b600081359050610f3181610f0b565b92915050565b60008060408385031215610f4e57610f4d610d8c565b5b6000610f5c85828601610e97565b9250506020610f6d85828601610f22565b9150509250929050565b6000819050919050565b610f8a81610f77565b8114610f9557600080fd5b50565b600081359050610fa781610f81565b92915050565b60008060408385031215610fc457610fc3610d8c565b5b6000610fd285828601610e97565b9250506020610fe385828601610f98565b9150509250929050565b610ff681610ef9565b82525050565b60006020820190506110116000830184610fed565b92915050565b61102081610f77565b82525050565b600060208201905061103b6000830184611017565b92915050565b600082825260208201905092915050565b7f416363657373436f6e74726f6c3a2063616e206f6e6c792072656e6f756e636560008201527f20726f6c657320666f722073656c660000000000000000000000000000000000602082015250565b60006110ae602f83611041565b91506110b982611052565b604082019050919050565b600060208201905081810360008301526110dd816110a1565b9050919050565b600081905092915050565b7f416363657373436f6e74726f6c3a206163636f756e7420000000000000000000600082015250565b60006111256017836110e4565b9150611130826110ef565b601782019050919050565b600081519050919050565b60005b83811015611164578082015181840152602081019050611149565b60008484015250505050565b600061117b8261113b565b61118581856110e4565b9350611195818560208601611146565b80840191505092915050565b7f206973206d697373696e6720726f6c6520000000000000000000000000000000600082015250565b60006111d76011836110e4565b91506111e2826111a1565b601182019050919050565b60006111f882611118565b91506112048285611170565b915061120f826111ca565b915061121b8284611170565b91508190509392505050565b6000601f19601f8301169050919050565b60006112438261113b565b61124d8185611041565b935061125d818560208601611146565b61126681611227565b840191505092915050565b6000602082019050818103600083015261128b8184611238565b905092915050565b7f4e487b7100000000000000000000000000000000000000000000000000000000600052603260045260246000fd5b7f4e487b7100000000000000000000000000000000000000000000000000000000600052601160045260246000fd5b60006112fc82610f77565b915061130783610f77565b925082820261131581610f77565b9150828204841483151761132c5761132b6112c2565b5b5092915050565b600061133e82610f77565b915061134983610f77565b9250828201905080821115611361576113606112c2565b5b92915050565b7f4e487b7100000000000000000000000000000000000000000000000000000000600052604160045260246000fd5b60006113a182610f77565b9150600082036113b4576113b36112c2565b5b600182039050919050565b7f537472696e67733a20686578206c656e67746820696e73756666696369656e74600082015250565b60006113f5602083611041565b9150611400826113bf565b602082019050919050565b60006020820190508181036000830152611424816113e8565b9050919050565b600061143682610f77565b915061144183610f77565b9250828203905081811115611459576114586112c2565b5b92915050565b7f4e487b7100000000000000000000000000000000000000000000000000000000600052603160045260246000fdfea2646970667358221220984124a0fd43ef51ab522af5f771205f49d19aaa1d4dc4f67ebedce7303a4ddc64736f6c63430008110033",
  "immutableReferences": {},
  "source": "// SPDX-License-Identifier: MIT\r\npragma solidity ^0.8.17;\r\n\r\nimport \"@openzeppelin/contracts/access/AccessControlEnumerable.sol\";\r\n\r\n\r\ncontract Roles is AccessControlEnumerable{\r\n\r\n    bytes32 public constant ADMIN_ROLE  = keccak256(\"ADMIN_ROLE\");\r\n    bytes32 public constant USER_ROLE   = keccak256(\"USER_ROLE\");\r\n    bytes32 public constant VENDOR_ROLE = keccak256(\"VENDOR_ROLE\");\r\n\r\n\r\n    constructor() {\r\n        _setupRole(ADMIN_ROLE, msg.sender);\r\n    }\r\n\r\n\r\n    modifier onlyAdmin() {\r\n        require(hasRole(ADMIN_ROLE, msg.sender));\r\n        _;\r\n    }\r\n    \r\n    modifier onlyUser() {\r\n        require(hasRole(USER_ROLE, msg.sender));\r\n        _;\r\n    }\r\n    \r\n    modifier onlyVendor() {\r\n        require(hasRole(VENDOR_ROLE, msg.sender));\r\n        _;\r\n    }\r\n}",
  "sourcePath": "C:\\Users\\user\\Downloads\\UWI-Wire-Smart-Contract\\contracts\\roles\\Roles.sol",
  "compiler": {
    "name": "solc",
    "version": "0.8.17+commit.8df45f5f.Emscripten.clang"
  },
  "schemaVersion": "3.4.11",
  "updatedAt": "2023-04-19T03:14:34.811Z",
  "devdoc": {
    "kind": "dev",
    "methods": {
      "getRoleAdmin(bytes32)": {
        "details": "Returns the admin role that controls `role`. See {grantRole} and {revokeRole}. To change a role's admin, use {_setRoleAdmin}."
      },
      "getRoleMember(bytes32,uint256)": {
        "details": "Returns one of the accounts that have `role`. `index` must be a value between 0 and {getRoleMemberCount}, non-inclusive. Role bearers are not sorted in any particular way, and their ordering may change at any point. WARNING: When using {getRoleMember} and {getRoleMemberCount}, make sure you perform all queries on the same block. See the following https://forum.openzeppelin.com/t/iterating-over-elements-on-enumerableset-in-openzeppelin-contracts/2296[forum post] for more information."
      },
      "getRoleMemberCount(bytes32)": {
        "details": "Returns the number of accounts that have `role`. Can be used together with {getRoleMember} to enumerate all bearers of a role."
      },
      "grantRole(bytes32,address)": {
        "details": "Grants `role` to `account`. If `account` had not been already granted `role`, emits a {RoleGranted} event. Requirements: - the caller must have ``role``'s admin role. May emit a {RoleGranted} event."
      },
      "hasRole(bytes32,address)": {
        "details": "Returns `true` if `account` has been granted `role`."
      },
      "renounceRole(bytes32,address)": {
        "details": "Revokes `role` from the calling account. Roles are often managed via {grantRole} and {revokeRole}: this function's purpose is to provide a mechanism for accounts to lose their privileges if they are compromised (such as when a trusted device is misplaced). If the calling account had been revoked `role`, emits a {RoleRevoked} event. Requirements: - the caller must be `account`. May emit a {RoleRevoked} event."
      },
      "revokeRole(bytes32,address)": {
        "details": "Revokes `role` from `account`. If `account` had been granted `role`, emits a {RoleRevoked} event. Requirements: - the caller must have ``role``'s admin role. May emit a {RoleRevoked} event."
      },
      "supportsInterface(bytes4)": {
        "details": "See {IERC165-supportsInterface}."
      }
    },
    "version": 1
  },
  "userdoc": {
    "kind": "user",
    "methods": {},
    "version": 1
  }
}