{
  "contractName": "TokenWallet",
  "abi": [
    {
      "inputs": [
        {
          "internalType": "address",
          "name": "transactionsAddress",
          "type": "address"
        }
      ],
      "stateMutability": "nonpayable",
      "type": "constructor"
    },
    {
      "anonymous": false,
      "inputs": [
        {
          "indexed": true,
          "internalType": "address",
          "name": "previousOwner",
          "type": "address"
        },
        {
          "indexed": true,
          "internalType": "address",
          "name": "newOwner",
          "type": "address"
        }
      ],
      "name": "OwnershipTransferred",
      "type": "event"
    },
    {
      "anonymous": false,
      "inputs": [
        {
          "indexed": false,
          "internalType": "address",
          "name": "account",
          "type": "address"
        }
      ],
      "name": "Paused",
      "type": "event"
    },
    {
      "anonymous": false,
      "inputs": [
        {
          "indexed": true,
          "internalType": "address",
          "name": "from",
          "type": "address"
        },
        {
          "indexed": false,
          "internalType": "uint256",
          "name": "value",
          "type": "uint256"
        }
      ],
      "name": "Received",
      "type": "event"
    },
    {
      "anonymous": false,
      "inputs": [
        {
          "indexed": true,
          "internalType": "address",
          "name": "to",
          "type": "address"
        },
        {
          "indexed": false,
          "internalType": "uint256",
          "name": "value",
          "type": "uint256"
        }
      ],
      "name": "Sent",
      "type": "event"
    },
    {
      "anonymous": false,
      "inputs": [
        {
          "indexed": false,
          "internalType": "address",
          "name": "account",
          "type": "address"
        }
      ],
      "name": "Unpaused",
      "type": "event"
    },
    {
      "anonymous": false,
      "inputs": [
        {
          "indexed": false,
          "internalType": "uint256",
          "name": "value",
          "type": "uint256"
        }
      ],
      "name": "Withdrawan",
      "type": "event"
    },
    {
      "inputs": [],
      "name": "owner",
      "outputs": [
        {
          "internalType": "address",
          "name": "",
          "type": "address"
        }
      ],
      "stateMutability": "view",
      "type": "function"
    },
    {
      "inputs": [],
      "name": "paused",
      "outputs": [
        {
          "internalType": "bool",
          "name": "",
          "type": "bool"
        }
      ],
      "stateMutability": "view",
      "type": "function"
    },
    {
      "inputs": [],
      "name": "renounceOwnership",
      "outputs": [],
      "stateMutability": "nonpayable",
      "type": "function"
    },
    {
      "inputs": [
        {
          "internalType": "address",
          "name": "newOwner",
          "type": "address"
        }
      ],
      "name": "transferOwnership",
      "outputs": [],
      "stateMutability": "nonpayable",
      "type": "function"
    },
    {
      "inputs": [
        {
          "internalType": "uint256",
          "name": "value",
          "type": "uint256"
        }
      ],
      "name": "deposit",
      "outputs": [],
      "stateMutability": "nonpayable",
      "type": "function"
    },
    {
      "inputs": [
        {
          "internalType": "address",
          "name": "to",
          "type": "address"
        },
        {
          "internalType": "uint256",
          "name": "value",
          "type": "uint256"
        }
      ],
      "name": "send",
      "outputs": [],
      "stateMutability": "nonpayable",
      "type": "function"
    },
    {
      "inputs": [
        {
          "internalType": "uint256",
          "name": "value",
          "type": "uint256"
        }
      ],
      "name": "withdraw",
      "outputs": [],
      "stateMutability": "nonpayable",
      "type": "function"
    },
    {
      "inputs": [],
      "name": "balanceOf",
      "outputs": [
        {
          "internalType": "uint256",
          "name": "",
          "type": "uint256"
        }
      ],
      "stateMutability": "view",
      "type": "function"
    },
    {
      "inputs": [],
      "name": "getTokenAddress",
      "outputs": [
        {
          "internalType": "address",
          "name": "",
          "type": "address"
        }
      ],
      "stateMutability": "view",
      "type": "function"
    },
    {
      "inputs": [],
      "name": "pause",
      "outputs": [],
      "stateMutability": "nonpayable",
      "type": "function"
    },
    {
      "inputs": [],
      "name": "unpause",
      "outputs": [],
      "stateMutability": "nonpayable",
      "type": "function"
    }
  ],
  "bytecode": "0x60806040523480156200001157600080fd5b5060405162000fe038038062000fe08339818101604052810190620000379190620001ef565b620000576200004b620000b960201b60201c565b620000c160201b60201c565b60008060146101000a81548160ff02191690831515021790555080600160006101000a81548173ffffffffffffffffffffffffffffffffffffffff021916908373ffffffffffffffffffffffffffffffffffffffff1602179055505062000221565b600033905090565b60008060009054906101000a900473ffffffffffffffffffffffffffffffffffffffff169050816000806101000a81548173ffffffffffffffffffffffffffffffffffffffff021916908373ffffffffffffffffffffffffffffffffffffffff1602179055508173ffffffffffffffffffffffffffffffffffffffff168173ffffffffffffffffffffffffffffffffffffffff167f8be0079c531659141344cd1fd0a4f28419497f9722a3daafe3b4186f6b6457e060405160405180910390a35050565b600080fd5b600073ffffffffffffffffffffffffffffffffffffffff82169050919050565b6000620001b7826200018a565b9050919050565b620001c981620001aa565b8114620001d557600080fd5b50565b600081519050620001e981620001be565b92915050565b60006020828403121562000208576200020762000185565b5b60006200021884828501620001d8565b91505092915050565b610daf80620002316000396000f3fe608060405234801561001057600080fd5b50600436106100a95760003560e01c8063722713f711610071578063722713f71461011a5780638456cb59146101385780638da5cb5b14610142578063b6b55f2514610160578063d0679d341461017c578063f2fde38b14610198576100a9565b806310fe9ae8146100ae5780632e1a7d4d146100cc5780633f4ba83a146100e85780635c975abb146100f2578063715018a614610110575b600080fd5b6100b66101b4565b6040516100c39190610969565b60405180910390f35b6100e660048036038101906100e191906109bf565b61024c565b005b6100f0610325565b005b6100fa610337565b6040516101079190610a07565b60405180910390f35b61011861034d565b005b610122610361565b60405161012f9190610a31565b60405180910390f35b6101406103f9565b005b61014a61040b565b6040516101579190610969565b60405180910390f35b61017a600480360381019061017591906109bf565b610434565b005b61019660048036038101906101919190610a78565b61051a565b005b6101b260048036038101906101ad9190610ab8565b610603565b005b6000600160009054906101000a900473ffffffffffffffffffffffffffffffffffffffff1673ffffffffffffffffffffffffffffffffffffffff166310fe9ae86040518163ffffffff1660e01b8152600401602060405180830381865afa158015610223573d6000803e3d6000fd5b505050506040513d601f19601f820116820180604052508101906102479190610afa565b905090565b610254610686565b61025c6106d0565b600160009054906101000a900473ffffffffffffffffffffffffffffffffffffffff1673ffffffffffffffffffffffffffffffffffffffff166305ab421d33836040518363ffffffff1660e01b81526004016102b9929190610b27565b600060405180830381600087803b1580156102d357600080fd5b505af11580156102e7573d6000803e3d6000fd5b505050507f62088b9d12742f94036e419a50a8861b89dea8d3cf2686e7b419fd0dd0c681bc8160405161031a9190610a31565b60405180910390a150565b61032d6106d0565b61033561074e565b565b60008060149054906101000a900460ff16905090565b6103556106d0565b61035f60006107b0565b565b6000600160009054906101000a900473ffffffffffffffffffffffffffffffffffffffff1673ffffffffffffffffffffffffffffffffffffffff1663722713f76040518163ffffffff1660e01b8152600401602060405180830381865afa1580156103d0573d6000803e3d6000fd5b505050506040513d601f19601f820116820180604052508101906103f49190610b65565b905090565b6104016106d0565b610409610874565b565b60008060009054906101000a900473ffffffffffffffffffffffffffffffffffffffff16905090565b61043c610686565b600160009054906101000a900473ffffffffffffffffffffffffffffffffffffffff1673ffffffffffffffffffffffffffffffffffffffff1663743e0c9b826040518263ffffffff1660e01b81526004016104979190610a31565b600060405180830381600087803b1580156104b157600080fd5b505af11580156104c5573d6000803e3d6000fd5b505050503373ffffffffffffffffffffffffffffffffffffffff167f88a5966d370b9919b20f3e2c13ff65706f196a4e32cc2c12bf57088f885258748260405161050f9190610a31565b60405180910390a250565b6105226106d0565b600160009054906101000a900473ffffffffffffffffffffffffffffffffffffffff1673ffffffffffffffffffffffffffffffffffffffff166305ab421d83836040518363ffffffff1660e01b815260040161057f929190610b27565b600060405180830381600087803b15801561059957600080fd5b505af11580156105ad573d6000803e3d6000fd5b505050508173ffffffffffffffffffffffffffffffffffffffff167f510ffb4dcab972ae9d2007a58e13f1b0881776d23cd8f5cc32f8c5be2dbf70d2826040516105f79190610a31565b60405180910390a25050565b61060b6106d0565b600073ffffffffffffffffffffffffffffffffffffffff168173ffffffffffffffffffffffffffffffffffffffff160361067a576040517f08c379a000000000000000000000000000000000000000000000000000000000815260040161067190610c15565b60405180910390fd5b610683816107b0565b50565b61068e610337565b156106ce576040517f08c379a00000000000000000000000000000000000000000000000000000000081526004016106c590610c81565b60405180910390fd5b565b6106d86108d7565b73ffffffffffffffffffffffffffffffffffffffff166106f661040b565b73ffffffffffffffffffffffffffffffffffffffff161461074c576040517f08c379a000000000000000000000000000000000000000000000000000000000815260040161074390610ced565b60405180910390fd5b565b6107566108df565b60008060146101000a81548160ff0219169083151502179055507f5db9ee0a495bf2e6ff9c91a7834c1ba4fdd244a5e8aa4e537bd38aeae4b073aa6107996108d7565b6040516107a69190610969565b60405180910390a1565b60008060009054906101000a900473ffffffffffffffffffffffffffffffffffffffff169050816000806101000a81548173ffffffffffffffffffffffffffffffffffffffff021916908373ffffffffffffffffffffffffffffffffffffffff1602179055508173ffffffffffffffffffffffffffffffffffffffff168173ffffffffffffffffffffffffffffffffffffffff167f8be0079c531659141344cd1fd0a4f28419497f9722a3daafe3b4186f6b6457e060405160405180910390a35050565b61087c610686565b6001600060146101000a81548160ff0219169083151502179055507f62e78cea01bee320cd4e420270b5ea74000d11b0c9f74754ebdbfc544b05a2586108c06108d7565b6040516108cd9190610969565b60405180910390a1565b600033905090565b6108e7610337565b610926576040517f08c379a000000000000000000000000000000000000000000000000000000000815260040161091d90610d59565b60405180910390fd5b565b600073ffffffffffffffffffffffffffffffffffffffff82169050919050565b600061095382610928565b9050919050565b61096381610948565b82525050565b600060208201905061097e600083018461095a565b92915050565b600080fd5b6000819050919050565b61099c81610989565b81146109a757600080fd5b50565b6000813590506109b981610993565b92915050565b6000602082840312156109d5576109d4610984565b5b60006109e3848285016109aa565b91505092915050565b60008115159050919050565b610a01816109ec565b82525050565b6000602082019050610a1c60008301846109f8565b92915050565b610a2b81610989565b82525050565b6000602082019050610a466000830184610a22565b92915050565b610a5581610948565b8114610a6057600080fd5b50565b600081359050610a7281610a4c565b92915050565b60008060408385031215610a8f57610a8e610984565b5b6000610a9d85828601610a63565b9250506020610aae858286016109aa565b9150509250929050565b600060208284031215610ace57610acd610984565b5b6000610adc84828501610a63565b91505092915050565b600081519050610af481610a4c565b92915050565b600060208284031215610b1057610b0f610984565b5b6000610b1e84828501610ae5565b91505092915050565b6000604082019050610b3c600083018561095a565b610b496020830184610a22565b9392505050565b600081519050610b5f81610993565b92915050565b600060208284031215610b7b57610b7a610984565b5b6000610b8984828501610b50565b91505092915050565b600082825260208201905092915050565b7f4f776e61626c653a206e6577206f776e657220697320746865207a65726f206160008201527f6464726573730000000000000000000000000000000000000000000000000000602082015250565b6000610bff602683610b92565b9150610c0a82610ba3565b604082019050919050565b60006020820190508181036000830152610c2e81610bf2565b9050919050565b7f5061757361626c653a2070617573656400000000000000000000000000000000600082015250565b6000610c6b601083610b92565b9150610c7682610c35565b602082019050919050565b60006020820190508181036000830152610c9a81610c5e565b9050919050565b7f4f776e61626c653a2063616c6c6572206973206e6f7420746865206f776e6572600082015250565b6000610cd7602083610b92565b9150610ce282610ca1565b602082019050919050565b60006020820190508181036000830152610d0681610cca565b9050919050565b7f5061757361626c653a206e6f7420706175736564000000000000000000000000600082015250565b6000610d43601483610b92565b9150610d4e82610d0d565b602082019050919050565b60006020820190508181036000830152610d7281610d36565b905091905056fea2646970667358221220ae6d3a483a6d2c3c327931c6160b85bc48fb3f3b957effe5aac4ecd0a257ab1664736f6c63430008110033",
  "immutableReferences": {},
  "source": "// SPDX-License-Identifier: MIT\r\npragma solidity ^0.8.9;\r\n\r\nimport \"@openzeppelin/contracts/token/ERC20/IERC20.sol\";\r\nimport \"@openzeppelin/contracts/security/Pausable.sol\";\r\nimport \"@openzeppelin/contracts/access/Ownable.sol\";\r\n\r\nimport \"./Transactions.sol\";\r\n\r\ncontract TokenWallet is Ownable, Pausable{\r\n\r\n    Transactions private _transactions;\r\n\r\n    event Received(address indexed from, uint256 value);\r\n    event Sent(address indexed to, uint256 value);\r\n    event Withdrawan(uint256 value);\r\n\r\n    constructor(address transactionsAddress) {\r\n        _transactions = Transactions(transactionsAddress);\r\n    }\r\n\r\n    // Receive Tokens\r\n    function deposit(uint256 value) external whenNotPaused{\r\n        _transactions.receiveTokens(value);\r\n        emit Received(msg.sender, value);\r\n    }\r\n\r\n    // Send Tokens\r\n    function send(address to, uint256 value) external onlyOwner{\r\n        _transactions.sendTokens(to, value);\r\n        emit Sent(to, value);\r\n    }\r\n\r\n    // Withdraw Tokens\r\n    function withdraw(uint256 value) external whenNotPaused onlyOwner{\r\n        _transactions.sendTokens(msg.sender, value);\r\n        emit Withdrawan(value);\r\n    }\r\n\r\n    function balanceOf() external view returns (uint256){\r\n        return _transactions.balanceOf();\r\n    }\r\n\r\n    function getTokenAddress() external view returns (address){\r\n        return _transactions.getTokenAddress();\r\n    }\r\n\r\n    function pause() external onlyOwner{\r\n        _pause();\r\n    }\r\n\r\n    function unpause() external onlyOwner{\r\n        _unpause();\r\n    }\r\n}",
  "sourcePath": "C:\\Users\\user\\Downloads\\UWI-Wire-Smart-Contract\\contracts\\PeliWallet.sol",
  "compiler": {
    "name": "solc",
    "version": "0.8.17+commit.8df45f5f.Emscripten.clang"
  },
  "schemaVersion": "3.4.11",
  "updatedAt": "2023-02-26T18:05:23.671Z",
  "devdoc": {
    "kind": "dev",
    "methods": {
      "owner()": {
        "details": "Returns the address of the current owner."
      },
      "paused()": {
        "details": "Returns true if the contract is paused, and false otherwise."
      },
      "renounceOwnership()": {
        "details": "Leaves the contract without owner. It will not be possible to call `onlyOwner` functions anymore. Can only be called by the current owner. NOTE: Renouncing ownership will leave the contract without an owner, thereby removing any functionality that is only available to the owner."
      },
      "transferOwnership(address)": {
        "details": "Transfers ownership of the contract to a new account (`newOwner`). Can only be called by the current owner."
      }
    },
    "version": 1
  },
  "userdoc": {
    "kind": "user",
    "methods": {},
    "version": 1
  }
}