{
  "contractName": "Transactions",
  "abi": [
    {
      "inputs": [
        {
          "internalType": "address",
          "name": "pelicoinAddress",
          "type": "address"
        }
      ],
      "stateMutability": "nonpayable",
      "type": "constructor"
    },
    {
      "anonymous": false,
      "inputs": [
        {
          "indexed": true,
          "internalType": "address",
          "name": "previousOwner",
          "type": "address"
        },
        {
          "indexed": true,
          "internalType": "address",
          "name": "newOwner",
          "type": "address"
        }
      ],
      "name": "OwnershipTransferred",
      "type": "event"
    },
    {
      "inputs": [],
      "name": "owner",
      "outputs": [
        {
          "internalType": "address",
          "name": "",
          "type": "address"
        }
      ],
      "stateMutability": "view",
      "type": "function"
    },
    {
      "inputs": [],
      "name": "renounceOwnership",
      "outputs": [],
      "stateMutability": "nonpayable",
      "type": "function"
    },
    {
      "inputs": [
        {
          "internalType": "uint256",
          "name": "",
          "type": "uint256"
        }
      ],
      "name": "transactionHistory",
      "outputs": [
        {
          "internalType": "address",
          "name": "from",
          "type": "address"
        },
        {
          "internalType": "address",
          "name": "to",
          "type": "address"
        },
        {
          "internalType": "uint256",
          "name": "amount",
          "type": "uint256"
        },
        {
          "internalType": "uint256",
          "name": "timestamp",
          "type": "uint256"
        }
      ],
      "stateMutability": "view",
      "type": "function"
    },
    {
      "inputs": [
        {
          "internalType": "address",
          "name": "newOwner",
          "type": "address"
        }
      ],
      "name": "transferOwnership",
      "outputs": [],
      "stateMutability": "nonpayable",
      "type": "function"
    },
    {
      "inputs": [
        {
          "internalType": "uint256",
          "name": "amount",
          "type": "uint256"
        }
      ],
      "name": "receiveTokens",
      "outputs": [],
      "stateMutability": "nonpayable",
      "type": "function"
    },
    {
      "inputs": [
        {
          "internalType": "address",
          "name": "to",
          "type": "address"
        },
        {
          "internalType": "uint256",
          "name": "amount",
          "type": "uint256"
        }
      ],
      "name": "sendTokens",
      "outputs": [],
      "stateMutability": "nonpayable",
      "type": "function"
    },
    {
      "inputs": [
        {
          "internalType": "uint256",
          "name": "amount",
          "type": "uint256"
        }
      ],
      "name": "withdrawTokens",
      "outputs": [],
      "stateMutability": "nonpayable",
      "type": "function"
    },
    {
      "inputs": [],
      "name": "balanceOf",
      "outputs": [
        {
          "internalType": "uint256",
          "name": "",
          "type": "uint256"
        }
      ],
      "stateMutability": "view",
      "type": "function"
    },
    {
      "inputs": [],
      "name": "getTokenAddress",
      "outputs": [
        {
          "internalType": "address",
          "name": "",
          "type": "address"
        }
      ],
      "stateMutability": "view",
      "type": "function"
    },
    {
      "inputs": [],
      "name": "getTransactionHistoryLength",
      "outputs": [
        {
          "internalType": "uint256",
          "name": "",
          "type": "uint256"
        }
      ],
      "stateMutability": "view",
      "type": "function"
    },
    {
      "inputs": [
        {
          "internalType": "uint256",
          "name": "index",
          "type": "uint256"
        }
      ],
      "name": "getTransaction",
      "outputs": [
        {
          "components": [
            {
              "internalType": "address",
              "name": "from",
              "type": "address"
            },
            {
              "internalType": "address",
              "name": "to",
              "type": "address"
            },
            {
              "internalType": "uint256",
              "name": "amount",
              "type": "uint256"
            },
            {
              "internalType": "uint256",
              "name": "timestamp",
              "type": "uint256"
            }
          ],
          "internalType": "struct Transactions.Transaction",
          "name": "",
          "type": "tuple"
        }
      ],
      "stateMutability": "view",
      "type": "function"
    }
  ],
  "bytecode": "0x60806040523480156200001157600080fd5b5060405162001786380380620017868339818101604052810190620000379190620001dc565b620000576200004b620000a660201b60201c565b620000ae60201b60201c565b6001808190555080600360006101000a81548173ffffffffffffffffffffffffffffffffffffffff021916908373ffffffffffffffffffffffffffffffffffffffff160217905550506200020e565b600033905090565b60008060009054906101000a900473ffffffffffffffffffffffffffffffffffffffff169050816000806101000a81548173ffffffffffffffffffffffffffffffffffffffff021916908373ffffffffffffffffffffffffffffffffffffffff1602179055508173ffffffffffffffffffffffffffffffffffffffff168173ffffffffffffffffffffffffffffffffffffffff167f8be0079c531659141344cd1fd0a4f28419497f9722a3daafe3b4186f6b6457e060405160405180910390a35050565b600080fd5b600073ffffffffffffffffffffffffffffffffffffffff82169050919050565b6000620001a48262000177565b9050919050565b620001b68162000197565b8114620001c257600080fd5b50565b600081519050620001d681620001ab565b92915050565b600060208284031215620001f557620001f462000172565b5b60006200020584828501620001c5565b91505092915050565b611568806200021e6000396000f3fe608060405234801561001057600080fd5b50600436106100a95760003560e01c8063715018a611610071578063715018a614610167578063722713f714610171578063743e0c9b1461018f5780638da5cb5b146101ab5780639f71c3c9146101c9578063f2fde38b146101e7576100a9565b806305ab421d146100ae57806310fe9ae8146100ca578063243e7a87146100e8578063315a095d1461011b57806333ea3dc814610137575b600080fd5b6100c860048036038101906100c39190610f10565b610203565b005b6100d261044b565b6040516100df9190610f5f565b60405180910390f35b61010260048036038101906100fd9190610f7a565b610475565b6040516101129493929190610fb6565b60405180910390f35b61013560048036038101906101309190610f7a565b6104f5565b005b610151600480360381019061014c9190610f7a565b6107b9565b60405161015e919061106e565b60405180910390f35b61016f6108fc565b005b610179610910565b6040516101869190611089565b60405180910390f35b6101a960048036038101906101a49190610f7a565b6109b3565b005b6101b3610bc8565b6040516101c09190610f5f565b60405180910390f35b6101d1610bf1565b6040516101de9190611089565b60405180910390f35b61020160048036038101906101fc91906110a4565b610bfe565b005b61020b610c81565b610213610cff565b600073ffffffffffffffffffffffffffffffffffffffff168273ffffffffffffffffffffffffffffffffffffffff1603610282576040517f08c379a00000000000000000000000000000000000000000000000000000000081526004016102799061112e565b60405180910390fd5b600360009054906101000a900473ffffffffffffffffffffffffffffffffffffffff1673ffffffffffffffffffffffffffffffffffffffff1663a9059cbb83836040518363ffffffff1660e01b81526004016102df92919061114e565b6020604051808303816000875af11580156102fe573d6000803e3d6000fd5b505050506040513d601f19601f8201168201806040525081019061032291906111af565b50600260405180608001604052803073ffffffffffffffffffffffffffffffffffffffff1681526020018473ffffffffffffffffffffffffffffffffffffffff16815260200183815260200142815250908060018154018082558091505060019003906000526020600020906004020160009091909190915060008201518160000160006101000a81548173ffffffffffffffffffffffffffffffffffffffff021916908373ffffffffffffffffffffffffffffffffffffffff16021790555060208201518160010160006101000a81548173ffffffffffffffffffffffffffffffffffffffff021916908373ffffffffffffffffffffffffffffffffffffffff16021790555060408201518160020155606082015181600301555050610447610d4e565b5050565b6000600360009054906101000a900473ffffffffffffffffffffffffffffffffffffffff16905090565b6002818154811061048557600080fd5b90600052602060002090600402016000915090508060000160009054906101000a900473ffffffffffffffffffffffffffffffffffffffff16908060010160009054906101000a900473ffffffffffffffffffffffffffffffffffffffff16908060020154908060030154905084565b6104fd610c81565b610505610cff565b600360009054906101000a900473ffffffffffffffffffffffffffffffffffffffff1673ffffffffffffffffffffffffffffffffffffffff166370a08231306040518263ffffffff1660e01b81526004016105609190610f5f565b602060405180830381865afa15801561057d573d6000803e3d6000fd5b505050506040513d601f19601f820116820180604052508101906105a191906111f1565b8111156105e3576040517f08c379a00000000000000000000000000000000000000000000000000000000081526004016105da9061126a565b60405180910390fd5b600360009054906101000a900473ffffffffffffffffffffffffffffffffffffffff1673ffffffffffffffffffffffffffffffffffffffff1663a9059cbb610629610bc8565b836040518363ffffffff1660e01b815260040161064792919061114e565b6020604051808303816000875af1158015610666573d6000803e3d6000fd5b505050506040513d601f19601f8201168201806040525081019061068a91906111af565b50600260405180608001604052803073ffffffffffffffffffffffffffffffffffffffff1681526020016106bc610bc8565b73ffffffffffffffffffffffffffffffffffffffff16815260200183815260200142815250908060018154018082558091505060019003906000526020600020906004020160009091909190915060008201518160000160006101000a81548173ffffffffffffffffffffffffffffffffffffffff021916908373ffffffffffffffffffffffffffffffffffffffff16021790555060208201518160010160006101000a81548173ffffffffffffffffffffffffffffffffffffffff021916908373ffffffffffffffffffffffffffffffffffffffff160217905550604082015181600201556060820151816003015550506107b6610d4e565b50565b6107c1610e23565b6002805490508210610808576040517f08c379a00000000000000000000000000000000000000000000000000000000081526004016107ff906112d6565b60405180910390fd5b6002828154811061081c5761081b6112f6565b5b90600052602060002090600402016040518060800160405290816000820160009054906101000a900473ffffffffffffffffffffffffffffffffffffffff1673ffffffffffffffffffffffffffffffffffffffff1673ffffffffffffffffffffffffffffffffffffffff1681526020016001820160009054906101000a900473ffffffffffffffffffffffffffffffffffffffff1673ffffffffffffffffffffffffffffffffffffffff1673ffffffffffffffffffffffffffffffffffffffff168152602001600282015481526020016003820154815250509050919050565b610904610c81565b61090e6000610d57565b565b6000600360009054906101000a900473ffffffffffffffffffffffffffffffffffffffff1673ffffffffffffffffffffffffffffffffffffffff166370a08231306040518263ffffffff1660e01b815260040161096d9190610f5f565b602060405180830381865afa15801561098a573d6000803e3d6000fd5b505050506040513d601f19601f820116820180604052508101906109ae91906111f1565b905090565b6109bb610cff565b600081116109fe576040517f08c379a00000000000000000000000000000000000000000000000000000000081526004016109f590611371565b60405180910390fd5b600360009054906101000a900473ffffffffffffffffffffffffffffffffffffffff1673ffffffffffffffffffffffffffffffffffffffff166323b872dd3330846040518463ffffffff1660e01b8152600401610a5d93929190611391565b6020604051808303816000875af1158015610a7c573d6000803e3d6000fd5b505050506040513d601f19601f82011682018060405250810190610aa091906111af565b50600260405180608001604052803373ffffffffffffffffffffffffffffffffffffffff1681526020013073ffffffffffffffffffffffffffffffffffffffff16815260200183815260200142815250908060018154018082558091505060019003906000526020600020906004020160009091909190915060008201518160000160006101000a81548173ffffffffffffffffffffffffffffffffffffffff021916908373ffffffffffffffffffffffffffffffffffffffff16021790555060208201518160010160006101000a81548173ffffffffffffffffffffffffffffffffffffffff021916908373ffffffffffffffffffffffffffffffffffffffff16021790555060408201518160020155606082015181600301555050610bc5610d4e565b50565b60008060009054906101000a900473ffffffffffffffffffffffffffffffffffffffff16905090565b6000600280549050905090565b610c06610c81565b600073ffffffffffffffffffffffffffffffffffffffff168173ffffffffffffffffffffffffffffffffffffffff1603610c75576040517f08c379a0000000000000000000000000000000000000000000000000000000008152600401610c6c9061143a565b60405180910390fd5b610c7e81610d57565b50565b610c89610e1b565b73ffffffffffffffffffffffffffffffffffffffff16610ca7610bc8565b73ffffffffffffffffffffffffffffffffffffffff1614610cfd576040517f08c379a0000000000000000000000000000000000000000000000000000000008152600401610cf4906114a6565b60405180910390fd5b565b600260015403610d44576040517f08c379a0000000000000000000000000000000000000000000000000000000008152600401610d3b90611512565b60405180910390fd5b6002600181905550565b60018081905550565b60008060009054906101000a900473ffffffffffffffffffffffffffffffffffffffff169050816000806101000a81548173ffffffffffffffffffffffffffffffffffffffff021916908373ffffffffffffffffffffffffffffffffffffffff1602179055508173ffffffffffffffffffffffffffffffffffffffff168173ffffffffffffffffffffffffffffffffffffffff167f8be0079c531659141344cd1fd0a4f28419497f9722a3daafe3b4186f6b6457e060405160405180910390a35050565b600033905090565b6040518060800160405280600073ffffffffffffffffffffffffffffffffffffffff168152602001600073ffffffffffffffffffffffffffffffffffffffff16815260200160008152602001600081525090565b600080fd5b600073ffffffffffffffffffffffffffffffffffffffff82169050919050565b6000610ea782610e7c565b9050919050565b610eb781610e9c565b8114610ec257600080fd5b50565b600081359050610ed481610eae565b92915050565b6000819050919050565b610eed81610eda565b8114610ef857600080fd5b50565b600081359050610f0a81610ee4565b92915050565b60008060408385031215610f2757610f26610e77565b5b6000610f3585828601610ec5565b9250506020610f4685828601610efb565b9150509250929050565b610f5981610e9c565b82525050565b6000602082019050610f746000830184610f50565b92915050565b600060208284031215610f9057610f8f610e77565b5b6000610f9e84828501610efb565b91505092915050565b610fb081610eda565b82525050565b6000608082019050610fcb6000830187610f50565b610fd86020830186610f50565b610fe56040830185610fa7565b610ff26060830184610fa7565b95945050505050565b61100481610e9c565b82525050565b61101381610eda565b82525050565b60808201600082015161102f6000850182610ffb565b5060208201516110426020850182610ffb565b506040820151611055604085018261100a565b506060820151611068606085018261100a565b50505050565b60006080820190506110836000830184611019565b92915050565b600060208201905061109e6000830184610fa7565b92915050565b6000602082840312156110ba576110b9610e77565b5b60006110c884828501610ec5565b91505092915050565b600082825260208201905092915050565b7f496e76616c696420726563697069656e74206164647265737300000000000000600082015250565b60006111186019836110d1565b9150611123826110e2565b602082019050919050565b600060208201905081810360008301526111478161110b565b9050919050565b60006040820190506111636000830185610f50565b6111706020830184610fa7565b9392505050565b60008115159050919050565b61118c81611177565b811461119757600080fd5b50565b6000815190506111a981611183565b92915050565b6000602082840312156111c5576111c4610e77565b5b60006111d38482850161119a565b91505092915050565b6000815190506111eb81610ee4565b92915050565b60006020828403121561120757611206610e77565b5b6000611215848285016111dc565b91505092915050565b7f496e73756666696369656e742062616c616e6365000000000000000000000000600082015250565b60006112546014836110d1565b915061125f8261121e565b602082019050919050565b6000602082019050818103600083015261128381611247565b9050919050565b7f496e76616c6964207472616e73616374696f6e20696e64657800000000000000600082015250565b60006112c06019836110d1565b91506112cb8261128a565b602082019050919050565b600060208201905081810360008301526112ef816112b3565b9050919050565b7f4e487b7100000000000000000000000000000000000000000000000000000000600052603260045260246000fd5b7f416d6f756e74206d7573742062652067726561746572207468616e207a65726f600082015250565b600061135b6020836110d1565b915061136682611325565b602082019050919050565b6000602082019050818103600083015261138a8161134e565b9050919050565b60006060820190506113a66000830186610f50565b6113b36020830185610f50565b6113c06040830184610fa7565b949350505050565b7f4f776e61626c653a206e6577206f776e657220697320746865207a65726f206160008201527f6464726573730000000000000000000000000000000000000000000000000000602082015250565b60006114246026836110d1565b915061142f826113c8565b604082019050919050565b6000602082019050818103600083015261145381611417565b9050919050565b7f4f776e61626c653a2063616c6c6572206973206e6f7420746865206f776e6572600082015250565b60006114906020836110d1565b915061149b8261145a565b602082019050919050565b600060208201905081810360008301526114bf81611483565b9050919050565b7f5265656e7472616e637947756172643a207265656e7472616e742063616c6c00600082015250565b60006114fc601f836110d1565b9150611507826114c6565b602082019050919050565b6000602082019050818103600083015261152b816114ef565b905091905056fea2646970667358221220d526d0f439b6ef030de8bc97d3fa0830eed3e3a79d15c37b7998e22d639068f964736f6c63430008110033",
  "immutableReferences": {},
  "source": "// SPDX-License-Identifier: MIT\r\npragma solidity ^0.8.9;\r\n\r\n\r\nimport \"@openzeppelin/contracts/security/ReentrancyGuard.sol\";\r\nimport \"@openzeppelin/contracts/token/ERC20/IERC20.sol\";\r\nimport \"@openzeppelin/contracts/access/Ownable.sol\";\r\nimport \"@openzeppelin/contracts/utils/Address.sol\";\r\n\r\nimport \"./Transactions.sol\";\r\n\r\ncontract Transactions is Ownable, ReentrancyGuard {\r\n    \r\n    using Address for address;\r\n\r\n\r\n    struct Transaction {\r\n        address from;\r\n        address to;\r\n        uint256 amount;\r\n        uint256 timestamp;\r\n    }\r\n\r\n\r\n    Transaction[] public transactionHistory;    //Transaction History\r\n    IERC20 private pelicoin;\r\n\r\n\r\n    constructor(address pelicoinAddress){\r\n        pelicoin = IERC20(pelicoinAddress);\r\n    }\r\n\r\n\r\n    function receiveTokens(uint256 amount) external nonReentrant {\r\n\r\n        require(amount > 0, \"Amount must be greater than zero\");\r\n        pelicoin.transferFrom(msg.sender, address(this), amount);\r\n\r\n        transactionHistory.push(Transaction(msg.sender, address(this), amount, block.timestamp));\r\n    }\r\n\r\n\r\n    function sendTokens(address to, uint256 amount) external onlyOwner nonReentrant {\r\n\r\n        require(to != address(0), \"Invalid recipient address\");\r\n        pelicoin.transfer(to, amount);\r\n\r\n        transactionHistory.push(Transaction(address(this), to, amount, block.timestamp));\r\n    }\r\n\r\n\r\n   function withdrawTokens(uint256 amount) external onlyOwner nonReentrant {\r\n\r\n        require(amount <= pelicoin.balanceOf(address(this)), \"Insufficient balance\");\r\n        pelicoin.transfer(owner(), amount);\r\n\r\n        transactionHistory.push(Transaction(address(this), owner(), amount, block.timestamp));\r\n    } \r\n\r\n\r\n    function balanceOf() external view returns (uint256){\r\n        return pelicoin.balanceOf(address(this));\r\n    }\r\n\r\n\r\n    function getTokenAddress() external view returns (address){\r\n        return address(pelicoin);\r\n    }\r\n\r\n\r\n    function getTransactionHistoryLength() external view returns (uint256){\r\n        return transactionHistory.length;\r\n    }\r\n\r\n\r\n    function getTransaction(uint256 index) external view returns (Transaction memory){\r\n        require(index < transactionHistory.length, \"Invalid transaction index\");\r\n        return transactionHistory[index];\r\n    }\r\n}",
  "sourcePath": "C:\\Users\\user\\Downloads\\UWI-Wire-Smart-Contract\\contracts\\Transactions.sol",
  "compiler": {
    "name": "solc",
    "version": "0.8.17+commit.8df45f5f.Emscripten.clang"
  },
  "schemaVersion": "3.4.11",
  "updatedAt": "2023-02-26T18:05:23.705Z",
  "devdoc": {
    "kind": "dev",
    "methods": {
      "owner()": {
        "details": "Returns the address of the current owner."
      },
      "renounceOwnership()": {
        "details": "Leaves the contract without owner. It will not be possible to call `onlyOwner` functions anymore. Can only be called by the current owner. NOTE: Renouncing ownership will leave the contract without an owner, thereby removing any functionality that is only available to the owner."
      },
      "transferOwnership(address)": {
        "details": "Transfers ownership of the contract to a new account (`newOwner`). Can only be called by the current owner."
      }
    },
    "version": 1
  },
  "userdoc": {
    "kind": "user",
    "methods": {},
    "version": 1
  }
}