{
  "contractName": "Transactions",
  "abi": [
    {
      "anonymous": false,
      "inputs": [
        {
          "indexed": true,
          "internalType": "address",
          "name": "previousOwner",
          "type": "address"
        },
        {
          "indexed": true,
          "internalType": "address",
          "name": "newOwner",
          "type": "address"
        }
      ],
      "name": "OwnershipTransferred",
      "type": "event"
    },
    {
      "anonymous": false,
      "inputs": [
        {
          "indexed": false,
          "internalType": "address",
          "name": "account",
          "type": "address"
        }
      ],
      "name": "Paused",
      "type": "event"
    },
    {
      "anonymous": false,
      "inputs": [
        {
          "indexed": false,
          "internalType": "address",
          "name": "account",
          "type": "address"
        }
      ],
      "name": "Unpaused",
      "type": "event"
    },
    {
      "inputs": [],
      "name": "owner",
      "outputs": [
        {
          "internalType": "address",
          "name": "",
          "type": "address"
        }
      ],
      "stateMutability": "view",
      "type": "function"
    },
    {
      "inputs": [],
      "name": "paused",
      "outputs": [
        {
          "internalType": "bool",
          "name": "",
          "type": "bool"
        }
      ],
      "stateMutability": "view",
      "type": "function"
    },
    {
      "inputs": [],
      "name": "renounceOwnership",
      "outputs": [],
      "stateMutability": "nonpayable",
      "type": "function"
    },
    {
      "inputs": [
        {
          "internalType": "address",
          "name": "newOwner",
          "type": "address"
        }
      ],
      "name": "transferOwnership",
      "outputs": [],
      "stateMutability": "nonpayable",
      "type": "function"
    },
    {
      "inputs": [
        {
          "internalType": "address",
          "name": "from",
          "type": "address"
        },
        {
          "internalType": "address",
          "name": "to",
          "type": "address"
        },
        {
          "internalType": "uint256",
          "name": "amount",
          "type": "uint256"
        }
      ],
      "name": "createTransaction",
      "outputs": [],
      "stateMutability": "nonpayable",
      "type": "function"
    },
    {
      "inputs": [],
      "name": "getTransactionHistoryLength",
      "outputs": [
        {
          "internalType": "uint256",
          "name": "",
          "type": "uint256"
        }
      ],
      "stateMutability": "view",
      "type": "function"
    },
    {
      "inputs": [],
      "name": "getTransactionHistory",
      "outputs": [
        {
          "components": [
            {
              "internalType": "address",
              "name": "from",
              "type": "address"
            },
            {
              "internalType": "address",
              "name": "to",
              "type": "address"
            },
            {
              "internalType": "uint256",
              "name": "amount",
              "type": "uint256"
            },
            {
              "internalType": "uint256",
              "name": "timestamp",
              "type": "uint256"
            }
          ],
          "internalType": "struct Transactions.Transaction[]",
          "name": "",
          "type": "tuple[]"
        }
      ],
      "stateMutability": "view",
      "type": "function"
    },
    {
      "inputs": [
        {
          "internalType": "uint256",
          "name": "index",
          "type": "uint256"
        }
      ],
      "name": "getTransaction",
      "outputs": [
        {
          "components": [
            {
              "internalType": "address",
              "name": "from",
              "type": "address"
            },
            {
              "internalType": "address",
              "name": "to",
              "type": "address"
            },
            {
              "internalType": "uint256",
              "name": "amount",
              "type": "uint256"
            },
            {
              "internalType": "uint256",
              "name": "timestamp",
              "type": "uint256"
            }
          ],
          "internalType": "struct Transactions.Transaction",
          "name": "",
          "type": "tuple"
        }
      ],
      "stateMutability": "view",
      "type": "function"
    },
    {
      "inputs": [],
      "name": "pause",
      "outputs": [],
      "stateMutability": "nonpayable",
      "type": "function"
    },
    {
      "inputs": [],
      "name": "unpause",
      "outputs": [],
      "stateMutability": "nonpayable",
      "type": "function"
    }
  ],
  "bytecode": "0x608060405234801561001057600080fd5b5061002d61002261004c60201b60201c565b61005460201b60201c565b60008060146101000a81548160ff021916908315150217905550610118565b600033905090565b60008060009054906101000a900473ffffffffffffffffffffffffffffffffffffffff169050816000806101000a81548173ffffffffffffffffffffffffffffffffffffffff021916908373ffffffffffffffffffffffffffffffffffffffff1602179055508173ffffffffffffffffffffffffffffffffffffffff168173ffffffffffffffffffffffffffffffffffffffff167f8be0079c531659141344cd1fd0a4f28419497f9722a3daafe3b4186f6b6457e060405160405180910390a35050565b61137b806101276000396000f3fe608060405234801561001057600080fd5b506004361061009e5760003560e01c80638456cb59116100665780638456cb59146101215780638da5cb5b1461012b5780639f71c3c914610149578063b76d4fc314610167578063f2fde38b146101855761009e565b80630b826afa146100a357806333ea3dc8146100bf5780633f4ba83a146100ef5780635c975abb146100f9578063715018a614610117575b600080fd5b6100bd60048036038101906100b89190610c22565b6101a1565b005b6100d960048036038101906100d49190610c75565b610436565b6040516100e69190610d15565b60405180910390f35b6100f76105f3565b005b610101610605565b60405161010e9190610d4b565b60405180910390f35b61011f61061b565b005b61012961062f565b005b610133610641565b6040516101409190610d75565b60405180910390f35b61015161066a565b60405161015e9190610d9f565b60405180910390f35b61016f6106b4565b60405161017c9190610ebe565b60405180910390f35b61019f600480360381019061019a9190610ee0565b610810565b005b6101a9610893565b6101b16108dd565b600073ffffffffffffffffffffffffffffffffffffffff168373ffffffffffffffffffffffffffffffffffffffff1603610220576040517f08c379a000000000000000000000000000000000000000000000000000000000815260040161021790610f90565b60405180910390fd5b600073ffffffffffffffffffffffffffffffffffffffff168273ffffffffffffffffffffffffffffffffffffffff160361028f576040517f08c379a000000000000000000000000000000000000000000000000000000000815260040161028690611022565b60405180910390fd5b600081116102d2576040517f08c379a00000000000000000000000000000000000000000000000000000000081526004016102c9906110b4565b60405180910390fd5b600060405180608001604052808573ffffffffffffffffffffffffffffffffffffffff1681526020018473ffffffffffffffffffffffffffffffffffffffff168152602001838152602001428152509050600160003373ffffffffffffffffffffffffffffffffffffffff1673ffffffffffffffffffffffffffffffffffffffff16815260200190815260200160002081908060018154018082558091505060019003906000526020600020906004020160009091909190915060008201518160000160006101000a81548173ffffffffffffffffffffffffffffffffffffffff021916908373ffffffffffffffffffffffffffffffffffffffff16021790555060208201518160010160006101000a81548173ffffffffffffffffffffffffffffffffffffffff021916908373ffffffffffffffffffffffffffffffffffffffff1602179055506040820151816002015560608201518160030155505050505050565b61043e610b35565b600160003373ffffffffffffffffffffffffffffffffffffffff1673ffffffffffffffffffffffffffffffffffffffff1681526020019081526020016000208054905082106104c2576040517f08c379a00000000000000000000000000000000000000000000000000000000081526004016104b990611120565b60405180910390fd5b600160003373ffffffffffffffffffffffffffffffffffffffff1673ffffffffffffffffffffffffffffffffffffffff168152602001908152602001600020828154811061051357610512611140565b5b90600052602060002090600402016040518060800160405290816000820160009054906101000a900473ffffffffffffffffffffffffffffffffffffffff1673ffffffffffffffffffffffffffffffffffffffff1673ffffffffffffffffffffffffffffffffffffffff1681526020016001820160009054906101000a900473ffffffffffffffffffffffffffffffffffffffff1673ffffffffffffffffffffffffffffffffffffffff1673ffffffffffffffffffffffffffffffffffffffff168152602001600282015481526020016003820154815250509050919050565b6105fb6108dd565b61060361095b565b565b60008060149054906101000a900460ff16905090565b6106236108dd565b61062d60006109bd565b565b6106376108dd565b61063f610a81565b565b60008060009054906101000a900473ffffffffffffffffffffffffffffffffffffffff16905090565b6000600160003373ffffffffffffffffffffffffffffffffffffffff1673ffffffffffffffffffffffffffffffffffffffff16815260200190815260200160002080549050905090565b6060600160003373ffffffffffffffffffffffffffffffffffffffff1673ffffffffffffffffffffffffffffffffffffffff168152602001908152602001600020805480602002602001604051908101604052809291908181526020016000905b8282101561080757838290600052602060002090600402016040518060800160405290816000820160009054906101000a900473ffffffffffffffffffffffffffffffffffffffff1673ffffffffffffffffffffffffffffffffffffffff1673ffffffffffffffffffffffffffffffffffffffff1681526020016001820160009054906101000a900473ffffffffffffffffffffffffffffffffffffffff1673ffffffffffffffffffffffffffffffffffffffff1673ffffffffffffffffffffffffffffffffffffffff1681526020016002820154815260200160038201548152505081526020019060010190610715565b50505050905090565b6108186108dd565b600073ffffffffffffffffffffffffffffffffffffffff168173ffffffffffffffffffffffffffffffffffffffff1603610887576040517f08c379a000000000000000000000000000000000000000000000000000000000815260040161087e906111e1565b60405180910390fd5b610890816109bd565b50565b61089b610605565b156108db576040517f08c379a00000000000000000000000000000000000000000000000000000000081526004016108d29061124d565b60405180910390fd5b565b6108e5610ae4565b73ffffffffffffffffffffffffffffffffffffffff16610903610641565b73ffffffffffffffffffffffffffffffffffffffff1614610959576040517f08c379a0000000000000000000000000000000000000000000000000000000008152600401610950906112b9565b60405180910390fd5b565b610963610aec565b60008060146101000a81548160ff0219169083151502179055507f5db9ee0a495bf2e6ff9c91a7834c1ba4fdd244a5e8aa4e537bd38aeae4b073aa6109a6610ae4565b6040516109b39190610d75565b60405180910390a1565b60008060009054906101000a900473ffffffffffffffffffffffffffffffffffffffff169050816000806101000a81548173ffffffffffffffffffffffffffffffffffffffff021916908373ffffffffffffffffffffffffffffffffffffffff1602179055508173ffffffffffffffffffffffffffffffffffffffff168173ffffffffffffffffffffffffffffffffffffffff167f8be0079c531659141344cd1fd0a4f28419497f9722a3daafe3b4186f6b6457e060405160405180910390a35050565b610a89610893565b6001600060146101000a81548160ff0219169083151502179055507f62e78cea01bee320cd4e420270b5ea74000d11b0c9f74754ebdbfc544b05a258610acd610ae4565b604051610ada9190610d75565b60405180910390a1565b600033905090565b610af4610605565b610b33576040517f08c379a0000000000000000000000000000000000000000000000000000000008152600401610b2a90611325565b60405180910390fd5b565b6040518060800160405280600073ffffffffffffffffffffffffffffffffffffffff168152602001600073ffffffffffffffffffffffffffffffffffffffff16815260200160008152602001600081525090565b600080fd5b600073ffffffffffffffffffffffffffffffffffffffff82169050919050565b6000610bb982610b8e565b9050919050565b610bc981610bae565b8114610bd457600080fd5b50565b600081359050610be681610bc0565b92915050565b6000819050919050565b610bff81610bec565b8114610c0a57600080fd5b50565b600081359050610c1c81610bf6565b92915050565b600080600060608486031215610c3b57610c3a610b89565b5b6000610c4986828701610bd7565b9350506020610c5a86828701610bd7565b9250506040610c6b86828701610c0d565b9150509250925092565b600060208284031215610c8b57610c8a610b89565b5b6000610c9984828501610c0d565b91505092915050565b610cab81610bae565b82525050565b610cba81610bec565b82525050565b608082016000820151610cd66000850182610ca2565b506020820151610ce96020850182610ca2565b506040820151610cfc6040850182610cb1565b506060820151610d0f6060850182610cb1565b50505050565b6000608082019050610d2a6000830184610cc0565b92915050565b60008115159050919050565b610d4581610d30565b82525050565b6000602082019050610d606000830184610d3c565b92915050565b610d6f81610bae565b82525050565b6000602082019050610d8a6000830184610d66565b92915050565b610d9981610bec565b82525050565b6000602082019050610db46000830184610d90565b92915050565b600081519050919050565b600082825260208201905092915050565b6000819050602082019050919050565b608082016000820151610dfc6000850182610ca2565b506020820151610e0f6020850182610ca2565b506040820151610e226040850182610cb1565b506060820151610e356060850182610cb1565b50505050565b6000610e478383610de6565b60808301905092915050565b6000602082019050919050565b6000610e6b82610dba565b610e758185610dc5565b9350610e8083610dd6565b8060005b83811015610eb1578151610e988882610e3b565b9750610ea383610e53565b925050600181019050610e84565b5085935050505092915050565b60006020820190508181036000830152610ed88184610e60565b905092915050565b600060208284031215610ef657610ef5610b89565b5b6000610f0484828501610bd7565b91505092915050565b600082825260208201905092915050565b7f5472616e73616374696f6e733a2073656e6465722063616e6e6f74206265207a60008201527f65726f2061646472657373000000000000000000000000000000000000000000602082015250565b6000610f7a602b83610f0d565b9150610f8582610f1e565b604082019050919050565b60006020820190508181036000830152610fa981610f6d565b9050919050565b7f5472616e73616374696f6e733a20726563697069656e742063616e6e6f74206260008201527f65207a65726f2061646472657373000000000000000000000000000000000000602082015250565b600061100c602e83610f0d565b915061101782610fb0565b604082019050919050565b6000602082019050818103600083015261103b81610fff565b9050919050565b7f5472616e73616374696f6e733a20616d6f756e74206d7573742062652067726560008201527f61746572207468616e207a65726f000000000000000000000000000000000000602082015250565b600061109e602e83610f0d565b91506110a982611042565b604082019050919050565b600060208201905081810360008301526110cd81611091565b9050919050565b7f5472616e73616374696f6e733a20696e64657820746f6f206869676800000000600082015250565b600061110a601c83610f0d565b9150611115826110d4565b602082019050919050565b60006020820190508181036000830152611139816110fd565b9050919050565b7f4e487b7100000000000000000000000000000000000000000000000000000000600052603260045260246000fd5b7f4f776e61626c653a206e6577206f776e657220697320746865207a65726f206160008201527f6464726573730000000000000000000000000000000000000000000000000000602082015250565b60006111cb602683610f0d565b91506111d68261116f565b604082019050919050565b600060208201905081810360008301526111fa816111be565b9050919050565b7f5061757361626c653a2070617573656400000000000000000000000000000000600082015250565b6000611237601083610f0d565b915061124282611201565b602082019050919050565b600060208201905081810360008301526112668161122a565b9050919050565b7f4f776e61626c653a2063616c6c6572206973206e6f7420746865206f776e6572600082015250565b60006112a3602083610f0d565b91506112ae8261126d565b602082019050919050565b600060208201905081810360008301526112d281611296565b9050919050565b7f5061757361626c653a206e6f7420706175736564000000000000000000000000600082015250565b600061130f601483610f0d565b915061131a826112d9565b602082019050919050565b6000602082019050818103600083015261133e81611302565b905091905056fea26469706673582212202c29b49eb1d71238b7ee59f0dba799c2ee2774979336ff665dac87d32310140864736f6c63430008110033",
  "immutableReferences": {},
  "source": "// SPDX-License-Identifier: MIT\r\npragma solidity ^0.8.17;\r\n\r\n\r\n// import \"@openzeppelin/contracts/token/ERC20/IERC20.sol\";\r\nimport \"@openzeppelin/contracts/utils/math/SafeMath.sol\";\r\nimport \"@openzeppelin/contracts/access/Ownable.sol\";\r\n\r\nimport \"@openzeppelin/contracts/security/Pausable.sol\";\r\n\r\ncontract Transactions is Ownable, Pausable{\r\n\r\n    using SafeMath for uint256;\r\n\r\n    struct Transaction {\r\n        address from;\r\n        address to;\r\n        uint256 amount;\r\n        uint256 timestamp;\r\n    }\r\n\r\n\r\n    mapping(address => Transaction[]) private transactionHistory;    // Transaction History\r\n\r\n\r\n    function createTransaction(address from, address to, uint256 amount) external whenNotPaused onlyOwner{\r\n        \r\n        require(from != address(0), \"Transactions: sender cannot be zero address\");\r\n        require(to   != address(0), \"Transactions: recipient cannot be zero address\");\r\n        require(amount > 0,         \"Transactions: amount must be greater than zero\");\r\n\r\n        Transaction memory transaction = Transaction(from, to, amount, block.timestamp);\r\n        transactionHistory[msg.sender].push(transaction);\r\n    }\r\n\r\n\r\n    // Amount of transactions in the transaction history\r\n    function getTransactionHistoryLength() external view returns (uint256){\r\n        return transactionHistory[msg.sender].length;\r\n    }\r\n\r\n    // Get transaction history\r\n    function getTransactionHistory() external view returns (Transaction[] memory){\r\n        return transactionHistory[msg.sender];\r\n    }\r\n\r\n    // Get transaction at index\r\n    function getTransaction(uint256 index) external view returns (Transaction memory){\r\n        \r\n        require(index < transactionHistory[msg.sender].length, \"Transactions: index too high\");\r\n\r\n        return transactionHistory[msg.sender][index];\r\n    }\r\n\r\n\r\n    function pause()   external onlyOwner { _pause(); }\r\n    function unpause() external onlyOwner { _unpause(); }\r\n}",
  "sourcePath": "C:\\Users\\user\\Downloads\\UWI-Wire-Smart-Contract\\contracts\\Transactions.sol",
  "compiler": {
    "name": "solc",
    "version": "0.8.17+commit.8df45f5f.Emscripten.clang"
  },
  "schemaVersion": "3.4.11",
  "updatedAt": "2023-04-19T03:14:34.793Z",
  "devdoc": {
    "kind": "dev",
    "methods": {
      "owner()": {
        "details": "Returns the address of the current owner."
      },
      "paused()": {
        "details": "Returns true if the contract is paused, and false otherwise."
      },
      "renounceOwnership()": {
        "details": "Leaves the contract without owner. It will not be possible to call `onlyOwner` functions anymore. Can only be called by the current owner. NOTE: Renouncing ownership will leave the contract without an owner, thereby removing any functionality that is only available to the owner."
      },
      "transferOwnership(address)": {
        "details": "Transfers ownership of the contract to a new account (`newOwner`). Can only be called by the current owner."
      }
    },
    "version": 1
  },
  "userdoc": {
    "kind": "user",
    "methods": {},
    "version": 1
  }
}